{
	"contracts/Vesting_final.sol": {
		"Vesting": {
			"abi": [
				{
					"inputs": [
						{
							"internalType": "uint256",
							"name": "_adminComm",
							"type": "uint256"
						},
						{
							"internalType": "uint256",
							"name": "_vestingEndDay",
							"type": "uint256"
						},
						{
							"internalType": "uint256",
							"name": "_claimEndDay",
							"type": "uint256"
						}
					],
					"stateMutability": "nonpayable",
					"type": "constructor"
				},
				{
					"inputs": [
						{
							"internalType": "address",
							"name": "account",
							"type": "address"
						}
					],
					"name": "OwnableUnauthorizedAccount",
					"type": "error"
				},
				{
					"anonymous": false,
					"inputs": [
						{
							"indexed": false,
							"internalType": "uint256",
							"name": "user",
							"type": "uint256"
						}
					],
					"name": "AdminChanged",
					"type": "event"
				},
				{
					"anonymous": false,
					"inputs": [
						{
							"indexed": true,
							"internalType": "address",
							"name": "previousOwner",
							"type": "address"
						},
						{
							"indexed": true,
							"internalType": "address",
							"name": "newOwner",
							"type": "address"
						}
					],
					"name": "OwnershipTransferStarted",
					"type": "event"
				},
				{
					"anonymous": false,
					"inputs": [
						{
							"indexed": true,
							"internalType": "address",
							"name": "previousOwner",
							"type": "address"
						},
						{
							"indexed": true,
							"internalType": "address",
							"name": "newOwner",
							"type": "address"
						}
					],
					"name": "OwnershipTransferred",
					"type": "event"
				},
				{
					"anonymous": false,
					"inputs": [
						{
							"indexed": false,
							"internalType": "uint256",
							"name": "vestingEndDay",
							"type": "uint256"
						},
						{
							"indexed": false,
							"internalType": "uint256",
							"name": "endDay",
							"type": "uint256"
						}
					],
					"name": "VestingDayChanged",
					"type": "event"
				},
				{
					"anonymous": false,
					"inputs": [
						{
							"indexed": false,
							"internalType": "uint256",
							"name": "amount",
							"type": "uint256"
						},
						{
							"indexed": false,
							"internalType": "uint256",
							"name": "timestamp",
							"type": "uint256"
						}
					],
					"name": "Withdraw",
					"type": "event"
				},
				{
					"inputs": [],
					"name": "acceptOwnership",
					"outputs": [],
					"stateMutability": "nonpayable",
					"type": "function"
				},
				{
					"inputs": [],
					"name": "adminComm",
					"outputs": [
						{
							"internalType": "uint256",
							"name": "",
							"type": "uint256"
						}
					],
					"stateMutability": "view",
					"type": "function"
				},
				{
					"inputs": [
						{
							"internalType": "address",
							"name": "userAddress",
							"type": "address"
						}
					],
					"name": "allocateForVesting",
					"outputs": [],
					"stateMutability": "payable",
					"type": "function"
				},
				{
					"inputs": [
						{
							"internalType": "address",
							"name": "",
							"type": "address"
						}
					],
					"name": "allocatedUser",
					"outputs": [
						{
							"internalType": "bool",
							"name": "",
							"type": "bool"
						}
					],
					"stateMutability": "view",
					"type": "function"
				},
				{
					"inputs": [],
					"name": "claimEndDay",
					"outputs": [
						{
							"internalType": "uint256",
							"name": "",
							"type": "uint256"
						}
					],
					"stateMutability": "view",
					"type": "function"
				},
				{
					"inputs": [
						{
							"internalType": "address",
							"name": "user",
							"type": "address"
						},
						{
							"internalType": "uint256",
							"name": "id",
							"type": "uint256"
						}
					],
					"name": "claimTokens",
					"outputs": [],
					"stateMutability": "nonpayable",
					"type": "function"
				},
				{
					"inputs": [
						{
							"internalType": "address",
							"name": "user",
							"type": "address"
						},
						{
							"internalType": "uint256",
							"name": "id",
							"type": "uint256"
						}
					],
					"name": "claimTotalTokens",
					"outputs": [],
					"stateMutability": "nonpayable",
					"type": "function"
				},
				{
					"inputs": [
						{
							"internalType": "uint256",
							"name": "_amount",
							"type": "uint256"
						}
					],
					"name": "drainTokens",
					"outputs": [],
					"stateMutability": "nonpayable",
					"type": "function"
				},
				{
					"inputs": [],
					"name": "endDay",
					"outputs": [
						{
							"internalType": "uint256",
							"name": "",
							"type": "uint256"
						}
					],
					"stateMutability": "view",
					"type": "function"
				},
				{
					"inputs": [
						{
							"internalType": "address",
							"name": "wallet",
							"type": "address"
						},
						{
							"internalType": "uint256",
							"name": "id",
							"type": "uint256"
						}
					],
					"name": "getUnlockedTokenAmount",
					"outputs": [
						{
							"internalType": "uint256",
							"name": "",
							"type": "uint256"
						},
						{
							"internalType": "uint256",
							"name": "",
							"type": "uint256"
						}
					],
					"stateMutability": "view",
					"type": "function"
				},
				{
					"inputs": [
						{
							"internalType": "address",
							"name": "userAddress",
							"type": "address"
						}
					],
					"name": "getUserTotalVesting",
					"outputs": [
						{
							"internalType": "uint256",
							"name": "",
							"type": "uint256"
						}
					],
					"stateMutability": "view",
					"type": "function"
				},
				{
					"inputs": [
						{
							"internalType": "address",
							"name": "userAddress",
							"type": "address"
						},
						{
							"internalType": "uint256",
							"name": "id",
							"type": "uint256"
						}
					],
					"name": "getVestingInfo",
					"outputs": [
						{
							"components": [
								{
									"internalType": "uint256",
									"name": "allocatedAmount",
									"type": "uint256"
								},
								{
									"internalType": "uint256",
									"name": "claimedAmount",
									"type": "uint256"
								},
								{
									"internalType": "uint256",
									"name": "nextClaimTimestamp",
									"type": "uint256"
								},
								{
									"internalType": "uint256",
									"name": "claimEndTimestamp",
									"type": "uint256"
								}
							],
							"internalType": "struct Vesting.VestingInfo",
							"name": "",
							"type": "tuple"
						}
					],
					"stateMutability": "view",
					"type": "function"
				},
				{
					"inputs": [],
					"name": "owner",
					"outputs": [
						{
							"internalType": "address",
							"name": "",
							"type": "address"
						}
					],
					"stateMutability": "view",
					"type": "function"
				},
				{
					"inputs": [],
					"name": "pendingOwner",
					"outputs": [
						{
							"internalType": "address",
							"name": "",
							"type": "address"
						}
					],
					"stateMutability": "view",
					"type": "function"
				},
				{
					"inputs": [],
					"name": "renounceOwnership",
					"outputs": [],
					"stateMutability": "nonpayable",
					"type": "function"
				},
				{
					"inputs": [
						{
							"internalType": "address",
							"name": "newOwner",
							"type": "address"
						}
					],
					"name": "transferOwnership",
					"outputs": [],
					"stateMutability": "nonpayable",
					"type": "function"
				},
				{
					"inputs": [
						{
							"internalType": "uint256",
							"name": "commission",
							"type": "uint256"
						}
					],
					"name": "updateAdminCommission",
					"outputs": [],
					"stateMutability": "nonpayable",
					"type": "function"
				},
				{
					"inputs": [
						{
							"internalType": "uint256",
							"name": "inputVestingEndDay",
							"type": "uint256"
						},
						{
							"internalType": "uint256",
							"name": "inputClaimEndDay",
							"type": "uint256"
						}
					],
					"name": "updateVestingDays",
					"outputs": [],
					"stateMutability": "nonpayable",
					"type": "function"
				},
				{
					"inputs": [
						{
							"internalType": "address",
							"name": "_user",
							"type": "address"
						},
						{
							"internalType": "uint256",
							"name": "index",
							"type": "uint256"
						},
						{
							"internalType": "uint256",
							"name": "_newVestingStartTimestamp",
							"type": "uint256"
						}
					],
					"name": "updateVestingStartTimestamp",
					"outputs": [],
					"stateMutability": "nonpayable",
					"type": "function"
				},
				{
					"inputs": [
						{
							"internalType": "address",
							"name": "",
							"type": "address"
						}
					],
					"name": "userInfo",
					"outputs": [
						{
							"internalType": "address",
							"name": "wallet",
							"type": "address"
						},
						{
							"internalType": "uint256",
							"name": "totalAllocatedAmount",
							"type": "uint256"
						},
						{
							"internalType": "uint256",
							"name": "totalClaimedAmount",
							"type": "uint256"
						}
					],
					"stateMutability": "view",
					"type": "function"
				},
				{
					"inputs": [],
					"name": "vestingEndDay",
					"outputs": [
						{
							"internalType": "uint256",
							"name": "",
							"type": "uint256"
						}
					],
					"stateMutability": "view",
					"type": "function"
				}
			],
			"devdoc": {
				"kind": "dev",
				"methods": {
					"acceptOwnership()": {
						"details": "The new owner accepts the ownership transfer."
					},
					"owner()": {
						"details": "Returns the address of the current owner."
					},
					"pendingOwner()": {
						"details": "Returns the address of the pending owner."
					},
					"renounceOwnership()": {
						"details": "Leaves the contract without owner. It will not be possible to call `onlyOwner` functions anymore. Can only be called by the current owner. NOTE: Renouncing ownership will leave the contract without an owner, thereby removing any functionality that is only available to the owner."
					},
					"transferOwnership(address)": {
						"details": "Starts the ownership transfer of the contract to a new account. Replaces the pending transfer if there is one. Can only be called by the current owner."
					}
				},
				"version": 1
			},
			"evm": {
				"assembly": "    /* \"contracts/Vesting_final.sol\":6840:16003  contract Vesting is Ownable2Step {... */\n  mstore(0x40, 0x80)\n    /* \"contracts/Vesting_final.sol\":7711:8134  constructor(... */\n  callvalue\n  dup1\n  iszero\n  tag_1\n  jumpi\n  0x00\n  dup1\n  revert\ntag_1:\n  pop\n  mload(0x40)\n  sub(codesize, bytecodeSize)\n  dup1\n  bytecodeSize\n  dup4\n  codecopy\n  dup2\n  dup2\n  add\n  0x40\n  mstore\n  dup2\n  add\n  swap1\n  tag_2\n  swap2\n  swap1\n  tag_3\n  jump\t// in\ntag_2:\n    /* \"contracts/Vesting_final.sol\":3903:3935  _transferOwnership(_msgSender()) */\n  tag_7\n    /* \"contracts/Vesting_final.sol\":3922:3934  _msgSender() */\n  tag_8\n    /* \"contracts/Vesting_final.sol\":3922:3932  _msgSender */\n  shl(0x20, tag_9)\n    /* \"contracts/Vesting_final.sol\":3922:3934  _msgSender() */\n  0x20\n  shr\n  jump\t// in\ntag_8:\n    /* \"contracts/Vesting_final.sol\":3903:3921  _transferOwnership */\n  shl(0x20, tag_10)\n    /* \"contracts/Vesting_final.sol\":3903:3935  _transferOwnership(_msgSender()) */\n  0x20\n  shr\n  jump\t// in\ntag_7:\n    /* \"contracts/Vesting_final.sol\":7902:7903  0 */\n  0x00\n    /* \"contracts/Vesting_final.sol\":7885:7899  _vestingEndDay */\n  dup3\n    /* \"contracts/Vesting_final.sol\":7885:7903  _vestingEndDay > 0 */\n  gt\n    /* \"contracts/Vesting_final.sol\":7885:7923  _vestingEndDay > 0 && _claimEndDay > 0 */\n  dup1\n  iszero\n  tag_12\n  jumpi\n  pop\n    /* \"contracts/Vesting_final.sol\":7922:7923  0 */\n  0x00\n    /* \"contracts/Vesting_final.sol\":7907:7919  _claimEndDay */\n  dup2\n    /* \"contracts/Vesting_final.sol\":7907:7923  _claimEndDay > 0 */\n  gt\n    /* \"contracts/Vesting_final.sol\":7885:7923  _vestingEndDay > 0 && _claimEndDay > 0 */\ntag_12:\n    /* \"contracts/Vesting_final.sol\":7864:7972  require(... */\n  tag_13\n  jumpi\n  mload(0x40)\n  0x08c379a000000000000000000000000000000000000000000000000000000000\n  dup2\n  mstore\n  0x04\n  add\n  tag_14\n  swap1\n  tag_15\n  jump\t// in\ntag_14:\n  mload(0x40)\n  dup1\n  swap2\n  sub\n  swap1\n  revert\ntag_13:\n    /* \"contracts/Vesting_final.sol\":7994:8004  _adminComm */\n  dup3\n    /* \"contracts/Vesting_final.sol\":7982:7991  adminComm */\n  0x02\n    /* \"contracts/Vesting_final.sol\":7982:8004  adminComm = _adminComm */\n  dup2\n  swap1\n  sstore\n  pop\n    /* \"contracts/Vesting_final.sol\":8047:8052  86400 */\n  0x015180\n    /* \"contracts/Vesting_final.sol\":8030:8044  _vestingEndDay */\n  dup3\n    /* \"contracts/Vesting_final.sol\":8030:8052  _vestingEndDay * 86400 */\n  tag_16\n  swap2\n  swap1\n  tag_17\n  jump\t// in\ntag_16:\n    /* \"contracts/Vesting_final.sol\":8014:8027  vestingEndDay */\n  0x04\n    /* \"contracts/Vesting_final.sol\":8014:8052  vestingEndDay = _vestingEndDay * 86400 */\n  dup2\n  swap1\n  sstore\n  pop\n    /* \"contracts/Vesting_final.sol\":8091:8096  86400 */\n  0x015180\n    /* \"contracts/Vesting_final.sol\":8076:8088  _claimEndDay */\n  dup2\n    /* \"contracts/Vesting_final.sol\":8076:8096  _claimEndDay * 86400 */\n  tag_18\n  swap2\n  swap1\n  tag_17\n  jump\t// in\ntag_18:\n    /* \"contracts/Vesting_final.sol\":8062:8073  claimEndDay */\n  0x03\n    /* \"contracts/Vesting_final.sol\":8062:8096  claimEndDay = _claimEndDay * 86400 */\n  dup2\n  swap1\n  sstore\n  pop\n    /* \"contracts/Vesting_final.sol\":8115:8127  _claimEndDay */\n  dup1\n    /* \"contracts/Vesting_final.sol\":8106:8112  endDay */\n  0x05\n    /* \"contracts/Vesting_final.sol\":8106:8127  endDay = _claimEndDay */\n  dup2\n  swap1\n  sstore\n  pop\n    /* \"contracts/Vesting_final.sol\":7711:8134  constructor(... */\n  pop\n  pop\n  pop\n    /* \"contracts/Vesting_final.sol\":6840:16003  contract Vesting is Ownable2Step {... */\n  jump(tag_19)\n    /* \"contracts/Vesting_final.sol\":2834:2930  function _msgSender() internal view virtual returns (address) {... */\ntag_9:\n    /* \"contracts/Vesting_final.sol\":2887:2894  address */\n  0x00\n    /* \"contracts/Vesting_final.sol\":2913:2923  msg.sender */\n  caller\n    /* \"contracts/Vesting_final.sol\":2906:2923  return msg.sender */\n  swap1\n  pop\n    /* \"contracts/Vesting_final.sol\":2834:2930  function _msgSender() internal view virtual returns (address) {... */\n  swap1\n  jump\t// out\n    /* \"contracts/Vesting_final.sol\":6374:6527  function _transferOwnership(address newOwner) internal virtual override {... */\ntag_10:\n    /* \"contracts/Vesting_final.sol\":6463:6476  _pendingOwner */\n  0x01\n  0x00\n    /* \"contracts/Vesting_final.sol\":6456:6476  delete _pendingOwner */\n  0x0100\n  exp\n  dup2\n  sload\n  swap1\n  0xffffffffffffffffffffffffffffffffffffffff\n  mul\n  not\n  and\n  swap1\n  sstore\n    /* \"contracts/Vesting_final.sol\":6486:6520  super._transferOwnership(newOwner) */\n  tag_22\n    /* \"contracts/Vesting_final.sol\":6511:6519  newOwner */\n  dup2\n    /* \"contracts/Vesting_final.sol\":6486:6510  super._transferOwnership */\n  shl(0x20, tag_23)\n    /* \"contracts/Vesting_final.sol\":6486:6520  super._transferOwnership(newOwner) */\n  0x20\n  shr\n  jump\t// in\ntag_22:\n    /* \"contracts/Vesting_final.sol\":6374:6527  function _transferOwnership(address newOwner) internal virtual override {... */\n  pop\n  jump\t// out\n    /* \"contracts/Vesting_final.sol\":5281:5468  function _transferOwnership(address newOwner) internal virtual {... */\ntag_23:\n    /* \"contracts/Vesting_final.sol\":5354:5370  address oldOwner */\n  0x00\n    /* \"contracts/Vesting_final.sol\":5373:5379  _owner */\n  dup1\n  0x00\n  swap1\n  sload\n  swap1\n  0x0100\n  exp\n  swap1\n  div\n  0xffffffffffffffffffffffffffffffffffffffff\n  and\n    /* \"contracts/Vesting_final.sol\":5354:5379  address oldOwner = _owner */\n  swap1\n  pop\n    /* \"contracts/Vesting_final.sol\":5398:5406  newOwner */\n  dup2\n    /* \"contracts/Vesting_final.sol\":5389:5395  _owner */\n  0x00\n  dup1\n    /* \"contracts/Vesting_final.sol\":5389:5406  _owner = newOwner */\n  0x0100\n  exp\n  dup2\n  sload\n  dup2\n  0xffffffffffffffffffffffffffffffffffffffff\n  mul\n  not\n  and\n  swap1\n  dup4\n  0xffffffffffffffffffffffffffffffffffffffff\n  and\n  mul\n  or\n  swap1\n  sstore\n  pop\n    /* \"contracts/Vesting_final.sol\":5452:5460  newOwner */\n  dup2\n    /* \"contracts/Vesting_final.sol\":5421:5461  OwnershipTransferred(oldOwner, newOwner) */\n  0xffffffffffffffffffffffffffffffffffffffff\n  and\n    /* \"contracts/Vesting_final.sol\":5442:5450  oldOwner */\n  dup2\n    /* \"contracts/Vesting_final.sol\":5421:5461  OwnershipTransferred(oldOwner, newOwner) */\n  0xffffffffffffffffffffffffffffffffffffffff\n  and\n  0x8be0079c531659141344cd1fd0a4f28419497f9722a3daafe3b4186f6b6457e0\n  mload(0x40)\n  mload(0x40)\n  dup1\n  swap2\n  sub\n  swap1\n  log3\n    /* \"contracts/Vesting_final.sol\":5344:5468  {... */\n  pop\n    /* \"contracts/Vesting_final.sol\":5281:5468  function _transferOwnership(address newOwner) internal virtual {... */\n  pop\n  jump\t// out\n    /* \"#utility.yul\":88:205   */\ntag_26:\n    /* \"#utility.yul\":197:198   */\n  0x00\n    /* \"#utility.yul\":194:195   */\n  dup1\n    /* \"#utility.yul\":187:199   */\n  revert\n    /* \"#utility.yul\":334:411   */\ntag_28:\n    /* \"#utility.yul\":371:378   */\n  0x00\n    /* \"#utility.yul\":400:405   */\n  dup2\n    /* \"#utility.yul\":389:405   */\n  swap1\n  pop\n    /* \"#utility.yul\":334:411   */\n  swap2\n  swap1\n  pop\n  jump\t// out\n    /* \"#utility.yul\":417:539   */\ntag_29:\n    /* \"#utility.yul\":490:514   */\n  tag_41\n    /* \"#utility.yul\":508:513   */\n  dup2\n    /* \"#utility.yul\":490:514   */\n  tag_28\n  jump\t// in\ntag_41:\n    /* \"#utility.yul\":483:488   */\n  dup2\n    /* \"#utility.yul\":480:515   */\n  eq\n    /* \"#utility.yul\":470:533   */\n  tag_42\n  jumpi\n    /* \"#utility.yul\":529:530   */\n  0x00\n    /* \"#utility.yul\":526:527   */\n  dup1\n    /* \"#utility.yul\":519:531   */\n  revert\n    /* \"#utility.yul\":470:533   */\ntag_42:\n    /* \"#utility.yul\":417:539   */\n  pop\n  jump\t// out\n    /* \"#utility.yul\":545:688   */\ntag_30:\n    /* \"#utility.yul\":602:607   */\n  0x00\n    /* \"#utility.yul\":633:639   */\n  dup2\n    /* \"#utility.yul\":627:640   */\n  mload\n    /* \"#utility.yul\":618:640   */\n  swap1\n  pop\n    /* \"#utility.yul\":649:682   */\n  tag_44\n    /* \"#utility.yul\":676:681   */\n  dup2\n    /* \"#utility.yul\":649:682   */\n  tag_29\n  jump\t// in\ntag_44:\n    /* \"#utility.yul\":545:688   */\n  swap3\n  swap2\n  pop\n  pop\n  jump\t// out\n    /* \"#utility.yul\":694:1357   */\ntag_3:\n    /* \"#utility.yul\":782:788   */\n  0x00\n    /* \"#utility.yul\":790:796   */\n  dup1\n    /* \"#utility.yul\":798:804   */\n  0x00\n    /* \"#utility.yul\":847:849   */\n  0x60\n    /* \"#utility.yul\":835:844   */\n  dup5\n    /* \"#utility.yul\":826:833   */\n  dup7\n    /* \"#utility.yul\":822:845   */\n  sub\n    /* \"#utility.yul\":818:850   */\n  slt\n    /* \"#utility.yul\":815:934   */\n  iszero\n  tag_46\n  jumpi\n    /* \"#utility.yul\":853:932   */\n  tag_47\n  tag_26\n  jump\t// in\ntag_47:\n    /* \"#utility.yul\":815:934   */\ntag_46:\n    /* \"#utility.yul\":973:974   */\n  0x00\n    /* \"#utility.yul\":998:1062   */\n  tag_48\n    /* \"#utility.yul\":1054:1061   */\n  dup7\n    /* \"#utility.yul\":1045:1051   */\n  dup3\n    /* \"#utility.yul\":1034:1043   */\n  dup8\n    /* \"#utility.yul\":1030:1052   */\n  add\n    /* \"#utility.yul\":998:1062   */\n  tag_30\n  jump\t// in\ntag_48:\n    /* \"#utility.yul\":988:1062   */\n  swap4\n  pop\n    /* \"#utility.yul\":944:1072   */\n  pop\n    /* \"#utility.yul\":1111:1113   */\n  0x20\n    /* \"#utility.yul\":1137:1201   */\n  tag_49\n    /* \"#utility.yul\":1193:1200   */\n  dup7\n    /* \"#utility.yul\":1184:1190   */\n  dup3\n    /* \"#utility.yul\":1173:1182   */\n  dup8\n    /* \"#utility.yul\":1169:1191   */\n  add\n    /* \"#utility.yul\":1137:1201   */\n  tag_30\n  jump\t// in\ntag_49:\n    /* \"#utility.yul\":1127:1201   */\n  swap3\n  pop\n    /* \"#utility.yul\":1082:1211   */\n  pop\n    /* \"#utility.yul\":1250:1252   */\n  0x40\n    /* \"#utility.yul\":1276:1340   */\n  tag_50\n    /* \"#utility.yul\":1332:1339   */\n  dup7\n    /* \"#utility.yul\":1323:1329   */\n  dup3\n    /* \"#utility.yul\":1312:1321   */\n  dup8\n    /* \"#utility.yul\":1308:1330   */\n  add\n    /* \"#utility.yul\":1276:1340   */\n  tag_30\n  jump\t// in\ntag_50:\n    /* \"#utility.yul\":1266:1340   */\n  swap2\n  pop\n    /* \"#utility.yul\":1221:1350   */\n  pop\n    /* \"#utility.yul\":694:1357   */\n  swap3\n  pop\n  swap3\n  pop\n  swap3\n  jump\t// out\n    /* \"#utility.yul\":1363:1532   */\ntag_31:\n    /* \"#utility.yul\":1447:1458   */\n  0x00\n    /* \"#utility.yul\":1481:1487   */\n  dup3\n    /* \"#utility.yul\":1476:1479   */\n  dup3\n    /* \"#utility.yul\":1469:1488   */\n  mstore\n    /* \"#utility.yul\":1521:1525   */\n  0x20\n    /* \"#utility.yul\":1516:1519   */\n  dup3\n    /* \"#utility.yul\":1512:1526   */\n  add\n    /* \"#utility.yul\":1497:1526   */\n  swap1\n  pop\n    /* \"#utility.yul\":1363:1532   */\n  swap3\n  swap2\n  pop\n  pop\n  jump\t// out\n    /* \"#utility.yul\":1538:1711   */\ntag_32:\n    /* \"#utility.yul\":1678:1703   */\n  0x204461792073686f756c64206e6f74206265205a65726f000000000000000000\n    /* \"#utility.yul\":1674:1675   */\n  0x00\n    /* \"#utility.yul\":1666:1672   */\n  dup3\n    /* \"#utility.yul\":1662:1676   */\n  add\n    /* \"#utility.yul\":1655:1704   */\n  mstore\n    /* \"#utility.yul\":1538:1711   */\n  pop\n  jump\t// out\n    /* \"#utility.yul\":1717:2083   */\ntag_33:\n    /* \"#utility.yul\":1859:1862   */\n  0x00\n    /* \"#utility.yul\":1880:1947   */\n  tag_54\n    /* \"#utility.yul\":1944:1946   */\n  0x17\n    /* \"#utility.yul\":1939:1942   */\n  dup4\n    /* \"#utility.yul\":1880:1947   */\n  tag_31\n  jump\t// in\ntag_54:\n    /* \"#utility.yul\":1873:1947   */\n  swap2\n  pop\n    /* \"#utility.yul\":1956:2049   */\n  tag_55\n    /* \"#utility.yul\":2045:2048   */\n  dup3\n    /* \"#utility.yul\":1956:2049   */\n  tag_32\n  jump\t// in\ntag_55:\n    /* \"#utility.yul\":2074:2076   */\n  0x20\n    /* \"#utility.yul\":2069:2072   */\n  dup3\n    /* \"#utility.yul\":2065:2077   */\n  add\n    /* \"#utility.yul\":2058:2077   */\n  swap1\n  pop\n    /* \"#utility.yul\":1717:2083   */\n  swap2\n  swap1\n  pop\n  jump\t// out\n    /* \"#utility.yul\":2089:2508   */\ntag_15:\n    /* \"#utility.yul\":2255:2259   */\n  0x00\n    /* \"#utility.yul\":2293:2295   */\n  0x20\n    /* \"#utility.yul\":2282:2291   */\n  dup3\n    /* \"#utility.yul\":2278:2296   */\n  add\n    /* \"#utility.yul\":2270:2296   */\n  swap1\n  pop\n    /* \"#utility.yul\":2342:2351   */\n  dup2\n    /* \"#utility.yul\":2336:2340   */\n  dup2\n    /* \"#utility.yul\":2332:2352   */\n  sub\n    /* \"#utility.yul\":2328:2329   */\n  0x00\n    /* \"#utility.yul\":2317:2326   */\n  dup4\n    /* \"#utility.yul\":2313:2330   */\n  add\n    /* \"#utility.yul\":2306:2353   */\n  mstore\n    /* \"#utility.yul\":2370:2501   */\n  tag_57\n    /* \"#utility.yul\":2496:2500   */\n  dup2\n    /* \"#utility.yul\":2370:2501   */\n  tag_33\n  jump\t// in\ntag_57:\n    /* \"#utility.yul\":2362:2501   */\n  swap1\n  pop\n    /* \"#utility.yul\":2089:2508   */\n  swap2\n  swap1\n  pop\n  jump\t// out\n    /* \"#utility.yul\":2514:2694   */\ntag_34:\n    /* \"#utility.yul\":2562:2639   */\n  0x4e487b7100000000000000000000000000000000000000000000000000000000\n    /* \"#utility.yul\":2559:2560   */\n  0x00\n    /* \"#utility.yul\":2552:2640   */\n  mstore\n    /* \"#utility.yul\":2659:2663   */\n  0x11\n    /* \"#utility.yul\":2656:2657   */\n  0x04\n    /* \"#utility.yul\":2649:2664   */\n  mstore\n    /* \"#utility.yul\":2683:2687   */\n  0x24\n    /* \"#utility.yul\":2680:2681   */\n  0x00\n    /* \"#utility.yul\":2673:2688   */\n  revert\n    /* \"#utility.yul\":2700:3110   */\ntag_17:\n    /* \"#utility.yul\":2740:2747   */\n  0x00\n    /* \"#utility.yul\":2763:2783   */\n  tag_60\n    /* \"#utility.yul\":2781:2782   */\n  dup3\n    /* \"#utility.yul\":2763:2783   */\n  tag_28\n  jump\t// in\ntag_60:\n    /* \"#utility.yul\":2758:2783   */\n  swap2\n  pop\n    /* \"#utility.yul\":2797:2817   */\n  tag_61\n    /* \"#utility.yul\":2815:2816   */\n  dup4\n    /* \"#utility.yul\":2797:2817   */\n  tag_28\n  jump\t// in\ntag_61:\n    /* \"#utility.yul\":2792:2817   */\n  swap3\n  pop\n    /* \"#utility.yul\":2852:2853   */\n  dup3\n    /* \"#utility.yul\":2849:2850   */\n  dup3\n    /* \"#utility.yul\":2845:2854   */\n  mul\n    /* \"#utility.yul\":2874:2904   */\n  tag_62\n    /* \"#utility.yul\":2892:2903   */\n  dup2\n    /* \"#utility.yul\":2874:2904   */\n  tag_28\n  jump\t// in\ntag_62:\n    /* \"#utility.yul\":2863:2904   */\n  swap2\n  pop\n    /* \"#utility.yul\":3053:3054   */\n  dup3\n    /* \"#utility.yul\":3044:3051   */\n  dup3\n    /* \"#utility.yul\":3040:3055   */\n  div\n    /* \"#utility.yul\":3037:3038   */\n  dup5\n    /* \"#utility.yul\":3034:3056   */\n  eq\n    /* \"#utility.yul\":3014:3015   */\n  dup4\n    /* \"#utility.yul\":3007:3016   */\n  iszero\n    /* \"#utility.yul\":2987:3070   */\n  or\n    /* \"#utility.yul\":2964:3103   */\n  tag_63\n  jumpi\n    /* \"#utility.yul\":3083:3101   */\n  tag_64\n  tag_34\n  jump\t// in\ntag_64:\n    /* \"#utility.yul\":2964:3103   */\ntag_63:\n    /* \"#utility.yul\":2748:3110   */\n  pop\n    /* \"#utility.yul\":2700:3110   */\n  swap3\n  swap2\n  pop\n  pop\n  jump\t// out\n    /* \"contracts/Vesting_final.sol\":6840:16003  contract Vesting is Ownable2Step {... */\ntag_19:\n  dataSize(sub_0)\n  dup1\n  dataOffset(sub_0)\n  0x00\n  codecopy\n  0x00\n  return\nstop\n\nsub_0: assembly {\n        /* \"contracts/Vesting_final.sol\":6840:16003  contract Vesting is Ownable2Step {... */\n      mstore(0x40, 0x80)\n      jumpi(tag_1, lt(calldatasize, 0x04))\n      shr(0xe0, calldataload(0x00))\n      dup1\n      0x90611561\n      gt\n      tag_23\n      jumpi\n      dup1\n      0xaa1ced32\n      gt\n      tag_24\n      jumpi\n      dup1\n      0xaa1ced32\n      eq\n      tag_17\n      jumpi\n      dup1\n      0xcaef6601\n      eq\n      tag_18\n      jumpi\n      dup1\n      0xe30c3978\n      eq\n      tag_19\n      jumpi\n      dup1\n      0xed58ef11\n      eq\n      tag_20\n      jumpi\n      dup1\n      0xf2fde38b\n      eq\n      tag_21\n      jumpi\n      dup1\n      0xfe417fa5\n      eq\n      tag_22\n      jumpi\n      jump(tag_1)\n    tag_24:\n      dup1\n      0x90611561\n      eq\n      tag_12\n      jumpi\n      dup1\n      0x90acbc83\n      eq\n      tag_13\n      jumpi\n      dup1\n      0x937b8e16\n      eq\n      tag_14\n      jumpi\n      dup1\n      0xa39d7494\n      eq\n      tag_15\n      jumpi\n      dup1\n      0xa90aa4b4\n      eq\n      tag_16\n      jumpi\n      jump(tag_1)\n    tag_23:\n      dup1\n      0x5dc0799c\n      gt\n      tag_25\n      jumpi\n      dup1\n      0x5dc0799c\n      eq\n      tag_7\n      jumpi\n      dup1\n      0x715018a6\n      eq\n      tag_8\n      jumpi\n      dup1\n      0x79ba5097\n      eq\n      tag_9\n      jumpi\n      dup1\n      0x7a5fa298\n      eq\n      tag_10\n      jumpi\n      dup1\n      0x8da5cb5b\n      eq\n      tag_11\n      jumpi\n      jump(tag_1)\n    tag_25:\n      dup1\n      0x15862669\n      eq\n      tag_2\n      jumpi\n      dup1\n      0x1959a002\n      eq\n      tag_3\n      jumpi\n      dup1\n      0x501b1de0\n      eq\n      tag_4\n      jumpi\n      dup1\n      0x55b1f1a3\n      eq\n      tag_5\n      jumpi\n      dup1\n      0x5bc269e9\n      eq\n      tag_6\n      jumpi\n    tag_1:\n      0x00\n      dup1\n      revert\n        /* \"contracts/Vesting_final.sol\":7330:7351  uint256 public endDay */\n    tag_2:\n      callvalue\n      dup1\n      iszero\n      tag_26\n      jumpi\n      0x00\n      dup1\n      revert\n    tag_26:\n      pop\n      tag_27\n      tag_28\n      jump\t// in\n    tag_27:\n      mload(0x40)\n      tag_29\n      swap2\n      swap1\n      tag_30\n      jump\t// in\n    tag_29:\n      mload(0x40)\n      dup1\n      swap2\n      sub\n      swap1\n      return\n        /* \"contracts/Vesting_final.sol\":7384:7428  mapping(address => UserInfo) public userInfo */\n    tag_3:\n      callvalue\n      dup1\n      iszero\n      tag_31\n      jumpi\n      0x00\n      dup1\n      revert\n    tag_31:\n      pop\n      tag_32\n      0x04\n      dup1\n      calldatasize\n      sub\n      dup2\n      add\n      swap1\n      tag_33\n      swap2\n      swap1\n      tag_34\n      jump\t// in\n    tag_33:\n      tag_35\n      jump\t// in\n    tag_32:\n      mload(0x40)\n      tag_36\n      swap4\n      swap3\n      swap2\n      swap1\n      tag_37\n      jump\t// in\n    tag_36:\n      mload(0x40)\n      dup1\n      swap2\n      sub\n      swap1\n      return\n        /* \"contracts/Vesting_final.sol\":13364:14782  function getUnlockedTokenAmount(... */\n    tag_4:\n      callvalue\n      dup1\n      iszero\n      tag_38\n      jumpi\n      0x00\n      dup1\n      revert\n    tag_38:\n      pop\n      tag_39\n      0x04\n      dup1\n      calldatasize\n      sub\n      dup2\n      add\n      swap1\n      tag_40\n      swap2\n      swap1\n      tag_41\n      jump\t// in\n    tag_40:\n      tag_42\n      jump\t// in\n    tag_39:\n      mload(0x40)\n      tag_43\n      swap3\n      swap2\n      swap1\n      tag_44\n      jump\t// in\n    tag_43:\n      mload(0x40)\n      dup1\n      swap2\n      sub\n      swap1\n      return\n        /* \"contracts/Vesting_final.sol\":12209:13358  function claimTotalTokens(address user, uint256 id) external onlyOwner noReentrant {... */\n    tag_5:\n      callvalue\n      dup1\n      iszero\n      tag_45\n      jumpi\n      0x00\n      dup1\n      revert\n    tag_45:\n      pop\n      tag_46\n      0x04\n      dup1\n      calldatasize\n      sub\n      dup2\n      add\n      swap1\n      tag_47\n      swap2\n      swap1\n      tag_41\n      jump\t// in\n    tag_47:\n      tag_48\n      jump\t// in\n    tag_46:\n      stop\n        /* \"contracts/Vesting_final.sol\":15115:15350  function drainTokens(uint256 _amount) external onlyOwner {... */\n    tag_6:\n      callvalue\n      dup1\n      iszero\n      tag_49\n      jumpi\n      0x00\n      dup1\n      revert\n    tag_49:\n      pop\n      tag_50\n      0x04\n      dup1\n      calldatasize\n      sub\n      dup2\n      add\n      swap1\n      tag_51\n      swap2\n      swap1\n      tag_52\n      jump\t// in\n    tag_51:\n      tag_53\n      jump\t// in\n    tag_50:\n      stop\n        /* \"contracts/Vesting_final.sol\":8884:9262  function allocateForVesting(address userAddress) external payable onlyOwner noReentrant{... */\n    tag_7:\n      tag_54\n      0x04\n      dup1\n      calldatasize\n      sub\n      dup2\n      add\n      swap1\n      tag_55\n      swap2\n      swap1\n      tag_34\n      jump\t// in\n    tag_55:\n      tag_56\n      jump\t// in\n    tag_54:\n      stop\n        /* \"contracts/Vesting_final.sol\":4654:4755  function renounceOwnership() public virtual onlyOwner {... */\n    tag_8:\n      callvalue\n      dup1\n      iszero\n      tag_57\n      jumpi\n      0x00\n      dup1\n      revert\n    tag_57:\n      pop\n      tag_58\n      tag_59\n      jump\t// in\n    tag_58:\n      stop\n        /* \"contracts/Vesting_final.sol\":6607:6836  function acceptOwnership() public virtual {... */\n    tag_9:\n      callvalue\n      dup1\n      iszero\n      tag_60\n      jumpi\n      0x00\n      dup1\n      revert\n    tag_60:\n      pop\n      tag_61\n      tag_62\n      jump\t// in\n    tag_61:\n      stop\n        /* \"contracts/Vesting_final.sol\":14788:14964  function getVestingInfo(... */\n    tag_10:\n      callvalue\n      dup1\n      iszero\n      tag_63\n      jumpi\n      0x00\n      dup1\n      revert\n    tag_63:\n      pop\n      tag_64\n      0x04\n      dup1\n      calldatasize\n      sub\n      dup2\n      add\n      swap1\n      tag_65\n      swap2\n      swap1\n      tag_41\n      jump\t// in\n    tag_65:\n      tag_66\n      jump\t// in\n    tag_64:\n      mload(0x40)\n      tag_67\n      swap2\n      swap1\n      tag_68\n      jump\t// in\n    tag_67:\n      mload(0x40)\n      dup1\n      swap2\n      sub\n      swap1\n      return\n        /* \"contracts/Vesting_final.sol\":4022:4107  function owner() public view virtual returns (address) {... */\n    tag_11:\n      callvalue\n      dup1\n      iszero\n      tag_69\n      jumpi\n      0x00\n      dup1\n      revert\n    tag_69:\n      pop\n      tag_70\n      tag_71\n      jump\t// in\n    tag_70:\n      mload(0x40)\n      tag_72\n      swap2\n      swap1\n      tag_73\n      jump\t// in\n    tag_72:\n      mload(0x40)\n      dup1\n      swap2\n      sub\n      swap1\n      return\n        /* \"contracts/Vesting_final.sol\":7234:7258  uint256 public adminComm */\n    tag_12:\n      callvalue\n      dup1\n      iszero\n      tag_74\n      jumpi\n      0x00\n      dup1\n      revert\n    tag_74:\n      pop\n      tag_75\n      tag_76\n      jump\t// in\n    tag_75:\n      mload(0x40)\n      tag_77\n      swap2\n      swap1\n      tag_30\n      jump\t// in\n    tag_77:\n      mload(0x40)\n      dup1\n      swap2\n      sub\n      swap1\n      return\n        /* \"contracts/Vesting_final.sol\":8278:8426  function updateAdminCommission(uint256 commission) external onlyOwner {... */\n    tag_13:\n      callvalue\n      dup1\n      iszero\n      tag_78\n      jumpi\n      0x00\n      dup1\n      revert\n    tag_78:\n      pop\n      tag_79\n      0x04\n      dup1\n      calldatasize\n      sub\n      dup2\n      add\n      swap1\n      tag_80\n      swap2\n      swap1\n      tag_52\n      jump\t// in\n    tag_80:\n      tag_81\n      jump\t// in\n    tag_79:\n      stop\n        /* \"contracts/Vesting_final.sol\":7497:7542  mapping(address => bool) public allocatedUser */\n    tag_14:\n      callvalue\n      dup1\n      iszero\n      tag_82\n      jumpi\n      0x00\n      dup1\n      revert\n    tag_82:\n      pop\n      tag_83\n      0x04\n      dup1\n      calldatasize\n      sub\n      dup2\n      add\n      swap1\n      tag_84\n      swap2\n      swap1\n      tag_34\n      jump\t// in\n    tag_84:\n      tag_85\n      jump\t// in\n    tag_83:\n      mload(0x40)\n      tag_86\n      swap2\n      swap1\n      tag_87\n      jump\t// in\n    tag_86:\n      mload(0x40)\n      dup1\n      swap2\n      sub\n      swap1\n      return\n        /* \"contracts/Vesting_final.sol\":15356:16001  function updateVestingStartTimestamp(... */\n    tag_15:\n      callvalue\n      dup1\n      iszero\n      tag_88\n      jumpi\n      0x00\n      dup1\n      revert\n    tag_88:\n      pop\n      tag_89\n      0x04\n      dup1\n      calldatasize\n      sub\n      dup2\n      add\n      swap1\n      tag_90\n      swap2\n      swap1\n      tag_91\n      jump\t// in\n    tag_90:\n      tag_92\n      jump\t// in\n    tag_89:\n      stop\n        /* \"contracts/Vesting_final.sol\":7264:7290  uint256 public claimEndDay */\n    tag_16:\n      callvalue\n      dup1\n      iszero\n      tag_93\n      jumpi\n      0x00\n      dup1\n      revert\n    tag_93:\n      pop\n      tag_94\n      tag_95\n      jump\t// in\n    tag_94:\n      mload(0x40)\n      tag_96\n      swap2\n      swap1\n      tag_30\n      jump\t// in\n    tag_96:\n      mload(0x40)\n      dup1\n      swap2\n      sub\n      swap1\n      return\n        /* \"contracts/Vesting_final.sol\":8432:8878  function updateVestingDays(... */\n    tag_17:\n      callvalue\n      dup1\n      iszero\n      tag_97\n      jumpi\n      0x00\n      dup1\n      revert\n    tag_97:\n      pop\n      tag_98\n      0x04\n      dup1\n      calldatasize\n      sub\n      dup2\n      add\n      swap1\n      tag_99\n      swap2\n      swap1\n      tag_100\n      jump\t// in\n    tag_99:\n      tag_101\n      jump\t// in\n    tag_98:\n      stop\n        /* \"contracts/Vesting_final.sol\":14970:15109  function getUserTotalVesting(address userAddress) public view returns (uint256) {... */\n    tag_18:\n      callvalue\n      dup1\n      iszero\n      tag_102\n      jumpi\n      0x00\n      dup1\n      revert\n    tag_102:\n      pop\n      tag_103\n      0x04\n      dup1\n      calldatasize\n      sub\n      dup2\n      add\n      swap1\n      tag_104\n      swap2\n      swap1\n      tag_34\n      jump\t// in\n    tag_104:\n      tag_105\n      jump\t// in\n    tag_103:\n      mload(0x40)\n      tag_106\n      swap2\n      swap1\n      tag_30\n      jump\t// in\n    tag_106:\n      mload(0x40)\n      dup1\n      swap2\n      sub\n      swap1\n      return\n        /* \"contracts/Vesting_final.sol\":5720:5819  function pendingOwner() public view virtual returns (address) {... */\n    tag_19:\n      callvalue\n      dup1\n      iszero\n      tag_107\n      jumpi\n      0x00\n      dup1\n      revert\n    tag_107:\n      pop\n      tag_108\n      tag_109\n      jump\t// in\n    tag_108:\n      mload(0x40)\n      tag_110\n      swap2\n      swap1\n      tag_73\n      jump\t// in\n    tag_110:\n      mload(0x40)\n      dup1\n      swap2\n      sub\n      swap1\n      return\n        /* \"contracts/Vesting_final.sol\":7296:7324  uint256 public vestingEndDay */\n    tag_20:\n      callvalue\n      dup1\n      iszero\n      tag_111\n      jumpi\n      0x00\n      dup1\n      revert\n    tag_111:\n      pop\n      tag_112\n      tag_113\n      jump\t// in\n    tag_112:\n      mload(0x40)\n      tag_114\n      swap2\n      swap1\n      tag_30\n      jump\t// in\n    tag_114:\n      mload(0x40)\n      dup1\n      swap2\n      sub\n      swap1\n      return\n        /* \"contracts/Vesting_final.sol\":6012:6190  function transferOwnership(address newOwner) public virtual override onlyOwner {... */\n    tag_21:\n      callvalue\n      dup1\n      iszero\n      tag_115\n      jumpi\n      0x00\n      dup1\n      revert\n    tag_115:\n      pop\n      tag_116\n      0x04\n      dup1\n      calldatasize\n      sub\n      dup2\n      add\n      swap1\n      tag_117\n      swap2\n      swap1\n      tag_34\n      jump\t// in\n    tag_117:\n      tag_118\n      jump\t// in\n    tag_116:\n      stop\n        /* \"contracts/Vesting_final.sol\":10377:12203  function claimTokens(address user, uint256 id) public noReentrant {... */\n    tag_22:\n      callvalue\n      dup1\n      iszero\n      tag_119\n      jumpi\n      0x00\n      dup1\n      revert\n    tag_119:\n      pop\n      tag_120\n      0x04\n      dup1\n      calldatasize\n      sub\n      dup2\n      add\n      swap1\n      tag_121\n      swap2\n      swap1\n      tag_41\n      jump\t// in\n    tag_121:\n      tag_122\n      jump\t// in\n    tag_120:\n      stop\n        /* \"contracts/Vesting_final.sol\":7330:7351  uint256 public endDay */\n    tag_28:\n      sload(0x05)\n      dup2\n      jump\t// out\n        /* \"contracts/Vesting_final.sol\":7384:7428  mapping(address => UserInfo) public userInfo */\n    tag_35:\n      mstore(0x20, 0x07)\n      dup1\n      0x00\n      mstore\n      keccak256(0x00, 0x40)\n      0x00\n      swap2\n      pop\n      swap1\n      pop\n      dup1\n      0x00\n      add\n      0x00\n      swap1\n      sload\n      swap1\n      0x0100\n      exp\n      swap1\n      div\n      0xffffffffffffffffffffffffffffffffffffffff\n      and\n      swap1\n      dup1\n      0x01\n      add\n      sload\n      swap1\n      dup1\n      0x02\n      add\n      sload\n      swap1\n      pop\n      dup4\n      jump\t// out\n        /* \"contracts/Vesting_final.sol\":13364:14782  function getUnlockedTokenAmount(... */\n    tag_42:\n        /* \"contracts/Vesting_final.sol\":13467:13474  uint256 */\n      0x00\n        /* \"contracts/Vesting_final.sol\":13476:13483  uint256 */\n      dup1\n        /* \"contracts/Vesting_final.sol\":13495:13527  VestingInfo[] memory vestingInfo */\n      0x00\n        /* \"contracts/Vesting_final.sol\":13530:13545  userVestingInfo */\n      0x08\n        /* \"contracts/Vesting_final.sol\":13530:13553  userVestingInfo[wallet] */\n      0x00\n        /* \"contracts/Vesting_final.sol\":13546:13552  wallet */\n      dup7\n        /* \"contracts/Vesting_final.sol\":13530:13553  userVestingInfo[wallet] */\n      0xffffffffffffffffffffffffffffffffffffffff\n      and\n      0xffffffffffffffffffffffffffffffffffffffff\n      and\n      dup2\n      mstore\n      0x20\n      add\n      swap1\n      dup2\n      mstore\n      0x20\n      add\n      0x00\n      keccak256\n        /* \"contracts/Vesting_final.sol\":13495:13553  VestingInfo[] memory vestingInfo = userVestingInfo[wallet] */\n      dup1\n      sload\n      dup1\n      0x20\n      mul\n      0x20\n      add\n      mload(0x40)\n      swap1\n      dup2\n      add\n      0x40\n      mstore\n      dup1\n      swap3\n      swap2\n      swap1\n      dup2\n      dup2\n      mstore\n      0x20\n      add\n      0x00\n      swap1\n    tag_124:\n      dup3\n      dup3\n      lt\n      iszero\n      tag_125\n      jumpi\n      dup4\n      dup3\n      swap1\n      0x00\n      mstore\n      keccak256(0x00, 0x20)\n      swap1\n      0x04\n      mul\n      add\n      mload(0x40)\n      dup1\n      0x80\n      add\n      0x40\n      mstore\n      swap1\n      dup2\n      0x00\n      dup3\n      add\n      sload\n      dup2\n      mstore\n      0x20\n      add\n      0x01\n      dup3\n      add\n      sload\n      dup2\n      mstore\n      0x20\n      add\n      0x02\n      dup3\n      add\n      sload\n      dup2\n      mstore\n      0x20\n      add\n      0x03\n      dup3\n      add\n      sload\n      dup2\n      mstore\n      pop\n      pop\n      dup2\n      mstore\n      0x20\n      add\n      swap1\n      0x01\n      add\n      swap1\n      jump(tag_124)\n    tag_125:\n      pop\n      pop\n      pop\n      pop\n      swap1\n      pop\n        /* \"contracts/Vesting_final.sol\":13564:13585  uint256 allowedAmount */\n      0x00\n        /* \"contracts/Vesting_final.sol\":13599:13619  uint256 numberOfDays */\n      dup1\n        /* \"contracts/Vesting_final.sol\":13639:13652  allocatedUser */\n      0x09\n        /* \"contracts/Vesting_final.sol\":13639:13660  allocatedUser[wallet] */\n      0x00\n        /* \"contracts/Vesting_final.sol\":13653:13659  wallet */\n      dup9\n        /* \"contracts/Vesting_final.sol\":13639:13660  allocatedUser[wallet] */\n      0xffffffffffffffffffffffffffffffffffffffff\n      and\n      0xffffffffffffffffffffffffffffffffffffffff\n      and\n      dup2\n      mstore\n      0x20\n      add\n      swap1\n      dup2\n      mstore\n      0x20\n      add\n      0x00\n      keccak256\n      0x00\n      swap1\n      sload\n      swap1\n      0x0100\n      exp\n      swap1\n      div\n      0xff\n      and\n        /* \"contracts/Vesting_final.sol\":13634:13700  if (!allocatedUser[wallet]) {... */\n      tag_127\n      jumpi\n        /* \"contracts/Vesting_final.sol\":13684:13685  0 */\n      0x00\n        /* \"contracts/Vesting_final.sol\":13687:13688  0 */\n      dup1\n        /* \"contracts/Vesting_final.sol\":13676:13689  return (0, 0) */\n      swap5\n      pop\n      swap5\n      pop\n      pop\n      pop\n      pop\n      jump(tag_123)\n        /* \"contracts/Vesting_final.sol\":13634:13700  if (!allocatedUser[wallet]) {... */\n    tag_127:\n        /* \"contracts/Vesting_final.sol\":13733:13744  vestingInfo */\n      dup3\n        /* \"contracts/Vesting_final.sol\":13745:13747  id */\n      dup7\n        /* \"contracts/Vesting_final.sol\":13733:13748  vestingInfo[id] */\n      dup2\n      mload\n      dup2\n      lt\n      tag_128\n      jumpi\n      tag_129\n      tag_130\n      jump\t// in\n    tag_129:\n    tag_128:\n      0x20\n      mul\n      0x20\n      add\n      add\n      mload\n        /* \"contracts/Vesting_final.sol\":13733:13767  vestingInfo[id].nextClaimTimestamp */\n      0x40\n      add\n      mload\n        /* \"contracts/Vesting_final.sol\":13714:13729  block.timestamp */\n      timestamp\n        /* \"contracts/Vesting_final.sol\":13714:13767  block.timestamp >= vestingInfo[id].nextClaimTimestamp */\n      lt\n        /* \"contracts/Vesting_final.sol\":13710:14348  if (block.timestamp >= vestingInfo[id].nextClaimTimestamp) {... */\n      tag_131\n      jumpi\n        /* \"contracts/Vesting_final.sol\":13825:13826  0 */\n      0x00\n        /* \"contracts/Vesting_final.sol\":13787:13798  vestingInfo */\n      dup4\n        /* \"contracts/Vesting_final.sol\":13799:13801  id */\n      dup8\n        /* \"contracts/Vesting_final.sol\":13787:13802  vestingInfo[id] */\n      dup2\n      mload\n      dup2\n      lt\n      tag_132\n      jumpi\n      tag_133\n      tag_130\n      jump\t// in\n    tag_133:\n    tag_132:\n      0x20\n      mul\n      0x20\n      add\n      add\n      mload\n        /* \"contracts/Vesting_final.sol\":13787:13821  vestingInfo[id].nextClaimTimestamp */\n      0x40\n      add\n      mload\n        /* \"contracts/Vesting_final.sol\":13787:13826  vestingInfo[id].nextClaimTimestamp != 0 */\n      eq\n        /* \"contracts/Vesting_final.sol\":13783:14338  if (vestingInfo[id].nextClaimTimestamp != 0) {... */\n      tag_134\n      jumpi\n        /* \"contracts/Vesting_final.sol\":13846:13862  uint256 fromTime */\n      0x00\n        /* \"contracts/Vesting_final.sol\":13903:13914  vestingInfo */\n      dup4\n        /* \"contracts/Vesting_final.sol\":13915:13917  id */\n      dup8\n        /* \"contracts/Vesting_final.sol\":13903:13918  vestingInfo[id] */\n      dup2\n      mload\n      dup2\n      lt\n      tag_135\n      jumpi\n      tag_136\n      tag_130\n      jump\t// in\n    tag_136:\n    tag_135:\n      0x20\n      mul\n      0x20\n      add\n      add\n      mload\n        /* \"contracts/Vesting_final.sol\":13903:13936  vestingInfo[id].claimEndTimestamp */\n      0x60\n      add\n      mload\n        /* \"contracts/Vesting_final.sol\":13865:13880  block.timestamp */\n      timestamp\n        /* \"contracts/Vesting_final.sol\":13865:13936  block.timestamp >... */\n      gt\n        /* \"contracts/Vesting_final.sol\":13865:14038  block.timestamp >... */\n      tag_137\n      jumpi\n        /* \"contracts/Vesting_final.sol\":14023:14038  block.timestamp */\n      timestamp\n        /* \"contracts/Vesting_final.sol\":13865:14038  block.timestamp >... */\n      jump(tag_138)\n    tag_137:\n        /* \"contracts/Vesting_final.sol\":13995:14000  86400 */\n      0x015180\n        /* \"contracts/Vesting_final.sol\":13959:13970  vestingInfo */\n      dup5\n        /* \"contracts/Vesting_final.sol\":13971:13973  id */\n      dup9\n        /* \"contracts/Vesting_final.sol\":13959:13974  vestingInfo[id] */\n      dup2\n      mload\n      dup2\n      lt\n      tag_139\n      jumpi\n      tag_140\n      tag_130\n      jump\t// in\n    tag_140:\n    tag_139:\n      0x20\n      mul\n      0x20\n      add\n      add\n      mload\n        /* \"contracts/Vesting_final.sol\":13959:13992  vestingInfo[id].claimEndTimestamp */\n      0x60\n      add\n      mload\n        /* \"contracts/Vesting_final.sol\":13959:14000  vestingInfo[id].claimEndTimestamp - 86400 */\n      tag_141\n      swap2\n      swap1\n      tag_142\n      jump\t// in\n    tag_141:\n        /* \"contracts/Vesting_final.sol\":13865:14038  block.timestamp >... */\n    tag_138:\n        /* \"contracts/Vesting_final.sol\":13846:14038  uint256 fromTime = block.timestamp >... */\n      swap1\n      pop\n        /* \"contracts/Vesting_final.sol\":14056:14072  uint256 duration */\n      0x00\n        /* \"contracts/Vesting_final.sol\":14145:14150  86400 */\n      0x015180\n        /* \"contracts/Vesting_final.sol\":14107:14118  vestingInfo */\n      dup6\n        /* \"contracts/Vesting_final.sol\":14119:14121  id */\n      dup10\n        /* \"contracts/Vesting_final.sol\":14107:14122  vestingInfo[id] */\n      dup2\n      mload\n      dup2\n      lt\n      tag_143\n      jumpi\n      tag_144\n      tag_130\n      jump\t// in\n    tag_144:\n    tag_143:\n      0x20\n      mul\n      0x20\n      add\n      add\n      mload\n        /* \"contracts/Vesting_final.sol\":14107:14141  vestingInfo[id].nextClaimTimestamp */\n      0x40\n      add\n      mload\n        /* \"contracts/Vesting_final.sol\":14076:14084  fromTime */\n      dup4\n        /* \"contracts/Vesting_final.sol\":14076:14141  fromTime -... */\n      tag_145\n      swap2\n      swap1\n      tag_142\n      jump\t// in\n    tag_145:\n        /* \"contracts/Vesting_final.sol\":14075:14150  (fromTime -... */\n      tag_146\n      swap2\n      swap1\n      tag_147\n      jump\t// in\n    tag_146:\n        /* \"contracts/Vesting_final.sol\":14056:14150  uint256 duration = (fromTime -... */\n      swap1\n      pop\n        /* \"contracts/Vesting_final.sol\":14194:14199  86400 */\n      0x015180\n        /* \"contracts/Vesting_final.sol\":14183:14191  duration */\n      dup2\n        /* \"contracts/Vesting_final.sol\":14183:14199  duration / 86400 */\n      tag_148\n      swap2\n      swap1\n      tag_149\n      jump\t// in\n    tag_148:\n        /* \"contracts/Vesting_final.sol\":14168:14199  numberOfDays = duration / 86400 */\n      swap3\n      pop\n        /* \"contracts/Vesting_final.sol\":14317:14323  endDay */\n      sload(0x05)\n        /* \"contracts/Vesting_final.sol\":14301:14313  numberOfDays */\n      dup4\n        /* \"contracts/Vesting_final.sol\":14255:14270  userVestingInfo */\n      0x08\n        /* \"contracts/Vesting_final.sol\":14255:14278  userVestingInfo[wallet] */\n      0x00\n        /* \"contracts/Vesting_final.sol\":14271:14277  wallet */\n      dup13\n        /* \"contracts/Vesting_final.sol\":14255:14278  userVestingInfo[wallet] */\n      0xffffffffffffffffffffffffffffffffffffffff\n      and\n      0xffffffffffffffffffffffffffffffffffffffff\n      and\n      dup2\n      mstore\n      0x20\n      add\n      swap1\n      dup2\n      mstore\n      0x20\n      add\n      0x00\n      keccak256\n        /* \"contracts/Vesting_final.sol\":14279:14281  id */\n      dup11\n        /* \"contracts/Vesting_final.sol\":14255:14282  userVestingInfo[wallet][id] */\n      dup2\n      sload\n      dup2\n      lt\n      tag_150\n      jumpi\n      tag_151\n      tag_130\n      jump\t// in\n    tag_151:\n    tag_150:\n      swap1\n      0x00\n      mstore\n      keccak256(0x00, 0x20)\n      swap1\n      0x04\n      mul\n      add\n        /* \"contracts/Vesting_final.sol\":14255:14298  userVestingInfo[wallet][id].allocatedAmount */\n      0x00\n      add\n      sload\n        /* \"contracts/Vesting_final.sol\":14255:14313  userVestingInfo[wallet][id].allocatedAmount * numberOfDays */\n      tag_153\n      swap2\n      swap1\n      tag_154\n      jump\t// in\n    tag_153:\n        /* \"contracts/Vesting_final.sol\":14254:14323  (userVestingInfo[wallet][id].allocatedAmount * numberOfDays) / endDay */\n      tag_155\n      swap2\n      swap1\n      tag_149\n      jump\t// in\n    tag_155:\n        /* \"contracts/Vesting_final.sol\":14218:14323  allowedAmount =... */\n      swap4\n      pop\n        /* \"contracts/Vesting_final.sol\":13828:14338  {... */\n      pop\n      pop\n        /* \"contracts/Vesting_final.sol\":13783:14338  if (vestingInfo[id].nextClaimTimestamp != 0) {... */\n    tag_134:\n        /* \"contracts/Vesting_final.sol\":13710:14348  if (block.timestamp >= vestingInfo[id].nextClaimTimestamp) {... */\n    tag_131:\n        /* \"contracts/Vesting_final.sol\":14530:14545  userVestingInfo */\n      0x08\n        /* \"contracts/Vesting_final.sol\":14530:14553  userVestingInfo[wallet] */\n      0x00\n        /* \"contracts/Vesting_final.sol\":14546:14552  wallet */\n      dup9\n        /* \"contracts/Vesting_final.sol\":14530:14553  userVestingInfo[wallet] */\n      0xffffffffffffffffffffffffffffffffffffffff\n      and\n      0xffffffffffffffffffffffffffffffffffffffff\n      and\n      dup2\n      mstore\n      0x20\n      add\n      swap1\n      dup2\n      mstore\n      0x20\n      add\n      0x00\n      keccak256\n        /* \"contracts/Vesting_final.sol\":14554:14556  id */\n      dup7\n        /* \"contracts/Vesting_final.sol\":14530:14557  userVestingInfo[wallet][id] */\n      dup2\n      sload\n      dup2\n      lt\n      tag_156\n      jumpi\n      tag_157\n      tag_130\n      jump\t// in\n    tag_157:\n    tag_156:\n      swap1\n      0x00\n      mstore\n      keccak256(0x00, 0x20)\n      swap1\n      0x04\n      mul\n      add\n        /* \"contracts/Vesting_final.sol\":14530:14571  userVestingInfo[wallet][id].claimedAmount */\n      0x01\n      add\n      sload\n        /* \"contracts/Vesting_final.sol\":14468:14483  userVestingInfo */\n      0x08\n        /* \"contracts/Vesting_final.sol\":14468:14491  userVestingInfo[wallet] */\n      0x00\n        /* \"contracts/Vesting_final.sol\":14484:14490  wallet */\n      dup10\n        /* \"contracts/Vesting_final.sol\":14468:14491  userVestingInfo[wallet] */\n      0xffffffffffffffffffffffffffffffffffffffff\n      and\n      0xffffffffffffffffffffffffffffffffffffffff\n      and\n      dup2\n      mstore\n      0x20\n      add\n      swap1\n      dup2\n      mstore\n      0x20\n      add\n      0x00\n      keccak256\n        /* \"contracts/Vesting_final.sol\":14492:14494  id */\n      dup8\n        /* \"contracts/Vesting_final.sol\":14468:14495  userVestingInfo[wallet][id] */\n      dup2\n      sload\n      dup2\n      lt\n      tag_159\n      jumpi\n      tag_160\n      tag_130\n      jump\t// in\n    tag_160:\n    tag_159:\n      swap1\n      0x00\n      mstore\n      keccak256(0x00, 0x20)\n      swap1\n      0x04\n      mul\n      add\n        /* \"contracts/Vesting_final.sol\":14468:14511  userVestingInfo[wallet][id].allocatedAmount */\n      0x00\n      add\n      sload\n        /* \"contracts/Vesting_final.sol\":14468:14571  userVestingInfo[wallet][id].allocatedAmount -... */\n      tag_162\n      swap2\n      swap1\n      tag_142\n      jump\t// in\n    tag_162:\n        /* \"contracts/Vesting_final.sol\":14439:14452  allowedAmount */\n      dup3\n        /* \"contracts/Vesting_final.sol\":14439:14572  allowedAmount >... */\n      gt\n        /* \"contracts/Vesting_final.sol\":14422:14729  if (... */\n      iszero\n      tag_163\n      jumpi\n        /* \"contracts/Vesting_final.sol\":14676:14691  userVestingInfo */\n      0x08\n        /* \"contracts/Vesting_final.sol\":14676:14699  userVestingInfo[wallet] */\n      0x00\n        /* \"contracts/Vesting_final.sol\":14692:14698  wallet */\n      dup9\n        /* \"contracts/Vesting_final.sol\":14676:14699  userVestingInfo[wallet] */\n      0xffffffffffffffffffffffffffffffffffffffff\n      and\n      0xffffffffffffffffffffffffffffffffffffffff\n      and\n      dup2\n      mstore\n      0x20\n      add\n      swap1\n      dup2\n      mstore\n      0x20\n      add\n      0x00\n      keccak256\n        /* \"contracts/Vesting_final.sol\":14700:14702  id */\n      dup7\n        /* \"contracts/Vesting_final.sol\":14676:14703  userVestingInfo[wallet][id] */\n      dup2\n      sload\n      dup2\n      lt\n      tag_164\n      jumpi\n      tag_165\n      tag_130\n      jump\t// in\n    tag_165:\n    tag_164:\n      swap1\n      0x00\n      mstore\n      keccak256(0x00, 0x20)\n      swap1\n      0x04\n      mul\n      add\n        /* \"contracts/Vesting_final.sol\":14676:14717  userVestingInfo[wallet][id].claimedAmount */\n      0x01\n      add\n      sload\n        /* \"contracts/Vesting_final.sol\":14614:14629  userVestingInfo */\n      0x08\n        /* \"contracts/Vesting_final.sol\":14614:14637  userVestingInfo[wallet] */\n      0x00\n        /* \"contracts/Vesting_final.sol\":14630:14636  wallet */\n      dup10\n        /* \"contracts/Vesting_final.sol\":14614:14637  userVestingInfo[wallet] */\n      0xffffffffffffffffffffffffffffffffffffffff\n      and\n      0xffffffffffffffffffffffffffffffffffffffff\n      and\n      dup2\n      mstore\n      0x20\n      add\n      swap1\n      dup2\n      mstore\n      0x20\n      add\n      0x00\n      keccak256\n        /* \"contracts/Vesting_final.sol\":14638:14640  id */\n      dup8\n        /* \"contracts/Vesting_final.sol\":14614:14641  userVestingInfo[wallet][id] */\n      dup2\n      sload\n      dup2\n      lt\n      tag_167\n      jumpi\n      tag_168\n      tag_130\n      jump\t// in\n    tag_168:\n    tag_167:\n      swap1\n      0x00\n      mstore\n      keccak256(0x00, 0x20)\n      swap1\n      0x04\n      mul\n      add\n        /* \"contracts/Vesting_final.sol\":14614:14657  userVestingInfo[wallet][id].allocatedAmount */\n      0x00\n      add\n      sload\n        /* \"contracts/Vesting_final.sol\":14614:14717  userVestingInfo[wallet][id].allocatedAmount -... */\n      tag_170\n      swap2\n      swap1\n      tag_142\n      jump\t// in\n    tag_170:\n        /* \"contracts/Vesting_final.sol\":14597:14718  allowedAmount = (userVestingInfo[wallet][id].allocatedAmount -... */\n      swap2\n      pop\n        /* \"contracts/Vesting_final.sol\":14422:14729  if (... */\n    tag_163:\n        /* \"contracts/Vesting_final.sol\":14747:14760  allowedAmount */\n      dup2\n        /* \"contracts/Vesting_final.sol\":14762:14774  numberOfDays */\n      dup2\n        /* \"contracts/Vesting_final.sol\":14739:14775  return (allowedAmount, numberOfDays) */\n      swap5\n      pop\n      swap5\n      pop\n      pop\n      pop\n      pop\n        /* \"contracts/Vesting_final.sol\":13364:14782  function getUnlockedTokenAmount(... */\n    tag_123:\n      swap3\n      pop\n      swap3\n      swap1\n      pop\n      jump\t// out\n        /* \"contracts/Vesting_final.sol\":12209:13358  function claimTotalTokens(address user, uint256 id) external onlyOwner noReentrant {... */\n    tag_48:\n        /* \"contracts/Vesting_final.sol\":4245:4257  _msgSender() */\n      tag_172\n        /* \"contracts/Vesting_final.sol\":4245:4255  _msgSender */\n      tag_173\n        /* \"contracts/Vesting_final.sol\":4245:4257  _msgSender() */\n      jump\t// in\n    tag_172:\n        /* \"contracts/Vesting_final.sol\":4234:4257  owner() == _msgSender() */\n      0xffffffffffffffffffffffffffffffffffffffff\n      and\n        /* \"contracts/Vesting_final.sol\":4234:4241  owner() */\n      tag_174\n        /* \"contracts/Vesting_final.sol\":4234:4239  owner */\n      tag_71\n        /* \"contracts/Vesting_final.sol\":4234:4241  owner() */\n      jump\t// in\n    tag_174:\n        /* \"contracts/Vesting_final.sol\":4234:4257  owner() == _msgSender() */\n      0xffffffffffffffffffffffffffffffffffffffff\n      and\n      eq\n        /* \"contracts/Vesting_final.sol\":4226:4294  require(owner() == _msgSender(), \"Ownable: caller is not the owner\") */\n      tag_175\n      jumpi\n      mload(0x40)\n      0x08c379a000000000000000000000000000000000000000000000000000000000\n      dup2\n      mstore\n      0x04\n      add\n      tag_176\n      swap1\n      tag_177\n      jump\t// in\n    tag_176:\n      mload(0x40)\n      dup1\n      swap2\n      sub\n      swap1\n      revert\n    tag_175:\n        /* \"contracts/Vesting_final.sol\":8182:8188  locked */\n      0x06\n      0x00\n      swap1\n      sload\n      swap1\n      0x0100\n      exp\n      swap1\n      div\n      0xff\n      and\n        /* \"contracts/Vesting_final.sol\":8181:8188  !locked */\n      iszero\n        /* \"contracts/Vesting_final.sol\":8173:8207  require(!locked, \"No re-entrancy\") */\n      tag_179\n      jumpi\n      mload(0x40)\n      0x08c379a000000000000000000000000000000000000000000000000000000000\n      dup2\n      mstore\n      0x04\n      add\n      tag_180\n      swap1\n      tag_181\n      jump\t// in\n    tag_180:\n      mload(0x40)\n      dup1\n      swap2\n      sub\n      swap1\n      revert\n    tag_179:\n        /* \"contracts/Vesting_final.sol\":8226:8230  true */\n      0x01\n        /* \"contracts/Vesting_final.sol\":8217:8223  locked */\n      0x06\n      0x00\n        /* \"contracts/Vesting_final.sol\":8217:8230  locked = true */\n      0x0100\n      exp\n      dup2\n      sload\n      dup2\n      0xff\n      mul\n      not\n      and\n      swap1\n      dup4\n      iszero\n      iszero\n      mul\n      or\n      swap1\n      sstore\n      pop\n        /* \"contracts/Vesting_final.sol\":12302:12320  UserInfo storage u */\n      0x00\n        /* \"contracts/Vesting_final.sol\":12322:12330  userInfo */\n      0x07\n        /* \"contracts/Vesting_final.sol\":12322:12336  userInfo[user] */\n      0x00\n        /* \"contracts/Vesting_final.sol\":12331:12335  user */\n      dup5\n        /* \"contracts/Vesting_final.sol\":12322:12336  userInfo[user] */\n      0xffffffffffffffffffffffffffffffffffffffff\n      and\n      0xffffffffffffffffffffffffffffffffffffffff\n      and\n      dup2\n      mstore\n      0x20\n      add\n      swap1\n      dup2\n      mstore\n      0x20\n      add\n      0x00\n      keccak256\n        /* \"contracts/Vesting_final.sol\":12302:12336  UserInfo storage u= userInfo[user] */\n      swap1\n      pop\n        /* \"contracts/Vesting_final.sol\":12374:12375  0 */\n      0x00\n        /* \"contracts/Vesting_final.sol\":12354:12376  u.wallet != address(0) */\n      0xffffffffffffffffffffffffffffffffffffffff\n      and\n        /* \"contracts/Vesting_final.sol\":12354:12355  u */\n      dup2\n        /* \"contracts/Vesting_final.sol\":12354:12362  u.wallet */\n      0x00\n      add\n      0x00\n      swap1\n      sload\n      swap1\n      0x0100\n      exp\n      swap1\n      div\n      0xffffffffffffffffffffffffffffffffffffffff\n      and\n        /* \"contracts/Vesting_final.sol\":12354:12376  u.wallet != address(0) */\n      0xffffffffffffffffffffffffffffffffffffffff\n      and\n      sub\n        /* \"contracts/Vesting_final.sol\":12346:12393  require(u.wallet != address(0), \"Invalid user\") */\n      tag_183\n      jumpi\n      mload(0x40)\n      0x08c379a000000000000000000000000000000000000000000000000000000000\n      dup2\n      mstore\n      0x04\n      add\n      tag_184\n      swap1\n      tag_185\n      jump\t// in\n    tag_184:\n      mload(0x40)\n      dup1\n      swap2\n      sub\n      swap1\n      revert\n    tag_183:\n        /* \"contracts/Vesting_final.sol\":12403:12422  uint256 leftBalance */\n      0x00\n        /* \"contracts/Vesting_final.sol\":12481:12496  userVestingInfo */\n      0x08\n        /* \"contracts/Vesting_final.sol\":12481:12502  userVestingInfo[user] */\n      0x00\n        /* \"contracts/Vesting_final.sol\":12497:12501  user */\n      dup6\n        /* \"contracts/Vesting_final.sol\":12481:12502  userVestingInfo[user] */\n      0xffffffffffffffffffffffffffffffffffffffff\n      and\n      0xffffffffffffffffffffffffffffffffffffffff\n      and\n      dup2\n      mstore\n      0x20\n      add\n      swap1\n      dup2\n      mstore\n      0x20\n      add\n      0x00\n      keccak256\n        /* \"contracts/Vesting_final.sol\":12503:12505  id */\n      dup4\n        /* \"contracts/Vesting_final.sol\":12481:12506  userVestingInfo[user][id] */\n      dup2\n      sload\n      dup2\n      lt\n      tag_186\n      jumpi\n      tag_187\n      tag_130\n      jump\t// in\n    tag_187:\n    tag_186:\n      swap1\n      0x00\n      mstore\n      keccak256(0x00, 0x20)\n      swap1\n      0x04\n      mul\n      add\n        /* \"contracts/Vesting_final.sol\":12481:12520  userVestingInfo[user][id].claimedAmount */\n      0x01\n      add\n      sload\n        /* \"contracts/Vesting_final.sol\":12425:12440  userVestingInfo */\n      0x08\n        /* \"contracts/Vesting_final.sol\":12425:12446  userVestingInfo[user] */\n      0x00\n        /* \"contracts/Vesting_final.sol\":12441:12445  user */\n      dup7\n        /* \"contracts/Vesting_final.sol\":12425:12446  userVestingInfo[user] */\n      0xffffffffffffffffffffffffffffffffffffffff\n      and\n      0xffffffffffffffffffffffffffffffffffffffff\n      and\n      dup2\n      mstore\n      0x20\n      add\n      swap1\n      dup2\n      mstore\n      0x20\n      add\n      0x00\n      keccak256\n        /* \"contracts/Vesting_final.sol\":12447:12449  id */\n      dup5\n        /* \"contracts/Vesting_final.sol\":12425:12450  userVestingInfo[user][id] */\n      dup2\n      sload\n      dup2\n      lt\n      tag_189\n      jumpi\n      tag_190\n      tag_130\n      jump\t// in\n    tag_190:\n    tag_189:\n      swap1\n      0x00\n      mstore\n      keccak256(0x00, 0x20)\n      swap1\n      0x04\n      mul\n      add\n        /* \"contracts/Vesting_final.sol\":12425:12466  userVestingInfo[user][id].allocatedAmount */\n      0x00\n      add\n      sload\n        /* \"contracts/Vesting_final.sol\":12425:12520  userVestingInfo[user][id].allocatedAmount -... */\n      tag_192\n      swap2\n      swap1\n      tag_142\n      jump\t// in\n    tag_192:\n        /* \"contracts/Vesting_final.sol\":12403:12520  uint256 leftBalance = userVestingInfo[user][id].allocatedAmount -... */\n      swap1\n      pop\n        /* \"contracts/Vesting_final.sol\":12530:12538  uint fee */\n      0x00\n        /* \"contracts/Vesting_final.sol\":12570:12571  0 */\n      dup1\n        /* \"contracts/Vesting_final.sol\":12556:12567  leftBalance */\n      dup3\n        /* \"contracts/Vesting_final.sol\":12556:12571  leftBalance > 0 */\n      gt\n        /* \"contracts/Vesting_final.sol\":12552:13352  if (leftBalance > 0) {... */\n      iszero\n      tag_193\n      jumpi\n        /* \"contracts/Vesting_final.sol\":12621:12626  10000 */\n      0x2710\n        /* \"contracts/Vesting_final.sol\":12608:12617  adminComm */\n      sload(0x02)\n        /* \"contracts/Vesting_final.sol\":12594:12605  leftBalance */\n      dup4\n        /* \"contracts/Vesting_final.sol\":12594:12617  leftBalance * adminComm */\n      tag_194\n      swap2\n      swap1\n      tag_154\n      jump\t// in\n    tag_194:\n        /* \"contracts/Vesting_final.sol\":12593:12626  (leftBalance * adminComm) / 10000 */\n      tag_195\n      swap2\n      swap1\n      tag_149\n      jump\t// in\n    tag_195:\n        /* \"contracts/Vesting_final.sol\":12587:12626  fee = (leftBalance * adminComm) / 10000 */\n      swap1\n      pop\n        /* \"contracts/Vesting_final.sol\":12688:12689  0 */\n      0x00\n        /* \"contracts/Vesting_final.sol\":12641:12656  userVestingInfo */\n      0x08\n        /* \"contracts/Vesting_final.sol\":12641:12662  userVestingInfo[user] */\n      0x00\n        /* \"contracts/Vesting_final.sol\":12657:12661  user */\n      dup8\n        /* \"contracts/Vesting_final.sol\":12641:12662  userVestingInfo[user] */\n      0xffffffffffffffffffffffffffffffffffffffff\n      and\n      0xffffffffffffffffffffffffffffffffffffffff\n      and\n      dup2\n      mstore\n      0x20\n      add\n      swap1\n      dup2\n      mstore\n      0x20\n      add\n      0x00\n      keccak256\n        /* \"contracts/Vesting_final.sol\":12663:12665  id */\n      dup6\n        /* \"contracts/Vesting_final.sol\":12641:12666  userVestingInfo[user][id] */\n      dup2\n      sload\n      dup2\n      lt\n      tag_196\n      jumpi\n      tag_197\n      tag_130\n      jump\t// in\n    tag_197:\n    tag_196:\n      swap1\n      0x00\n      mstore\n      keccak256(0x00, 0x20)\n      swap1\n      0x04\n      mul\n      add\n        /* \"contracts/Vesting_final.sol\":12641:12685  userVestingInfo[user][id].nextClaimTimestamp */\n      0x02\n      add\n        /* \"contracts/Vesting_final.sol\":12641:12689  userVestingInfo[user][id].nextClaimTimestamp = 0 */\n      dup2\n      swap1\n      sstore\n      pop\n        /* \"contracts/Vesting_final.sol\":12727:12738  leftBalance */\n      dup2\n        /* \"contracts/Vesting_final.sol\":12703:12704  u */\n      dup4\n        /* \"contracts/Vesting_final.sol\":12703:12723  u.totalClaimedAmount */\n      0x02\n      add\n      0x00\n        /* \"contracts/Vesting_final.sol\":12703:12738  u.totalClaimedAmount += leftBalance */\n      dup3\n      dup3\n      sload\n      tag_199\n      swap2\n      swap1\n      tag_147\n      jump\t// in\n    tag_199:\n      swap3\n      pop\n      pop\n      dup2\n      swap1\n      sstore\n      pop\n        /* \"contracts/Vesting_final.sol\":12778:12789  leftBalance */\n      dup2\n        /* \"contracts/Vesting_final.sol\":12752:12753  u */\n      dup4\n        /* \"contracts/Vesting_final.sol\":12752:12774  u.totalAllocatedAmount */\n      0x01\n      add\n      0x00\n        /* \"contracts/Vesting_final.sol\":12752:12789  u.totalAllocatedAmount -= leftBalance */\n      dup3\n      dup3\n      sload\n      tag_200\n      swap2\n      swap1\n      tag_142\n      jump\t// in\n    tag_200:\n      swap3\n      pop\n      pop\n      dup2\n      swap1\n      sstore\n      pop\n        /* \"contracts/Vesting_final.sol\":12846:12857  leftBalance */\n      dup2\n        /* \"contracts/Vesting_final.sol\":12803:12818  userVestingInfo */\n      0x08\n        /* \"contracts/Vesting_final.sol\":12803:12824  userVestingInfo[user] */\n      0x00\n        /* \"contracts/Vesting_final.sol\":12819:12823  user */\n      dup8\n        /* \"contracts/Vesting_final.sol\":12803:12824  userVestingInfo[user] */\n      0xffffffffffffffffffffffffffffffffffffffff\n      and\n      0xffffffffffffffffffffffffffffffffffffffff\n      and\n      dup2\n      mstore\n      0x20\n      add\n      swap1\n      dup2\n      mstore\n      0x20\n      add\n      0x00\n      keccak256\n        /* \"contracts/Vesting_final.sol\":12825:12827  id */\n      dup6\n        /* \"contracts/Vesting_final.sol\":12803:12828  userVestingInfo[user][id] */\n      dup2\n      sload\n      dup2\n      lt\n      tag_201\n      jumpi\n      tag_202\n      tag_130\n      jump\t// in\n    tag_202:\n    tag_201:\n      swap1\n      0x00\n      mstore\n      keccak256(0x00, 0x20)\n      swap1\n      0x04\n      mul\n      add\n        /* \"contracts/Vesting_final.sol\":12803:12842  userVestingInfo[user][id].claimedAmount */\n      0x01\n      add\n      0x00\n        /* \"contracts/Vesting_final.sol\":12803:12857  userVestingInfo[user][id].claimedAmount += leftBalance */\n      dup3\n      dup3\n      sload\n      tag_204\n      swap2\n      swap1\n      tag_147\n      jump\t// in\n    tag_204:\n      swap3\n      pop\n      pop\n      dup2\n      swap1\n      sstore\n      pop\n        /* \"contracts/Vesting_final.sol\":12916:12927  leftBalance */\n      dup2\n        /* \"contracts/Vesting_final.sol\":12871:12886  userVestingInfo */\n      0x08\n        /* \"contracts/Vesting_final.sol\":12871:12892  userVestingInfo[user] */\n      0x00\n        /* \"contracts/Vesting_final.sol\":12887:12891  user */\n      dup8\n        /* \"contracts/Vesting_final.sol\":12871:12892  userVestingInfo[user] */\n      0xffffffffffffffffffffffffffffffffffffffff\n      and\n      0xffffffffffffffffffffffffffffffffffffffff\n      and\n      dup2\n      mstore\n      0x20\n      add\n      swap1\n      dup2\n      mstore\n      0x20\n      add\n      0x00\n      keccak256\n        /* \"contracts/Vesting_final.sol\":12893:12895  id */\n      dup6\n        /* \"contracts/Vesting_final.sol\":12871:12896  userVestingInfo[user][id] */\n      dup2\n      sload\n      dup2\n      lt\n      tag_205\n      jumpi\n      tag_206\n      tag_130\n      jump\t// in\n    tag_206:\n    tag_205:\n      swap1\n      0x00\n      mstore\n      keccak256(0x00, 0x20)\n      swap1\n      0x04\n      mul\n      add\n        /* \"contracts/Vesting_final.sol\":12871:12912  userVestingInfo[user][id].allocatedAmount */\n      0x00\n      add\n      0x00\n        /* \"contracts/Vesting_final.sol\":12871:12927  userVestingInfo[user][id].allocatedAmount -= leftBalance */\n      dup3\n      dup3\n      sload\n      tag_208\n      swap2\n      swap1\n      tag_142\n      jump\t// in\n    tag_208:\n      swap3\n      pop\n      pop\n      dup2\n      swap1\n      sstore\n      pop\n        /* \"contracts/Vesting_final.sol\":13053:13054  0 */\n      0x00\n        /* \"contracts/Vesting_final.sol\":13047:13050  fee */\n      dup2\n        /* \"contracts/Vesting_final.sol\":13047:13054  fee > 0 */\n      gt\n        /* \"contracts/Vesting_final.sol\":13043:13136  if (fee > 0) {... */\n      iszero\n      tag_209\n      jumpi\n        /* \"contracts/Vesting_final.sol\":13082:13089  owner() */\n      tag_210\n        /* \"contracts/Vesting_final.sol\":13082:13087  owner */\n      tag_71\n        /* \"contracts/Vesting_final.sol\":13082:13089  owner() */\n      jump\t// in\n    tag_210:\n        /* \"contracts/Vesting_final.sol\":13074:13099  payable(owner()).transfer */\n      0xffffffffffffffffffffffffffffffffffffffff\n      and\n        /* \"contracts/Vesting_final.sol\":13074:13104  payable(owner()).transfer(fee) */\n      0x08fc\n        /* \"contracts/Vesting_final.sol\":13100:13103  fee */\n      dup3\n        /* \"contracts/Vesting_final.sol\":13074:13104  payable(owner()).transfer(fee) */\n      swap1\n      dup2\n      iszero\n      mul\n      swap1\n      mload(0x40)\n      0x00\n      mload(0x40)\n      dup1\n      dup4\n      sub\n      dup2\n      dup6\n      dup9\n      dup9\n      call\n      swap4\n      pop\n      pop\n      pop\n      pop\n      iszero\n      dup1\n      iszero\n      tag_212\n      jumpi\n      returndatasize\n      0x00\n      dup1\n      returndatacopy\n      revert(0x00, returndatasize)\n    tag_212:\n      pop\n        /* \"contracts/Vesting_final.sol\":13043:13136  if (fee > 0) {... */\n    tag_209:\n        /* \"contracts/Vesting_final.sol\":13150:13162  uint balance */\n      0x00\n        /* \"contracts/Vesting_final.sol\":13180:13183  fee */\n      dup2\n        /* \"contracts/Vesting_final.sol\":13166:13177  leftBalance */\n      dup4\n        /* \"contracts/Vesting_final.sol\":13166:13183  leftBalance - fee */\n      tag_213\n      swap2\n      swap1\n      tag_142\n      jump\t// in\n    tag_213:\n        /* \"contracts/Vesting_final.sol\":13150:13183  uint balance  = leftBalance - fee */\n      swap1\n      pop\n        /* \"contracts/Vesting_final.sol\":13202:13236  Withdraw(balance, block.timestamp) */\n      0x56ca301a9219608c91e7bcee90e083c19671d2cdcc96752c7af291cee5f9c8c8\n        /* \"contracts/Vesting_final.sol\":13211:13218  balance */\n      dup2\n        /* \"contracts/Vesting_final.sol\":13220:13235  block.timestamp */\n      timestamp\n        /* \"contracts/Vesting_final.sol\":13202:13236  Withdraw(balance, block.timestamp) */\n      mload(0x40)\n      tag_214\n      swap3\n      swap2\n      swap1\n      tag_44\n      jump\t// in\n    tag_214:\n      mload(0x40)\n      dup1\n      swap2\n      sub\n      swap1\n      log1\n        /* \"contracts/Vesting_final.sol\":13263:13264  0 */\n      0x00\n        /* \"contracts/Vesting_final.sol\":13253:13260  balance */\n      dup2\n        /* \"contracts/Vesting_final.sol\":13253:13264  balance > 0 */\n      gt\n        /* \"contracts/Vesting_final.sol\":13250:13342  if(balance > 0)... */\n      iszero\n      tag_215\n      jumpi\n        /* \"contracts/Vesting_final.sol\":13304:13308  user */\n      dup6\n        /* \"contracts/Vesting_final.sol\":13296:13318  payable(user).transfer */\n      0xffffffffffffffffffffffffffffffffffffffff\n      and\n        /* \"contracts/Vesting_final.sol\":13296:13327  payable(user).transfer(balance) */\n      0x08fc\n        /* \"contracts/Vesting_final.sol\":13319:13326  balance */\n      dup3\n        /* \"contracts/Vesting_final.sol\":13296:13327  payable(user).transfer(balance) */\n      swap1\n      dup2\n      iszero\n      mul\n      swap1\n      mload(0x40)\n      0x00\n      mload(0x40)\n      dup1\n      dup4\n      sub\n      dup2\n      dup6\n      dup9\n      dup9\n      call\n      swap4\n      pop\n      pop\n      pop\n      pop\n      iszero\n      dup1\n      iszero\n      tag_217\n      jumpi\n      returndatasize\n      0x00\n      dup1\n      returndatacopy\n      revert(0x00, returndatasize)\n    tag_217:\n      pop\n        /* \"contracts/Vesting_final.sol\":13250:13342  if(balance > 0)... */\n    tag_215:\n        /* \"contracts/Vesting_final.sol\":12573:13352  {... */\n      pop\n        /* \"contracts/Vesting_final.sol\":12552:13352  if (leftBalance > 0) {... */\n    tag_193:\n        /* \"contracts/Vesting_final.sol\":12292:13358  {... */\n      pop\n      pop\n      pop\n        /* \"contracts/Vesting_final.sol\":8260:8265  false */\n      0x00\n        /* \"contracts/Vesting_final.sol\":8251:8257  locked */\n      0x06\n      0x00\n        /* \"contracts/Vesting_final.sol\":8251:8265  locked = false */\n      0x0100\n      exp\n      dup2\n      sload\n      dup2\n      0xff\n      mul\n      not\n      and\n      swap1\n      dup4\n      iszero\n      iszero\n      mul\n      or\n      swap1\n      sstore\n      pop\n        /* \"contracts/Vesting_final.sol\":12209:13358  function claimTotalTokens(address user, uint256 id) external onlyOwner noReentrant {... */\n      pop\n      pop\n      jump\t// out\n        /* \"contracts/Vesting_final.sol\":15115:15350  function drainTokens(uint256 _amount) external onlyOwner {... */\n    tag_53:\n        /* \"contracts/Vesting_final.sol\":4245:4257  _msgSender() */\n      tag_219\n        /* \"contracts/Vesting_final.sol\":4245:4255  _msgSender */\n      tag_173\n        /* \"contracts/Vesting_final.sol\":4245:4257  _msgSender() */\n      jump\t// in\n    tag_219:\n        /* \"contracts/Vesting_final.sol\":4234:4257  owner() == _msgSender() */\n      0xffffffffffffffffffffffffffffffffffffffff\n      and\n        /* \"contracts/Vesting_final.sol\":4234:4241  owner() */\n      tag_220\n        /* \"contracts/Vesting_final.sol\":4234:4239  owner */\n      tag_71\n        /* \"contracts/Vesting_final.sol\":4234:4241  owner() */\n      jump\t// in\n    tag_220:\n        /* \"contracts/Vesting_final.sol\":4234:4257  owner() == _msgSender() */\n      0xffffffffffffffffffffffffffffffffffffffff\n      and\n      eq\n        /* \"contracts/Vesting_final.sol\":4226:4294  require(owner() == _msgSender(), \"Ownable: caller is not the owner\") */\n      tag_221\n      jumpi\n      mload(0x40)\n      0x08c379a000000000000000000000000000000000000000000000000000000000\n      dup2\n      mstore\n      0x04\n      add\n      tag_222\n      swap1\n      tag_177\n      jump\t// in\n    tag_222:\n      mload(0x40)\n      dup1\n      swap2\n      sub\n      swap1\n      revert\n    tag_221:\n        /* \"contracts/Vesting_final.sol\":15230:15243  address owner */\n      0x00\n        /* \"contracts/Vesting_final.sol\":15246:15253  owner() */\n      tag_224\n        /* \"contracts/Vesting_final.sol\":15246:15251  owner */\n      tag_71\n        /* \"contracts/Vesting_final.sol\":15246:15253  owner() */\n      jump\t// in\n    tag_224:\n        /* \"contracts/Vesting_final.sol\":15230:15253  address owner = owner() */\n      swap1\n      pop\n        /* \"contracts/Vesting_final.sol\":15283:15284  0 */\n      0x00\n        /* \"contracts/Vesting_final.sol\":15266:15285  owner != address(0) */\n      0xffffffffffffffffffffffffffffffffffffffff\n      and\n        /* \"contracts/Vesting_final.sol\":15266:15271  owner */\n      dup2\n        /* \"contracts/Vesting_final.sol\":15266:15285  owner != address(0) */\n      0xffffffffffffffffffffffffffffffffffffffff\n      and\n      eq\n        /* \"contracts/Vesting_final.sol\":15263:15344  if(owner != address(0))... */\n      tag_225\n      jumpi\n        /* \"contracts/Vesting_final.sol\":15313:15318  owner */\n      dup1\n        /* \"contracts/Vesting_final.sol\":15305:15328  payable(owner).transfer */\n      0xffffffffffffffffffffffffffffffffffffffff\n      and\n        /* \"contracts/Vesting_final.sol\":15305:15337  payable(owner).transfer(_amount) */\n      0x08fc\n        /* \"contracts/Vesting_final.sol\":15329:15336  _amount */\n      dup4\n        /* \"contracts/Vesting_final.sol\":15305:15337  payable(owner).transfer(_amount) */\n      swap1\n      dup2\n      iszero\n      mul\n      swap1\n      mload(0x40)\n      0x00\n      mload(0x40)\n      dup1\n      dup4\n      sub\n      dup2\n      dup6\n      dup9\n      dup9\n      call\n      swap4\n      pop\n      pop\n      pop\n      pop\n      iszero\n      dup1\n      iszero\n      tag_227\n      jumpi\n      returndatasize\n      0x00\n      dup1\n      returndatacopy\n      revert(0x00, returndatasize)\n    tag_227:\n      pop\n        /* \"contracts/Vesting_final.sol\":15263:15344  if(owner != address(0))... */\n    tag_225:\n        /* \"contracts/Vesting_final.sol\":15172:15350  {... */\n      pop\n        /* \"contracts/Vesting_final.sol\":15115:15350  function drainTokens(uint256 _amount) external onlyOwner {... */\n      pop\n      jump\t// out\n        /* \"contracts/Vesting_final.sol\":8884:9262  function allocateForVesting(address userAddress) external payable onlyOwner noReentrant{... */\n    tag_56:\n        /* \"contracts/Vesting_final.sol\":4245:4257  _msgSender() */\n      tag_229\n        /* \"contracts/Vesting_final.sol\":4245:4255  _msgSender */\n      tag_173\n        /* \"contracts/Vesting_final.sol\":4245:4257  _msgSender() */\n      jump\t// in\n    tag_229:\n        /* \"contracts/Vesting_final.sol\":4234:4257  owner() == _msgSender() */\n      0xffffffffffffffffffffffffffffffffffffffff\n      and\n        /* \"contracts/Vesting_final.sol\":4234:4241  owner() */\n      tag_230\n        /* \"contracts/Vesting_final.sol\":4234:4239  owner */\n      tag_71\n        /* \"contracts/Vesting_final.sol\":4234:4241  owner() */\n      jump\t// in\n    tag_230:\n        /* \"contracts/Vesting_final.sol\":4234:4257  owner() == _msgSender() */\n      0xffffffffffffffffffffffffffffffffffffffff\n      and\n      eq\n        /* \"contracts/Vesting_final.sol\":4226:4294  require(owner() == _msgSender(), \"Ownable: caller is not the owner\") */\n      tag_231\n      jumpi\n      mload(0x40)\n      0x08c379a000000000000000000000000000000000000000000000000000000000\n      dup2\n      mstore\n      0x04\n      add\n      tag_232\n      swap1\n      tag_177\n      jump\t// in\n    tag_232:\n      mload(0x40)\n      dup1\n      swap2\n      sub\n      swap1\n      revert\n    tag_231:\n        /* \"contracts/Vesting_final.sol\":8182:8188  locked */\n      0x06\n      0x00\n      swap1\n      sload\n      swap1\n      0x0100\n      exp\n      swap1\n      div\n      0xff\n      and\n        /* \"contracts/Vesting_final.sol\":8181:8188  !locked */\n      iszero\n        /* \"contracts/Vesting_final.sol\":8173:8207  require(!locked, \"No re-entrancy\") */\n      tag_234\n      jumpi\n      mload(0x40)\n      0x08c379a000000000000000000000000000000000000000000000000000000000\n      dup2\n      mstore\n      0x04\n      add\n      tag_235\n      swap1\n      tag_181\n      jump\t// in\n    tag_235:\n      mload(0x40)\n      dup1\n      swap2\n      sub\n      swap1\n      revert\n    tag_234:\n        /* \"contracts/Vesting_final.sol\":8226:8230  true */\n      0x01\n        /* \"contracts/Vesting_final.sol\":8217:8223  locked */\n      0x06\n      0x00\n        /* \"contracts/Vesting_final.sol\":8217:8230  locked = true */\n      0x0100\n      exp\n      dup2\n      sload\n      dup2\n      0xff\n      mul\n      not\n      and\n      swap1\n      dup4\n      iszero\n      iszero\n      mul\n      or\n      swap1\n      sstore\n      pop\n        /* \"contracts/Vesting_final.sol\":9003:9016  allocatedUser */\n      0x09\n        /* \"contracts/Vesting_final.sol\":9003:9029  allocatedUser[userAddress] */\n      0x00\n        /* \"contracts/Vesting_final.sol\":9017:9028  userAddress */\n      dup3\n        /* \"contracts/Vesting_final.sol\":9003:9029  allocatedUser[userAddress] */\n      0xffffffffffffffffffffffffffffffffffffffff\n      and\n      0xffffffffffffffffffffffffffffffffffffffff\n      and\n      dup2\n      mstore\n      0x20\n      add\n      swap1\n      dup2\n      mstore\n      0x20\n      add\n      0x00\n      keccak256\n      0x00\n      swap1\n      sload\n      swap1\n      0x0100\n      exp\n      swap1\n      div\n      0xff\n      and\n        /* \"contracts/Vesting_final.sol\":9002:9029  !allocatedUser[userAddress] */\n      iszero\n        /* \"contracts/Vesting_final.sol\":8981:9096  require(... */\n      tag_237\n      jumpi\n      mload(0x40)\n      0x08c379a000000000000000000000000000000000000000000000000000000000\n      dup2\n      mstore\n      0x04\n      add\n      tag_238\n      swap1\n      tag_239\n      jump\t// in\n    tag_238:\n      mload(0x40)\n      dup1\n      swap2\n      sub\n      swap1\n      revert\n    tag_237:\n        /* \"contracts/Vesting_final.sol\":9173:9212  _allocateAmount(userAddress, msg.value) */\n      tag_240\n        /* \"contracts/Vesting_final.sol\":9189:9200  userAddress */\n      dup2\n        /* \"contracts/Vesting_final.sol\":9202:9211  msg.value */\n      callvalue\n        /* \"contracts/Vesting_final.sol\":9173:9188  _allocateAmount */\n      tag_241\n        /* \"contracts/Vesting_final.sol\":9173:9212  _allocateAmount(userAddress, msg.value) */\n      jump\t// in\n    tag_240:\n        /* \"contracts/Vesting_final.sol\":9251:9255  true */\n      0x01\n        /* \"contracts/Vesting_final.sol\":9222:9235  allocatedUser */\n      0x09\n        /* \"contracts/Vesting_final.sol\":9222:9248  allocatedUser[userAddress] */\n      0x00\n        /* \"contracts/Vesting_final.sol\":9236:9247  userAddress */\n      dup4\n        /* \"contracts/Vesting_final.sol\":9222:9248  allocatedUser[userAddress] */\n      0xffffffffffffffffffffffffffffffffffffffff\n      and\n      0xffffffffffffffffffffffffffffffffffffffff\n      and\n      dup2\n      mstore\n      0x20\n      add\n      swap1\n      dup2\n      mstore\n      0x20\n      add\n      0x00\n      keccak256\n      0x00\n        /* \"contracts/Vesting_final.sol\":9222:9255  allocatedUser[userAddress] = true */\n      0x0100\n      exp\n      dup2\n      sload\n      dup2\n      0xff\n      mul\n      not\n      and\n      swap1\n      dup4\n      iszero\n      iszero\n      mul\n      or\n      swap1\n      sstore\n      pop\n        /* \"contracts/Vesting_final.sol\":8260:8265  false */\n      0x00\n        /* \"contracts/Vesting_final.sol\":8251:8257  locked */\n      0x06\n      0x00\n        /* \"contracts/Vesting_final.sol\":8251:8265  locked = false */\n      0x0100\n      exp\n      dup2\n      sload\n      dup2\n      0xff\n      mul\n      not\n      and\n      swap1\n      dup4\n      iszero\n      iszero\n      mul\n      or\n      swap1\n      sstore\n      pop\n        /* \"contracts/Vesting_final.sol\":8884:9262  function allocateForVesting(address userAddress) external payable onlyOwner noReentrant{... */\n      pop\n      jump\t// out\n        /* \"contracts/Vesting_final.sol\":4654:4755  function renounceOwnership() public virtual onlyOwner {... */\n    tag_59:\n        /* \"contracts/Vesting_final.sol\":4245:4257  _msgSender() */\n      tag_243\n        /* \"contracts/Vesting_final.sol\":4245:4255  _msgSender */\n      tag_173\n        /* \"contracts/Vesting_final.sol\":4245:4257  _msgSender() */\n      jump\t// in\n    tag_243:\n        /* \"contracts/Vesting_final.sol\":4234:4257  owner() == _msgSender() */\n      0xffffffffffffffffffffffffffffffffffffffff\n      and\n        /* \"contracts/Vesting_final.sol\":4234:4241  owner() */\n      tag_244\n        /* \"contracts/Vesting_final.sol\":4234:4239  owner */\n      tag_71\n        /* \"contracts/Vesting_final.sol\":4234:4241  owner() */\n      jump\t// in\n    tag_244:\n        /* \"contracts/Vesting_final.sol\":4234:4257  owner() == _msgSender() */\n      0xffffffffffffffffffffffffffffffffffffffff\n      and\n      eq\n        /* \"contracts/Vesting_final.sol\":4226:4294  require(owner() == _msgSender(), \"Ownable: caller is not the owner\") */\n      tag_245\n      jumpi\n      mload(0x40)\n      0x08c379a000000000000000000000000000000000000000000000000000000000\n      dup2\n      mstore\n      0x04\n      add\n      tag_246\n      swap1\n      tag_177\n      jump\t// in\n    tag_246:\n      mload(0x40)\n      dup1\n      swap2\n      sub\n      swap1\n      revert\n    tag_245:\n        /* \"contracts/Vesting_final.sol\":4718:4748  _transferOwnership(address(0)) */\n      tag_248\n        /* \"contracts/Vesting_final.sol\":4745:4746  0 */\n      0x00\n        /* \"contracts/Vesting_final.sol\":4718:4736  _transferOwnership */\n      tag_249\n        /* \"contracts/Vesting_final.sol\":4718:4748  _transferOwnership(address(0)) */\n      jump\t// in\n    tag_248:\n        /* \"contracts/Vesting_final.sol\":4654:4755  function renounceOwnership() public virtual onlyOwner {... */\n      jump\t// out\n        /* \"contracts/Vesting_final.sol\":6607:6836  function acceptOwnership() public virtual {... */\n    tag_62:\n        /* \"contracts/Vesting_final.sol\":6659:6673  address sender */\n      0x00\n        /* \"contracts/Vesting_final.sol\":6676:6688  _msgSender() */\n      tag_251\n        /* \"contracts/Vesting_final.sol\":6676:6686  _msgSender */\n      tag_173\n        /* \"contracts/Vesting_final.sol\":6676:6688  _msgSender() */\n      jump\t// in\n    tag_251:\n        /* \"contracts/Vesting_final.sol\":6659:6688  address sender = _msgSender() */\n      swap1\n      pop\n        /* \"contracts/Vesting_final.sol\":6720:6726  sender */\n      dup1\n        /* \"contracts/Vesting_final.sol\":6702:6726  pendingOwner() != sender */\n      0xffffffffffffffffffffffffffffffffffffffff\n      and\n        /* \"contracts/Vesting_final.sol\":6702:6716  pendingOwner() */\n      tag_252\n        /* \"contracts/Vesting_final.sol\":6702:6714  pendingOwner */\n      tag_109\n        /* \"contracts/Vesting_final.sol\":6702:6716  pendingOwner() */\n      jump\t// in\n    tag_252:\n        /* \"contracts/Vesting_final.sol\":6702:6726  pendingOwner() != sender */\n      0xffffffffffffffffffffffffffffffffffffffff\n      and\n      eq\n        /* \"contracts/Vesting_final.sol\":6698:6794  if (pendingOwner() != sender) {... */\n      tag_253\n      jumpi\n        /* \"contracts/Vesting_final.sol\":6776:6782  sender */\n      dup1\n        /* \"contracts/Vesting_final.sol\":6749:6783  OwnableUnauthorizedAccount(sender) */\n      mload(0x40)\n      0x118cdaa700000000000000000000000000000000000000000000000000000000\n      dup2\n      mstore\n      0x04\n      add\n      tag_254\n      swap2\n      swap1\n      tag_73\n      jump\t// in\n    tag_254:\n      mload(0x40)\n      dup1\n      swap2\n      sub\n      swap1\n      revert\n        /* \"contracts/Vesting_final.sol\":6698:6794  if (pendingOwner() != sender) {... */\n    tag_253:\n        /* \"contracts/Vesting_final.sol\":6803:6829  _transferOwnership(sender) */\n      tag_255\n        /* \"contracts/Vesting_final.sol\":6822:6828  sender */\n      dup2\n        /* \"contracts/Vesting_final.sol\":6803:6821  _transferOwnership */\n      tag_249\n        /* \"contracts/Vesting_final.sol\":6803:6829  _transferOwnership(sender) */\n      jump\t// in\n    tag_255:\n        /* \"contracts/Vesting_final.sol\":6649:6836  {... */\n      pop\n        /* \"contracts/Vesting_final.sol\":6607:6836  function acceptOwnership() public virtual {... */\n      jump\t// out\n        /* \"contracts/Vesting_final.sol\":14788:14964  function getVestingInfo(... */\n    tag_66:\n        /* \"contracts/Vesting_final.sol\":14888:14906  VestingInfo memory */\n      tag_256\n      tag_257\n      jump\t// in\n    tag_256:\n        /* \"contracts/Vesting_final.sol\":14925:14940  userVestingInfo */\n      0x08\n        /* \"contracts/Vesting_final.sol\":14925:14953  userVestingInfo[userAddress] */\n      0x00\n        /* \"contracts/Vesting_final.sol\":14941:14952  userAddress */\n      dup5\n        /* \"contracts/Vesting_final.sol\":14925:14953  userVestingInfo[userAddress] */\n      0xffffffffffffffffffffffffffffffffffffffff\n      and\n      0xffffffffffffffffffffffffffffffffffffffff\n      and\n      dup2\n      mstore\n      0x20\n      add\n      swap1\n      dup2\n      mstore\n      0x20\n      add\n      0x00\n      keccak256\n        /* \"contracts/Vesting_final.sol\":14954:14956  id */\n      dup3\n        /* \"contracts/Vesting_final.sol\":14925:14957  userVestingInfo[userAddress][id] */\n      dup2\n      sload\n      dup2\n      lt\n      tag_259\n      jumpi\n      tag_260\n      tag_130\n      jump\t// in\n    tag_260:\n    tag_259:\n      swap1\n      0x00\n      mstore\n      keccak256(0x00, 0x20)\n      swap1\n      0x04\n      mul\n      add\n        /* \"contracts/Vesting_final.sol\":14918:14957  return userVestingInfo[userAddress][id] */\n      mload(0x40)\n      dup1\n      0x80\n      add\n      0x40\n      mstore\n      swap1\n      dup2\n      0x00\n      dup3\n      add\n      sload\n      dup2\n      mstore\n      0x20\n      add\n      0x01\n      dup3\n      add\n      sload\n      dup2\n      mstore\n      0x20\n      add\n      0x02\n      dup3\n      add\n      sload\n      dup2\n      mstore\n      0x20\n      add\n      0x03\n      dup3\n      add\n      sload\n      dup2\n      mstore\n      pop\n      pop\n      swap1\n      pop\n        /* \"contracts/Vesting_final.sol\":14788:14964  function getVestingInfo(... */\n      swap3\n      swap2\n      pop\n      pop\n      jump\t// out\n        /* \"contracts/Vesting_final.sol\":4022:4107  function owner() public view virtual returns (address) {... */\n    tag_71:\n        /* \"contracts/Vesting_final.sol\":4068:4075  address */\n      0x00\n        /* \"contracts/Vesting_final.sol\":4094:4100  _owner */\n      dup1\n      0x00\n      swap1\n      sload\n      swap1\n      0x0100\n      exp\n      swap1\n      div\n      0xffffffffffffffffffffffffffffffffffffffff\n      and\n        /* \"contracts/Vesting_final.sol\":4087:4100  return _owner */\n      swap1\n      pop\n        /* \"contracts/Vesting_final.sol\":4022:4107  function owner() public view virtual returns (address) {... */\n      swap1\n      jump\t// out\n        /* \"contracts/Vesting_final.sol\":7234:7258  uint256 public adminComm */\n    tag_76:\n      sload(0x02)\n      dup2\n      jump\t// out\n        /* \"contracts/Vesting_final.sol\":8278:8426  function updateAdminCommission(uint256 commission) external onlyOwner {... */\n    tag_81:\n        /* \"contracts/Vesting_final.sol\":4245:4257  _msgSender() */\n      tag_264\n        /* \"contracts/Vesting_final.sol\":4245:4255  _msgSender */\n      tag_173\n        /* \"contracts/Vesting_final.sol\":4245:4257  _msgSender() */\n      jump\t// in\n    tag_264:\n        /* \"contracts/Vesting_final.sol\":4234:4257  owner() == _msgSender() */\n      0xffffffffffffffffffffffffffffffffffffffff\n      and\n        /* \"contracts/Vesting_final.sol\":4234:4241  owner() */\n      tag_265\n        /* \"contracts/Vesting_final.sol\":4234:4239  owner */\n      tag_71\n        /* \"contracts/Vesting_final.sol\":4234:4241  owner() */\n      jump\t// in\n    tag_265:\n        /* \"contracts/Vesting_final.sol\":4234:4257  owner() == _msgSender() */\n      0xffffffffffffffffffffffffffffffffffffffff\n      and\n      eq\n        /* \"contracts/Vesting_final.sol\":4226:4294  require(owner() == _msgSender(), \"Ownable: caller is not the owner\") */\n      tag_266\n      jumpi\n      mload(0x40)\n      0x08c379a000000000000000000000000000000000000000000000000000000000\n      dup2\n      mstore\n      0x04\n      add\n      tag_267\n      swap1\n      tag_177\n      jump\t// in\n    tag_267:\n      mload(0x40)\n      dup1\n      swap2\n      sub\n      swap1\n      revert\n    tag_266:\n        /* \"contracts/Vesting_final.sol\":8370:8380  commission */\n      dup1\n        /* \"contracts/Vesting_final.sol\":8358:8367  adminComm */\n      0x02\n        /* \"contracts/Vesting_final.sol\":8358:8380  adminComm = commission */\n      dup2\n      swap1\n      sstore\n      pop\n        /* \"contracts/Vesting_final.sol\":8395:8419  AdminChanged(commission) */\n      0x4efe83add28265e9d321d1fed828b67205560fca9df811911361a29f2f5458fb\n        /* \"contracts/Vesting_final.sol\":8408:8418  commission */\n      dup2\n        /* \"contracts/Vesting_final.sol\":8395:8419  AdminChanged(commission) */\n      mload(0x40)\n      tag_269\n      swap2\n      swap1\n      tag_30\n      jump\t// in\n    tag_269:\n      mload(0x40)\n      dup1\n      swap2\n      sub\n      swap1\n      log1\n        /* \"contracts/Vesting_final.sol\":8278:8426  function updateAdminCommission(uint256 commission) external onlyOwner {... */\n      pop\n      jump\t// out\n        /* \"contracts/Vesting_final.sol\":7497:7542  mapping(address => bool) public allocatedUser */\n    tag_85:\n      mstore(0x20, 0x09)\n      dup1\n      0x00\n      mstore\n      keccak256(0x00, 0x40)\n      0x00\n      swap2\n      pop\n      sload\n      swap1\n      0x0100\n      exp\n      swap1\n      div\n      0xff\n      and\n      dup2\n      jump\t// out\n        /* \"contracts/Vesting_final.sol\":15356:16001  function updateVestingStartTimestamp(... */\n    tag_92:\n        /* \"contracts/Vesting_final.sol\":4245:4257  _msgSender() */\n      tag_271\n        /* \"contracts/Vesting_final.sol\":4245:4255  _msgSender */\n      tag_173\n        /* \"contracts/Vesting_final.sol\":4245:4257  _msgSender() */\n      jump\t// in\n    tag_271:\n        /* \"contracts/Vesting_final.sol\":4234:4257  owner() == _msgSender() */\n      0xffffffffffffffffffffffffffffffffffffffff\n      and\n        /* \"contracts/Vesting_final.sol\":4234:4241  owner() */\n      tag_272\n        /* \"contracts/Vesting_final.sol\":4234:4239  owner */\n      tag_71\n        /* \"contracts/Vesting_final.sol\":4234:4241  owner() */\n      jump\t// in\n    tag_272:\n        /* \"contracts/Vesting_final.sol\":4234:4257  owner() == _msgSender() */\n      0xffffffffffffffffffffffffffffffffffffffff\n      and\n      eq\n        /* \"contracts/Vesting_final.sol\":4226:4294  require(owner() == _msgSender(), \"Ownable: caller is not the owner\") */\n      tag_273\n      jumpi\n      mload(0x40)\n      0x08c379a000000000000000000000000000000000000000000000000000000000\n      dup2\n      mstore\n      0x04\n      add\n      tag_274\n      swap1\n      tag_177\n      jump\t// in\n    tag_274:\n      mload(0x40)\n      dup1\n      swap2\n      sub\n      swap1\n      revert\n    tag_273:\n        /* \"contracts/Vesting_final.sol\":15566:15567  0 */\n      0x00\n        /* \"contracts/Vesting_final.sol\":15538:15563  _newVestingStartTimestamp */\n      dup2\n        /* \"contracts/Vesting_final.sol\":15538:15567  _newVestingStartTimestamp > 0 */\n      gt\n        /* \"contracts/Vesting_final.sol\":15517:15634  require(... */\n      tag_276\n      jumpi\n      mload(0x40)\n      0x08c379a000000000000000000000000000000000000000000000000000000000\n      dup2\n      mstore\n      0x04\n      add\n      tag_277\n      swap1\n      tag_278\n      jump\t// in\n    tag_277:\n      mload(0x40)\n      dup1\n      swap2\n      sub\n      swap1\n      revert\n    tag_276:\n        /* \"contracts/Vesting_final.sol\":15744:15745  0 */\n      0x00\n        /* \"contracts/Vesting_final.sol\":15727:15746  _user != address(0) */\n      0xffffffffffffffffffffffffffffffffffffffff\n      and\n        /* \"contracts/Vesting_final.sol\":15727:15732  _user */\n      dup4\n        /* \"contracts/Vesting_final.sol\":15727:15746  _user != address(0) */\n      0xffffffffffffffffffffffffffffffffffffffff\n      and\n      sub\n        /* \"contracts/Vesting_final.sol\":15719:15771  require(_user != address(0), \"Invalid user address\") */\n      tag_279\n      jumpi\n      mload(0x40)\n      0x08c379a000000000000000000000000000000000000000000000000000000000\n      dup2\n      mstore\n      0x04\n      add\n      tag_280\n      swap1\n      tag_281\n      jump\t// in\n    tag_280:\n      mload(0x40)\n      dup1\n      swap2\n      sub\n      swap1\n      revert\n    tag_279:\n        /* \"contracts/Vesting_final.sol\":15846:15871  _newVestingStartTimestamp */\n      dup1\n        /* \"contracts/Vesting_final.sol\":15782:15797  userVestingInfo */\n      0x08\n        /* \"contracts/Vesting_final.sol\":15782:15804  userVestingInfo[_user] */\n      0x00\n        /* \"contracts/Vesting_final.sol\":15798:15803  _user */\n      dup6\n        /* \"contracts/Vesting_final.sol\":15782:15804  userVestingInfo[_user] */\n      0xffffffffffffffffffffffffffffffffffffffff\n      and\n      0xffffffffffffffffffffffffffffffffffffffff\n      and\n      dup2\n      mstore\n      0x20\n      add\n      swap1\n      dup2\n      mstore\n      0x20\n      add\n      0x00\n      keccak256\n        /* \"contracts/Vesting_final.sol\":15805:15810  index */\n      dup4\n        /* \"contracts/Vesting_final.sol\":15782:15811  userVestingInfo[_user][index] */\n      dup2\n      sload\n      dup2\n      lt\n      tag_282\n      jumpi\n      tag_283\n      tag_130\n      jump\t// in\n    tag_283:\n    tag_282:\n      swap1\n      0x00\n      mstore\n      keccak256(0x00, 0x20)\n      swap1\n      0x04\n      mul\n      add\n        /* \"contracts/Vesting_final.sol\":15782:15843  userVestingInfo[_user][index]... */\n      0x02\n      add\n        /* \"contracts/Vesting_final.sol\":15782:15871  userVestingInfo[_user][index]... */\n      dup2\n      swap1\n      sstore\n      pop\n        /* \"contracts/Vesting_final.sol\":15983:15994  claimEndDay */\n      sload(0x03)\n        /* \"contracts/Vesting_final.sol\":15943:15968  _newVestingStartTimestamp */\n      dup2\n        /* \"contracts/Vesting_final.sol\":15943:15994  _newVestingStartTimestamp +... */\n      tag_285\n      swap2\n      swap1\n      tag_147\n      jump\t// in\n    tag_285:\n        /* \"contracts/Vesting_final.sol\":15881:15896  userVestingInfo */\n      0x08\n        /* \"contracts/Vesting_final.sol\":15881:15903  userVestingInfo[_user] */\n      0x00\n        /* \"contracts/Vesting_final.sol\":15897:15902  _user */\n      dup6\n        /* \"contracts/Vesting_final.sol\":15881:15903  userVestingInfo[_user] */\n      0xffffffffffffffffffffffffffffffffffffffff\n      and\n      0xffffffffffffffffffffffffffffffffffffffff\n      and\n      dup2\n      mstore\n      0x20\n      add\n      swap1\n      dup2\n      mstore\n      0x20\n      add\n      0x00\n      keccak256\n        /* \"contracts/Vesting_final.sol\":15904:15909  index */\n      dup4\n        /* \"contracts/Vesting_final.sol\":15881:15910  userVestingInfo[_user][index] */\n      dup2\n      sload\n      dup2\n      lt\n      tag_286\n      jumpi\n      tag_287\n      tag_130\n      jump\t// in\n    tag_287:\n    tag_286:\n      swap1\n      0x00\n      mstore\n      keccak256(0x00, 0x20)\n      swap1\n      0x04\n      mul\n      add\n        /* \"contracts/Vesting_final.sol\":15881:15928  userVestingInfo[_user][index].claimEndTimestamp */\n      0x03\n      add\n        /* \"contracts/Vesting_final.sol\":15881:15994  userVestingInfo[_user][index].claimEndTimestamp =... */\n      dup2\n      swap1\n      sstore\n      pop\n        /* \"contracts/Vesting_final.sol\":15356:16001  function updateVestingStartTimestamp(... */\n      pop\n      pop\n      pop\n      jump\t// out\n        /* \"contracts/Vesting_final.sol\":7264:7290  uint256 public claimEndDay */\n    tag_95:\n      sload(0x03)\n      dup2\n      jump\t// out\n        /* \"contracts/Vesting_final.sol\":8432:8878  function updateVestingDays(... */\n    tag_101:\n        /* \"contracts/Vesting_final.sol\":4245:4257  _msgSender() */\n      tag_290\n        /* \"contracts/Vesting_final.sol\":4245:4255  _msgSender */\n      tag_173\n        /* \"contracts/Vesting_final.sol\":4245:4257  _msgSender() */\n      jump\t// in\n    tag_290:\n        /* \"contracts/Vesting_final.sol\":4234:4257  owner() == _msgSender() */\n      0xffffffffffffffffffffffffffffffffffffffff\n      and\n        /* \"contracts/Vesting_final.sol\":4234:4241  owner() */\n      tag_291\n        /* \"contracts/Vesting_final.sol\":4234:4239  owner */\n      tag_71\n        /* \"contracts/Vesting_final.sol\":4234:4241  owner() */\n      jump\t// in\n    tag_291:\n        /* \"contracts/Vesting_final.sol\":4234:4257  owner() == _msgSender() */\n      0xffffffffffffffffffffffffffffffffffffffff\n      and\n      eq\n        /* \"contracts/Vesting_final.sol\":4226:4294  require(owner() == _msgSender(), \"Ownable: caller is not the owner\") */\n      tag_292\n      jumpi\n      mload(0x40)\n      0x08c379a000000000000000000000000000000000000000000000000000000000\n      dup2\n      mstore\n      0x04\n      add\n      tag_293\n      swap1\n      tag_177\n      jump\t// in\n    tag_293:\n      mload(0x40)\n      dup1\n      swap2\n      sub\n      swap1\n      revert\n    tag_292:\n        /* \"contracts/Vesting_final.sol\":8606:8607  0 */\n      0x00\n        /* \"contracts/Vesting_final.sol\":8585:8603  inputVestingEndDay */\n      dup3\n        /* \"contracts/Vesting_final.sol\":8585:8607  inputVestingEndDay > 0 */\n      gt\n        /* \"contracts/Vesting_final.sol\":8585:8631  inputVestingEndDay > 0 && inputClaimEndDay > 0 */\n      dup1\n      iszero\n      tag_295\n      jumpi\n      pop\n        /* \"contracts/Vesting_final.sol\":8630:8631  0 */\n      0x00\n        /* \"contracts/Vesting_final.sol\":8611:8627  inputClaimEndDay */\n      dup2\n        /* \"contracts/Vesting_final.sol\":8611:8631  inputClaimEndDay > 0 */\n      gt\n        /* \"contracts/Vesting_final.sol\":8585:8631  inputVestingEndDay > 0 && inputClaimEndDay > 0 */\n    tag_295:\n        /* \"contracts/Vesting_final.sol\":8564:8680  require(... */\n      tag_296\n      jumpi\n      mload(0x40)\n      0x08c379a000000000000000000000000000000000000000000000000000000000\n      dup2\n      mstore\n      0x04\n      add\n      tag_297\n      swap1\n      tag_298\n      jump\t// in\n    tag_297:\n      mload(0x40)\n      dup1\n      swap2\n      sub\n      swap1\n      revert\n    tag_296:\n        /* \"contracts/Vesting_final.sol\":8727:8732  86400 */\n      0x015180\n        /* \"contracts/Vesting_final.sol\":8706:8724  inputVestingEndDay */\n      dup3\n        /* \"contracts/Vesting_final.sol\":8706:8732  inputVestingEndDay * 86400 */\n      tag_299\n      swap2\n      swap1\n      tag_154\n      jump\t// in\n    tag_299:\n        /* \"contracts/Vesting_final.sol\":8690:8703  vestingEndDay */\n      0x04\n        /* \"contracts/Vesting_final.sol\":8690:8732  vestingEndDay = inputVestingEndDay * 86400 */\n      dup2\n      swap1\n      sstore\n      pop\n        /* \"contracts/Vesting_final.sol\":8775:8780  86400 */\n      0x015180\n        /* \"contracts/Vesting_final.sol\":8756:8772  inputClaimEndDay */\n      dup2\n        /* \"contracts/Vesting_final.sol\":8756:8780  inputClaimEndDay * 86400 */\n      tag_300\n      swap2\n      swap1\n      tag_154\n      jump\t// in\n    tag_300:\n        /* \"contracts/Vesting_final.sol\":8742:8753  claimEndDay */\n      0x03\n        /* \"contracts/Vesting_final.sol\":8742:8780  claimEndDay = inputClaimEndDay * 86400 */\n      dup2\n      swap1\n      sstore\n      pop\n        /* \"contracts/Vesting_final.sol\":8799:8815  inputClaimEndDay */\n      dup1\n        /* \"contracts/Vesting_final.sol\":8790:8796  endDay */\n      0x05\n        /* \"contracts/Vesting_final.sol\":8790:8815  endDay = inputClaimEndDay */\n      dup2\n      swap1\n      sstore\n      pop\n        /* \"contracts/Vesting_final.sol\":8831:8871  VestingDayChanged(vestingEndDay, endDay) */\n      0x7e70af40fa5b07e32a12e230761e17276f9de52c79c1e1ace9b58c62041f0a62\n        /* \"contracts/Vesting_final.sol\":8849:8862  vestingEndDay */\n      sload(0x04)\n        /* \"contracts/Vesting_final.sol\":8864:8870  endDay */\n      sload(0x05)\n        /* \"contracts/Vesting_final.sol\":8831:8871  VestingDayChanged(vestingEndDay, endDay) */\n      mload(0x40)\n      tag_301\n      swap3\n      swap2\n      swap1\n      tag_44\n      jump\t// in\n    tag_301:\n      mload(0x40)\n      dup1\n      swap2\n      sub\n      swap1\n      log1\n        /* \"contracts/Vesting_final.sol\":8432:8878  function updateVestingDays(... */\n      pop\n      pop\n      jump\t// out\n        /* \"contracts/Vesting_final.sol\":14970:15109  function getUserTotalVesting(address userAddress) public view returns (uint256) {... */\n    tag_105:\n        /* \"contracts/Vesting_final.sol\":15041:15048  uint256 */\n      0x00\n        /* \"contracts/Vesting_final.sol\":15067:15082  userVestingInfo */\n      0x08\n        /* \"contracts/Vesting_final.sol\":15067:15095  userVestingInfo[userAddress] */\n      0x00\n        /* \"contracts/Vesting_final.sol\":15083:15094  userAddress */\n      dup4\n        /* \"contracts/Vesting_final.sol\":15067:15095  userVestingInfo[userAddress] */\n      0xffffffffffffffffffffffffffffffffffffffff\n      and\n      0xffffffffffffffffffffffffffffffffffffffff\n      and\n      dup2\n      mstore\n      0x20\n      add\n      swap1\n      dup2\n      mstore\n      0x20\n      add\n      0x00\n      keccak256\n        /* \"contracts/Vesting_final.sol\":15067:15102  userVestingInfo[userAddress].length */\n      dup1\n      sload\n      swap1\n      pop\n        /* \"contracts/Vesting_final.sol\":15060:15102  return userVestingInfo[userAddress].length */\n      swap1\n      pop\n        /* \"contracts/Vesting_final.sol\":14970:15109  function getUserTotalVesting(address userAddress) public view returns (uint256) {... */\n      swap2\n      swap1\n      pop\n      jump\t// out\n        /* \"contracts/Vesting_final.sol\":5720:5819  function pendingOwner() public view virtual returns (address) {... */\n    tag_109:\n        /* \"contracts/Vesting_final.sol\":5773:5780  address */\n      0x00\n        /* \"contracts/Vesting_final.sol\":5799:5812  _pendingOwner */\n      0x01\n      0x00\n      swap1\n      sload\n      swap1\n      0x0100\n      exp\n      swap1\n      div\n      0xffffffffffffffffffffffffffffffffffffffff\n      and\n        /* \"contracts/Vesting_final.sol\":5792:5812  return _pendingOwner */\n      swap1\n      pop\n        /* \"contracts/Vesting_final.sol\":5720:5819  function pendingOwner() public view virtual returns (address) {... */\n      swap1\n      jump\t// out\n        /* \"contracts/Vesting_final.sol\":7296:7324  uint256 public vestingEndDay */\n    tag_113:\n      sload(0x04)\n      dup2\n      jump\t// out\n        /* \"contracts/Vesting_final.sol\":6012:6190  function transferOwnership(address newOwner) public virtual override onlyOwner {... */\n    tag_118:\n        /* \"contracts/Vesting_final.sol\":4245:4257  _msgSender() */\n      tag_305\n        /* \"contracts/Vesting_final.sol\":4245:4255  _msgSender */\n      tag_173\n        /* \"contracts/Vesting_final.sol\":4245:4257  _msgSender() */\n      jump\t// in\n    tag_305:\n        /* \"contracts/Vesting_final.sol\":4234:4257  owner() == _msgSender() */\n      0xffffffffffffffffffffffffffffffffffffffff\n      and\n        /* \"contracts/Vesting_final.sol\":4234:4241  owner() */\n      tag_306\n        /* \"contracts/Vesting_final.sol\":4234:4239  owner */\n      tag_71\n        /* \"contracts/Vesting_final.sol\":4234:4241  owner() */\n      jump\t// in\n    tag_306:\n        /* \"contracts/Vesting_final.sol\":4234:4257  owner() == _msgSender() */\n      0xffffffffffffffffffffffffffffffffffffffff\n      and\n      eq\n        /* \"contracts/Vesting_final.sol\":4226:4294  require(owner() == _msgSender(), \"Ownable: caller is not the owner\") */\n      tag_307\n      jumpi\n      mload(0x40)\n      0x08c379a000000000000000000000000000000000000000000000000000000000\n      dup2\n      mstore\n      0x04\n      add\n      tag_308\n      swap1\n      tag_177\n      jump\t// in\n    tag_308:\n      mload(0x40)\n      dup1\n      swap2\n      sub\n      swap1\n      revert\n    tag_307:\n        /* \"contracts/Vesting_final.sol\":6117:6125  newOwner */\n      dup1\n        /* \"contracts/Vesting_final.sol\":6101:6114  _pendingOwner */\n      0x01\n      0x00\n        /* \"contracts/Vesting_final.sol\":6101:6125  _pendingOwner = newOwner */\n      0x0100\n      exp\n      dup2\n      sload\n      dup2\n      0xffffffffffffffffffffffffffffffffffffffff\n      mul\n      not\n      and\n      swap1\n      dup4\n      0xffffffffffffffffffffffffffffffffffffffff\n      and\n      mul\n      or\n      swap1\n      sstore\n      pop\n        /* \"contracts/Vesting_final.sol\":6174:6182  newOwner */\n      dup1\n        /* \"contracts/Vesting_final.sol\":6140:6183  OwnershipTransferStarted(owner(), newOwner) */\n      0xffffffffffffffffffffffffffffffffffffffff\n      and\n        /* \"contracts/Vesting_final.sol\":6165:6172  owner() */\n      tag_310\n        /* \"contracts/Vesting_final.sol\":6165:6170  owner */\n      tag_71\n        /* \"contracts/Vesting_final.sol\":6165:6172  owner() */\n      jump\t// in\n    tag_310:\n        /* \"contracts/Vesting_final.sol\":6140:6183  OwnershipTransferStarted(owner(), newOwner) */\n      0xffffffffffffffffffffffffffffffffffffffff\n      and\n      0x38d16b8cac22d99fc7c124b9cd0de2d3fa1faef420bfe791d8c362d765e22700\n      mload(0x40)\n      mload(0x40)\n      dup1\n      swap2\n      sub\n      swap1\n      log3\n        /* \"contracts/Vesting_final.sol\":6012:6190  function transferOwnership(address newOwner) public virtual override onlyOwner {... */\n      pop\n      jump\t// out\n        /* \"contracts/Vesting_final.sol\":10377:12203  function claimTokens(address user, uint256 id) public noReentrant {... */\n    tag_122:\n        /* \"contracts/Vesting_final.sol\":8182:8188  locked */\n      0x06\n      0x00\n      swap1\n      sload\n      swap1\n      0x0100\n      exp\n      swap1\n      div\n      0xff\n      and\n        /* \"contracts/Vesting_final.sol\":8181:8188  !locked */\n      iszero\n        /* \"contracts/Vesting_final.sol\":8173:8207  require(!locked, \"No re-entrancy\") */\n      tag_312\n      jumpi\n      mload(0x40)\n      0x08c379a000000000000000000000000000000000000000000000000000000000\n      dup2\n      mstore\n      0x04\n      add\n      tag_313\n      swap1\n      tag_181\n      jump\t// in\n    tag_313:\n      mload(0x40)\n      dup1\n      swap2\n      sub\n      swap1\n      revert\n    tag_312:\n        /* \"contracts/Vesting_final.sol\":8226:8230  true */\n      0x01\n        /* \"contracts/Vesting_final.sol\":8217:8223  locked */\n      0x06\n      0x00\n        /* \"contracts/Vesting_final.sol\":8217:8230  locked = true */\n      0x0100\n      exp\n      dup2\n      sload\n      dup2\n      0xff\n      mul\n      not\n      and\n      swap1\n      dup4\n      iszero\n      iszero\n      mul\n      or\n      swap1\n      sstore\n      pop\n        /* \"contracts/Vesting_final.sol\":10461:10474  allocatedUser */\n      0x09\n        /* \"contracts/Vesting_final.sol\":10461:10480  allocatedUser[user] */\n      0x00\n        /* \"contracts/Vesting_final.sol\":10475:10479  user */\n      dup4\n        /* \"contracts/Vesting_final.sol\":10461:10480  allocatedUser[user] */\n      0xffffffffffffffffffffffffffffffffffffffff\n      and\n      0xffffffffffffffffffffffffffffffffffffffff\n      and\n      dup2\n      mstore\n      0x20\n      add\n      swap1\n      dup2\n      mstore\n      0x20\n      add\n      0x00\n      keccak256\n      0x00\n      swap1\n      sload\n      swap1\n      0x0100\n      exp\n      swap1\n      div\n      0xff\n      and\n        /* \"contracts/Vesting_final.sol\":10453:10517  require(allocatedUser[user], \"Funds not allocated to this user\") */\n      tag_315\n      jumpi\n      mload(0x40)\n      0x08c379a000000000000000000000000000000000000000000000000000000000\n      dup2\n      mstore\n      0x04\n      add\n      tag_316\n      swap1\n      tag_317\n      jump\t// in\n    tag_316:\n      mload(0x40)\n      dup1\n      swap2\n      sub\n      swap1\n      revert\n    tag_315:\n        /* \"contracts/Vesting_final.sol\":10528:10546  UserInfo storage u */\n      0x00\n        /* \"contracts/Vesting_final.sol\":10549:10557  userInfo */\n      0x07\n        /* \"contracts/Vesting_final.sol\":10549:10563  userInfo[user] */\n      0x00\n        /* \"contracts/Vesting_final.sol\":10558:10562  user */\n      dup5\n        /* \"contracts/Vesting_final.sol\":10549:10563  userInfo[user] */\n      0xffffffffffffffffffffffffffffffffffffffff\n      and\n      0xffffffffffffffffffffffffffffffffffffffff\n      and\n      dup2\n      mstore\n      0x20\n      add\n      swap1\n      dup2\n      mstore\n      0x20\n      add\n      0x00\n      keccak256\n        /* \"contracts/Vesting_final.sol\":10528:10563  UserInfo storage u = userInfo[user] */\n      swap1\n      pop\n        /* \"contracts/Vesting_final.sol\":10601:10602  0 */\n      0x00\n        /* \"contracts/Vesting_final.sol\":10581:10603  u.wallet != address(0) */\n      0xffffffffffffffffffffffffffffffffffffffff\n      and\n        /* \"contracts/Vesting_final.sol\":10581:10582  u */\n      dup2\n        /* \"contracts/Vesting_final.sol\":10581:10589  u.wallet */\n      0x00\n      add\n      0x00\n      swap1\n      sload\n      swap1\n      0x0100\n      exp\n      swap1\n      div\n      0xffffffffffffffffffffffffffffffffffffffff\n      and\n        /* \"contracts/Vesting_final.sol\":10581:10603  u.wallet != address(0) */\n      0xffffffffffffffffffffffffffffffffffffffff\n      and\n      sub\n        /* \"contracts/Vesting_final.sol\":10573:10620  require(u.wallet != address(0), \"Invalid user\") */\n      tag_318\n      jumpi\n      mload(0x40)\n      0x08c379a000000000000000000000000000000000000000000000000000000000\n      dup2\n      mstore\n      0x04\n      add\n      tag_319\n      swap1\n      tag_185\n      jump\t// in\n    tag_319:\n      mload(0x40)\n      dup1\n      swap2\n      sub\n      swap1\n      revert\n    tag_318:\n        /* \"contracts/Vesting_final.sol\":10798:10818  uint256 tokensToSend */\n      0x00\n        /* \"contracts/Vesting_final.sol\":10820:10840  uint256 numberOfDays */\n      dup1\n        /* \"contracts/Vesting_final.sol\":10844:10914  getUnlockedTokenAmount(... */\n      tag_320\n        /* \"contracts/Vesting_final.sol\":10880:10881  u */\n      dup4\n        /* \"contracts/Vesting_final.sol\":10880:10888  u.wallet */\n      0x00\n      add\n      0x00\n      swap1\n      sload\n      swap1\n      0x0100\n      exp\n      swap1\n      div\n      0xffffffffffffffffffffffffffffffffffffffff\n      and\n        /* \"contracts/Vesting_final.sol\":10902:10904  id */\n      dup6\n        /* \"contracts/Vesting_final.sol\":10844:10866  getUnlockedTokenAmount */\n      tag_42\n        /* \"contracts/Vesting_final.sol\":10844:10914  getUnlockedTokenAmount(... */\n      jump\t// in\n    tag_320:\n        /* \"contracts/Vesting_final.sol\":10797:10914  (uint256 tokensToSend, uint256 numberOfDays) = getUnlockedTokenAmount(... */\n      swap2\n      pop\n      swap2\n      pop\n        /* \"contracts/Vesting_final.sol\":11006:11007  0 */\n      0x00\n        /* \"contracts/Vesting_final.sol\":10991:11003  tokensToSend */\n      dup3\n        /* \"contracts/Vesting_final.sol\":10991:11007  tokensToSend > 0 */\n      gt\n        /* \"contracts/Vesting_final.sol\":10987:11783  if (tokensToSend > 0) {... */\n      iszero\n      tag_321\n      jumpi\n        /* \"contracts/Vesting_final.sol\":11023:11034  uint256 fee */\n      0x00\n        /* \"contracts/Vesting_final.sol\":11066:11071  10000 */\n      0x2710\n        /* \"contracts/Vesting_final.sol\":11053:11062  adminComm */\n      sload(0x02)\n        /* \"contracts/Vesting_final.sol\":11038:11050  tokensToSend */\n      dup5\n        /* \"contracts/Vesting_final.sol\":11038:11062  tokensToSend * adminComm */\n      tag_322\n      swap2\n      swap1\n      tag_154\n      jump\t// in\n    tag_322:\n        /* \"contracts/Vesting_final.sol\":11037:11071  (tokensToSend * adminComm) / 10000 */\n      tag_323\n      swap2\n      swap1\n      tag_149\n      jump\t// in\n    tag_323:\n        /* \"contracts/Vesting_final.sol\":11023:11071  uint256 fee = (tokensToSend * adminComm) / 10000 */\n      swap1\n      pop\n        /* \"contracts/Vesting_final.sol\":11334:11341  owner() */\n      tag_324\n        /* \"contracts/Vesting_final.sol\":11334:11339  owner */\n      tag_71\n        /* \"contracts/Vesting_final.sol\":11334:11341  owner() */\n      jump\t// in\n    tag_324:\n        /* \"contracts/Vesting_final.sol\":11326:11351  payable(owner()).transfer */\n      0xffffffffffffffffffffffffffffffffffffffff\n      and\n        /* \"contracts/Vesting_final.sol\":11326:11356  payable(owner()).transfer(fee) */\n      0x08fc\n        /* \"contracts/Vesting_final.sol\":11352:11355  fee */\n      dup3\n        /* \"contracts/Vesting_final.sol\":11326:11356  payable(owner()).transfer(fee) */\n      swap1\n      dup2\n      iszero\n      mul\n      swap1\n      mload(0x40)\n      0x00\n      mload(0x40)\n      dup1\n      dup4\n      sub\n      dup2\n      dup6\n      dup9\n      dup9\n      call\n      swap4\n      pop\n      pop\n      pop\n      pop\n      iszero\n      dup1\n      iszero\n      tag_326\n      jumpi\n      returndatasize\n      0x00\n      dup1\n      returndatacopy\n      revert(0x00, returndatasize)\n    tag_326:\n      pop\n        /* \"contracts/Vesting_final.sol\":11508:11512  user */\n      dup6\n        /* \"contracts/Vesting_final.sol\":11500:11522  payable(user).transfer */\n      0xffffffffffffffffffffffffffffffffffffffff\n      and\n        /* \"contracts/Vesting_final.sol\":11500:11542  payable(user).transfer(tokensToSend - fee) */\n      0x08fc\n        /* \"contracts/Vesting_final.sol\":11538:11541  fee */\n      dup3\n        /* \"contracts/Vesting_final.sol\":11523:11535  tokensToSend */\n      dup6\n        /* \"contracts/Vesting_final.sol\":11523:11541  tokensToSend - fee */\n      tag_327\n      swap2\n      swap1\n      tag_142\n      jump\t// in\n    tag_327:\n        /* \"contracts/Vesting_final.sol\":11500:11542  payable(user).transfer(tokensToSend - fee) */\n      swap1\n      dup2\n      iszero\n      mul\n      swap1\n      mload(0x40)\n      0x00\n      mload(0x40)\n      dup1\n      dup4\n      sub\n      dup2\n      dup6\n      dup9\n      dup9\n      call\n      swap4\n      pop\n      pop\n      pop\n      pop\n      iszero\n      dup1\n      iszero\n      tag_329\n      jumpi\n      returndatasize\n      0x00\n      dup1\n      returndatacopy\n      revert(0x00, returndatasize)\n    tag_329:\n      pop\n        /* \"contracts/Vesting_final.sol\":11561:11600  Withdraw(tokensToSend, block.timestamp) */\n      0x56ca301a9219608c91e7bcee90e083c19671d2cdcc96752c7af291cee5f9c8c8\n        /* \"contracts/Vesting_final.sol\":11570:11582  tokensToSend */\n      dup4\n        /* \"contracts/Vesting_final.sol\":11584:11599  block.timestamp */\n      timestamp\n        /* \"contracts/Vesting_final.sol\":11561:11600  Withdraw(tokensToSend, block.timestamp) */\n      mload(0x40)\n      tag_330\n      swap3\n      swap2\n      swap1\n      tag_44\n      jump\t// in\n    tag_330:\n      mload(0x40)\n      dup1\n      swap2\n      sub\n      swap1\n      log1\n        /* \"contracts/Vesting_final.sol\":11638:11650  tokensToSend */\n      dup3\n        /* \"contracts/Vesting_final.sol\":11614:11615  u */\n      dup5\n        /* \"contracts/Vesting_final.sol\":11614:11634  u.totalClaimedAmount */\n      0x02\n      add\n      0x00\n        /* \"contracts/Vesting_final.sol\":11614:11650  u.totalClaimedAmount += tokensToSend */\n      dup3\n      dup3\n      sload\n      tag_331\n      swap2\n      swap1\n      tag_147\n      jump\t// in\n    tag_331:\n      swap3\n      pop\n      pop\n      dup2\n      swap1\n      sstore\n      pop\n        /* \"contracts/Vesting_final.sol\":11690:11702  tokensToSend */\n      dup3\n        /* \"contracts/Vesting_final.sol\":11664:11665  u */\n      dup5\n        /* \"contracts/Vesting_final.sol\":11664:11686  u.totalAllocatedAmount */\n      0x01\n      add\n      0x00\n        /* \"contracts/Vesting_final.sol\":11664:11702  u.totalAllocatedAmount -= tokensToSend */\n      dup3\n      dup3\n      sload\n      tag_332\n      swap2\n      swap1\n      tag_142\n      jump\t// in\n    tag_332:\n      swap3\n      pop\n      pop\n      dup2\n      swap1\n      sstore\n      pop\n        /* \"contracts/Vesting_final.sol\":11759:11771  tokensToSend */\n      dup3\n        /* \"contracts/Vesting_final.sol\":11716:11731  userVestingInfo */\n      0x08\n        /* \"contracts/Vesting_final.sol\":11716:11737  userVestingInfo[user] */\n      0x00\n        /* \"contracts/Vesting_final.sol\":11732:11736  user */\n      dup9\n        /* \"contracts/Vesting_final.sol\":11716:11737  userVestingInfo[user] */\n      0xffffffffffffffffffffffffffffffffffffffff\n      and\n      0xffffffffffffffffffffffffffffffffffffffff\n      and\n      dup2\n      mstore\n      0x20\n      add\n      swap1\n      dup2\n      mstore\n      0x20\n      add\n      0x00\n      keccak256\n        /* \"contracts/Vesting_final.sol\":11738:11740  id */\n      dup7\n        /* \"contracts/Vesting_final.sol\":11716:11741  userVestingInfo[user][id] */\n      dup2\n      sload\n      dup2\n      lt\n      tag_333\n      jumpi\n      tag_334\n      tag_130\n      jump\t// in\n    tag_334:\n    tag_333:\n      swap1\n      0x00\n      mstore\n      keccak256(0x00, 0x20)\n      swap1\n      0x04\n      mul\n      add\n        /* \"contracts/Vesting_final.sol\":11716:11755  userVestingInfo[user][id].claimedAmount */\n      0x01\n      add\n      0x00\n        /* \"contracts/Vesting_final.sol\":11716:11771  userVestingInfo[user][id].claimedAmount += tokensToSend */\n      dup3\n      dup3\n      sload\n      tag_336\n      swap2\n      swap1\n      tag_147\n      jump\t// in\n    tag_336:\n      swap3\n      pop\n      pop\n      dup2\n      swap1\n      sstore\n      pop\n        /* \"contracts/Vesting_final.sol\":11009:11783  {... */\n      pop\n        /* \"contracts/Vesting_final.sol\":10987:11783  if (tokensToSend > 0) {... */\n    tag_321:\n        /* \"contracts/Vesting_final.sol\":11793:11814  uint256 nextClaimTime */\n      0x00\n        /* \"contracts/Vesting_final.sol\":11892:11897  86400 */\n      0x015180\n        /* \"contracts/Vesting_final.sol\":11877:11889  numberOfDays */\n      dup3\n        /* \"contracts/Vesting_final.sol\":11877:11897  numberOfDays * 86400 */\n      tag_337\n      swap2\n      swap1\n      tag_154\n      jump\t// in\n    tag_337:\n        /* \"contracts/Vesting_final.sol\":11817:11832  userVestingInfo */\n      0x08\n        /* \"contracts/Vesting_final.sol\":11817:11838  userVestingInfo[user] */\n      0x00\n        /* \"contracts/Vesting_final.sol\":11833:11837  user */\n      dup9\n        /* \"contracts/Vesting_final.sol\":11817:11838  userVestingInfo[user] */\n      0xffffffffffffffffffffffffffffffffffffffff\n      and\n      0xffffffffffffffffffffffffffffffffffffffff\n      and\n      dup2\n      mstore\n      0x20\n      add\n      swap1\n      dup2\n      mstore\n      0x20\n      add\n      0x00\n      keccak256\n        /* \"contracts/Vesting_final.sol\":11839:11841  id */\n      dup7\n        /* \"contracts/Vesting_final.sol\":11817:11842  userVestingInfo[user][id] */\n      dup2\n      sload\n      dup2\n      lt\n      tag_338\n      jumpi\n      tag_339\n      tag_130\n      jump\t// in\n    tag_339:\n    tag_338:\n      swap1\n      0x00\n      mstore\n      keccak256(0x00, 0x20)\n      swap1\n      0x04\n      mul\n      add\n        /* \"contracts/Vesting_final.sol\":11817:11861  userVestingInfo[user][id].nextClaimTimestamp */\n      0x02\n      add\n      sload\n        /* \"contracts/Vesting_final.sol\":11817:11898  userVestingInfo[user][id].nextClaimTimestamp +... */\n      tag_341\n      swap2\n      swap1\n      tag_147\n      jump\t// in\n    tag_341:\n        /* \"contracts/Vesting_final.sol\":11793:11898  uint256 nextClaimTime = userVestingInfo[user][id].nextClaimTimestamp +... */\n      swap1\n      pop\n        /* \"contracts/Vesting_final.sol\":11981:11996  userVestingInfo */\n      0x08\n        /* \"contracts/Vesting_final.sol\":11981:12002  userVestingInfo[user] */\n      0x00\n        /* \"contracts/Vesting_final.sol\":11997:12001  user */\n      dup8\n        /* \"contracts/Vesting_final.sol\":11981:12002  userVestingInfo[user] */\n      0xffffffffffffffffffffffffffffffffffffffff\n      and\n      0xffffffffffffffffffffffffffffffffffffffff\n      and\n      dup2\n      mstore\n      0x20\n      add\n      swap1\n      dup2\n      mstore\n      0x20\n      add\n      0x00\n      keccak256\n        /* \"contracts/Vesting_final.sol\":12003:12005  id */\n      dup6\n        /* \"contracts/Vesting_final.sol\":11981:12006  userVestingInfo[user][id] */\n      dup2\n      sload\n      dup2\n      lt\n      tag_342\n      jumpi\n      tag_343\n      tag_130\n      jump\t// in\n    tag_343:\n    tag_342:\n      swap1\n      0x00\n      mstore\n      keccak256(0x00, 0x20)\n      swap1\n      0x04\n      mul\n      add\n        /* \"contracts/Vesting_final.sol\":11981:12022  userVestingInfo[user][id].allocatedAmount */\n      0x00\n      add\n      sload\n        /* \"contracts/Vesting_final.sol\":11926:11941  userVestingInfo */\n      0x08\n        /* \"contracts/Vesting_final.sol\":11926:11947  userVestingInfo[user] */\n      0x00\n        /* \"contracts/Vesting_final.sol\":11942:11946  user */\n      dup9\n        /* \"contracts/Vesting_final.sol\":11926:11947  userVestingInfo[user] */\n      0xffffffffffffffffffffffffffffffffffffffff\n      and\n      0xffffffffffffffffffffffffffffffffffffffff\n      and\n      dup2\n      mstore\n      0x20\n      add\n      swap1\n      dup2\n      mstore\n      0x20\n      add\n      0x00\n      keccak256\n        /* \"contracts/Vesting_final.sol\":11948:11950  id */\n      dup7\n        /* \"contracts/Vesting_final.sol\":11926:11951  userVestingInfo[user][id] */\n      dup2\n      sload\n      dup2\n      lt\n      tag_345\n      jumpi\n      tag_346\n      tag_130\n      jump\t// in\n    tag_346:\n    tag_345:\n      swap1\n      0x00\n      mstore\n      keccak256(0x00, 0x20)\n      swap1\n      0x04\n      mul\n      add\n        /* \"contracts/Vesting_final.sol\":11926:11965  userVestingInfo[user][id].claimedAmount */\n      0x01\n      add\n      sload\n        /* \"contracts/Vesting_final.sol\":11926:12022  userVestingInfo[user][id].claimedAmount ==... */\n      sub\n        /* \"contracts/Vesting_final.sol\":11909:12197  if (... */\n      tag_348\n      jumpi\n        /* \"contracts/Vesting_final.sol\":12094:12095  0 */\n      0x00\n        /* \"contracts/Vesting_final.sol\":12047:12062  userVestingInfo */\n      0x08\n        /* \"contracts/Vesting_final.sol\":12047:12068  userVestingInfo[user] */\n      0x00\n        /* \"contracts/Vesting_final.sol\":12063:12067  user */\n      dup9\n        /* \"contracts/Vesting_final.sol\":12047:12068  userVestingInfo[user] */\n      0xffffffffffffffffffffffffffffffffffffffff\n      and\n      0xffffffffffffffffffffffffffffffffffffffff\n      and\n      dup2\n      mstore\n      0x20\n      add\n      swap1\n      dup2\n      mstore\n      0x20\n      add\n      0x00\n      keccak256\n        /* \"contracts/Vesting_final.sol\":12069:12071  id */\n      dup7\n        /* \"contracts/Vesting_final.sol\":12047:12072  userVestingInfo[user][id] */\n      dup2\n      sload\n      dup2\n      lt\n      tag_349\n      jumpi\n      tag_350\n      tag_130\n      jump\t// in\n    tag_350:\n    tag_349:\n      swap1\n      0x00\n      mstore\n      keccak256(0x00, 0x20)\n      swap1\n      0x04\n      mul\n      add\n        /* \"contracts/Vesting_final.sol\":12047:12091  userVestingInfo[user][id].nextClaimTimestamp */\n      0x02\n      add\n        /* \"contracts/Vesting_final.sol\":12047:12095  userVestingInfo[user][id].nextClaimTimestamp = 0 */\n      dup2\n      swap1\n      sstore\n      pop\n        /* \"contracts/Vesting_final.sol\":11909:12197  if (... */\n      jump(tag_352)\n    tag_348:\n        /* \"contracts/Vesting_final.sol\":12173:12186  nextClaimTime */\n      dup1\n        /* \"contracts/Vesting_final.sol\":12126:12141  userVestingInfo */\n      0x08\n        /* \"contracts/Vesting_final.sol\":12126:12147  userVestingInfo[user] */\n      0x00\n        /* \"contracts/Vesting_final.sol\":12142:12146  user */\n      dup9\n        /* \"contracts/Vesting_final.sol\":12126:12147  userVestingInfo[user] */\n      0xffffffffffffffffffffffffffffffffffffffff\n      and\n      0xffffffffffffffffffffffffffffffffffffffff\n      and\n      dup2\n      mstore\n      0x20\n      add\n      swap1\n      dup2\n      mstore\n      0x20\n      add\n      0x00\n      keccak256\n        /* \"contracts/Vesting_final.sol\":12148:12150  id */\n      dup7\n        /* \"contracts/Vesting_final.sol\":12126:12151  userVestingInfo[user][id] */\n      dup2\n      sload\n      dup2\n      lt\n      tag_353\n      jumpi\n      tag_354\n      tag_130\n      jump\t// in\n    tag_354:\n    tag_353:\n      swap1\n      0x00\n      mstore\n      keccak256(0x00, 0x20)\n      swap1\n      0x04\n      mul\n      add\n        /* \"contracts/Vesting_final.sol\":12126:12170  userVestingInfo[user][id].nextClaimTimestamp */\n      0x02\n      add\n        /* \"contracts/Vesting_final.sol\":12126:12186  userVestingInfo[user][id].nextClaimTimestamp = nextClaimTime */\n      dup2\n      swap1\n      sstore\n      pop\n        /* \"contracts/Vesting_final.sol\":11909:12197  if (... */\n    tag_352:\n        /* \"contracts/Vesting_final.sol\":10443:12203  {... */\n      pop\n      pop\n      pop\n      pop\n        /* \"contracts/Vesting_final.sol\":8260:8265  false */\n      0x00\n        /* \"contracts/Vesting_final.sol\":8251:8257  locked */\n      0x06\n      0x00\n        /* \"contracts/Vesting_final.sol\":8251:8265  locked = false */\n      0x0100\n      exp\n      dup2\n      sload\n      dup2\n      0xff\n      mul\n      not\n      and\n      swap1\n      dup4\n      iszero\n      iszero\n      mul\n      or\n      swap1\n      sstore\n      pop\n        /* \"contracts/Vesting_final.sol\":10377:12203  function claimTokens(address user, uint256 id) public noReentrant {... */\n      pop\n      pop\n      jump\t// out\n        /* \"contracts/Vesting_final.sol\":2834:2930  function _msgSender() internal view virtual returns (address) {... */\n    tag_173:\n        /* \"contracts/Vesting_final.sol\":2887:2894  address */\n      0x00\n        /* \"contracts/Vesting_final.sol\":2913:2923  msg.sender */\n      caller\n        /* \"contracts/Vesting_final.sol\":2906:2923  return msg.sender */\n      swap1\n      pop\n        /* \"contracts/Vesting_final.sol\":2834:2930  function _msgSender() internal view virtual returns (address) {... */\n      swap1\n      jump\t// out\n        /* \"contracts/Vesting_final.sol\":9268:10371  function _allocateAmount(address userAddress, uint256 _amount) internal noReentrant {... */\n    tag_241:\n        /* \"contracts/Vesting_final.sol\":8182:8188  locked */\n      0x06\n      0x00\n      swap1\n      sload\n      swap1\n      0x0100\n      exp\n      swap1\n      div\n      0xff\n      and\n        /* \"contracts/Vesting_final.sol\":8181:8188  !locked */\n      iszero\n        /* \"contracts/Vesting_final.sol\":8173:8207  require(!locked, \"No re-entrancy\") */\n      tag_358\n      jumpi\n      mload(0x40)\n      0x08c379a000000000000000000000000000000000000000000000000000000000\n      dup2\n      mstore\n      0x04\n      add\n      tag_359\n      swap1\n      tag_181\n      jump\t// in\n    tag_359:\n      mload(0x40)\n      dup1\n      swap2\n      sub\n      swap1\n      revert\n    tag_358:\n        /* \"contracts/Vesting_final.sol\":8226:8230  true */\n      0x01\n        /* \"contracts/Vesting_final.sol\":8217:8223  locked */\n      0x06\n      0x00\n        /* \"contracts/Vesting_final.sol\":8217:8230  locked = true */\n      0x0100\n      exp\n      dup2\n      sload\n      dup2\n      0xff\n      mul\n      not\n      and\n      swap1\n      dup4\n      iszero\n      iszero\n      mul\n      or\n      swap1\n      sstore\n      pop\n        /* \"contracts/Vesting_final.sol\":9362:9383  UserInfo storage user */\n      0x00\n        /* \"contracts/Vesting_final.sol\":9386:9394  userInfo */\n      0x07\n        /* \"contracts/Vesting_final.sol\":9386:9407  userInfo[userAddress] */\n      0x00\n        /* \"contracts/Vesting_final.sol\":9395:9406  userAddress */\n      dup5\n        /* \"contracts/Vesting_final.sol\":9386:9407  userInfo[userAddress] */\n      0xffffffffffffffffffffffffffffffffffffffff\n      and\n      0xffffffffffffffffffffffffffffffffffffffff\n      and\n      dup2\n      mstore\n      0x20\n      add\n      swap1\n      dup2\n      mstore\n      0x20\n      add\n      0x00\n      keccak256\n        /* \"contracts/Vesting_final.sol\":9362:9407  UserInfo storage user = userInfo[userAddress] */\n      swap1\n      pop\n        /* \"contracts/Vesting_final.sol\":9417:9450  VestingInfo[] storage vestingInfo */\n      0x00\n        /* \"contracts/Vesting_final.sol\":9453:9468  userVestingInfo */\n      0x08\n        /* \"contracts/Vesting_final.sol\":9453:9481  userVestingInfo[userAddress] */\n      0x00\n        /* \"contracts/Vesting_final.sol\":9469:9480  userAddress */\n      dup6\n        /* \"contracts/Vesting_final.sol\":9453:9481  userVestingInfo[userAddress] */\n      0xffffffffffffffffffffffffffffffffffffffff\n      and\n      0xffffffffffffffffffffffffffffffffffffffff\n      and\n      dup2\n      mstore\n      0x20\n      add\n      swap1\n      dup2\n      mstore\n      0x20\n      add\n      0x00\n      keccak256\n        /* \"contracts/Vesting_final.sol\":9417:9481  VestingInfo[] storage vestingInfo = userVestingInfo[userAddress] */\n      swap1\n      pop\n        /* \"contracts/Vesting_final.sol\":9530:9559  uint256 vestingStartTimestamp */\n      0x00\n        /* \"contracts/Vesting_final.sol\":9580:9593  vestingEndDay */\n      sload(0x04)\n        /* \"contracts/Vesting_final.sol\":9562:9577  block.timestamp */\n      timestamp\n        /* \"contracts/Vesting_final.sol\":9562:9593  block.timestamp + vestingEndDay */\n      tag_361\n      swap2\n      swap1\n      tag_147\n      jump\t// in\n    tag_361:\n        /* \"contracts/Vesting_final.sol\":9530:9593  uint256 vestingStartTimestamp = block.timestamp + vestingEndDay */\n      swap1\n      pop\n        /* \"contracts/Vesting_final.sol\":9628:9639  userAddress */\n      dup5\n        /* \"contracts/Vesting_final.sol\":9614:9618  user */\n      dup4\n        /* \"contracts/Vesting_final.sol\":9614:9625  user.wallet */\n      0x00\n      add\n      0x00\n        /* \"contracts/Vesting_final.sol\":9614:9639  user.wallet = userAddress */\n      0x0100\n      exp\n      dup2\n      sload\n      dup2\n      0xffffffffffffffffffffffffffffffffffffffff\n      mul\n      not\n      and\n      swap1\n      dup4\n      0xffffffffffffffffffffffffffffffffffffffff\n      and\n      mul\n      or\n      swap1\n      sstore\n      pop\n        /* \"contracts/Vesting_final.sol\":9654:9667  allocatedUser */\n      0x09\n        /* \"contracts/Vesting_final.sol\":9654:9680  allocatedUser[userAddress] */\n      0x00\n        /* \"contracts/Vesting_final.sol\":9668:9679  userAddress */\n      dup7\n        /* \"contracts/Vesting_final.sol\":9654:9680  allocatedUser[userAddress] */\n      0xffffffffffffffffffffffffffffffffffffffff\n      and\n      0xffffffffffffffffffffffffffffffffffffffff\n      and\n      dup2\n      mstore\n      0x20\n      add\n      swap1\n      dup2\n      mstore\n      0x20\n      add\n      0x00\n      keccak256\n      0x00\n      swap1\n      sload\n      swap1\n      0x0100\n      exp\n      swap1\n      div\n      0xff\n      and\n        /* \"contracts/Vesting_final.sol\":9650:9913  if (allocatedUser[userAddress]) {... */\n      iszero\n      tag_362\n      jumpi\n        /* \"contracts/Vesting_final.sol\":9725:9732  _amount */\n      dup4\n        /* \"contracts/Vesting_final.sol\":9696:9700  user */\n      dup4\n        /* \"contracts/Vesting_final.sol\":9696:9721  user.totalAllocatedAmount */\n      0x01\n      add\n      0x00\n        /* \"contracts/Vesting_final.sol\":9696:9732  user.totalAllocatedAmount += _amount */\n      dup3\n      dup3\n      sload\n      tag_363\n      swap2\n      swap1\n      tag_147\n      jump\t// in\n    tag_363:\n      swap3\n      pop\n      pop\n      dup2\n      swap1\n      sstore\n      pop\n        /* \"contracts/Vesting_final.sol\":9772:9776  user */\n      dup3\n        /* \"contracts/Vesting_final.sol\":9772:9795  user.totalClaimedAmount */\n      0x02\n      add\n      sload\n        /* \"contracts/Vesting_final.sol\":9746:9750  user */\n      dup4\n        /* \"contracts/Vesting_final.sol\":9746:9769  user.totalClaimedAmount */\n      0x02\n      add\n        /* \"contracts/Vesting_final.sol\":9746:9795  user.totalClaimedAmount = user.totalClaimedAmount */\n      dup2\n      swap1\n      sstore\n      pop\n        /* \"contracts/Vesting_final.sol\":9650:9913  if (allocatedUser[userAddress]) {... */\n      jump(tag_364)\n    tag_362:\n        /* \"contracts/Vesting_final.sol\":9854:9861  _amount */\n      dup4\n        /* \"contracts/Vesting_final.sol\":9826:9830  user */\n      dup4\n        /* \"contracts/Vesting_final.sol\":9826:9851  user.totalAllocatedAmount */\n      0x01\n      add\n        /* \"contracts/Vesting_final.sol\":9826:9861  user.totalAllocatedAmount = _amount */\n      dup2\n      swap1\n      sstore\n      pop\n        /* \"contracts/Vesting_final.sol\":9901:9902  0 */\n      0x00\n        /* \"contracts/Vesting_final.sol\":9875:9879  user */\n      dup4\n        /* \"contracts/Vesting_final.sol\":9875:9898  user.totalClaimedAmount */\n      0x02\n      add\n        /* \"contracts/Vesting_final.sol\":9875:9902  user.totalClaimedAmount = 0 */\n      dup2\n      swap1\n      sstore\n      pop\n        /* \"contracts/Vesting_final.sol\":9650:9913  if (allocatedUser[userAddress]) {... */\n    tag_364:\n        /* \"contracts/Vesting_final.sol\":10080:10091  vestingInfo */\n      dup2\n        /* \"contracts/Vesting_final.sol\":10110:10354  VestingInfo({... */\n      mload(0x40)\n      dup1\n      0x80\n      add\n      0x40\n      mstore\n      dup1\n        /* \"contracts/Vesting_final.sol\":10157:10164  _amount */\n      dup7\n        /* \"contracts/Vesting_final.sol\":10110:10354  VestingInfo({... */\n      dup2\n      mstore\n      0x20\n      add\n        /* \"contracts/Vesting_final.sol\":10197:10198  0 */\n      0x00\n        /* \"contracts/Vesting_final.sol\":10110:10354  VestingInfo({... */\n      dup2\n      mstore\n      0x20\n      add\n        /* \"contracts/Vesting_final.sol\":10236:10257  vestingStartTimestamp */\n      dup4\n        /* \"contracts/Vesting_final.sol\":10110:10354  VestingInfo({... */\n      dup2\n      mstore\n      0x20\n      add\n        /* \"contracts/Vesting_final.sol\":10318:10329  claimEndDay */\n      sload(0x03)\n        /* \"contracts/Vesting_final.sol\":10294:10315  vestingStartTimestamp */\n      dup5\n        /* \"contracts/Vesting_final.sol\":10294:10329  vestingStartTimestamp + claimEndDay */\n      tag_365\n      swap2\n      swap1\n      tag_147\n      jump\t// in\n    tag_365:\n        /* \"contracts/Vesting_final.sol\":10110:10354  VestingInfo({... */\n      dup2\n      mstore\n      pop\n        /* \"contracts/Vesting_final.sol\":10080:10364  vestingInfo.push(... */\n      swap1\n      dup1\n      0x01\n      dup2\n      sload\n      add\n      dup1\n      dup3\n      sstore\n      dup1\n      swap2\n      pop\n      pop\n      0x01\n      swap1\n      sub\n      swap1\n      0x00\n      mstore\n      keccak256(0x00, 0x20)\n      swap1\n      0x04\n      mul\n      add\n      0x00\n      swap1\n      swap2\n      swap1\n      swap2\n      swap1\n      swap2\n      pop\n      0x00\n      dup3\n      add\n      mload\n      dup2\n      0x00\n      add\n      sstore\n      0x20\n      dup3\n      add\n      mload\n      dup2\n      0x01\n      add\n      sstore\n      0x40\n      dup3\n      add\n      mload\n      dup2\n      0x02\n      add\n      sstore\n      0x60\n      dup3\n      add\n      mload\n      dup2\n      0x03\n      add\n      sstore\n      pop\n      pop\n        /* \"contracts/Vesting_final.sol\":9352:10371  {... */\n      pop\n      pop\n      pop\n        /* \"contracts/Vesting_final.sol\":8260:8265  false */\n      0x00\n        /* \"contracts/Vesting_final.sol\":8251:8257  locked */\n      0x06\n      0x00\n        /* \"contracts/Vesting_final.sol\":8251:8265  locked = false */\n      0x0100\n      exp\n      dup2\n      sload\n      dup2\n      0xff\n      mul\n      not\n      and\n      swap1\n      dup4\n      iszero\n      iszero\n      mul\n      or\n      swap1\n      sstore\n      pop\n        /* \"contracts/Vesting_final.sol\":9268:10371  function _allocateAmount(address userAddress, uint256 _amount) internal noReentrant {... */\n      pop\n      pop\n      jump\t// out\n        /* \"contracts/Vesting_final.sol\":6374:6527  function _transferOwnership(address newOwner) internal virtual override {... */\n    tag_249:\n        /* \"contracts/Vesting_final.sol\":6463:6476  _pendingOwner */\n      0x01\n      0x00\n        /* \"contracts/Vesting_final.sol\":6456:6476  delete _pendingOwner */\n      0x0100\n      exp\n      dup2\n      sload\n      swap1\n      0xffffffffffffffffffffffffffffffffffffffff\n      mul\n      not\n      and\n      swap1\n      sstore\n        /* \"contracts/Vesting_final.sol\":6486:6520  super._transferOwnership(newOwner) */\n      tag_368\n        /* \"contracts/Vesting_final.sol\":6511:6519  newOwner */\n      dup2\n        /* \"contracts/Vesting_final.sol\":6486:6510  super._transferOwnership */\n      tag_369\n        /* \"contracts/Vesting_final.sol\":6486:6520  super._transferOwnership(newOwner) */\n      jump\t// in\n    tag_368:\n        /* \"contracts/Vesting_final.sol\":6374:6527  function _transferOwnership(address newOwner) internal virtual override {... */\n      pop\n      jump\t// out\n        /* \"contracts/Vesting_final.sol\":5281:5468  function _transferOwnership(address newOwner) internal virtual {... */\n    tag_369:\n        /* \"contracts/Vesting_final.sol\":5354:5370  address oldOwner */\n      0x00\n        /* \"contracts/Vesting_final.sol\":5373:5379  _owner */\n      dup1\n      0x00\n      swap1\n      sload\n      swap1\n      0x0100\n      exp\n      swap1\n      div\n      0xffffffffffffffffffffffffffffffffffffffff\n      and\n        /* \"contracts/Vesting_final.sol\":5354:5379  address oldOwner = _owner */\n      swap1\n      pop\n        /* \"contracts/Vesting_final.sol\":5398:5406  newOwner */\n      dup2\n        /* \"contracts/Vesting_final.sol\":5389:5395  _owner */\n      0x00\n      dup1\n        /* \"contracts/Vesting_final.sol\":5389:5406  _owner = newOwner */\n      0x0100\n      exp\n      dup2\n      sload\n      dup2\n      0xffffffffffffffffffffffffffffffffffffffff\n      mul\n      not\n      and\n      swap1\n      dup4\n      0xffffffffffffffffffffffffffffffffffffffff\n      and\n      mul\n      or\n      swap1\n      sstore\n      pop\n        /* \"contracts/Vesting_final.sol\":5452:5460  newOwner */\n      dup2\n        /* \"contracts/Vesting_final.sol\":5421:5461  OwnershipTransferred(oldOwner, newOwner) */\n      0xffffffffffffffffffffffffffffffffffffffff\n      and\n        /* \"contracts/Vesting_final.sol\":5442:5450  oldOwner */\n      dup2\n        /* \"contracts/Vesting_final.sol\":5421:5461  OwnershipTransferred(oldOwner, newOwner) */\n      0xffffffffffffffffffffffffffffffffffffffff\n      and\n      0x8be0079c531659141344cd1fd0a4f28419497f9722a3daafe3b4186f6b6457e0\n      mload(0x40)\n      mload(0x40)\n      dup1\n      swap2\n      sub\n      swap1\n      log3\n        /* \"contracts/Vesting_final.sol\":5344:5468  {... */\n      pop\n        /* \"contracts/Vesting_final.sol\":5281:5468  function _transferOwnership(address newOwner) internal virtual {... */\n      pop\n      jump\t// out\n    tag_257:\n      mload(0x40)\n      dup1\n      0x80\n      add\n      0x40\n      mstore\n      dup1\n      0x00\n      dup2\n      mstore\n      0x20\n      add\n      0x00\n      dup2\n      mstore\n      0x20\n      add\n      0x00\n      dup2\n      mstore\n      0x20\n      add\n      0x00\n      dup2\n      mstore\n      pop\n      swap1\n      jump\t// out\n        /* \"#utility.yul\":7:84   */\n    tag_371:\n        /* \"#utility.yul\":44:51   */\n      0x00\n        /* \"#utility.yul\":73:78   */\n      dup2\n        /* \"#utility.yul\":62:78   */\n      swap1\n      pop\n        /* \"#utility.yul\":7:84   */\n      swap2\n      swap1\n      pop\n      jump\t// out\n        /* \"#utility.yul\":90:208   */\n    tag_372:\n        /* \"#utility.yul\":177:201   */\n      tag_409\n        /* \"#utility.yul\":195:200   */\n      dup2\n        /* \"#utility.yul\":177:201   */\n      tag_371\n      jump\t// in\n    tag_409:\n        /* \"#utility.yul\":172:175   */\n      dup3\n        /* \"#utility.yul\":165:202   */\n      mstore\n        /* \"#utility.yul\":90:208   */\n      pop\n      pop\n      jump\t// out\n        /* \"#utility.yul\":214:436   */\n    tag_30:\n        /* \"#utility.yul\":307:311   */\n      0x00\n        /* \"#utility.yul\":345:347   */\n      0x20\n        /* \"#utility.yul\":334:343   */\n      dup3\n        /* \"#utility.yul\":330:348   */\n      add\n        /* \"#utility.yul\":322:348   */\n      swap1\n      pop\n        /* \"#utility.yul\":358:429   */\n      tag_411\n        /* \"#utility.yul\":426:427   */\n      0x00\n        /* \"#utility.yul\":415:424   */\n      dup4\n        /* \"#utility.yul\":411:428   */\n      add\n        /* \"#utility.yul\":402:408   */\n      dup5\n        /* \"#utility.yul\":358:429   */\n      tag_372\n      jump\t// in\n    tag_411:\n        /* \"#utility.yul\":214:436   */\n      swap3\n      swap2\n      pop\n      pop\n      jump\t// out\n        /* \"#utility.yul\":523:640   */\n    tag_374:\n        /* \"#utility.yul\":632:633   */\n      0x00\n        /* \"#utility.yul\":629:630   */\n      dup1\n        /* \"#utility.yul\":622:634   */\n      revert\n        /* \"#utility.yul\":769:895   */\n    tag_376:\n        /* \"#utility.yul\":806:813   */\n      0x00\n        /* \"#utility.yul\":846:888   */\n      0xffffffffffffffffffffffffffffffffffffffff\n        /* \"#utility.yul\":839:844   */\n      dup3\n        /* \"#utility.yul\":835:889   */\n      and\n        /* \"#utility.yul\":824:889   */\n      swap1\n      pop\n        /* \"#utility.yul\":769:895   */\n      swap2\n      swap1\n      pop\n      jump\t// out\n        /* \"#utility.yul\":901:997   */\n    tag_377:\n        /* \"#utility.yul\":938:945   */\n      0x00\n        /* \"#utility.yul\":967:991   */\n      tag_417\n        /* \"#utility.yul\":985:990   */\n      dup3\n        /* \"#utility.yul\":967:991   */\n      tag_376\n      jump\t// in\n    tag_417:\n        /* \"#utility.yul\":956:991   */\n      swap1\n      pop\n        /* \"#utility.yul\":901:997   */\n      swap2\n      swap1\n      pop\n      jump\t// out\n        /* \"#utility.yul\":1003:1125   */\n    tag_378:\n        /* \"#utility.yul\":1076:1100   */\n      tag_419\n        /* \"#utility.yul\":1094:1099   */\n      dup2\n        /* \"#utility.yul\":1076:1100   */\n      tag_377\n      jump\t// in\n    tag_419:\n        /* \"#utility.yul\":1069:1074   */\n      dup2\n        /* \"#utility.yul\":1066:1101   */\n      eq\n        /* \"#utility.yul\":1056:1119   */\n      tag_420\n      jumpi\n        /* \"#utility.yul\":1115:1116   */\n      0x00\n        /* \"#utility.yul\":1112:1113   */\n      dup1\n        /* \"#utility.yul\":1105:1117   */\n      revert\n        /* \"#utility.yul\":1056:1119   */\n    tag_420:\n        /* \"#utility.yul\":1003:1125   */\n      pop\n      jump\t// out\n        /* \"#utility.yul\":1131:1270   */\n    tag_379:\n        /* \"#utility.yul\":1177:1182   */\n      0x00\n        /* \"#utility.yul\":1215:1221   */\n      dup2\n        /* \"#utility.yul\":1202:1222   */\n      calldataload\n        /* \"#utility.yul\":1193:1222   */\n      swap1\n      pop\n        /* \"#utility.yul\":1231:1264   */\n      tag_422\n        /* \"#utility.yul\":1258:1263   */\n      dup2\n        /* \"#utility.yul\":1231:1264   */\n      tag_378\n      jump\t// in\n    tag_422:\n        /* \"#utility.yul\":1131:1270   */\n      swap3\n      swap2\n      pop\n      pop\n      jump\t// out\n        /* \"#utility.yul\":1276:1605   */\n    tag_34:\n        /* \"#utility.yul\":1335:1341   */\n      0x00\n        /* \"#utility.yul\":1384:1386   */\n      0x20\n        /* \"#utility.yul\":1372:1381   */\n      dup3\n        /* \"#utility.yul\":1363:1370   */\n      dup5\n        /* \"#utility.yul\":1359:1382   */\n      sub\n        /* \"#utility.yul\":1355:1387   */\n      slt\n        /* \"#utility.yul\":1352:1471   */\n      iszero\n      tag_424\n      jumpi\n        /* \"#utility.yul\":1390:1469   */\n      tag_425\n      tag_374\n      jump\t// in\n    tag_425:\n        /* \"#utility.yul\":1352:1471   */\n    tag_424:\n        /* \"#utility.yul\":1510:1511   */\n      0x00\n        /* \"#utility.yul\":1535:1588   */\n      tag_426\n        /* \"#utility.yul\":1580:1587   */\n      dup5\n        /* \"#utility.yul\":1571:1577   */\n      dup3\n        /* \"#utility.yul\":1560:1569   */\n      dup6\n        /* \"#utility.yul\":1556:1578   */\n      add\n        /* \"#utility.yul\":1535:1588   */\n      tag_379\n      jump\t// in\n    tag_426:\n        /* \"#utility.yul\":1525:1588   */\n      swap2\n      pop\n        /* \"#utility.yul\":1481:1598   */\n      pop\n        /* \"#utility.yul\":1276:1605   */\n      swap3\n      swap2\n      pop\n      pop\n      jump\t// out\n        /* \"#utility.yul\":1611:1729   */\n    tag_380:\n        /* \"#utility.yul\":1698:1722   */\n      tag_428\n        /* \"#utility.yul\":1716:1721   */\n      dup2\n        /* \"#utility.yul\":1698:1722   */\n      tag_377\n      jump\t// in\n    tag_428:\n        /* \"#utility.yul\":1693:1696   */\n      dup3\n        /* \"#utility.yul\":1686:1723   */\n      mstore\n        /* \"#utility.yul\":1611:1729   */\n      pop\n      pop\n      jump\t// out\n        /* \"#utility.yul\":1735:2177   */\n    tag_37:\n        /* \"#utility.yul\":1884:1888   */\n      0x00\n        /* \"#utility.yul\":1922:1924   */\n      0x60\n        /* \"#utility.yul\":1911:1920   */\n      dup3\n        /* \"#utility.yul\":1907:1925   */\n      add\n        /* \"#utility.yul\":1899:1925   */\n      swap1\n      pop\n        /* \"#utility.yul\":1935:2006   */\n      tag_430\n        /* \"#utility.yul\":2003:2004   */\n      0x00\n        /* \"#utility.yul\":1992:2001   */\n      dup4\n        /* \"#utility.yul\":1988:2005   */\n      add\n        /* \"#utility.yul\":1979:1985   */\n      dup7\n        /* \"#utility.yul\":1935:2006   */\n      tag_380\n      jump\t// in\n    tag_430:\n        /* \"#utility.yul\":2016:2088   */\n      tag_431\n        /* \"#utility.yul\":2084:2086   */\n      0x20\n        /* \"#utility.yul\":2073:2082   */\n      dup4\n        /* \"#utility.yul\":2069:2087   */\n      add\n        /* \"#utility.yul\":2060:2066   */\n      dup6\n        /* \"#utility.yul\":2016:2088   */\n      tag_372\n      jump\t// in\n    tag_431:\n        /* \"#utility.yul\":2098:2170   */\n      tag_432\n        /* \"#utility.yul\":2166:2168   */\n      0x40\n        /* \"#utility.yul\":2155:2164   */\n      dup4\n        /* \"#utility.yul\":2151:2169   */\n      add\n        /* \"#utility.yul\":2142:2148   */\n      dup5\n        /* \"#utility.yul\":2098:2170   */\n      tag_372\n      jump\t// in\n    tag_432:\n        /* \"#utility.yul\":1735:2177   */\n      swap5\n      swap4\n      pop\n      pop\n      pop\n      pop\n      jump\t// out\n        /* \"#utility.yul\":2183:2305   */\n    tag_381:\n        /* \"#utility.yul\":2256:2280   */\n      tag_434\n        /* \"#utility.yul\":2274:2279   */\n      dup2\n        /* \"#utility.yul\":2256:2280   */\n      tag_371\n      jump\t// in\n    tag_434:\n        /* \"#utility.yul\":2249:2254   */\n      dup2\n        /* \"#utility.yul\":2246:2281   */\n      eq\n        /* \"#utility.yul\":2236:2299   */\n      tag_435\n      jumpi\n        /* \"#utility.yul\":2295:2296   */\n      0x00\n        /* \"#utility.yul\":2292:2293   */\n      dup1\n        /* \"#utility.yul\":2285:2297   */\n      revert\n        /* \"#utility.yul\":2236:2299   */\n    tag_435:\n        /* \"#utility.yul\":2183:2305   */\n      pop\n      jump\t// out\n        /* \"#utility.yul\":2311:2450   */\n    tag_382:\n        /* \"#utility.yul\":2357:2362   */\n      0x00\n        /* \"#utility.yul\":2395:2401   */\n      dup2\n        /* \"#utility.yul\":2382:2402   */\n      calldataload\n        /* \"#utility.yul\":2373:2402   */\n      swap1\n      pop\n        /* \"#utility.yul\":2411:2444   */\n      tag_437\n        /* \"#utility.yul\":2438:2443   */\n      dup2\n        /* \"#utility.yul\":2411:2444   */\n      tag_381\n      jump\t// in\n    tag_437:\n        /* \"#utility.yul\":2311:2450   */\n      swap3\n      swap2\n      pop\n      pop\n      jump\t// out\n        /* \"#utility.yul\":2456:2930   */\n    tag_41:\n        /* \"#utility.yul\":2524:2530   */\n      0x00\n        /* \"#utility.yul\":2532:2538   */\n      dup1\n        /* \"#utility.yul\":2581:2583   */\n      0x40\n        /* \"#utility.yul\":2569:2578   */\n      dup4\n        /* \"#utility.yul\":2560:2567   */\n      dup6\n        /* \"#utility.yul\":2556:2579   */\n      sub\n        /* \"#utility.yul\":2552:2584   */\n      slt\n        /* \"#utility.yul\":2549:2668   */\n      iszero\n      tag_439\n      jumpi\n        /* \"#utility.yul\":2587:2666   */\n      tag_440\n      tag_374\n      jump\t// in\n    tag_440:\n        /* \"#utility.yul\":2549:2668   */\n    tag_439:\n        /* \"#utility.yul\":2707:2708   */\n      0x00\n        /* \"#utility.yul\":2732:2785   */\n      tag_441\n        /* \"#utility.yul\":2777:2784   */\n      dup6\n        /* \"#utility.yul\":2768:2774   */\n      dup3\n        /* \"#utility.yul\":2757:2766   */\n      dup7\n        /* \"#utility.yul\":2753:2775   */\n      add\n        /* \"#utility.yul\":2732:2785   */\n      tag_379\n      jump\t// in\n    tag_441:\n        /* \"#utility.yul\":2722:2785   */\n      swap3\n      pop\n        /* \"#utility.yul\":2678:2795   */\n      pop\n        /* \"#utility.yul\":2834:2836   */\n      0x20\n        /* \"#utility.yul\":2860:2913   */\n      tag_442\n        /* \"#utility.yul\":2905:2912   */\n      dup6\n        /* \"#utility.yul\":2896:2902   */\n      dup3\n        /* \"#utility.yul\":2885:2894   */\n      dup7\n        /* \"#utility.yul\":2881:2903   */\n      add\n        /* \"#utility.yul\":2860:2913   */\n      tag_382\n      jump\t// in\n    tag_442:\n        /* \"#utility.yul\":2850:2913   */\n      swap2\n      pop\n        /* \"#utility.yul\":2805:2923   */\n      pop\n        /* \"#utility.yul\":2456:2930   */\n      swap3\n      pop\n      swap3\n      swap1\n      pop\n      jump\t// out\n        /* \"#utility.yul\":2936:3268   */\n    tag_44:\n        /* \"#utility.yul\":3057:3061   */\n      0x00\n        /* \"#utility.yul\":3095:3097   */\n      0x40\n        /* \"#utility.yul\":3084:3093   */\n      dup3\n        /* \"#utility.yul\":3080:3098   */\n      add\n        /* \"#utility.yul\":3072:3098   */\n      swap1\n      pop\n        /* \"#utility.yul\":3108:3179   */\n      tag_444\n        /* \"#utility.yul\":3176:3177   */\n      0x00\n        /* \"#utility.yul\":3165:3174   */\n      dup4\n        /* \"#utility.yul\":3161:3178   */\n      add\n        /* \"#utility.yul\":3152:3158   */\n      dup6\n        /* \"#utility.yul\":3108:3179   */\n      tag_372\n      jump\t// in\n    tag_444:\n        /* \"#utility.yul\":3189:3261   */\n      tag_445\n        /* \"#utility.yul\":3257:3259   */\n      0x20\n        /* \"#utility.yul\":3246:3255   */\n      dup4\n        /* \"#utility.yul\":3242:3260   */\n      add\n        /* \"#utility.yul\":3233:3239   */\n      dup5\n        /* \"#utility.yul\":3189:3261   */\n      tag_372\n      jump\t// in\n    tag_445:\n        /* \"#utility.yul\":2936:3268   */\n      swap4\n      swap3\n      pop\n      pop\n      pop\n      jump\t// out\n        /* \"#utility.yul\":3274:3603   */\n    tag_52:\n        /* \"#utility.yul\":3333:3339   */\n      0x00\n        /* \"#utility.yul\":3382:3384   */\n      0x20\n        /* \"#utility.yul\":3370:3379   */\n      dup3\n        /* \"#utility.yul\":3361:3368   */\n      dup5\n        /* \"#utility.yul\":3357:3380   */\n      sub\n        /* \"#utility.yul\":3353:3385   */\n      slt\n        /* \"#utility.yul\":3350:3469   */\n      iszero\n      tag_447\n      jumpi\n        /* \"#utility.yul\":3388:3467   */\n      tag_448\n      tag_374\n      jump\t// in\n    tag_448:\n        /* \"#utility.yul\":3350:3469   */\n    tag_447:\n        /* \"#utility.yul\":3508:3509   */\n      0x00\n        /* \"#utility.yul\":3533:3586   */\n      tag_449\n        /* \"#utility.yul\":3578:3585   */\n      dup5\n        /* \"#utility.yul\":3569:3575   */\n      dup3\n        /* \"#utility.yul\":3558:3567   */\n      dup6\n        /* \"#utility.yul\":3554:3576   */\n      add\n        /* \"#utility.yul\":3533:3586   */\n      tag_382\n      jump\t// in\n    tag_449:\n        /* \"#utility.yul\":3523:3586   */\n      swap2\n      pop\n        /* \"#utility.yul\":3479:3596   */\n      pop\n        /* \"#utility.yul\":3274:3603   */\n      swap3\n      swap2\n      pop\n      pop\n      jump\t// out\n        /* \"#utility.yul\":3609:3717   */\n    tag_383:\n        /* \"#utility.yul\":3686:3710   */\n      tag_451\n        /* \"#utility.yul\":3704:3709   */\n      dup2\n        /* \"#utility.yul\":3686:3710   */\n      tag_371\n      jump\t// in\n    tag_451:\n        /* \"#utility.yul\":3681:3684   */\n      dup3\n        /* \"#utility.yul\":3674:3711   */\n      mstore\n        /* \"#utility.yul\":3609:3717   */\n      pop\n      pop\n      jump\t// out\n        /* \"#utility.yul\":3787:4695   */\n    tag_384:\n        /* \"#utility.yul\":3940:3944   */\n      0x80\n        /* \"#utility.yul\":3935:3938   */\n      dup3\n        /* \"#utility.yul\":3931:3945   */\n      add\n        /* \"#utility.yul\":4038:4042   */\n      0x00\n        /* \"#utility.yul\":4031:4036   */\n      dup3\n        /* \"#utility.yul\":4027:4043   */\n      add\n        /* \"#utility.yul\":4021:4044   */\n      mload\n        /* \"#utility.yul\":4057:4120   */\n      tag_453\n        /* \"#utility.yul\":4114:4118   */\n      0x00\n        /* \"#utility.yul\":4109:4112   */\n      dup6\n        /* \"#utility.yul\":4105:4119   */\n      add\n        /* \"#utility.yul\":4091:4103   */\n      dup3\n        /* \"#utility.yul\":4057:4120   */\n      tag_383\n      jump\t// in\n    tag_453:\n        /* \"#utility.yul\":3955:4130   */\n      pop\n        /* \"#utility.yul\":4221:4225   */\n      0x20\n        /* \"#utility.yul\":4214:4219   */\n      dup3\n        /* \"#utility.yul\":4210:4226   */\n      add\n        /* \"#utility.yul\":4204:4227   */\n      mload\n        /* \"#utility.yul\":4240:4303   */\n      tag_454\n        /* \"#utility.yul\":4297:4301   */\n      0x20\n        /* \"#utility.yul\":4292:4295   */\n      dup6\n        /* \"#utility.yul\":4288:4302   */\n      add\n        /* \"#utility.yul\":4274:4286   */\n      dup3\n        /* \"#utility.yul\":4240:4303   */\n      tag_383\n      jump\t// in\n    tag_454:\n        /* \"#utility.yul\":4140:4313   */\n      pop\n        /* \"#utility.yul\":4409:4413   */\n      0x40\n        /* \"#utility.yul\":4402:4407   */\n      dup3\n        /* \"#utility.yul\":4398:4414   */\n      add\n        /* \"#utility.yul\":4392:4415   */\n      mload\n        /* \"#utility.yul\":4428:4491   */\n      tag_455\n        /* \"#utility.yul\":4485:4489   */\n      0x40\n        /* \"#utility.yul\":4480:4483   */\n      dup6\n        /* \"#utility.yul\":4476:4490   */\n      add\n        /* \"#utility.yul\":4462:4474   */\n      dup3\n        /* \"#utility.yul\":4428:4491   */\n      tag_383\n      jump\t// in\n    tag_455:\n        /* \"#utility.yul\":4323:4501   */\n      pop\n        /* \"#utility.yul\":4596:4600   */\n      0x60\n        /* \"#utility.yul\":4589:4594   */\n      dup3\n        /* \"#utility.yul\":4585:4601   */\n      add\n        /* \"#utility.yul\":4579:4602   */\n      mload\n        /* \"#utility.yul\":4615:4678   */\n      tag_456\n        /* \"#utility.yul\":4672:4676   */\n      0x60\n        /* \"#utility.yul\":4667:4670   */\n      dup6\n        /* \"#utility.yul\":4663:4677   */\n      add\n        /* \"#utility.yul\":4649:4661   */\n      dup3\n        /* \"#utility.yul\":4615:4678   */\n      tag_383\n      jump\t// in\n    tag_456:\n        /* \"#utility.yul\":4511:4688   */\n      pop\n        /* \"#utility.yul\":3909:4695   */\n      pop\n        /* \"#utility.yul\":3787:4695   */\n      pop\n      pop\n      jump\t// out\n        /* \"#utility.yul\":4701:5036   */\n    tag_68:\n        /* \"#utility.yul\":4850:4854   */\n      0x00\n        /* \"#utility.yul\":4888:4891   */\n      0x80\n        /* \"#utility.yul\":4877:4886   */\n      dup3\n        /* \"#utility.yul\":4873:4892   */\n      add\n        /* \"#utility.yul\":4865:4892   */\n      swap1\n      pop\n        /* \"#utility.yul\":4902:5029   */\n      tag_458\n        /* \"#utility.yul\":5026:5027   */\n      0x00\n        /* \"#utility.yul\":5015:5024   */\n      dup4\n        /* \"#utility.yul\":5011:5028   */\n      add\n        /* \"#utility.yul\":5002:5008   */\n      dup5\n        /* \"#utility.yul\":4902:5029   */\n      tag_384\n      jump\t// in\n    tag_458:\n        /* \"#utility.yul\":4701:5036   */\n      swap3\n      swap2\n      pop\n      pop\n      jump\t// out\n        /* \"#utility.yul\":5042:5264   */\n    tag_73:\n        /* \"#utility.yul\":5135:5139   */\n      0x00\n        /* \"#utility.yul\":5173:5175   */\n      0x20\n        /* \"#utility.yul\":5162:5171   */\n      dup3\n        /* \"#utility.yul\":5158:5176   */\n      add\n        /* \"#utility.yul\":5150:5176   */\n      swap1\n      pop\n        /* \"#utility.yul\":5186:5257   */\n      tag_460\n        /* \"#utility.yul\":5254:5255   */\n      0x00\n        /* \"#utility.yul\":5243:5252   */\n      dup4\n        /* \"#utility.yul\":5239:5256   */\n      add\n        /* \"#utility.yul\":5230:5236   */\n      dup5\n        /* \"#utility.yul\":5186:5257   */\n      tag_380\n      jump\t// in\n    tag_460:\n        /* \"#utility.yul\":5042:5264   */\n      swap3\n      swap2\n      pop\n      pop\n      jump\t// out\n        /* \"#utility.yul\":5270:5360   */\n    tag_385:\n        /* \"#utility.yul\":5304:5311   */\n      0x00\n        /* \"#utility.yul\":5347:5352   */\n      dup2\n        /* \"#utility.yul\":5340:5353   */\n      iszero\n        /* \"#utility.yul\":5333:5354   */\n      iszero\n        /* \"#utility.yul\":5322:5354   */\n      swap1\n      pop\n        /* \"#utility.yul\":5270:5360   */\n      swap2\n      swap1\n      pop\n      jump\t// out\n        /* \"#utility.yul\":5366:5475   */\n    tag_386:\n        /* \"#utility.yul\":5447:5468   */\n      tag_463\n        /* \"#utility.yul\":5462:5467   */\n      dup2\n        /* \"#utility.yul\":5447:5468   */\n      tag_385\n      jump\t// in\n    tag_463:\n        /* \"#utility.yul\":5442:5445   */\n      dup3\n        /* \"#utility.yul\":5435:5469   */\n      mstore\n        /* \"#utility.yul\":5366:5475   */\n      pop\n      pop\n      jump\t// out\n        /* \"#utility.yul\":5481:5691   */\n    tag_87:\n        /* \"#utility.yul\":5568:5572   */\n      0x00\n        /* \"#utility.yul\":5606:5608   */\n      0x20\n        /* \"#utility.yul\":5595:5604   */\n      dup3\n        /* \"#utility.yul\":5591:5609   */\n      add\n        /* \"#utility.yul\":5583:5609   */\n      swap1\n      pop\n        /* \"#utility.yul\":5619:5684   */\n      tag_465\n        /* \"#utility.yul\":5681:5682   */\n      0x00\n        /* \"#utility.yul\":5670:5679   */\n      dup4\n        /* \"#utility.yul\":5666:5683   */\n      add\n        /* \"#utility.yul\":5657:5663   */\n      dup5\n        /* \"#utility.yul\":5619:5684   */\n      tag_386\n      jump\t// in\n    tag_465:\n        /* \"#utility.yul\":5481:5691   */\n      swap3\n      swap2\n      pop\n      pop\n      jump\t// out\n        /* \"#utility.yul\":5697:6316   */\n    tag_91:\n        /* \"#utility.yul\":5774:5780   */\n      0x00\n        /* \"#utility.yul\":5782:5788   */\n      dup1\n        /* \"#utility.yul\":5790:5796   */\n      0x00\n        /* \"#utility.yul\":5839:5841   */\n      0x60\n        /* \"#utility.yul\":5827:5836   */\n      dup5\n        /* \"#utility.yul\":5818:5825   */\n      dup7\n        /* \"#utility.yul\":5814:5837   */\n      sub\n        /* \"#utility.yul\":5810:5842   */\n      slt\n        /* \"#utility.yul\":5807:5926   */\n      iszero\n      tag_467\n      jumpi\n        /* \"#utility.yul\":5845:5924   */\n      tag_468\n      tag_374\n      jump\t// in\n    tag_468:\n        /* \"#utility.yul\":5807:5926   */\n    tag_467:\n        /* \"#utility.yul\":5965:5966   */\n      0x00\n        /* \"#utility.yul\":5990:6043   */\n      tag_469\n        /* \"#utility.yul\":6035:6042   */\n      dup7\n        /* \"#utility.yul\":6026:6032   */\n      dup3\n        /* \"#utility.yul\":6015:6024   */\n      dup8\n        /* \"#utility.yul\":6011:6033   */\n      add\n        /* \"#utility.yul\":5990:6043   */\n      tag_379\n      jump\t// in\n    tag_469:\n        /* \"#utility.yul\":5980:6043   */\n      swap4\n      pop\n        /* \"#utility.yul\":5936:6053   */\n      pop\n        /* \"#utility.yul\":6092:6094   */\n      0x20\n        /* \"#utility.yul\":6118:6171   */\n      tag_470\n        /* \"#utility.yul\":6163:6170   */\n      dup7\n        /* \"#utility.yul\":6154:6160   */\n      dup3\n        /* \"#utility.yul\":6143:6152   */\n      dup8\n        /* \"#utility.yul\":6139:6161   */\n      add\n        /* \"#utility.yul\":6118:6171   */\n      tag_382\n      jump\t// in\n    tag_470:\n        /* \"#utility.yul\":6108:6171   */\n      swap3\n      pop\n        /* \"#utility.yul\":6063:6181   */\n      pop\n        /* \"#utility.yul\":6220:6222   */\n      0x40\n        /* \"#utility.yul\":6246:6299   */\n      tag_471\n        /* \"#utility.yul\":6291:6298   */\n      dup7\n        /* \"#utility.yul\":6282:6288   */\n      dup3\n        /* \"#utility.yul\":6271:6280   */\n      dup8\n        /* \"#utility.yul\":6267:6289   */\n      add\n        /* \"#utility.yul\":6246:6299   */\n      tag_382\n      jump\t// in\n    tag_471:\n        /* \"#utility.yul\":6236:6299   */\n      swap2\n      pop\n        /* \"#utility.yul\":6191:6309   */\n      pop\n        /* \"#utility.yul\":5697:6316   */\n      swap3\n      pop\n      swap3\n      pop\n      swap3\n      jump\t// out\n        /* \"#utility.yul\":6322:6796   */\n    tag_100:\n        /* \"#utility.yul\":6390:6396   */\n      0x00\n        /* \"#utility.yul\":6398:6404   */\n      dup1\n        /* \"#utility.yul\":6447:6449   */\n      0x40\n        /* \"#utility.yul\":6435:6444   */\n      dup4\n        /* \"#utility.yul\":6426:6433   */\n      dup6\n        /* \"#utility.yul\":6422:6445   */\n      sub\n        /* \"#utility.yul\":6418:6450   */\n      slt\n        /* \"#utility.yul\":6415:6534   */\n      iszero\n      tag_473\n      jumpi\n        /* \"#utility.yul\":6453:6532   */\n      tag_474\n      tag_374\n      jump\t// in\n    tag_474:\n        /* \"#utility.yul\":6415:6534   */\n    tag_473:\n        /* \"#utility.yul\":6573:6574   */\n      0x00\n        /* \"#utility.yul\":6598:6651   */\n      tag_475\n        /* \"#utility.yul\":6643:6650   */\n      dup6\n        /* \"#utility.yul\":6634:6640   */\n      dup3\n        /* \"#utility.yul\":6623:6632   */\n      dup7\n        /* \"#utility.yul\":6619:6641   */\n      add\n        /* \"#utility.yul\":6598:6651   */\n      tag_382\n      jump\t// in\n    tag_475:\n        /* \"#utility.yul\":6588:6651   */\n      swap3\n      pop\n        /* \"#utility.yul\":6544:6661   */\n      pop\n        /* \"#utility.yul\":6700:6702   */\n      0x20\n        /* \"#utility.yul\":6726:6779   */\n      tag_476\n        /* \"#utility.yul\":6771:6778   */\n      dup6\n        /* \"#utility.yul\":6762:6768   */\n      dup3\n        /* \"#utility.yul\":6751:6760   */\n      dup7\n        /* \"#utility.yul\":6747:6769   */\n      add\n        /* \"#utility.yul\":6726:6779   */\n      tag_382\n      jump\t// in\n    tag_476:\n        /* \"#utility.yul\":6716:6779   */\n      swap2\n      pop\n        /* \"#utility.yul\":6671:6789   */\n      pop\n        /* \"#utility.yul\":6322:6796   */\n      swap3\n      pop\n      swap3\n      swap1\n      pop\n      jump\t// out\n        /* \"#utility.yul\":6802:6982   */\n    tag_130:\n        /* \"#utility.yul\":6850:6927   */\n      0x4e487b7100000000000000000000000000000000000000000000000000000000\n        /* \"#utility.yul\":6847:6848   */\n      0x00\n        /* \"#utility.yul\":6840:6928   */\n      mstore\n        /* \"#utility.yul\":6947:6951   */\n      0x32\n        /* \"#utility.yul\":6944:6945   */\n      0x04\n        /* \"#utility.yul\":6937:6952   */\n      mstore\n        /* \"#utility.yul\":6971:6975   */\n      0x24\n        /* \"#utility.yul\":6968:6969   */\n      0x00\n        /* \"#utility.yul\":6961:6976   */\n      revert\n        /* \"#utility.yul\":6988:7168   */\n    tag_387:\n        /* \"#utility.yul\":7036:7113   */\n      0x4e487b7100000000000000000000000000000000000000000000000000000000\n        /* \"#utility.yul\":7033:7034   */\n      0x00\n        /* \"#utility.yul\":7026:7114   */\n      mstore\n        /* \"#utility.yul\":7133:7137   */\n      0x11\n        /* \"#utility.yul\":7130:7131   */\n      0x04\n        /* \"#utility.yul\":7123:7138   */\n      mstore\n        /* \"#utility.yul\":7157:7161   */\n      0x24\n        /* \"#utility.yul\":7154:7155   */\n      0x00\n        /* \"#utility.yul\":7147:7162   */\n      revert\n        /* \"#utility.yul\":7174:7368   */\n    tag_142:\n        /* \"#utility.yul\":7214:7218   */\n      0x00\n        /* \"#utility.yul\":7234:7254   */\n      tag_480\n        /* \"#utility.yul\":7252:7253   */\n      dup3\n        /* \"#utility.yul\":7234:7254   */\n      tag_371\n      jump\t// in\n    tag_480:\n        /* \"#utility.yul\":7229:7254   */\n      swap2\n      pop\n        /* \"#utility.yul\":7268:7288   */\n      tag_481\n        /* \"#utility.yul\":7286:7287   */\n      dup4\n        /* \"#utility.yul\":7268:7288   */\n      tag_371\n      jump\t// in\n    tag_481:\n        /* \"#utility.yul\":7263:7288   */\n      swap3\n      pop\n        /* \"#utility.yul\":7312:7313   */\n      dup3\n        /* \"#utility.yul\":7309:7310   */\n      dup3\n        /* \"#utility.yul\":7305:7314   */\n      sub\n        /* \"#utility.yul\":7297:7314   */\n      swap1\n      pop\n        /* \"#utility.yul\":7336:7337   */\n      dup2\n        /* \"#utility.yul\":7330:7334   */\n      dup2\n        /* \"#utility.yul\":7327:7338   */\n      gt\n        /* \"#utility.yul\":7324:7361   */\n      iszero\n      tag_482\n      jumpi\n        /* \"#utility.yul\":7341:7359   */\n      tag_483\n      tag_387\n      jump\t// in\n    tag_483:\n        /* \"#utility.yul\":7324:7361   */\n    tag_482:\n        /* \"#utility.yul\":7174:7368   */\n      swap3\n      swap2\n      pop\n      pop\n      jump\t// out\n        /* \"#utility.yul\":7374:7565   */\n    tag_147:\n        /* \"#utility.yul\":7414:7417   */\n      0x00\n        /* \"#utility.yul\":7433:7453   */\n      tag_485\n        /* \"#utility.yul\":7451:7452   */\n      dup3\n        /* \"#utility.yul\":7433:7453   */\n      tag_371\n      jump\t// in\n    tag_485:\n        /* \"#utility.yul\":7428:7453   */\n      swap2\n      pop\n        /* \"#utility.yul\":7467:7487   */\n      tag_486\n        /* \"#utility.yul\":7485:7486   */\n      dup4\n        /* \"#utility.yul\":7467:7487   */\n      tag_371\n      jump\t// in\n    tag_486:\n        /* \"#utility.yul\":7462:7487   */\n      swap3\n      pop\n        /* \"#utility.yul\":7510:7511   */\n      dup3\n        /* \"#utility.yul\":7507:7508   */\n      dup3\n        /* \"#utility.yul\":7503:7512   */\n      add\n        /* \"#utility.yul\":7496:7512   */\n      swap1\n      pop\n        /* \"#utility.yul\":7531:7534   */\n      dup1\n        /* \"#utility.yul\":7528:7529   */\n      dup3\n        /* \"#utility.yul\":7525:7535   */\n      gt\n        /* \"#utility.yul\":7522:7558   */\n      iszero\n      tag_487\n      jumpi\n        /* \"#utility.yul\":7538:7556   */\n      tag_488\n      tag_387\n      jump\t// in\n    tag_488:\n        /* \"#utility.yul\":7522:7558   */\n    tag_487:\n        /* \"#utility.yul\":7374:7565   */\n      swap3\n      swap2\n      pop\n      pop\n      jump\t// out\n        /* \"#utility.yul\":7571:7751   */\n    tag_388:\n        /* \"#utility.yul\":7619:7696   */\n      0x4e487b7100000000000000000000000000000000000000000000000000000000\n        /* \"#utility.yul\":7616:7617   */\n      0x00\n        /* \"#utility.yul\":7609:7697   */\n      mstore\n        /* \"#utility.yul\":7716:7720   */\n      0x12\n        /* \"#utility.yul\":7713:7714   */\n      0x04\n        /* \"#utility.yul\":7706:7721   */\n      mstore\n        /* \"#utility.yul\":7740:7744   */\n      0x24\n        /* \"#utility.yul\":7737:7738   */\n      0x00\n        /* \"#utility.yul\":7730:7745   */\n      revert\n        /* \"#utility.yul\":7757:7942   */\n    tag_149:\n        /* \"#utility.yul\":7797:7798   */\n      0x00\n        /* \"#utility.yul\":7814:7834   */\n      tag_491\n        /* \"#utility.yul\":7832:7833   */\n      dup3\n        /* \"#utility.yul\":7814:7834   */\n      tag_371\n      jump\t// in\n    tag_491:\n        /* \"#utility.yul\":7809:7834   */\n      swap2\n      pop\n        /* \"#utility.yul\":7848:7868   */\n      tag_492\n        /* \"#utility.yul\":7866:7867   */\n      dup4\n        /* \"#utility.yul\":7848:7868   */\n      tag_371\n      jump\t// in\n    tag_492:\n        /* \"#utility.yul\":7843:7868   */\n      swap3\n      pop\n        /* \"#utility.yul\":7887:7888   */\n      dup3\n        /* \"#utility.yul\":7877:7912   */\n      tag_493\n      jumpi\n        /* \"#utility.yul\":7892:7910   */\n      tag_494\n      tag_388\n      jump\t// in\n    tag_494:\n        /* \"#utility.yul\":7877:7912   */\n    tag_493:\n        /* \"#utility.yul\":7934:7935   */\n      dup3\n        /* \"#utility.yul\":7931:7932   */\n      dup3\n        /* \"#utility.yul\":7927:7936   */\n      div\n        /* \"#utility.yul\":7922:7936   */\n      swap1\n      pop\n        /* \"#utility.yul\":7757:7942   */\n      swap3\n      swap2\n      pop\n      pop\n      jump\t// out\n        /* \"#utility.yul\":7948:8358   */\n    tag_154:\n        /* \"#utility.yul\":7988:7995   */\n      0x00\n        /* \"#utility.yul\":8011:8031   */\n      tag_496\n        /* \"#utility.yul\":8029:8030   */\n      dup3\n        /* \"#utility.yul\":8011:8031   */\n      tag_371\n      jump\t// in\n    tag_496:\n        /* \"#utility.yul\":8006:8031   */\n      swap2\n      pop\n        /* \"#utility.yul\":8045:8065   */\n      tag_497\n        /* \"#utility.yul\":8063:8064   */\n      dup4\n        /* \"#utility.yul\":8045:8065   */\n      tag_371\n      jump\t// in\n    tag_497:\n        /* \"#utility.yul\":8040:8065   */\n      swap3\n      pop\n        /* \"#utility.yul\":8100:8101   */\n      dup3\n        /* \"#utility.yul\":8097:8098   */\n      dup3\n        /* \"#utility.yul\":8093:8102   */\n      mul\n        /* \"#utility.yul\":8122:8152   */\n      tag_498\n        /* \"#utility.yul\":8140:8151   */\n      dup2\n        /* \"#utility.yul\":8122:8152   */\n      tag_371\n      jump\t// in\n    tag_498:\n        /* \"#utility.yul\":8111:8152   */\n      swap2\n      pop\n        /* \"#utility.yul\":8301:8302   */\n      dup3\n        /* \"#utility.yul\":8292:8299   */\n      dup3\n        /* \"#utility.yul\":8288:8303   */\n      div\n        /* \"#utility.yul\":8285:8286   */\n      dup5\n        /* \"#utility.yul\":8282:8304   */\n      eq\n        /* \"#utility.yul\":8262:8263   */\n      dup4\n        /* \"#utility.yul\":8255:8264   */\n      iszero\n        /* \"#utility.yul\":8235:8318   */\n      or\n        /* \"#utility.yul\":8212:8351   */\n      tag_499\n      jumpi\n        /* \"#utility.yul\":8331:8349   */\n      tag_500\n      tag_387\n      jump\t// in\n    tag_500:\n        /* \"#utility.yul\":8212:8351   */\n    tag_499:\n        /* \"#utility.yul\":7996:8358   */\n      pop\n        /* \"#utility.yul\":7948:8358   */\n      swap3\n      swap2\n      pop\n      pop\n      jump\t// out\n        /* \"#utility.yul\":8364:8533   */\n    tag_389:\n        /* \"#utility.yul\":8448:8459   */\n      0x00\n        /* \"#utility.yul\":8482:8488   */\n      dup3\n        /* \"#utility.yul\":8477:8480   */\n      dup3\n        /* \"#utility.yul\":8470:8489   */\n      mstore\n        /* \"#utility.yul\":8522:8526   */\n      0x20\n        /* \"#utility.yul\":8517:8520   */\n      dup3\n        /* \"#utility.yul\":8513:8527   */\n      add\n        /* \"#utility.yul\":8498:8527   */\n      swap1\n      pop\n        /* \"#utility.yul\":8364:8533   */\n      swap3\n      swap2\n      pop\n      pop\n      jump\t// out\n        /* \"#utility.yul\":8539:8721   */\n    tag_390:\n        /* \"#utility.yul\":8679:8713   */\n      0x4f776e61626c653a2063616c6c6572206973206e6f7420746865206f776e6572\n        /* \"#utility.yul\":8675:8676   */\n      0x00\n        /* \"#utility.yul\":8667:8673   */\n      dup3\n        /* \"#utility.yul\":8663:8677   */\n      add\n        /* \"#utility.yul\":8656:8714   */\n      mstore\n        /* \"#utility.yul\":8539:8721   */\n      pop\n      jump\t// out\n        /* \"#utility.yul\":8727:9093   */\n    tag_391:\n        /* \"#utility.yul\":8869:8872   */\n      0x00\n        /* \"#utility.yul\":8890:8957   */\n      tag_504\n        /* \"#utility.yul\":8954:8956   */\n      0x20\n        /* \"#utility.yul\":8949:8952   */\n      dup4\n        /* \"#utility.yul\":8890:8957   */\n      tag_389\n      jump\t// in\n    tag_504:\n        /* \"#utility.yul\":8883:8957   */\n      swap2\n      pop\n        /* \"#utility.yul\":8966:9059   */\n      tag_505\n        /* \"#utility.yul\":9055:9058   */\n      dup3\n        /* \"#utility.yul\":8966:9059   */\n      tag_390\n      jump\t// in\n    tag_505:\n        /* \"#utility.yul\":9084:9086   */\n      0x20\n        /* \"#utility.yul\":9079:9082   */\n      dup3\n        /* \"#utility.yul\":9075:9087   */\n      add\n        /* \"#utility.yul\":9068:9087   */\n      swap1\n      pop\n        /* \"#utility.yul\":8727:9093   */\n      swap2\n      swap1\n      pop\n      jump\t// out\n        /* \"#utility.yul\":9099:9518   */\n    tag_177:\n        /* \"#utility.yul\":9265:9269   */\n      0x00\n        /* \"#utility.yul\":9303:9305   */\n      0x20\n        /* \"#utility.yul\":9292:9301   */\n      dup3\n        /* \"#utility.yul\":9288:9306   */\n      add\n        /* \"#utility.yul\":9280:9306   */\n      swap1\n      pop\n        /* \"#utility.yul\":9352:9361   */\n      dup2\n        /* \"#utility.yul\":9346:9350   */\n      dup2\n        /* \"#utility.yul\":9342:9362   */\n      sub\n        /* \"#utility.yul\":9338:9339   */\n      0x00\n        /* \"#utility.yul\":9327:9336   */\n      dup4\n        /* \"#utility.yul\":9323:9340   */\n      add\n        /* \"#utility.yul\":9316:9363   */\n      mstore\n        /* \"#utility.yul\":9380:9511   */\n      tag_507\n        /* \"#utility.yul\":9506:9510   */\n      dup2\n        /* \"#utility.yul\":9380:9511   */\n      tag_391\n      jump\t// in\n    tag_507:\n        /* \"#utility.yul\":9372:9511   */\n      swap1\n      pop\n        /* \"#utility.yul\":9099:9518   */\n      swap2\n      swap1\n      pop\n      jump\t// out\n        /* \"#utility.yul\":9524:9688   */\n    tag_392:\n        /* \"#utility.yul\":9664:9680   */\n      0x4e6f2072652d656e7472616e6379000000000000000000000000000000000000\n        /* \"#utility.yul\":9660:9661   */\n      0x00\n        /* \"#utility.yul\":9652:9658   */\n      dup3\n        /* \"#utility.yul\":9648:9662   */\n      add\n        /* \"#utility.yul\":9641:9681   */\n      mstore\n        /* \"#utility.yul\":9524:9688   */\n      pop\n      jump\t// out\n        /* \"#utility.yul\":9694:10060   */\n    tag_393:\n        /* \"#utility.yul\":9836:9839   */\n      0x00\n        /* \"#utility.yul\":9857:9924   */\n      tag_510\n        /* \"#utility.yul\":9921:9923   */\n      0x0e\n        /* \"#utility.yul\":9916:9919   */\n      dup4\n        /* \"#utility.yul\":9857:9924   */\n      tag_389\n      jump\t// in\n    tag_510:\n        /* \"#utility.yul\":9850:9924   */\n      swap2\n      pop\n        /* \"#utility.yul\":9933:10026   */\n      tag_511\n        /* \"#utility.yul\":10022:10025   */\n      dup3\n        /* \"#utility.yul\":9933:10026   */\n      tag_392\n      jump\t// in\n    tag_511:\n        /* \"#utility.yul\":10051:10053   */\n      0x20\n        /* \"#utility.yul\":10046:10049   */\n      dup3\n        /* \"#utility.yul\":10042:10054   */\n      add\n        /* \"#utility.yul\":10035:10054   */\n      swap1\n      pop\n        /* \"#utility.yul\":9694:10060   */\n      swap2\n      swap1\n      pop\n      jump\t// out\n        /* \"#utility.yul\":10066:10485   */\n    tag_181:\n        /* \"#utility.yul\":10232:10236   */\n      0x00\n        /* \"#utility.yul\":10270:10272   */\n      0x20\n        /* \"#utility.yul\":10259:10268   */\n      dup3\n        /* \"#utility.yul\":10255:10273   */\n      add\n        /* \"#utility.yul\":10247:10273   */\n      swap1\n      pop\n        /* \"#utility.yul\":10319:10328   */\n      dup2\n        /* \"#utility.yul\":10313:10317   */\n      dup2\n        /* \"#utility.yul\":10309:10329   */\n      sub\n        /* \"#utility.yul\":10305:10306   */\n      0x00\n        /* \"#utility.yul\":10294:10303   */\n      dup4\n        /* \"#utility.yul\":10290:10307   */\n      add\n        /* \"#utility.yul\":10283:10330   */\n      mstore\n        /* \"#utility.yul\":10347:10478   */\n      tag_513\n        /* \"#utility.yul\":10473:10477   */\n      dup2\n        /* \"#utility.yul\":10347:10478   */\n      tag_393\n      jump\t// in\n    tag_513:\n        /* \"#utility.yul\":10339:10478   */\n      swap1\n      pop\n        /* \"#utility.yul\":10066:10485   */\n      swap2\n      swap1\n      pop\n      jump\t// out\n        /* \"#utility.yul\":10491:10653   */\n    tag_394:\n        /* \"#utility.yul\":10631:10645   */\n      0x496e76616c696420757365720000000000000000000000000000000000000000\n        /* \"#utility.yul\":10627:10628   */\n      0x00\n        /* \"#utility.yul\":10619:10625   */\n      dup3\n        /* \"#utility.yul\":10615:10629   */\n      add\n        /* \"#utility.yul\":10608:10646   */\n      mstore\n        /* \"#utility.yul\":10491:10653   */\n      pop\n      jump\t// out\n        /* \"#utility.yul\":10659:11025   */\n    tag_395:\n        /* \"#utility.yul\":10801:10804   */\n      0x00\n        /* \"#utility.yul\":10822:10889   */\n      tag_516\n        /* \"#utility.yul\":10886:10888   */\n      0x0c\n        /* \"#utility.yul\":10881:10884   */\n      dup4\n        /* \"#utility.yul\":10822:10889   */\n      tag_389\n      jump\t// in\n    tag_516:\n        /* \"#utility.yul\":10815:10889   */\n      swap2\n      pop\n        /* \"#utility.yul\":10898:10991   */\n      tag_517\n        /* \"#utility.yul\":10987:10990   */\n      dup3\n        /* \"#utility.yul\":10898:10991   */\n      tag_394\n      jump\t// in\n    tag_517:\n        /* \"#utility.yul\":11016:11018   */\n      0x20\n        /* \"#utility.yul\":11011:11014   */\n      dup3\n        /* \"#utility.yul\":11007:11019   */\n      add\n        /* \"#utility.yul\":11000:11019   */\n      swap1\n      pop\n        /* \"#utility.yul\":10659:11025   */\n      swap2\n      swap1\n      pop\n      jump\t// out\n        /* \"#utility.yul\":11031:11450   */\n    tag_185:\n        /* \"#utility.yul\":11197:11201   */\n      0x00\n        /* \"#utility.yul\":11235:11237   */\n      0x20\n        /* \"#utility.yul\":11224:11233   */\n      dup3\n        /* \"#utility.yul\":11220:11238   */\n      add\n        /* \"#utility.yul\":11212:11238   */\n      swap1\n      pop\n        /* \"#utility.yul\":11284:11293   */\n      dup2\n        /* \"#utility.yul\":11278:11282   */\n      dup2\n        /* \"#utility.yul\":11274:11294   */\n      sub\n        /* \"#utility.yul\":11270:11271   */\n      0x00\n        /* \"#utility.yul\":11259:11268   */\n      dup4\n        /* \"#utility.yul\":11255:11272   */\n      add\n        /* \"#utility.yul\":11248:11295   */\n      mstore\n        /* \"#utility.yul\":11312:11443   */\n      tag_519\n        /* \"#utility.yul\":11438:11442   */\n      dup2\n        /* \"#utility.yul\":11312:11443   */\n      tag_395\n      jump\t// in\n    tag_519:\n        /* \"#utility.yul\":11304:11443   */\n      swap1\n      pop\n        /* \"#utility.yul\":11031:11450   */\n      swap2\n      swap1\n      pop\n      jump\t// out\n        /* \"#utility.yul\":11456:11684   */\n    tag_396:\n        /* \"#utility.yul\":11596:11630   */\n      0x76657374696e6720616c726561647920616c6c6f636174656420746f20746869\n        /* \"#utility.yul\":11592:11593   */\n      0x00\n        /* \"#utility.yul\":11584:11590   */\n      dup3\n        /* \"#utility.yul\":11580:11594   */\n      add\n        /* \"#utility.yul\":11573:11631   */\n      mstore\n        /* \"#utility.yul\":11665:11676   */\n      0x7320616464726573730000000000000000000000000000000000000000000000\n        /* \"#utility.yul\":11660:11662   */\n      0x20\n        /* \"#utility.yul\":11652:11658   */\n      dup3\n        /* \"#utility.yul\":11648:11663   */\n      add\n        /* \"#utility.yul\":11641:11677   */\n      mstore\n        /* \"#utility.yul\":11456:11684   */\n      pop\n      jump\t// out\n        /* \"#utility.yul\":11690:12056   */\n    tag_397:\n        /* \"#utility.yul\":11832:11835   */\n      0x00\n        /* \"#utility.yul\":11853:11920   */\n      tag_522\n        /* \"#utility.yul\":11917:11919   */\n      0x29\n        /* \"#utility.yul\":11912:11915   */\n      dup4\n        /* \"#utility.yul\":11853:11920   */\n      tag_389\n      jump\t// in\n    tag_522:\n        /* \"#utility.yul\":11846:11920   */\n      swap2\n      pop\n        /* \"#utility.yul\":11929:12022   */\n      tag_523\n        /* \"#utility.yul\":12018:12021   */\n      dup3\n        /* \"#utility.yul\":11929:12022   */\n      tag_396\n      jump\t// in\n    tag_523:\n        /* \"#utility.yul\":12047:12049   */\n      0x40\n        /* \"#utility.yul\":12042:12045   */\n      dup3\n        /* \"#utility.yul\":12038:12050   */\n      add\n        /* \"#utility.yul\":12031:12050   */\n      swap1\n      pop\n        /* \"#utility.yul\":11690:12056   */\n      swap2\n      swap1\n      pop\n      jump\t// out\n        /* \"#utility.yul\":12062:12481   */\n    tag_239:\n        /* \"#utility.yul\":12228:12232   */\n      0x00\n        /* \"#utility.yul\":12266:12268   */\n      0x20\n        /* \"#utility.yul\":12255:12264   */\n      dup3\n        /* \"#utility.yul\":12251:12269   */\n      add\n        /* \"#utility.yul\":12243:12269   */\n      swap1\n      pop\n        /* \"#utility.yul\":12315:12324   */\n      dup2\n        /* \"#utility.yul\":12309:12313   */\n      dup2\n        /* \"#utility.yul\":12305:12325   */\n      sub\n        /* \"#utility.yul\":12301:12302   */\n      0x00\n        /* \"#utility.yul\":12290:12299   */\n      dup4\n        /* \"#utility.yul\":12286:12303   */\n      add\n        /* \"#utility.yul\":12279:12326   */\n      mstore\n        /* \"#utility.yul\":12343:12474   */\n      tag_525\n        /* \"#utility.yul\":12469:12473   */\n      dup2\n        /* \"#utility.yul\":12343:12474   */\n      tag_397\n      jump\t// in\n    tag_525:\n        /* \"#utility.yul\":12335:12474   */\n      swap1\n      pop\n        /* \"#utility.yul\":12062:12481   */\n      swap2\n      swap1\n      pop\n      jump\t// out\n        /* \"#utility.yul\":12487:12715   */\n    tag_398:\n        /* \"#utility.yul\":12627:12661   */\n      0x4e65772076657374696e672073746172742074696d652073686f756c64206e6f\n        /* \"#utility.yul\":12623:12624   */\n      0x00\n        /* \"#utility.yul\":12615:12621   */\n      dup3\n        /* \"#utility.yul\":12611:12625   */\n      add\n        /* \"#utility.yul\":12604:12662   */\n      mstore\n        /* \"#utility.yul\":12696:12707   */\n      0x74206265207a65726f0000000000000000000000000000000000000000000000\n        /* \"#utility.yul\":12691:12693   */\n      0x20\n        /* \"#utility.yul\":12683:12689   */\n      dup3\n        /* \"#utility.yul\":12679:12694   */\n      add\n        /* \"#utility.yul\":12672:12708   */\n      mstore\n        /* \"#utility.yul\":12487:12715   */\n      pop\n      jump\t// out\n        /* \"#utility.yul\":12721:13087   */\n    tag_399:\n        /* \"#utility.yul\":12863:12866   */\n      0x00\n        /* \"#utility.yul\":12884:12951   */\n      tag_528\n        /* \"#utility.yul\":12948:12950   */\n      0x29\n        /* \"#utility.yul\":12943:12946   */\n      dup4\n        /* \"#utility.yul\":12884:12951   */\n      tag_389\n      jump\t// in\n    tag_528:\n        /* \"#utility.yul\":12877:12951   */\n      swap2\n      pop\n        /* \"#utility.yul\":12960:13053   */\n      tag_529\n        /* \"#utility.yul\":13049:13052   */\n      dup3\n        /* \"#utility.yul\":12960:13053   */\n      tag_398\n      jump\t// in\n    tag_529:\n        /* \"#utility.yul\":13078:13080   */\n      0x40\n        /* \"#utility.yul\":13073:13076   */\n      dup3\n        /* \"#utility.yul\":13069:13081   */\n      add\n        /* \"#utility.yul\":13062:13081   */\n      swap1\n      pop\n        /* \"#utility.yul\":12721:13087   */\n      swap2\n      swap1\n      pop\n      jump\t// out\n        /* \"#utility.yul\":13093:13512   */\n    tag_278:\n        /* \"#utility.yul\":13259:13263   */\n      0x00\n        /* \"#utility.yul\":13297:13299   */\n      0x20\n        /* \"#utility.yul\":13286:13295   */\n      dup3\n        /* \"#utility.yul\":13282:13300   */\n      add\n        /* \"#utility.yul\":13274:13300   */\n      swap1\n      pop\n        /* \"#utility.yul\":13346:13355   */\n      dup2\n        /* \"#utility.yul\":13340:13344   */\n      dup2\n        /* \"#utility.yul\":13336:13356   */\n      sub\n        /* \"#utility.yul\":13332:13333   */\n      0x00\n        /* \"#utility.yul\":13321:13330   */\n      dup4\n        /* \"#utility.yul\":13317:13334   */\n      add\n        /* \"#utility.yul\":13310:13357   */\n      mstore\n        /* \"#utility.yul\":13374:13505   */\n      tag_531\n        /* \"#utility.yul\":13500:13504   */\n      dup2\n        /* \"#utility.yul\":13374:13505   */\n      tag_399\n      jump\t// in\n    tag_531:\n        /* \"#utility.yul\":13366:13505   */\n      swap1\n      pop\n        /* \"#utility.yul\":13093:13512   */\n      swap2\n      swap1\n      pop\n      jump\t// out\n        /* \"#utility.yul\":13518:13688   */\n    tag_400:\n        /* \"#utility.yul\":13658:13680   */\n      0x496e76616c696420757365722061646472657373000000000000000000000000\n        /* \"#utility.yul\":13654:13655   */\n      0x00\n        /* \"#utility.yul\":13646:13652   */\n      dup3\n        /* \"#utility.yul\":13642:13656   */\n      add\n        /* \"#utility.yul\":13635:13681   */\n      mstore\n        /* \"#utility.yul\":13518:13688   */\n      pop\n      jump\t// out\n        /* \"#utility.yul\":13694:14060   */\n    tag_401:\n        /* \"#utility.yul\":13836:13839   */\n      0x00\n        /* \"#utility.yul\":13857:13924   */\n      tag_534\n        /* \"#utility.yul\":13921:13923   */\n      0x14\n        /* \"#utility.yul\":13916:13919   */\n      dup4\n        /* \"#utility.yul\":13857:13924   */\n      tag_389\n      jump\t// in\n    tag_534:\n        /* \"#utility.yul\":13850:13924   */\n      swap2\n      pop\n        /* \"#utility.yul\":13933:14026   */\n      tag_535\n        /* \"#utility.yul\":14022:14025   */\n      dup3\n        /* \"#utility.yul\":13933:14026   */\n      tag_400\n      jump\t// in\n    tag_535:\n        /* \"#utility.yul\":14051:14053   */\n      0x20\n        /* \"#utility.yul\":14046:14049   */\n      dup3\n        /* \"#utility.yul\":14042:14054   */\n      add\n        /* \"#utility.yul\":14035:14054   */\n      swap1\n      pop\n        /* \"#utility.yul\":13694:14060   */\n      swap2\n      swap1\n      pop\n      jump\t// out\n        /* \"#utility.yul\":14066:14485   */\n    tag_281:\n        /* \"#utility.yul\":14232:14236   */\n      0x00\n        /* \"#utility.yul\":14270:14272   */\n      0x20\n        /* \"#utility.yul\":14259:14268   */\n      dup3\n        /* \"#utility.yul\":14255:14273   */\n      add\n        /* \"#utility.yul\":14247:14273   */\n      swap1\n      pop\n        /* \"#utility.yul\":14319:14328   */\n      dup2\n        /* \"#utility.yul\":14313:14317   */\n      dup2\n        /* \"#utility.yul\":14309:14329   */\n      sub\n        /* \"#utility.yul\":14305:14306   */\n      0x00\n        /* \"#utility.yul\":14294:14303   */\n      dup4\n        /* \"#utility.yul\":14290:14307   */\n      add\n        /* \"#utility.yul\":14283:14330   */\n      mstore\n        /* \"#utility.yul\":14347:14478   */\n      tag_537\n        /* \"#utility.yul\":14473:14477   */\n      dup2\n        /* \"#utility.yul\":14347:14478   */\n      tag_401\n      jump\t// in\n    tag_537:\n        /* \"#utility.yul\":14339:14478   */\n      swap1\n      pop\n        /* \"#utility.yul\":14066:14485   */\n      swap2\n      swap1\n      pop\n      jump\t// out\n        /* \"#utility.yul\":14491:14664   */\n    tag_402:\n        /* \"#utility.yul\":14631:14656   */\n      0x204461792073686f756c64206e6f74206265205a65726f000000000000000000\n        /* \"#utility.yul\":14627:14628   */\n      0x00\n        /* \"#utility.yul\":14619:14625   */\n      dup3\n        /* \"#utility.yul\":14615:14629   */\n      add\n        /* \"#utility.yul\":14608:14657   */\n      mstore\n        /* \"#utility.yul\":14491:14664   */\n      pop\n      jump\t// out\n        /* \"#utility.yul\":14670:15036   */\n    tag_403:\n        /* \"#utility.yul\":14812:14815   */\n      0x00\n        /* \"#utility.yul\":14833:14900   */\n      tag_540\n        /* \"#utility.yul\":14897:14899   */\n      0x17\n        /* \"#utility.yul\":14892:14895   */\n      dup4\n        /* \"#utility.yul\":14833:14900   */\n      tag_389\n      jump\t// in\n    tag_540:\n        /* \"#utility.yul\":14826:14900   */\n      swap2\n      pop\n        /* \"#utility.yul\":14909:15002   */\n      tag_541\n        /* \"#utility.yul\":14998:15001   */\n      dup3\n        /* \"#utility.yul\":14909:15002   */\n      tag_402\n      jump\t// in\n    tag_541:\n        /* \"#utility.yul\":15027:15029   */\n      0x20\n        /* \"#utility.yul\":15022:15025   */\n      dup3\n        /* \"#utility.yul\":15018:15030   */\n      add\n        /* \"#utility.yul\":15011:15030   */\n      swap1\n      pop\n        /* \"#utility.yul\":14670:15036   */\n      swap2\n      swap1\n      pop\n      jump\t// out\n        /* \"#utility.yul\":15042:15461   */\n    tag_298:\n        /* \"#utility.yul\":15208:15212   */\n      0x00\n        /* \"#utility.yul\":15246:15248   */\n      0x20\n        /* \"#utility.yul\":15235:15244   */\n      dup3\n        /* \"#utility.yul\":15231:15249   */\n      add\n        /* \"#utility.yul\":15223:15249   */\n      swap1\n      pop\n        /* \"#utility.yul\":15295:15304   */\n      dup2\n        /* \"#utility.yul\":15289:15293   */\n      dup2\n        /* \"#utility.yul\":15285:15305   */\n      sub\n        /* \"#utility.yul\":15281:15282   */\n      0x00\n        /* \"#utility.yul\":15270:15279   */\n      dup4\n        /* \"#utility.yul\":15266:15283   */\n      add\n        /* \"#utility.yul\":15259:15306   */\n      mstore\n        /* \"#utility.yul\":15323:15454   */\n      tag_543\n        /* \"#utility.yul\":15449:15453   */\n      dup2\n        /* \"#utility.yul\":15323:15454   */\n      tag_403\n      jump\t// in\n    tag_543:\n        /* \"#utility.yul\":15315:15454   */\n      swap1\n      pop\n        /* \"#utility.yul\":15042:15461   */\n      swap2\n      swap1\n      pop\n      jump\t// out\n        /* \"#utility.yul\":15467:15649   */\n    tag_404:\n        /* \"#utility.yul\":15607:15641   */\n      0x46756e6473206e6f7420616c6c6f636174656420746f20746869732075736572\n        /* \"#utility.yul\":15603:15604   */\n      0x00\n        /* \"#utility.yul\":15595:15601   */\n      dup3\n        /* \"#utility.yul\":15591:15605   */\n      add\n        /* \"#utility.yul\":15584:15642   */\n      mstore\n        /* \"#utility.yul\":15467:15649   */\n      pop\n      jump\t// out\n        /* \"#utility.yul\":15655:16021   */\n    tag_405:\n        /* \"#utility.yul\":15797:15800   */\n      0x00\n        /* \"#utility.yul\":15818:15885   */\n      tag_546\n        /* \"#utility.yul\":15882:15884   */\n      0x20\n        /* \"#utility.yul\":15877:15880   */\n      dup4\n        /* \"#utility.yul\":15818:15885   */\n      tag_389\n      jump\t// in\n    tag_546:\n        /* \"#utility.yul\":15811:15885   */\n      swap2\n      pop\n        /* \"#utility.yul\":15894:15987   */\n      tag_547\n        /* \"#utility.yul\":15983:15986   */\n      dup3\n        /* \"#utility.yul\":15894:15987   */\n      tag_404\n      jump\t// in\n    tag_547:\n        /* \"#utility.yul\":16012:16014   */\n      0x20\n        /* \"#utility.yul\":16007:16010   */\n      dup3\n        /* \"#utility.yul\":16003:16015   */\n      add\n        /* \"#utility.yul\":15996:16015   */\n      swap1\n      pop\n        /* \"#utility.yul\":15655:16021   */\n      swap2\n      swap1\n      pop\n      jump\t// out\n        /* \"#utility.yul\":16027:16446   */\n    tag_317:\n        /* \"#utility.yul\":16193:16197   */\n      0x00\n        /* \"#utility.yul\":16231:16233   */\n      0x20\n        /* \"#utility.yul\":16220:16229   */\n      dup3\n        /* \"#utility.yul\":16216:16234   */\n      add\n        /* \"#utility.yul\":16208:16234   */\n      swap1\n      pop\n        /* \"#utility.yul\":16280:16289   */\n      dup2\n        /* \"#utility.yul\":16274:16278   */\n      dup2\n        /* \"#utility.yul\":16270:16290   */\n      sub\n        /* \"#utility.yul\":16266:16267   */\n      0x00\n        /* \"#utility.yul\":16255:16264   */\n      dup4\n        /* \"#utility.yul\":16251:16268   */\n      add\n        /* \"#utility.yul\":16244:16291   */\n      mstore\n        /* \"#utility.yul\":16308:16439   */\n      tag_549\n        /* \"#utility.yul\":16434:16438   */\n      dup2\n        /* \"#utility.yul\":16308:16439   */\n      tag_405\n      jump\t// in\n    tag_549:\n        /* \"#utility.yul\":16300:16439   */\n      swap1\n      pop\n        /* \"#utility.yul\":16027:16446   */\n      swap2\n      swap1\n      pop\n      jump\t// out\n\n    auxdata: 0xa26469706673582212202d712fc7e4934656024370a289e62be8a70630977e321a695e4ccd8a3c8bce7a64736f6c634300081a0033\n}\n",
				"bytecode": {
					"linkReferences": {},
					"object": "608060405234801561000f575f80fd5b50604051612db6380380612db68339818101604052810190610031919061020f565b61004d6100426100da60201b60201c565b6100e160201b60201c565b5f8211801561005b57505f81115b61009a576040517f08c379a0000000000000000000000000000000000000000000000000000000008152600401610091906102b9565b60405180910390fd5b8260028190555062015180826100b09190610304565b60048190555062015180816100c59190610304565b60038190555080600581905550505050610345565b5f33905090565b60015f6101000a81549073ffffffffffffffffffffffffffffffffffffffff02191690556101148161011760201b60201c565b50565b5f805f9054906101000a900473ffffffffffffffffffffffffffffffffffffffff169050815f806101000a81548173ffffffffffffffffffffffffffffffffffffffff021916908373ffffffffffffffffffffffffffffffffffffffff1602179055508173ffffffffffffffffffffffffffffffffffffffff168173ffffffffffffffffffffffffffffffffffffffff167f8be0079c531659141344cd1fd0a4f28419497f9722a3daafe3b4186f6b6457e060405160405180910390a35050565b5f80fd5b5f819050919050565b6101ee816101dc565b81146101f8575f80fd5b50565b5f81519050610209816101e5565b92915050565b5f805f60608486031215610226576102256101d8565b5b5f610233868287016101fb565b9350506020610244868287016101fb565b9250506040610255868287016101fb565b9150509250925092565b5f82825260208201905092915050565b7f204461792073686f756c64206e6f74206265205a65726f0000000000000000005f82015250565b5f6102a360178361025f565b91506102ae8261026f565b602082019050919050565b5f6020820190508181035f8301526102d081610297565b9050919050565b7f4e487b71000000000000000000000000000000000000000000000000000000005f52601160045260245ffd5b5f61030e826101dc565b9150610319836101dc565b9250828202610327816101dc565b9150828204841483151761033e5761033d6102d7565b5b5092915050565b612a64806103525f395ff3fe608060405260043610610129575f3560e01c806390611561116100aa578063aa1ced321161006e578063aa1ced32146103b0578063caef6601146103d8578063e30c397814610414578063ed58ef111461043e578063f2fde38b14610468578063fe417fa51461049057610129565b806390611561146102d057806390acbc83146102fa578063937b8e1614610322578063a39d74941461035e578063a90aa4b41461038657610129565b80635dc0799c116100f15780635dc0799c14610222578063715018a61461023e57806379ba5097146102545780637a5fa2981461026a5780638da5cb5b146102a657610129565b8063158626691461012d5780631959a00214610157578063501b1de01461019557806355b1f1a3146101d25780635bc269e9146101fa575b5f80fd5b348015610138575f80fd5b506101416104b8565b60405161014e919061223f565b60405180910390f35b348015610162575f80fd5b5061017d600480360381019061017891906122b6565b6104be565b60405161018c939291906122f0565b60405180910390f35b3480156101a0575f80fd5b506101bb60048036038101906101b6919061234f565b610503565b6040516101c992919061238d565b60405180910390f35b3480156101dd575f80fd5b506101f860048036038101906101f3919061234f565b610934565b005b348015610205575f80fd5b50610220600480360381019061021b91906123b4565b610e62565b005b61023c600480360381019061023791906122b6565b610f65565b005b348015610249575f80fd5b5061025261114f565b005b34801561025f575f80fd5b506102686111d6565b005b348015610275575f80fd5b50610290600480360381019061028b919061234f565b611264565b60405161029d9190612441565b60405180910390f35b3480156102b1575f80fd5b506102ba611301565b6040516102c7919061245a565b60405180910390f35b3480156102db575f80fd5b506102e4611328565b6040516102f1919061223f565b60405180910390f35b348015610305575f80fd5b50610320600480360381019061031b91906123b4565b61132e565b005b34801561032d575f80fd5b50610348600480360381019061034391906122b6565b6113eb565b604051610355919061248d565b60405180910390f35b348015610369575f80fd5b50610384600480360381019061037f91906124a6565b611408565b005b348015610391575f80fd5b5061039a61160c565b6040516103a7919061223f565b60405180910390f35b3480156103bb575f80fd5b506103d660048036038101906103d191906124f6565b611612565b005b3480156103e3575f80fd5b506103fe60048036038101906103f991906122b6565b61174d565b60405161040b919061223f565b60405180910390f35b34801561041f575f80fd5b50610428611796565b604051610435919061245a565b60405180910390f35b348015610449575f80fd5b506104526117be565b60405161045f919061223f565b60405180910390f35b348015610473575f80fd5b5061048e600480360381019061048991906122b6565b6117c4565b005b34801561049b575f80fd5b506104b660048036038101906104b1919061234f565b6118e4565b005b60055481565b6007602052805f5260405f205f91509050805f015f9054906101000a900473ffffffffffffffffffffffffffffffffffffffff16908060010154908060020154905083565b5f805f60085f8673ffffffffffffffffffffffffffffffffffffffff1673ffffffffffffffffffffffffffffffffffffffff1681526020019081526020015f20805480602002602001604051908101604052809291908181526020015f905b828210156105b9578382905f5260205f2090600402016040518060800160405290815f8201548152602001600182015481526020016002820154815260200160038201548152505081526020019060010190610562565b5050505090505f8060095f8873ffffffffffffffffffffffffffffffffffffffff1673ffffffffffffffffffffffffffffffffffffffff1681526020019081526020015f205f9054906101000a900460ff1661061d575f809450945050505061092d565b8286815181106106305761062f612534565b5b602002602001015160400151421061078b575f83878151811061065657610655612534565b5b6020026020010151604001511461078a575f83878151811061067b5761067a612534565b5b602002602001015160600151421161069357426106c1565b620151808488815181106106aa576106a9612534565b5b6020026020010151606001516106c0919061258e565b5b90505f620151808589815181106106db576106da612534565b5b602002602001015160400151836106f2919061258e565b6106fc91906125c1565b9050620151808161070d9190612621565b92506005548360085f8c73ffffffffffffffffffffffffffffffffffffffff1673ffffffffffffffffffffffffffffffffffffffff1681526020019081526020015f208a8154811061076257610761612534565b5b905f5260205f2090600402015f015461077b9190612651565b6107859190612621565b935050505b5b60085f8873ffffffffffffffffffffffffffffffffffffffff1673ffffffffffffffffffffffffffffffffffffffff1681526020019081526020015f2086815481106107da576107d9612534565b5b905f5260205f2090600402016001015460085f8973ffffffffffffffffffffffffffffffffffffffff1673ffffffffffffffffffffffffffffffffffffffff1681526020019081526020015f20878154811061083957610838612534565b5b905f5260205f2090600402015f0154610852919061258e565b8211156109235760085f8873ffffffffffffffffffffffffffffffffffffffff1673ffffffffffffffffffffffffffffffffffffffff1681526020019081526020015f2086815481106108a8576108a7612534565b5b905f5260205f2090600402016001015460085f8973ffffffffffffffffffffffffffffffffffffffff1673ffffffffffffffffffffffffffffffffffffffff1681526020019081526020015f20878154811061090757610906612534565b5b905f5260205f2090600402015f0154610920919061258e565b91505b8181945094505050505b9250929050565b61093c611ea5565b73ffffffffffffffffffffffffffffffffffffffff1661095a611301565b73ffffffffffffffffffffffffffffffffffffffff16146109b0576040517f08c379a00000000000000000000000000000000000000000000000000000000081526004016109a7906126ec565b60405180910390fd5b60065f9054906101000a900460ff16156109ff576040517f08c379a00000000000000000000000000000000000000000000000000000000081526004016109f690612754565b60405180910390fd5b600160065f6101000a81548160ff0219169083151502179055505f60075f8473ffffffffffffffffffffffffffffffffffffffff1673ffffffffffffffffffffffffffffffffffffffff1681526020019081526020015f2090505f73ffffffffffffffffffffffffffffffffffffffff16815f015f9054906101000a900473ffffffffffffffffffffffffffffffffffffffff1673ffffffffffffffffffffffffffffffffffffffff1603610ae9576040517f08c379a0000000000000000000000000000000000000000000000000000000008152600401610ae0906127bc565b60405180910390fd5b5f60085f8573ffffffffffffffffffffffffffffffffffffffff1673ffffffffffffffffffffffffffffffffffffffff1681526020019081526020015f208381548110610b3957610b38612534565b5b905f5260205f2090600402016001015460085f8673ffffffffffffffffffffffffffffffffffffffff1673ffffffffffffffffffffffffffffffffffffffff1681526020019081526020015f208481548110610b9857610b97612534565b5b905f5260205f2090600402015f0154610bb1919061258e565b90505f80821115610e425761271060025483610bcd9190612651565b610bd79190612621565b90505f60085f8773ffffffffffffffffffffffffffffffffffffffff1673ffffffffffffffffffffffffffffffffffffffff1681526020019081526020015f208581548110610c2957610c28612534565b5b905f5260205f2090600402016002018190555081836002015f828254610c4f91906125c1565b9250508190555081836001015f828254610c69919061258e565b925050819055508160085f8773ffffffffffffffffffffffffffffffffffffffff1673ffffffffffffffffffffffffffffffffffffffff1681526020019081526020015f208581548110610cc057610cbf612534565b5b905f5260205f2090600402016001015f828254610cdd91906125c1565b925050819055508160085f8773ffffffffffffffffffffffffffffffffffffffff1673ffffffffffffffffffffffffffffffffffffffff1681526020019081526020015f208581548110610d3457610d33612534565b5b905f5260205f2090600402015f015f828254610d50919061258e565b925050819055505f811115610dab57610d67611301565b73ffffffffffffffffffffffffffffffffffffffff166108fc8290811502906040515f60405180830381858888f19350505050158015610da9573d5f803e3d5ffd5b505b5f8183610db8919061258e565b90507f56ca301a9219608c91e7bcee90e083c19671d2cdcc96752c7af291cee5f9c8c88142604051610deb92919061238d565b60405180910390a15f811115610e40578573ffffffffffffffffffffffffffffffffffffffff166108fc8290811502906040515f60405180830381858888f19350505050158015610e3e573d5f803e3d5ffd5b505b505b5050505f60065f6101000a81548160ff0219169083151502179055505050565b610e6a611ea5565b73ffffffffffffffffffffffffffffffffffffffff16610e88611301565b73ffffffffffffffffffffffffffffffffffffffff1614610ede576040517f08c379a0000000000000000000000000000000000000000000000000000000008152600401610ed5906126ec565b60405180910390fd5b5f610ee7611301565b90505f73ffffffffffffffffffffffffffffffffffffffff168173ffffffffffffffffffffffffffffffffffffffff1614610f61578073ffffffffffffffffffffffffffffffffffffffff166108fc8390811502906040515f60405180830381858888f19350505050158015610f5f573d5f803e3d5ffd5b505b5050565b610f6d611ea5565b73ffffffffffffffffffffffffffffffffffffffff16610f8b611301565b73ffffffffffffffffffffffffffffffffffffffff1614610fe1576040517f08c379a0000000000000000000000000000000000000000000000000000000008152600401610fd8906126ec565b60405180910390fd5b60065f9054906101000a900460ff1615611030576040517f08c379a000000000000000000000000000000000000000000000000000000000815260040161102790612754565b60405180910390fd5b600160065f6101000a81548160ff02191690831515021790555060095f8273ffffffffffffffffffffffffffffffffffffffff1673ffffffffffffffffffffffffffffffffffffffff1681526020019081526020015f205f9054906101000a900460ff16156110d4576040517f08c379a00000000000000000000000000000000000000000000000000000000081526004016110cb9061284a565b60405180910390fd5b6110de8134611eac565b600160095f8373ffffffffffffffffffffffffffffffffffffffff1673ffffffffffffffffffffffffffffffffffffffff1681526020019081526020015f205f6101000a81548160ff0219169083151502179055505f60065f6101000a81548160ff02191690831515021790555050565b611157611ea5565b73ffffffffffffffffffffffffffffffffffffffff16611175611301565b73ffffffffffffffffffffffffffffffffffffffff16146111cb576040517f08c379a00000000000000000000000000000000000000000000000000000000081526004016111c2906126ec565b60405180910390fd5b6111d45f612112565b565b5f6111df611ea5565b90508073ffffffffffffffffffffffffffffffffffffffff16611200611796565b73ffffffffffffffffffffffffffffffffffffffff161461125857806040517f118cdaa700000000000000000000000000000000000000000000000000000000815260040161124f919061245a565b60405180910390fd5b61126181612112565b50565b61126c612203565b60085f8473ffffffffffffffffffffffffffffffffffffffff1673ffffffffffffffffffffffffffffffffffffffff1681526020019081526020015f2082815481106112bb576112ba612534565b5b905f5260205f2090600402016040518060800160405290815f82015481526020016001820154815260200160028201548152602001600382015481525050905092915050565b5f805f9054906101000a900473ffffffffffffffffffffffffffffffffffffffff16905090565b60025481565b611336611ea5565b73ffffffffffffffffffffffffffffffffffffffff16611354611301565b73ffffffffffffffffffffffffffffffffffffffff16146113aa576040517f08c379a00000000000000000000000000000000000000000000000000000000081526004016113a1906126ec565b60405180910390fd5b806002819055507f4efe83add28265e9d321d1fed828b67205560fca9df811911361a29f2f5458fb816040516113e0919061223f565b60405180910390a150565b6009602052805f5260405f205f915054906101000a900460ff1681565b611410611ea5565b73ffffffffffffffffffffffffffffffffffffffff1661142e611301565b73ffffffffffffffffffffffffffffffffffffffff1614611484576040517f08c379a000000000000000000000000000000000000000000000000000000000815260040161147b906126ec565b60405180910390fd5b5f81116114c6576040517f08c379a00000000000000000000000000000000000000000000000000000000081526004016114bd906128d8565b60405180910390fd5b5f73ffffffffffffffffffffffffffffffffffffffff168373ffffffffffffffffffffffffffffffffffffffff1603611534576040517f08c379a000000000000000000000000000000000000000000000000000000000815260040161152b90612940565b60405180910390fd5b8060085f8573ffffffffffffffffffffffffffffffffffffffff1673ffffffffffffffffffffffffffffffffffffffff1681526020019081526020015f20838154811061158457611583612534565b5b905f5260205f20906004020160020181905550600354816115a591906125c1565b60085f8573ffffffffffffffffffffffffffffffffffffffff1673ffffffffffffffffffffffffffffffffffffffff1681526020019081526020015f2083815481106115f4576115f3612534565b5b905f5260205f20906004020160030181905550505050565b60035481565b61161a611ea5565b73ffffffffffffffffffffffffffffffffffffffff16611638611301565b73ffffffffffffffffffffffffffffffffffffffff161461168e576040517f08c379a0000000000000000000000000000000000000000000000000000000008152600401611685906126ec565b60405180910390fd5b5f8211801561169c57505f81115b6116db576040517f08c379a00000000000000000000000000000000000000000000000000000000081526004016116d2906129a8565b60405180910390fd5b62015180826116ea9190612651565b60048190555062015180816116ff9190612651565b600381905550806005819055507f7e70af40fa5b07e32a12e230761e17276f9de52c79c1e1ace9b58c62041f0a6260045460055460405161174192919061238d565b60405180910390a15050565b5f60085f8373ffffffffffffffffffffffffffffffffffffffff1673ffffffffffffffffffffffffffffffffffffffff1681526020019081526020015f20805490509050919050565b5f60015f9054906101000a900473ffffffffffffffffffffffffffffffffffffffff16905090565b60045481565b6117cc611ea5565b73ffffffffffffffffffffffffffffffffffffffff166117ea611301565b73ffffffffffffffffffffffffffffffffffffffff1614611840576040517f08c379a0000000000000000000000000000000000000000000000000000000008152600401611837906126ec565b60405180910390fd5b8060015f6101000a81548173ffffffffffffffffffffffffffffffffffffffff021916908373ffffffffffffffffffffffffffffffffffffffff1602179055508073ffffffffffffffffffffffffffffffffffffffff1661189f611301565b73ffffffffffffffffffffffffffffffffffffffff167f38d16b8cac22d99fc7c124b9cd0de2d3fa1faef420bfe791d8c362d765e2270060405160405180910390a350565b60065f9054906101000a900460ff1615611933576040517f08c379a000000000000000000000000000000000000000000000000000000000815260040161192a90612754565b60405180910390fd5b600160065f6101000a81548160ff02191690831515021790555060095f8373ffffffffffffffffffffffffffffffffffffffff1673ffffffffffffffffffffffffffffffffffffffff1681526020019081526020015f205f9054906101000a900460ff166119d6576040517f08c379a00000000000000000000000000000000000000000000000000000000081526004016119cd90612a10565b60405180910390fd5b5f60075f8473ffffffffffffffffffffffffffffffffffffffff1673ffffffffffffffffffffffffffffffffffffffff1681526020019081526020015f2090505f73ffffffffffffffffffffffffffffffffffffffff16815f015f9054906101000a900473ffffffffffffffffffffffffffffffffffffffff1673ffffffffffffffffffffffffffffffffffffffff1603611aa6576040517f08c379a0000000000000000000000000000000000000000000000000000000008152600401611a9d906127bc565b60405180910390fd5b5f80611ad4835f015f9054906101000a900473ffffffffffffffffffffffffffffffffffffffff1685610503565b915091505f821115611c7b575f61271060025484611af29190612651565b611afc9190612621565b9050611b06611301565b73ffffffffffffffffffffffffffffffffffffffff166108fc8290811502906040515f60405180830381858888f19350505050158015611b48573d5f803e3d5ffd5b508573ffffffffffffffffffffffffffffffffffffffff166108fc8285611b6f919061258e565b90811502906040515f60405180830381858888f19350505050158015611b97573d5f803e3d5ffd5b507f56ca301a9219608c91e7bcee90e083c19671d2cdcc96752c7af291cee5f9c8c88342604051611bc992919061238d565b60405180910390a182846002015f828254611be491906125c1565b9250508190555082846001015f828254611bfe919061258e565b925050819055508260085f8873ffffffffffffffffffffffffffffffffffffffff1673ffffffffffffffffffffffffffffffffffffffff1681526020019081526020015f208681548110611c5557611c54612534565b5b905f5260205f2090600402016001015f828254611c7291906125c1565b92505081905550505b5f6201518082611c8b9190612651565b60085f8873ffffffffffffffffffffffffffffffffffffffff1673ffffffffffffffffffffffffffffffffffffffff1681526020019081526020015f208681548110611cda57611cd9612534565b5b905f5260205f20906004020160020154611cf491906125c1565b905060085f8773ffffffffffffffffffffffffffffffffffffffff1673ffffffffffffffffffffffffffffffffffffffff1681526020019081526020015f208581548110611d4557611d44612534565b5b905f5260205f2090600402015f015460085f8873ffffffffffffffffffffffffffffffffffffffff1673ffffffffffffffffffffffffffffffffffffffff1681526020019081526020015f208681548110611da357611da2612534565b5b905f5260205f2090600402016001015403611e20575f60085f8873ffffffffffffffffffffffffffffffffffffffff1673ffffffffffffffffffffffffffffffffffffffff1681526020019081526020015f208681548110611e0857611e07612534565b5b905f5260205f20906004020160020181905550611e84565b8060085f8873ffffffffffffffffffffffffffffffffffffffff1673ffffffffffffffffffffffffffffffffffffffff1681526020019081526020015f208681548110611e7057611e6f612534565b5b905f5260205f209060040201600201819055505b505050505f60065f6101000a81548160ff0219169083151502179055505050565b5f33905090565b60065f9054906101000a900460ff1615611efb576040517f08c379a0000000000000000000000000000000000000000000000000000000008152600401611ef290612754565b60405180910390fd5b600160065f6101000a81548160ff0219169083151502179055505f60075f8473ffffffffffffffffffffffffffffffffffffffff1673ffffffffffffffffffffffffffffffffffffffff1681526020019081526020015f2090505f60085f8573ffffffffffffffffffffffffffffffffffffffff1673ffffffffffffffffffffffffffffffffffffffff1681526020019081526020015f2090505f60045442611fa491906125c1565b905084835f015f6101000a81548173ffffffffffffffffffffffffffffffffffffffff021916908373ffffffffffffffffffffffffffffffffffffffff16021790555060095f8673ffffffffffffffffffffffffffffffffffffffff1673ffffffffffffffffffffffffffffffffffffffff1681526020019081526020015f205f9054906101000a900460ff16156120625783836001015f82825461204991906125c1565b9250508190555082600201548360020181905550612075565b8383600101819055505f83600201819055505b8160405180608001604052808681526020015f8152602001838152602001600354846120a191906125c1565b815250908060018154018082558091505060019003905f5260205f2090600402015f909190919091505f820151815f015560208201518160010155604082015181600201556060820151816003015550505050505f60065f6101000a81548160ff0219169083151502179055505050565b60015f6101000a81549073ffffffffffffffffffffffffffffffffffffffff021916905561213f81612142565b50565b5f805f9054906101000a900473ffffffffffffffffffffffffffffffffffffffff169050815f806101000a81548173ffffffffffffffffffffffffffffffffffffffff021916908373ffffffffffffffffffffffffffffffffffffffff1602179055508173ffffffffffffffffffffffffffffffffffffffff168173ffffffffffffffffffffffffffffffffffffffff167f8be0079c531659141344cd1fd0a4f28419497f9722a3daafe3b4186f6b6457e060405160405180910390a35050565b60405180608001604052805f81526020015f81526020015f81526020015f81525090565b5f819050919050565b61223981612227565b82525050565b5f6020820190506122525f830184612230565b92915050565b5f80fd5b5f73ffffffffffffffffffffffffffffffffffffffff82169050919050565b5f6122858261225c565b9050919050565b6122958161227b565b811461229f575f80fd5b50565b5f813590506122b08161228c565b92915050565b5f602082840312156122cb576122ca612258565b5b5f6122d8848285016122a2565b91505092915050565b6122ea8161227b565b82525050565b5f6060820190506123035f8301866122e1565b6123106020830185612230565b61231d6040830184612230565b949350505050565b61232e81612227565b8114612338575f80fd5b50565b5f8135905061234981612325565b92915050565b5f806040838503121561236557612364612258565b5b5f612372858286016122a2565b92505060206123838582860161233b565b9150509250929050565b5f6040820190506123a05f830185612230565b6123ad6020830184612230565b9392505050565b5f602082840312156123c9576123c8612258565b5b5f6123d68482850161233b565b91505092915050565b6123e881612227565b82525050565b608082015f8201516124025f8501826123df565b50602082015161241560208501826123df565b50604082015161242860408501826123df565b50606082015161243b60608501826123df565b50505050565b5f6080820190506124545f8301846123ee565b92915050565b5f60208201905061246d5f8301846122e1565b92915050565b5f8115159050919050565b61248781612473565b82525050565b5f6020820190506124a05f83018461247e565b92915050565b5f805f606084860312156124bd576124bc612258565b5b5f6124ca868287016122a2565b93505060206124db8682870161233b565b92505060406124ec8682870161233b565b9150509250925092565b5f806040838503121561250c5761250b612258565b5b5f6125198582860161233b565b925050602061252a8582860161233b565b9150509250929050565b7f4e487b71000000000000000000000000000000000000000000000000000000005f52603260045260245ffd5b7f4e487b71000000000000000000000000000000000000000000000000000000005f52601160045260245ffd5b5f61259882612227565b91506125a383612227565b92508282039050818111156125bb576125ba612561565b5b92915050565b5f6125cb82612227565b91506125d683612227565b92508282019050808211156125ee576125ed612561565b5b92915050565b7f4e487b71000000000000000000000000000000000000000000000000000000005f52601260045260245ffd5b5f61262b82612227565b915061263683612227565b925082612646576126456125f4565b5b828204905092915050565b5f61265b82612227565b915061266683612227565b925082820261267481612227565b9150828204841483151761268b5761268a612561565b5b5092915050565b5f82825260208201905092915050565b7f4f776e61626c653a2063616c6c6572206973206e6f7420746865206f776e65725f82015250565b5f6126d6602083612692565b91506126e1826126a2565b602082019050919050565b5f6020820190508181035f830152612703816126ca565b9050919050565b7f4e6f2072652d656e7472616e63790000000000000000000000000000000000005f82015250565b5f61273e600e83612692565b91506127498261270a565b602082019050919050565b5f6020820190508181035f83015261276b81612732565b9050919050565b7f496e76616c6964207573657200000000000000000000000000000000000000005f82015250565b5f6127a6600c83612692565b91506127b182612772565b602082019050919050565b5f6020820190508181035f8301526127d38161279a565b9050919050565b7f76657374696e6720616c726561647920616c6c6f636174656420746f207468695f8201527f7320616464726573730000000000000000000000000000000000000000000000602082015250565b5f612834602983612692565b915061283f826127da565b604082019050919050565b5f6020820190508181035f83015261286181612828565b9050919050565b7f4e65772076657374696e672073746172742074696d652073686f756c64206e6f5f8201527f74206265207a65726f0000000000000000000000000000000000000000000000602082015250565b5f6128c2602983612692565b91506128cd82612868565b604082019050919050565b5f6020820190508181035f8301526128ef816128b6565b9050919050565b7f496e76616c6964207573657220616464726573730000000000000000000000005f82015250565b5f61292a601483612692565b9150612935826128f6565b602082019050919050565b5f6020820190508181035f8301526129578161291e565b9050919050565b7f204461792073686f756c64206e6f74206265205a65726f0000000000000000005f82015250565b5f612992601783612692565b915061299d8261295e565b602082019050919050565b5f6020820190508181035f8301526129bf81612986565b9050919050565b7f46756e6473206e6f7420616c6c6f636174656420746f207468697320757365725f82015250565b5f6129fa602083612692565b9150612a05826129c6565b602082019050919050565b5f6020820190508181035f830152612a27816129ee565b905091905056fea26469706673582212202d712fc7e4934656024370a289e62be8a70630977e321a695e4ccd8a3c8bce7a64736f6c634300081a0033",
					"opcodes": "PUSH1 0x80 PUSH1 0x40 MSTORE CALLVALUE DUP1 ISZERO PUSH2 0xF JUMPI PUSH0 DUP1 REVERT JUMPDEST POP PUSH1 0x40 MLOAD PUSH2 0x2DB6 CODESIZE SUB DUP1 PUSH2 0x2DB6 DUP4 CODECOPY DUP2 DUP2 ADD PUSH1 0x40 MSTORE DUP2 ADD SWAP1 PUSH2 0x31 SWAP2 SWAP1 PUSH2 0x20F JUMP JUMPDEST PUSH2 0x4D PUSH2 0x42 PUSH2 0xDA PUSH1 0x20 SHL PUSH1 0x20 SHR JUMP JUMPDEST PUSH2 0xE1 PUSH1 0x20 SHL PUSH1 0x20 SHR JUMP JUMPDEST PUSH0 DUP3 GT DUP1 ISZERO PUSH2 0x5B JUMPI POP PUSH0 DUP2 GT JUMPDEST PUSH2 0x9A JUMPI PUSH1 0x40 MLOAD PUSH32 0x8C379A000000000000000000000000000000000000000000000000000000000 DUP2 MSTORE PUSH1 0x4 ADD PUSH2 0x91 SWAP1 PUSH2 0x2B9 JUMP JUMPDEST PUSH1 0x40 MLOAD DUP1 SWAP2 SUB SWAP1 REVERT JUMPDEST DUP3 PUSH1 0x2 DUP2 SWAP1 SSTORE POP PUSH3 0x15180 DUP3 PUSH2 0xB0 SWAP2 SWAP1 PUSH2 0x304 JUMP JUMPDEST PUSH1 0x4 DUP2 SWAP1 SSTORE POP PUSH3 0x15180 DUP2 PUSH2 0xC5 SWAP2 SWAP1 PUSH2 0x304 JUMP JUMPDEST PUSH1 0x3 DUP2 SWAP1 SSTORE POP DUP1 PUSH1 0x5 DUP2 SWAP1 SSTORE POP POP POP POP PUSH2 0x345 JUMP JUMPDEST PUSH0 CALLER SWAP1 POP SWAP1 JUMP JUMPDEST PUSH1 0x1 PUSH0 PUSH2 0x100 EXP DUP2 SLOAD SWAP1 PUSH20 0xFFFFFFFFFFFFFFFFFFFFFFFFFFFFFFFFFFFFFFFF MUL NOT AND SWAP1 SSTORE PUSH2 0x114 DUP2 PUSH2 0x117 PUSH1 0x20 SHL PUSH1 0x20 SHR JUMP JUMPDEST POP JUMP JUMPDEST PUSH0 DUP1 PUSH0 SWAP1 SLOAD SWAP1 PUSH2 0x100 EXP SWAP1 DIV PUSH20 0xFFFFFFFFFFFFFFFFFFFFFFFFFFFFFFFFFFFFFFFF AND SWAP1 POP DUP2 PUSH0 DUP1 PUSH2 0x100 EXP DUP2 SLOAD DUP2 PUSH20 0xFFFFFFFFFFFFFFFFFFFFFFFFFFFFFFFFFFFFFFFF MUL NOT AND SWAP1 DUP4 PUSH20 0xFFFFFFFFFFFFFFFFFFFFFFFFFFFFFFFFFFFFFFFF AND MUL OR SWAP1 SSTORE POP DUP2 PUSH20 0xFFFFFFFFFFFFFFFFFFFFFFFFFFFFFFFFFFFFFFFF AND DUP2 PUSH20 0xFFFFFFFFFFFFFFFFFFFFFFFFFFFFFFFFFFFFFFFF AND PUSH32 0x8BE0079C531659141344CD1FD0A4F28419497F9722A3DAAFE3B4186F6B6457E0 PUSH1 0x40 MLOAD PUSH1 0x40 MLOAD DUP1 SWAP2 SUB SWAP1 LOG3 POP POP JUMP JUMPDEST PUSH0 DUP1 REVERT JUMPDEST PUSH0 DUP2 SWAP1 POP SWAP2 SWAP1 POP JUMP JUMPDEST PUSH2 0x1EE DUP2 PUSH2 0x1DC JUMP JUMPDEST DUP2 EQ PUSH2 0x1F8 JUMPI PUSH0 DUP1 REVERT JUMPDEST POP JUMP JUMPDEST PUSH0 DUP2 MLOAD SWAP1 POP PUSH2 0x209 DUP2 PUSH2 0x1E5 JUMP JUMPDEST SWAP3 SWAP2 POP POP JUMP JUMPDEST PUSH0 DUP1 PUSH0 PUSH1 0x60 DUP5 DUP7 SUB SLT ISZERO PUSH2 0x226 JUMPI PUSH2 0x225 PUSH2 0x1D8 JUMP JUMPDEST JUMPDEST PUSH0 PUSH2 0x233 DUP7 DUP3 DUP8 ADD PUSH2 0x1FB JUMP JUMPDEST SWAP4 POP POP PUSH1 0x20 PUSH2 0x244 DUP7 DUP3 DUP8 ADD PUSH2 0x1FB JUMP JUMPDEST SWAP3 POP POP PUSH1 0x40 PUSH2 0x255 DUP7 DUP3 DUP8 ADD PUSH2 0x1FB JUMP JUMPDEST SWAP2 POP POP SWAP3 POP SWAP3 POP SWAP3 JUMP JUMPDEST PUSH0 DUP3 DUP3 MSTORE PUSH1 0x20 DUP3 ADD SWAP1 POP SWAP3 SWAP2 POP POP JUMP JUMPDEST PUSH32 0x204461792073686F756C64206E6F74206265205A65726F000000000000000000 PUSH0 DUP3 ADD MSTORE POP JUMP JUMPDEST PUSH0 PUSH2 0x2A3 PUSH1 0x17 DUP4 PUSH2 0x25F JUMP JUMPDEST SWAP2 POP PUSH2 0x2AE DUP3 PUSH2 0x26F JUMP JUMPDEST PUSH1 0x20 DUP3 ADD SWAP1 POP SWAP2 SWAP1 POP JUMP JUMPDEST PUSH0 PUSH1 0x20 DUP3 ADD SWAP1 POP DUP2 DUP2 SUB PUSH0 DUP4 ADD MSTORE PUSH2 0x2D0 DUP2 PUSH2 0x297 JUMP JUMPDEST SWAP1 POP SWAP2 SWAP1 POP JUMP JUMPDEST PUSH32 0x4E487B7100000000000000000000000000000000000000000000000000000000 PUSH0 MSTORE PUSH1 0x11 PUSH1 0x4 MSTORE PUSH1 0x24 PUSH0 REVERT JUMPDEST PUSH0 PUSH2 0x30E DUP3 PUSH2 0x1DC JUMP JUMPDEST SWAP2 POP PUSH2 0x319 DUP4 PUSH2 0x1DC JUMP JUMPDEST SWAP3 POP DUP3 DUP3 MUL PUSH2 0x327 DUP2 PUSH2 0x1DC JUMP JUMPDEST SWAP2 POP DUP3 DUP3 DIV DUP5 EQ DUP4 ISZERO OR PUSH2 0x33E JUMPI PUSH2 0x33D PUSH2 0x2D7 JUMP JUMPDEST JUMPDEST POP SWAP3 SWAP2 POP POP JUMP JUMPDEST PUSH2 0x2A64 DUP1 PUSH2 0x352 PUSH0 CODECOPY PUSH0 RETURN INVALID PUSH1 0x80 PUSH1 0x40 MSTORE PUSH1 0x4 CALLDATASIZE LT PUSH2 0x129 JUMPI PUSH0 CALLDATALOAD PUSH1 0xE0 SHR DUP1 PUSH4 0x90611561 GT PUSH2 0xAA JUMPI DUP1 PUSH4 0xAA1CED32 GT PUSH2 0x6E JUMPI DUP1 PUSH4 0xAA1CED32 EQ PUSH2 0x3B0 JUMPI DUP1 PUSH4 0xCAEF6601 EQ PUSH2 0x3D8 JUMPI DUP1 PUSH4 0xE30C3978 EQ PUSH2 0x414 JUMPI DUP1 PUSH4 0xED58EF11 EQ PUSH2 0x43E JUMPI DUP1 PUSH4 0xF2FDE38B EQ PUSH2 0x468 JUMPI DUP1 PUSH4 0xFE417FA5 EQ PUSH2 0x490 JUMPI PUSH2 0x129 JUMP JUMPDEST DUP1 PUSH4 0x90611561 EQ PUSH2 0x2D0 JUMPI DUP1 PUSH4 0x90ACBC83 EQ PUSH2 0x2FA JUMPI DUP1 PUSH4 0x937B8E16 EQ PUSH2 0x322 JUMPI DUP1 PUSH4 0xA39D7494 EQ PUSH2 0x35E JUMPI DUP1 PUSH4 0xA90AA4B4 EQ PUSH2 0x386 JUMPI PUSH2 0x129 JUMP JUMPDEST DUP1 PUSH4 0x5DC0799C GT PUSH2 0xF1 JUMPI DUP1 PUSH4 0x5DC0799C EQ PUSH2 0x222 JUMPI DUP1 PUSH4 0x715018A6 EQ PUSH2 0x23E JUMPI DUP1 PUSH4 0x79BA5097 EQ PUSH2 0x254 JUMPI DUP1 PUSH4 0x7A5FA298 EQ PUSH2 0x26A JUMPI DUP1 PUSH4 0x8DA5CB5B EQ PUSH2 0x2A6 JUMPI PUSH2 0x129 JUMP JUMPDEST DUP1 PUSH4 0x15862669 EQ PUSH2 0x12D JUMPI DUP1 PUSH4 0x1959A002 EQ PUSH2 0x157 JUMPI DUP1 PUSH4 0x501B1DE0 EQ PUSH2 0x195 JUMPI DUP1 PUSH4 0x55B1F1A3 EQ PUSH2 0x1D2 JUMPI DUP1 PUSH4 0x5BC269E9 EQ PUSH2 0x1FA JUMPI JUMPDEST PUSH0 DUP1 REVERT JUMPDEST CALLVALUE DUP1 ISZERO PUSH2 0x138 JUMPI PUSH0 DUP1 REVERT JUMPDEST POP PUSH2 0x141 PUSH2 0x4B8 JUMP JUMPDEST PUSH1 0x40 MLOAD PUSH2 0x14E SWAP2 SWAP1 PUSH2 0x223F JUMP JUMPDEST PUSH1 0x40 MLOAD DUP1 SWAP2 SUB SWAP1 RETURN JUMPDEST CALLVALUE DUP1 ISZERO PUSH2 0x162 JUMPI PUSH0 DUP1 REVERT JUMPDEST POP PUSH2 0x17D PUSH1 0x4 DUP1 CALLDATASIZE SUB DUP2 ADD SWAP1 PUSH2 0x178 SWAP2 SWAP1 PUSH2 0x22B6 JUMP JUMPDEST PUSH2 0x4BE JUMP JUMPDEST PUSH1 0x40 MLOAD PUSH2 0x18C SWAP4 SWAP3 SWAP2 SWAP1 PUSH2 0x22F0 JUMP JUMPDEST PUSH1 0x40 MLOAD DUP1 SWAP2 SUB SWAP1 RETURN JUMPDEST CALLVALUE DUP1 ISZERO PUSH2 0x1A0 JUMPI PUSH0 DUP1 REVERT JUMPDEST POP PUSH2 0x1BB PUSH1 0x4 DUP1 CALLDATASIZE SUB DUP2 ADD SWAP1 PUSH2 0x1B6 SWAP2 SWAP1 PUSH2 0x234F JUMP JUMPDEST PUSH2 0x503 JUMP JUMPDEST PUSH1 0x40 MLOAD PUSH2 0x1C9 SWAP3 SWAP2 SWAP1 PUSH2 0x238D JUMP JUMPDEST PUSH1 0x40 MLOAD DUP1 SWAP2 SUB SWAP1 RETURN JUMPDEST CALLVALUE DUP1 ISZERO PUSH2 0x1DD JUMPI PUSH0 DUP1 REVERT JUMPDEST POP PUSH2 0x1F8 PUSH1 0x4 DUP1 CALLDATASIZE SUB DUP2 ADD SWAP1 PUSH2 0x1F3 SWAP2 SWAP1 PUSH2 0x234F JUMP JUMPDEST PUSH2 0x934 JUMP JUMPDEST STOP JUMPDEST CALLVALUE DUP1 ISZERO PUSH2 0x205 JUMPI PUSH0 DUP1 REVERT JUMPDEST POP PUSH2 0x220 PUSH1 0x4 DUP1 CALLDATASIZE SUB DUP2 ADD SWAP1 PUSH2 0x21B SWAP2 SWAP1 PUSH2 0x23B4 JUMP JUMPDEST PUSH2 0xE62 JUMP JUMPDEST STOP JUMPDEST PUSH2 0x23C PUSH1 0x4 DUP1 CALLDATASIZE SUB DUP2 ADD SWAP1 PUSH2 0x237 SWAP2 SWAP1 PUSH2 0x22B6 JUMP JUMPDEST PUSH2 0xF65 JUMP JUMPDEST STOP JUMPDEST CALLVALUE DUP1 ISZERO PUSH2 0x249 JUMPI PUSH0 DUP1 REVERT JUMPDEST POP PUSH2 0x252 PUSH2 0x114F JUMP JUMPDEST STOP JUMPDEST CALLVALUE DUP1 ISZERO PUSH2 0x25F JUMPI PUSH0 DUP1 REVERT JUMPDEST POP PUSH2 0x268 PUSH2 0x11D6 JUMP JUMPDEST STOP JUMPDEST CALLVALUE DUP1 ISZERO PUSH2 0x275 JUMPI PUSH0 DUP1 REVERT JUMPDEST POP PUSH2 0x290 PUSH1 0x4 DUP1 CALLDATASIZE SUB DUP2 ADD SWAP1 PUSH2 0x28B SWAP2 SWAP1 PUSH2 0x234F JUMP JUMPDEST PUSH2 0x1264 JUMP JUMPDEST PUSH1 0x40 MLOAD PUSH2 0x29D SWAP2 SWAP1 PUSH2 0x2441 JUMP JUMPDEST PUSH1 0x40 MLOAD DUP1 SWAP2 SUB SWAP1 RETURN JUMPDEST CALLVALUE DUP1 ISZERO PUSH2 0x2B1 JUMPI PUSH0 DUP1 REVERT JUMPDEST POP PUSH2 0x2BA PUSH2 0x1301 JUMP JUMPDEST PUSH1 0x40 MLOAD PUSH2 0x2C7 SWAP2 SWAP1 PUSH2 0x245A JUMP JUMPDEST PUSH1 0x40 MLOAD DUP1 SWAP2 SUB SWAP1 RETURN JUMPDEST CALLVALUE DUP1 ISZERO PUSH2 0x2DB JUMPI PUSH0 DUP1 REVERT JUMPDEST POP PUSH2 0x2E4 PUSH2 0x1328 JUMP JUMPDEST PUSH1 0x40 MLOAD PUSH2 0x2F1 SWAP2 SWAP1 PUSH2 0x223F JUMP JUMPDEST PUSH1 0x40 MLOAD DUP1 SWAP2 SUB SWAP1 RETURN JUMPDEST CALLVALUE DUP1 ISZERO PUSH2 0x305 JUMPI PUSH0 DUP1 REVERT JUMPDEST POP PUSH2 0x320 PUSH1 0x4 DUP1 CALLDATASIZE SUB DUP2 ADD SWAP1 PUSH2 0x31B SWAP2 SWAP1 PUSH2 0x23B4 JUMP JUMPDEST PUSH2 0x132E JUMP JUMPDEST STOP JUMPDEST CALLVALUE DUP1 ISZERO PUSH2 0x32D JUMPI PUSH0 DUP1 REVERT JUMPDEST POP PUSH2 0x348 PUSH1 0x4 DUP1 CALLDATASIZE SUB DUP2 ADD SWAP1 PUSH2 0x343 SWAP2 SWAP1 PUSH2 0x22B6 JUMP JUMPDEST PUSH2 0x13EB JUMP JUMPDEST PUSH1 0x40 MLOAD PUSH2 0x355 SWAP2 SWAP1 PUSH2 0x248D JUMP JUMPDEST PUSH1 0x40 MLOAD DUP1 SWAP2 SUB SWAP1 RETURN JUMPDEST CALLVALUE DUP1 ISZERO PUSH2 0x369 JUMPI PUSH0 DUP1 REVERT JUMPDEST POP PUSH2 0x384 PUSH1 0x4 DUP1 CALLDATASIZE SUB DUP2 ADD SWAP1 PUSH2 0x37F SWAP2 SWAP1 PUSH2 0x24A6 JUMP JUMPDEST PUSH2 0x1408 JUMP JUMPDEST STOP JUMPDEST CALLVALUE DUP1 ISZERO PUSH2 0x391 JUMPI PUSH0 DUP1 REVERT JUMPDEST POP PUSH2 0x39A PUSH2 0x160C JUMP JUMPDEST PUSH1 0x40 MLOAD PUSH2 0x3A7 SWAP2 SWAP1 PUSH2 0x223F JUMP JUMPDEST PUSH1 0x40 MLOAD DUP1 SWAP2 SUB SWAP1 RETURN JUMPDEST CALLVALUE DUP1 ISZERO PUSH2 0x3BB JUMPI PUSH0 DUP1 REVERT JUMPDEST POP PUSH2 0x3D6 PUSH1 0x4 DUP1 CALLDATASIZE SUB DUP2 ADD SWAP1 PUSH2 0x3D1 SWAP2 SWAP1 PUSH2 0x24F6 JUMP JUMPDEST PUSH2 0x1612 JUMP JUMPDEST STOP JUMPDEST CALLVALUE DUP1 ISZERO PUSH2 0x3E3 JUMPI PUSH0 DUP1 REVERT JUMPDEST POP PUSH2 0x3FE PUSH1 0x4 DUP1 CALLDATASIZE SUB DUP2 ADD SWAP1 PUSH2 0x3F9 SWAP2 SWAP1 PUSH2 0x22B6 JUMP JUMPDEST PUSH2 0x174D JUMP JUMPDEST PUSH1 0x40 MLOAD PUSH2 0x40B SWAP2 SWAP1 PUSH2 0x223F JUMP JUMPDEST PUSH1 0x40 MLOAD DUP1 SWAP2 SUB SWAP1 RETURN JUMPDEST CALLVALUE DUP1 ISZERO PUSH2 0x41F JUMPI PUSH0 DUP1 REVERT JUMPDEST POP PUSH2 0x428 PUSH2 0x1796 JUMP JUMPDEST PUSH1 0x40 MLOAD PUSH2 0x435 SWAP2 SWAP1 PUSH2 0x245A JUMP JUMPDEST PUSH1 0x40 MLOAD DUP1 SWAP2 SUB SWAP1 RETURN JUMPDEST CALLVALUE DUP1 ISZERO PUSH2 0x449 JUMPI PUSH0 DUP1 REVERT JUMPDEST POP PUSH2 0x452 PUSH2 0x17BE JUMP JUMPDEST PUSH1 0x40 MLOAD PUSH2 0x45F SWAP2 SWAP1 PUSH2 0x223F JUMP JUMPDEST PUSH1 0x40 MLOAD DUP1 SWAP2 SUB SWAP1 RETURN JUMPDEST CALLVALUE DUP1 ISZERO PUSH2 0x473 JUMPI PUSH0 DUP1 REVERT JUMPDEST POP PUSH2 0x48E PUSH1 0x4 DUP1 CALLDATASIZE SUB DUP2 ADD SWAP1 PUSH2 0x489 SWAP2 SWAP1 PUSH2 0x22B6 JUMP JUMPDEST PUSH2 0x17C4 JUMP JUMPDEST STOP JUMPDEST CALLVALUE DUP1 ISZERO PUSH2 0x49B JUMPI PUSH0 DUP1 REVERT JUMPDEST POP PUSH2 0x4B6 PUSH1 0x4 DUP1 CALLDATASIZE SUB DUP2 ADD SWAP1 PUSH2 0x4B1 SWAP2 SWAP1 PUSH2 0x234F JUMP JUMPDEST PUSH2 0x18E4 JUMP JUMPDEST STOP JUMPDEST PUSH1 0x5 SLOAD DUP2 JUMP JUMPDEST PUSH1 0x7 PUSH1 0x20 MSTORE DUP1 PUSH0 MSTORE PUSH1 0x40 PUSH0 KECCAK256 PUSH0 SWAP2 POP SWAP1 POP DUP1 PUSH0 ADD PUSH0 SWAP1 SLOAD SWAP1 PUSH2 0x100 EXP SWAP1 DIV PUSH20 0xFFFFFFFFFFFFFFFFFFFFFFFFFFFFFFFFFFFFFFFF AND SWAP1 DUP1 PUSH1 0x1 ADD SLOAD SWAP1 DUP1 PUSH1 0x2 ADD SLOAD SWAP1 POP DUP4 JUMP JUMPDEST PUSH0 DUP1 PUSH0 PUSH1 0x8 PUSH0 DUP7 PUSH20 0xFFFFFFFFFFFFFFFFFFFFFFFFFFFFFFFFFFFFFFFF AND PUSH20 0xFFFFFFFFFFFFFFFFFFFFFFFFFFFFFFFFFFFFFFFF AND DUP2 MSTORE PUSH1 0x20 ADD SWAP1 DUP2 MSTORE PUSH1 0x20 ADD PUSH0 KECCAK256 DUP1 SLOAD DUP1 PUSH1 0x20 MUL PUSH1 0x20 ADD PUSH1 0x40 MLOAD SWAP1 DUP2 ADD PUSH1 0x40 MSTORE DUP1 SWAP3 SWAP2 SWAP1 DUP2 DUP2 MSTORE PUSH1 0x20 ADD PUSH0 SWAP1 JUMPDEST DUP3 DUP3 LT ISZERO PUSH2 0x5B9 JUMPI DUP4 DUP3 SWAP1 PUSH0 MSTORE PUSH1 0x20 PUSH0 KECCAK256 SWAP1 PUSH1 0x4 MUL ADD PUSH1 0x40 MLOAD DUP1 PUSH1 0x80 ADD PUSH1 0x40 MSTORE SWAP1 DUP2 PUSH0 DUP3 ADD SLOAD DUP2 MSTORE PUSH1 0x20 ADD PUSH1 0x1 DUP3 ADD SLOAD DUP2 MSTORE PUSH1 0x20 ADD PUSH1 0x2 DUP3 ADD SLOAD DUP2 MSTORE PUSH1 0x20 ADD PUSH1 0x3 DUP3 ADD SLOAD DUP2 MSTORE POP POP DUP2 MSTORE PUSH1 0x20 ADD SWAP1 PUSH1 0x1 ADD SWAP1 PUSH2 0x562 JUMP JUMPDEST POP POP POP POP SWAP1 POP PUSH0 DUP1 PUSH1 0x9 PUSH0 DUP9 PUSH20 0xFFFFFFFFFFFFFFFFFFFFFFFFFFFFFFFFFFFFFFFF AND PUSH20 0xFFFFFFFFFFFFFFFFFFFFFFFFFFFFFFFFFFFFFFFF AND DUP2 MSTORE PUSH1 0x20 ADD SWAP1 DUP2 MSTORE PUSH1 0x20 ADD PUSH0 KECCAK256 PUSH0 SWAP1 SLOAD SWAP1 PUSH2 0x100 EXP SWAP1 DIV PUSH1 0xFF AND PUSH2 0x61D JUMPI PUSH0 DUP1 SWAP5 POP SWAP5 POP POP POP POP PUSH2 0x92D JUMP JUMPDEST DUP3 DUP7 DUP2 MLOAD DUP2 LT PUSH2 0x630 JUMPI PUSH2 0x62F PUSH2 0x2534 JUMP JUMPDEST JUMPDEST PUSH1 0x20 MUL PUSH1 0x20 ADD ADD MLOAD PUSH1 0x40 ADD MLOAD TIMESTAMP LT PUSH2 0x78B JUMPI PUSH0 DUP4 DUP8 DUP2 MLOAD DUP2 LT PUSH2 0x656 JUMPI PUSH2 0x655 PUSH2 0x2534 JUMP JUMPDEST JUMPDEST PUSH1 0x20 MUL PUSH1 0x20 ADD ADD MLOAD PUSH1 0x40 ADD MLOAD EQ PUSH2 0x78A JUMPI PUSH0 DUP4 DUP8 DUP2 MLOAD DUP2 LT PUSH2 0x67B JUMPI PUSH2 0x67A PUSH2 0x2534 JUMP JUMPDEST JUMPDEST PUSH1 0x20 MUL PUSH1 0x20 ADD ADD MLOAD PUSH1 0x60 ADD MLOAD TIMESTAMP GT PUSH2 0x693 JUMPI TIMESTAMP PUSH2 0x6C1 JUMP JUMPDEST PUSH3 0x15180 DUP5 DUP9 DUP2 MLOAD DUP2 LT PUSH2 0x6AA JUMPI PUSH2 0x6A9 PUSH2 0x2534 JUMP JUMPDEST JUMPDEST PUSH1 0x20 MUL PUSH1 0x20 ADD ADD MLOAD PUSH1 0x60 ADD MLOAD PUSH2 0x6C0 SWAP2 SWAP1 PUSH2 0x258E JUMP JUMPDEST JUMPDEST SWAP1 POP PUSH0 PUSH3 0x15180 DUP6 DUP10 DUP2 MLOAD DUP2 LT PUSH2 0x6DB JUMPI PUSH2 0x6DA PUSH2 0x2534 JUMP JUMPDEST JUMPDEST PUSH1 0x20 MUL PUSH1 0x20 ADD ADD MLOAD PUSH1 0x40 ADD MLOAD DUP4 PUSH2 0x6F2 SWAP2 SWAP1 PUSH2 0x258E JUMP JUMPDEST PUSH2 0x6FC SWAP2 SWAP1 PUSH2 0x25C1 JUMP JUMPDEST SWAP1 POP PUSH3 0x15180 DUP2 PUSH2 0x70D SWAP2 SWAP1 PUSH2 0x2621 JUMP JUMPDEST SWAP3 POP PUSH1 0x5 SLOAD DUP4 PUSH1 0x8 PUSH0 DUP13 PUSH20 0xFFFFFFFFFFFFFFFFFFFFFFFFFFFFFFFFFFFFFFFF AND PUSH20 0xFFFFFFFFFFFFFFFFFFFFFFFFFFFFFFFFFFFFFFFF AND DUP2 MSTORE PUSH1 0x20 ADD SWAP1 DUP2 MSTORE PUSH1 0x20 ADD PUSH0 KECCAK256 DUP11 DUP2 SLOAD DUP2 LT PUSH2 0x762 JUMPI PUSH2 0x761 PUSH2 0x2534 JUMP JUMPDEST JUMPDEST SWAP1 PUSH0 MSTORE PUSH1 0x20 PUSH0 KECCAK256 SWAP1 PUSH1 0x4 MUL ADD PUSH0 ADD SLOAD PUSH2 0x77B SWAP2 SWAP1 PUSH2 0x2651 JUMP JUMPDEST PUSH2 0x785 SWAP2 SWAP1 PUSH2 0x2621 JUMP JUMPDEST SWAP4 POP POP POP JUMPDEST JUMPDEST PUSH1 0x8 PUSH0 DUP9 PUSH20 0xFFFFFFFFFFFFFFFFFFFFFFFFFFFFFFFFFFFFFFFF AND PUSH20 0xFFFFFFFFFFFFFFFFFFFFFFFFFFFFFFFFFFFFFFFF AND DUP2 MSTORE PUSH1 0x20 ADD SWAP1 DUP2 MSTORE PUSH1 0x20 ADD PUSH0 KECCAK256 DUP7 DUP2 SLOAD DUP2 LT PUSH2 0x7DA JUMPI PUSH2 0x7D9 PUSH2 0x2534 JUMP JUMPDEST JUMPDEST SWAP1 PUSH0 MSTORE PUSH1 0x20 PUSH0 KECCAK256 SWAP1 PUSH1 0x4 MUL ADD PUSH1 0x1 ADD SLOAD PUSH1 0x8 PUSH0 DUP10 PUSH20 0xFFFFFFFFFFFFFFFFFFFFFFFFFFFFFFFFFFFFFFFF AND PUSH20 0xFFFFFFFFFFFFFFFFFFFFFFFFFFFFFFFFFFFFFFFF AND DUP2 MSTORE PUSH1 0x20 ADD SWAP1 DUP2 MSTORE PUSH1 0x20 ADD PUSH0 KECCAK256 DUP8 DUP2 SLOAD DUP2 LT PUSH2 0x839 JUMPI PUSH2 0x838 PUSH2 0x2534 JUMP JUMPDEST JUMPDEST SWAP1 PUSH0 MSTORE PUSH1 0x20 PUSH0 KECCAK256 SWAP1 PUSH1 0x4 MUL ADD PUSH0 ADD SLOAD PUSH2 0x852 SWAP2 SWAP1 PUSH2 0x258E JUMP JUMPDEST DUP3 GT ISZERO PUSH2 0x923 JUMPI PUSH1 0x8 PUSH0 DUP9 PUSH20 0xFFFFFFFFFFFFFFFFFFFFFFFFFFFFFFFFFFFFFFFF AND PUSH20 0xFFFFFFFFFFFFFFFFFFFFFFFFFFFFFFFFFFFFFFFF AND DUP2 MSTORE PUSH1 0x20 ADD SWAP1 DUP2 MSTORE PUSH1 0x20 ADD PUSH0 KECCAK256 DUP7 DUP2 SLOAD DUP2 LT PUSH2 0x8A8 JUMPI PUSH2 0x8A7 PUSH2 0x2534 JUMP JUMPDEST JUMPDEST SWAP1 PUSH0 MSTORE PUSH1 0x20 PUSH0 KECCAK256 SWAP1 PUSH1 0x4 MUL ADD PUSH1 0x1 ADD SLOAD PUSH1 0x8 PUSH0 DUP10 PUSH20 0xFFFFFFFFFFFFFFFFFFFFFFFFFFFFFFFFFFFFFFFF AND PUSH20 0xFFFFFFFFFFFFFFFFFFFFFFFFFFFFFFFFFFFFFFFF AND DUP2 MSTORE PUSH1 0x20 ADD SWAP1 DUP2 MSTORE PUSH1 0x20 ADD PUSH0 KECCAK256 DUP8 DUP2 SLOAD DUP2 LT PUSH2 0x907 JUMPI PUSH2 0x906 PUSH2 0x2534 JUMP JUMPDEST JUMPDEST SWAP1 PUSH0 MSTORE PUSH1 0x20 PUSH0 KECCAK256 SWAP1 PUSH1 0x4 MUL ADD PUSH0 ADD SLOAD PUSH2 0x920 SWAP2 SWAP1 PUSH2 0x258E JUMP JUMPDEST SWAP2 POP JUMPDEST DUP2 DUP2 SWAP5 POP SWAP5 POP POP POP POP JUMPDEST SWAP3 POP SWAP3 SWAP1 POP JUMP JUMPDEST PUSH2 0x93C PUSH2 0x1EA5 JUMP JUMPDEST PUSH20 0xFFFFFFFFFFFFFFFFFFFFFFFFFFFFFFFFFFFFFFFF AND PUSH2 0x95A PUSH2 0x1301 JUMP JUMPDEST PUSH20 0xFFFFFFFFFFFFFFFFFFFFFFFFFFFFFFFFFFFFFFFF AND EQ PUSH2 0x9B0 JUMPI PUSH1 0x40 MLOAD PUSH32 0x8C379A000000000000000000000000000000000000000000000000000000000 DUP2 MSTORE PUSH1 0x4 ADD PUSH2 0x9A7 SWAP1 PUSH2 0x26EC JUMP JUMPDEST PUSH1 0x40 MLOAD DUP1 SWAP2 SUB SWAP1 REVERT JUMPDEST PUSH1 0x6 PUSH0 SWAP1 SLOAD SWAP1 PUSH2 0x100 EXP SWAP1 DIV PUSH1 0xFF AND ISZERO PUSH2 0x9FF JUMPI PUSH1 0x40 MLOAD PUSH32 0x8C379A000000000000000000000000000000000000000000000000000000000 DUP2 MSTORE PUSH1 0x4 ADD PUSH2 0x9F6 SWAP1 PUSH2 0x2754 JUMP JUMPDEST PUSH1 0x40 MLOAD DUP1 SWAP2 SUB SWAP1 REVERT JUMPDEST PUSH1 0x1 PUSH1 0x6 PUSH0 PUSH2 0x100 EXP DUP2 SLOAD DUP2 PUSH1 0xFF MUL NOT AND SWAP1 DUP4 ISZERO ISZERO MUL OR SWAP1 SSTORE POP PUSH0 PUSH1 0x7 PUSH0 DUP5 PUSH20 0xFFFFFFFFFFFFFFFFFFFFFFFFFFFFFFFFFFFFFFFF AND PUSH20 0xFFFFFFFFFFFFFFFFFFFFFFFFFFFFFFFFFFFFFFFF AND DUP2 MSTORE PUSH1 0x20 ADD SWAP1 DUP2 MSTORE PUSH1 0x20 ADD PUSH0 KECCAK256 SWAP1 POP PUSH0 PUSH20 0xFFFFFFFFFFFFFFFFFFFFFFFFFFFFFFFFFFFFFFFF AND DUP2 PUSH0 ADD PUSH0 SWAP1 SLOAD SWAP1 PUSH2 0x100 EXP SWAP1 DIV PUSH20 0xFFFFFFFFFFFFFFFFFFFFFFFFFFFFFFFFFFFFFFFF AND PUSH20 0xFFFFFFFFFFFFFFFFFFFFFFFFFFFFFFFFFFFFFFFF AND SUB PUSH2 0xAE9 JUMPI PUSH1 0x40 MLOAD PUSH32 0x8C379A000000000000000000000000000000000000000000000000000000000 DUP2 MSTORE PUSH1 0x4 ADD PUSH2 0xAE0 SWAP1 PUSH2 0x27BC JUMP JUMPDEST PUSH1 0x40 MLOAD DUP1 SWAP2 SUB SWAP1 REVERT JUMPDEST PUSH0 PUSH1 0x8 PUSH0 DUP6 PUSH20 0xFFFFFFFFFFFFFFFFFFFFFFFFFFFFFFFFFFFFFFFF AND PUSH20 0xFFFFFFFFFFFFFFFFFFFFFFFFFFFFFFFFFFFFFFFF AND DUP2 MSTORE PUSH1 0x20 ADD SWAP1 DUP2 MSTORE PUSH1 0x20 ADD PUSH0 KECCAK256 DUP4 DUP2 SLOAD DUP2 LT PUSH2 0xB39 JUMPI PUSH2 0xB38 PUSH2 0x2534 JUMP JUMPDEST JUMPDEST SWAP1 PUSH0 MSTORE PUSH1 0x20 PUSH0 KECCAK256 SWAP1 PUSH1 0x4 MUL ADD PUSH1 0x1 ADD SLOAD PUSH1 0x8 PUSH0 DUP7 PUSH20 0xFFFFFFFFFFFFFFFFFFFFFFFFFFFFFFFFFFFFFFFF AND PUSH20 0xFFFFFFFFFFFFFFFFFFFFFFFFFFFFFFFFFFFFFFFF AND DUP2 MSTORE PUSH1 0x20 ADD SWAP1 DUP2 MSTORE PUSH1 0x20 ADD PUSH0 KECCAK256 DUP5 DUP2 SLOAD DUP2 LT PUSH2 0xB98 JUMPI PUSH2 0xB97 PUSH2 0x2534 JUMP JUMPDEST JUMPDEST SWAP1 PUSH0 MSTORE PUSH1 0x20 PUSH0 KECCAK256 SWAP1 PUSH1 0x4 MUL ADD PUSH0 ADD SLOAD PUSH2 0xBB1 SWAP2 SWAP1 PUSH2 0x258E JUMP JUMPDEST SWAP1 POP PUSH0 DUP1 DUP3 GT ISZERO PUSH2 0xE42 JUMPI PUSH2 0x2710 PUSH1 0x2 SLOAD DUP4 PUSH2 0xBCD SWAP2 SWAP1 PUSH2 0x2651 JUMP JUMPDEST PUSH2 0xBD7 SWAP2 SWAP1 PUSH2 0x2621 JUMP JUMPDEST SWAP1 POP PUSH0 PUSH1 0x8 PUSH0 DUP8 PUSH20 0xFFFFFFFFFFFFFFFFFFFFFFFFFFFFFFFFFFFFFFFF AND PUSH20 0xFFFFFFFFFFFFFFFFFFFFFFFFFFFFFFFFFFFFFFFF AND DUP2 MSTORE PUSH1 0x20 ADD SWAP1 DUP2 MSTORE PUSH1 0x20 ADD PUSH0 KECCAK256 DUP6 DUP2 SLOAD DUP2 LT PUSH2 0xC29 JUMPI PUSH2 0xC28 PUSH2 0x2534 JUMP JUMPDEST JUMPDEST SWAP1 PUSH0 MSTORE PUSH1 0x20 PUSH0 KECCAK256 SWAP1 PUSH1 0x4 MUL ADD PUSH1 0x2 ADD DUP2 SWAP1 SSTORE POP DUP2 DUP4 PUSH1 0x2 ADD PUSH0 DUP3 DUP3 SLOAD PUSH2 0xC4F SWAP2 SWAP1 PUSH2 0x25C1 JUMP JUMPDEST SWAP3 POP POP DUP2 SWAP1 SSTORE POP DUP2 DUP4 PUSH1 0x1 ADD PUSH0 DUP3 DUP3 SLOAD PUSH2 0xC69 SWAP2 SWAP1 PUSH2 0x258E JUMP JUMPDEST SWAP3 POP POP DUP2 SWAP1 SSTORE POP DUP2 PUSH1 0x8 PUSH0 DUP8 PUSH20 0xFFFFFFFFFFFFFFFFFFFFFFFFFFFFFFFFFFFFFFFF AND PUSH20 0xFFFFFFFFFFFFFFFFFFFFFFFFFFFFFFFFFFFFFFFF AND DUP2 MSTORE PUSH1 0x20 ADD SWAP1 DUP2 MSTORE PUSH1 0x20 ADD PUSH0 KECCAK256 DUP6 DUP2 SLOAD DUP2 LT PUSH2 0xCC0 JUMPI PUSH2 0xCBF PUSH2 0x2534 JUMP JUMPDEST JUMPDEST SWAP1 PUSH0 MSTORE PUSH1 0x20 PUSH0 KECCAK256 SWAP1 PUSH1 0x4 MUL ADD PUSH1 0x1 ADD PUSH0 DUP3 DUP3 SLOAD PUSH2 0xCDD SWAP2 SWAP1 PUSH2 0x25C1 JUMP JUMPDEST SWAP3 POP POP DUP2 SWAP1 SSTORE POP DUP2 PUSH1 0x8 PUSH0 DUP8 PUSH20 0xFFFFFFFFFFFFFFFFFFFFFFFFFFFFFFFFFFFFFFFF AND PUSH20 0xFFFFFFFFFFFFFFFFFFFFFFFFFFFFFFFFFFFFFFFF AND DUP2 MSTORE PUSH1 0x20 ADD SWAP1 DUP2 MSTORE PUSH1 0x20 ADD PUSH0 KECCAK256 DUP6 DUP2 SLOAD DUP2 LT PUSH2 0xD34 JUMPI PUSH2 0xD33 PUSH2 0x2534 JUMP JUMPDEST JUMPDEST SWAP1 PUSH0 MSTORE PUSH1 0x20 PUSH0 KECCAK256 SWAP1 PUSH1 0x4 MUL ADD PUSH0 ADD PUSH0 DUP3 DUP3 SLOAD PUSH2 0xD50 SWAP2 SWAP1 PUSH2 0x258E JUMP JUMPDEST SWAP3 POP POP DUP2 SWAP1 SSTORE POP PUSH0 DUP2 GT ISZERO PUSH2 0xDAB JUMPI PUSH2 0xD67 PUSH2 0x1301 JUMP JUMPDEST PUSH20 0xFFFFFFFFFFFFFFFFFFFFFFFFFFFFFFFFFFFFFFFF AND PUSH2 0x8FC DUP3 SWAP1 DUP2 ISZERO MUL SWAP1 PUSH1 0x40 MLOAD PUSH0 PUSH1 0x40 MLOAD DUP1 DUP4 SUB DUP2 DUP6 DUP9 DUP9 CALL SWAP4 POP POP POP POP ISZERO DUP1 ISZERO PUSH2 0xDA9 JUMPI RETURNDATASIZE PUSH0 DUP1 RETURNDATACOPY RETURNDATASIZE PUSH0 REVERT JUMPDEST POP JUMPDEST PUSH0 DUP2 DUP4 PUSH2 0xDB8 SWAP2 SWAP1 PUSH2 0x258E JUMP JUMPDEST SWAP1 POP PUSH32 0x56CA301A9219608C91E7BCEE90E083C19671D2CDCC96752C7AF291CEE5F9C8C8 DUP2 TIMESTAMP PUSH1 0x40 MLOAD PUSH2 0xDEB SWAP3 SWAP2 SWAP1 PUSH2 0x238D JUMP JUMPDEST PUSH1 0x40 MLOAD DUP1 SWAP2 SUB SWAP1 LOG1 PUSH0 DUP2 GT ISZERO PUSH2 0xE40 JUMPI DUP6 PUSH20 0xFFFFFFFFFFFFFFFFFFFFFFFFFFFFFFFFFFFFFFFF AND PUSH2 0x8FC DUP3 SWAP1 DUP2 ISZERO MUL SWAP1 PUSH1 0x40 MLOAD PUSH0 PUSH1 0x40 MLOAD DUP1 DUP4 SUB DUP2 DUP6 DUP9 DUP9 CALL SWAP4 POP POP POP POP ISZERO DUP1 ISZERO PUSH2 0xE3E JUMPI RETURNDATASIZE PUSH0 DUP1 RETURNDATACOPY RETURNDATASIZE PUSH0 REVERT JUMPDEST POP JUMPDEST POP JUMPDEST POP POP POP PUSH0 PUSH1 0x6 PUSH0 PUSH2 0x100 EXP DUP2 SLOAD DUP2 PUSH1 0xFF MUL NOT AND SWAP1 DUP4 ISZERO ISZERO MUL OR SWAP1 SSTORE POP POP POP JUMP JUMPDEST PUSH2 0xE6A PUSH2 0x1EA5 JUMP JUMPDEST PUSH20 0xFFFFFFFFFFFFFFFFFFFFFFFFFFFFFFFFFFFFFFFF AND PUSH2 0xE88 PUSH2 0x1301 JUMP JUMPDEST PUSH20 0xFFFFFFFFFFFFFFFFFFFFFFFFFFFFFFFFFFFFFFFF AND EQ PUSH2 0xEDE JUMPI PUSH1 0x40 MLOAD PUSH32 0x8C379A000000000000000000000000000000000000000000000000000000000 DUP2 MSTORE PUSH1 0x4 ADD PUSH2 0xED5 SWAP1 PUSH2 0x26EC JUMP JUMPDEST PUSH1 0x40 MLOAD DUP1 SWAP2 SUB SWAP1 REVERT JUMPDEST PUSH0 PUSH2 0xEE7 PUSH2 0x1301 JUMP JUMPDEST SWAP1 POP PUSH0 PUSH20 0xFFFFFFFFFFFFFFFFFFFFFFFFFFFFFFFFFFFFFFFF AND DUP2 PUSH20 0xFFFFFFFFFFFFFFFFFFFFFFFFFFFFFFFFFFFFFFFF AND EQ PUSH2 0xF61 JUMPI DUP1 PUSH20 0xFFFFFFFFFFFFFFFFFFFFFFFFFFFFFFFFFFFFFFFF AND PUSH2 0x8FC DUP4 SWAP1 DUP2 ISZERO MUL SWAP1 PUSH1 0x40 MLOAD PUSH0 PUSH1 0x40 MLOAD DUP1 DUP4 SUB DUP2 DUP6 DUP9 DUP9 CALL SWAP4 POP POP POP POP ISZERO DUP1 ISZERO PUSH2 0xF5F JUMPI RETURNDATASIZE PUSH0 DUP1 RETURNDATACOPY RETURNDATASIZE PUSH0 REVERT JUMPDEST POP JUMPDEST POP POP JUMP JUMPDEST PUSH2 0xF6D PUSH2 0x1EA5 JUMP JUMPDEST PUSH20 0xFFFFFFFFFFFFFFFFFFFFFFFFFFFFFFFFFFFFFFFF AND PUSH2 0xF8B PUSH2 0x1301 JUMP JUMPDEST PUSH20 0xFFFFFFFFFFFFFFFFFFFFFFFFFFFFFFFFFFFFFFFF AND EQ PUSH2 0xFE1 JUMPI PUSH1 0x40 MLOAD PUSH32 0x8C379A000000000000000000000000000000000000000000000000000000000 DUP2 MSTORE PUSH1 0x4 ADD PUSH2 0xFD8 SWAP1 PUSH2 0x26EC JUMP JUMPDEST PUSH1 0x40 MLOAD DUP1 SWAP2 SUB SWAP1 REVERT JUMPDEST PUSH1 0x6 PUSH0 SWAP1 SLOAD SWAP1 PUSH2 0x100 EXP SWAP1 DIV PUSH1 0xFF AND ISZERO PUSH2 0x1030 JUMPI PUSH1 0x40 MLOAD PUSH32 0x8C379A000000000000000000000000000000000000000000000000000000000 DUP2 MSTORE PUSH1 0x4 ADD PUSH2 0x1027 SWAP1 PUSH2 0x2754 JUMP JUMPDEST PUSH1 0x40 MLOAD DUP1 SWAP2 SUB SWAP1 REVERT JUMPDEST PUSH1 0x1 PUSH1 0x6 PUSH0 PUSH2 0x100 EXP DUP2 SLOAD DUP2 PUSH1 0xFF MUL NOT AND SWAP1 DUP4 ISZERO ISZERO MUL OR SWAP1 SSTORE POP PUSH1 0x9 PUSH0 DUP3 PUSH20 0xFFFFFFFFFFFFFFFFFFFFFFFFFFFFFFFFFFFFFFFF AND PUSH20 0xFFFFFFFFFFFFFFFFFFFFFFFFFFFFFFFFFFFFFFFF AND DUP2 MSTORE PUSH1 0x20 ADD SWAP1 DUP2 MSTORE PUSH1 0x20 ADD PUSH0 KECCAK256 PUSH0 SWAP1 SLOAD SWAP1 PUSH2 0x100 EXP SWAP1 DIV PUSH1 0xFF AND ISZERO PUSH2 0x10D4 JUMPI PUSH1 0x40 MLOAD PUSH32 0x8C379A000000000000000000000000000000000000000000000000000000000 DUP2 MSTORE PUSH1 0x4 ADD PUSH2 0x10CB SWAP1 PUSH2 0x284A JUMP JUMPDEST PUSH1 0x40 MLOAD DUP1 SWAP2 SUB SWAP1 REVERT JUMPDEST PUSH2 0x10DE DUP2 CALLVALUE PUSH2 0x1EAC JUMP JUMPDEST PUSH1 0x1 PUSH1 0x9 PUSH0 DUP4 PUSH20 0xFFFFFFFFFFFFFFFFFFFFFFFFFFFFFFFFFFFFFFFF AND PUSH20 0xFFFFFFFFFFFFFFFFFFFFFFFFFFFFFFFFFFFFFFFF AND DUP2 MSTORE PUSH1 0x20 ADD SWAP1 DUP2 MSTORE PUSH1 0x20 ADD PUSH0 KECCAK256 PUSH0 PUSH2 0x100 EXP DUP2 SLOAD DUP2 PUSH1 0xFF MUL NOT AND SWAP1 DUP4 ISZERO ISZERO MUL OR SWAP1 SSTORE POP PUSH0 PUSH1 0x6 PUSH0 PUSH2 0x100 EXP DUP2 SLOAD DUP2 PUSH1 0xFF MUL NOT AND SWAP1 DUP4 ISZERO ISZERO MUL OR SWAP1 SSTORE POP POP JUMP JUMPDEST PUSH2 0x1157 PUSH2 0x1EA5 JUMP JUMPDEST PUSH20 0xFFFFFFFFFFFFFFFFFFFFFFFFFFFFFFFFFFFFFFFF AND PUSH2 0x1175 PUSH2 0x1301 JUMP JUMPDEST PUSH20 0xFFFFFFFFFFFFFFFFFFFFFFFFFFFFFFFFFFFFFFFF AND EQ PUSH2 0x11CB JUMPI PUSH1 0x40 MLOAD PUSH32 0x8C379A000000000000000000000000000000000000000000000000000000000 DUP2 MSTORE PUSH1 0x4 ADD PUSH2 0x11C2 SWAP1 PUSH2 0x26EC JUMP JUMPDEST PUSH1 0x40 MLOAD DUP1 SWAP2 SUB SWAP1 REVERT JUMPDEST PUSH2 0x11D4 PUSH0 PUSH2 0x2112 JUMP JUMPDEST JUMP JUMPDEST PUSH0 PUSH2 0x11DF PUSH2 0x1EA5 JUMP JUMPDEST SWAP1 POP DUP1 PUSH20 0xFFFFFFFFFFFFFFFFFFFFFFFFFFFFFFFFFFFFFFFF AND PUSH2 0x1200 PUSH2 0x1796 JUMP JUMPDEST PUSH20 0xFFFFFFFFFFFFFFFFFFFFFFFFFFFFFFFFFFFFFFFF AND EQ PUSH2 0x1258 JUMPI DUP1 PUSH1 0x40 MLOAD PUSH32 0x118CDAA700000000000000000000000000000000000000000000000000000000 DUP2 MSTORE PUSH1 0x4 ADD PUSH2 0x124F SWAP2 SWAP1 PUSH2 0x245A JUMP JUMPDEST PUSH1 0x40 MLOAD DUP1 SWAP2 SUB SWAP1 REVERT JUMPDEST PUSH2 0x1261 DUP2 PUSH2 0x2112 JUMP JUMPDEST POP JUMP JUMPDEST PUSH2 0x126C PUSH2 0x2203 JUMP JUMPDEST PUSH1 0x8 PUSH0 DUP5 PUSH20 0xFFFFFFFFFFFFFFFFFFFFFFFFFFFFFFFFFFFFFFFF AND PUSH20 0xFFFFFFFFFFFFFFFFFFFFFFFFFFFFFFFFFFFFFFFF AND DUP2 MSTORE PUSH1 0x20 ADD SWAP1 DUP2 MSTORE PUSH1 0x20 ADD PUSH0 KECCAK256 DUP3 DUP2 SLOAD DUP2 LT PUSH2 0x12BB JUMPI PUSH2 0x12BA PUSH2 0x2534 JUMP JUMPDEST JUMPDEST SWAP1 PUSH0 MSTORE PUSH1 0x20 PUSH0 KECCAK256 SWAP1 PUSH1 0x4 MUL ADD PUSH1 0x40 MLOAD DUP1 PUSH1 0x80 ADD PUSH1 0x40 MSTORE SWAP1 DUP2 PUSH0 DUP3 ADD SLOAD DUP2 MSTORE PUSH1 0x20 ADD PUSH1 0x1 DUP3 ADD SLOAD DUP2 MSTORE PUSH1 0x20 ADD PUSH1 0x2 DUP3 ADD SLOAD DUP2 MSTORE PUSH1 0x20 ADD PUSH1 0x3 DUP3 ADD SLOAD DUP2 MSTORE POP POP SWAP1 POP SWAP3 SWAP2 POP POP JUMP JUMPDEST PUSH0 DUP1 PUSH0 SWAP1 SLOAD SWAP1 PUSH2 0x100 EXP SWAP1 DIV PUSH20 0xFFFFFFFFFFFFFFFFFFFFFFFFFFFFFFFFFFFFFFFF AND SWAP1 POP SWAP1 JUMP JUMPDEST PUSH1 0x2 SLOAD DUP2 JUMP JUMPDEST PUSH2 0x1336 PUSH2 0x1EA5 JUMP JUMPDEST PUSH20 0xFFFFFFFFFFFFFFFFFFFFFFFFFFFFFFFFFFFFFFFF AND PUSH2 0x1354 PUSH2 0x1301 JUMP JUMPDEST PUSH20 0xFFFFFFFFFFFFFFFFFFFFFFFFFFFFFFFFFFFFFFFF AND EQ PUSH2 0x13AA JUMPI PUSH1 0x40 MLOAD PUSH32 0x8C379A000000000000000000000000000000000000000000000000000000000 DUP2 MSTORE PUSH1 0x4 ADD PUSH2 0x13A1 SWAP1 PUSH2 0x26EC JUMP JUMPDEST PUSH1 0x40 MLOAD DUP1 SWAP2 SUB SWAP1 REVERT JUMPDEST DUP1 PUSH1 0x2 DUP2 SWAP1 SSTORE POP PUSH32 0x4EFE83ADD28265E9D321D1FED828B67205560FCA9DF811911361A29F2F5458FB DUP2 PUSH1 0x40 MLOAD PUSH2 0x13E0 SWAP2 SWAP1 PUSH2 0x223F JUMP JUMPDEST PUSH1 0x40 MLOAD DUP1 SWAP2 SUB SWAP1 LOG1 POP JUMP JUMPDEST PUSH1 0x9 PUSH1 0x20 MSTORE DUP1 PUSH0 MSTORE PUSH1 0x40 PUSH0 KECCAK256 PUSH0 SWAP2 POP SLOAD SWAP1 PUSH2 0x100 EXP SWAP1 DIV PUSH1 0xFF AND DUP2 JUMP JUMPDEST PUSH2 0x1410 PUSH2 0x1EA5 JUMP JUMPDEST PUSH20 0xFFFFFFFFFFFFFFFFFFFFFFFFFFFFFFFFFFFFFFFF AND PUSH2 0x142E PUSH2 0x1301 JUMP JUMPDEST PUSH20 0xFFFFFFFFFFFFFFFFFFFFFFFFFFFFFFFFFFFFFFFF AND EQ PUSH2 0x1484 JUMPI PUSH1 0x40 MLOAD PUSH32 0x8C379A000000000000000000000000000000000000000000000000000000000 DUP2 MSTORE PUSH1 0x4 ADD PUSH2 0x147B SWAP1 PUSH2 0x26EC JUMP JUMPDEST PUSH1 0x40 MLOAD DUP1 SWAP2 SUB SWAP1 REVERT JUMPDEST PUSH0 DUP2 GT PUSH2 0x14C6 JUMPI PUSH1 0x40 MLOAD PUSH32 0x8C379A000000000000000000000000000000000000000000000000000000000 DUP2 MSTORE PUSH1 0x4 ADD PUSH2 0x14BD SWAP1 PUSH2 0x28D8 JUMP JUMPDEST PUSH1 0x40 MLOAD DUP1 SWAP2 SUB SWAP1 REVERT JUMPDEST PUSH0 PUSH20 0xFFFFFFFFFFFFFFFFFFFFFFFFFFFFFFFFFFFFFFFF AND DUP4 PUSH20 0xFFFFFFFFFFFFFFFFFFFFFFFFFFFFFFFFFFFFFFFF AND SUB PUSH2 0x1534 JUMPI PUSH1 0x40 MLOAD PUSH32 0x8C379A000000000000000000000000000000000000000000000000000000000 DUP2 MSTORE PUSH1 0x4 ADD PUSH2 0x152B SWAP1 PUSH2 0x2940 JUMP JUMPDEST PUSH1 0x40 MLOAD DUP1 SWAP2 SUB SWAP1 REVERT JUMPDEST DUP1 PUSH1 0x8 PUSH0 DUP6 PUSH20 0xFFFFFFFFFFFFFFFFFFFFFFFFFFFFFFFFFFFFFFFF AND PUSH20 0xFFFFFFFFFFFFFFFFFFFFFFFFFFFFFFFFFFFFFFFF AND DUP2 MSTORE PUSH1 0x20 ADD SWAP1 DUP2 MSTORE PUSH1 0x20 ADD PUSH0 KECCAK256 DUP4 DUP2 SLOAD DUP2 LT PUSH2 0x1584 JUMPI PUSH2 0x1583 PUSH2 0x2534 JUMP JUMPDEST JUMPDEST SWAP1 PUSH0 MSTORE PUSH1 0x20 PUSH0 KECCAK256 SWAP1 PUSH1 0x4 MUL ADD PUSH1 0x2 ADD DUP2 SWAP1 SSTORE POP PUSH1 0x3 SLOAD DUP2 PUSH2 0x15A5 SWAP2 SWAP1 PUSH2 0x25C1 JUMP JUMPDEST PUSH1 0x8 PUSH0 DUP6 PUSH20 0xFFFFFFFFFFFFFFFFFFFFFFFFFFFFFFFFFFFFFFFF AND PUSH20 0xFFFFFFFFFFFFFFFFFFFFFFFFFFFFFFFFFFFFFFFF AND DUP2 MSTORE PUSH1 0x20 ADD SWAP1 DUP2 MSTORE PUSH1 0x20 ADD PUSH0 KECCAK256 DUP4 DUP2 SLOAD DUP2 LT PUSH2 0x15F4 JUMPI PUSH2 0x15F3 PUSH2 0x2534 JUMP JUMPDEST JUMPDEST SWAP1 PUSH0 MSTORE PUSH1 0x20 PUSH0 KECCAK256 SWAP1 PUSH1 0x4 MUL ADD PUSH1 0x3 ADD DUP2 SWAP1 SSTORE POP POP POP POP JUMP JUMPDEST PUSH1 0x3 SLOAD DUP2 JUMP JUMPDEST PUSH2 0x161A PUSH2 0x1EA5 JUMP JUMPDEST PUSH20 0xFFFFFFFFFFFFFFFFFFFFFFFFFFFFFFFFFFFFFFFF AND PUSH2 0x1638 PUSH2 0x1301 JUMP JUMPDEST PUSH20 0xFFFFFFFFFFFFFFFFFFFFFFFFFFFFFFFFFFFFFFFF AND EQ PUSH2 0x168E JUMPI PUSH1 0x40 MLOAD PUSH32 0x8C379A000000000000000000000000000000000000000000000000000000000 DUP2 MSTORE PUSH1 0x4 ADD PUSH2 0x1685 SWAP1 PUSH2 0x26EC JUMP JUMPDEST PUSH1 0x40 MLOAD DUP1 SWAP2 SUB SWAP1 REVERT JUMPDEST PUSH0 DUP3 GT DUP1 ISZERO PUSH2 0x169C JUMPI POP PUSH0 DUP2 GT JUMPDEST PUSH2 0x16DB JUMPI PUSH1 0x40 MLOAD PUSH32 0x8C379A000000000000000000000000000000000000000000000000000000000 DUP2 MSTORE PUSH1 0x4 ADD PUSH2 0x16D2 SWAP1 PUSH2 0x29A8 JUMP JUMPDEST PUSH1 0x40 MLOAD DUP1 SWAP2 SUB SWAP1 REVERT JUMPDEST PUSH3 0x15180 DUP3 PUSH2 0x16EA SWAP2 SWAP1 PUSH2 0x2651 JUMP JUMPDEST PUSH1 0x4 DUP2 SWAP1 SSTORE POP PUSH3 0x15180 DUP2 PUSH2 0x16FF SWAP2 SWAP1 PUSH2 0x2651 JUMP JUMPDEST PUSH1 0x3 DUP2 SWAP1 SSTORE POP DUP1 PUSH1 0x5 DUP2 SWAP1 SSTORE POP PUSH32 0x7E70AF40FA5B07E32A12E230761E17276F9DE52C79C1E1ACE9B58C62041F0A62 PUSH1 0x4 SLOAD PUSH1 0x5 SLOAD PUSH1 0x40 MLOAD PUSH2 0x1741 SWAP3 SWAP2 SWAP1 PUSH2 0x238D JUMP JUMPDEST PUSH1 0x40 MLOAD DUP1 SWAP2 SUB SWAP1 LOG1 POP POP JUMP JUMPDEST PUSH0 PUSH1 0x8 PUSH0 DUP4 PUSH20 0xFFFFFFFFFFFFFFFFFFFFFFFFFFFFFFFFFFFFFFFF AND PUSH20 0xFFFFFFFFFFFFFFFFFFFFFFFFFFFFFFFFFFFFFFFF AND DUP2 MSTORE PUSH1 0x20 ADD SWAP1 DUP2 MSTORE PUSH1 0x20 ADD PUSH0 KECCAK256 DUP1 SLOAD SWAP1 POP SWAP1 POP SWAP2 SWAP1 POP JUMP JUMPDEST PUSH0 PUSH1 0x1 PUSH0 SWAP1 SLOAD SWAP1 PUSH2 0x100 EXP SWAP1 DIV PUSH20 0xFFFFFFFFFFFFFFFFFFFFFFFFFFFFFFFFFFFFFFFF AND SWAP1 POP SWAP1 JUMP JUMPDEST PUSH1 0x4 SLOAD DUP2 JUMP JUMPDEST PUSH2 0x17CC PUSH2 0x1EA5 JUMP JUMPDEST PUSH20 0xFFFFFFFFFFFFFFFFFFFFFFFFFFFFFFFFFFFFFFFF AND PUSH2 0x17EA PUSH2 0x1301 JUMP JUMPDEST PUSH20 0xFFFFFFFFFFFFFFFFFFFFFFFFFFFFFFFFFFFFFFFF AND EQ PUSH2 0x1840 JUMPI PUSH1 0x40 MLOAD PUSH32 0x8C379A000000000000000000000000000000000000000000000000000000000 DUP2 MSTORE PUSH1 0x4 ADD PUSH2 0x1837 SWAP1 PUSH2 0x26EC JUMP JUMPDEST PUSH1 0x40 MLOAD DUP1 SWAP2 SUB SWAP1 REVERT JUMPDEST DUP1 PUSH1 0x1 PUSH0 PUSH2 0x100 EXP DUP2 SLOAD DUP2 PUSH20 0xFFFFFFFFFFFFFFFFFFFFFFFFFFFFFFFFFFFFFFFF MUL NOT AND SWAP1 DUP4 PUSH20 0xFFFFFFFFFFFFFFFFFFFFFFFFFFFFFFFFFFFFFFFF AND MUL OR SWAP1 SSTORE POP DUP1 PUSH20 0xFFFFFFFFFFFFFFFFFFFFFFFFFFFFFFFFFFFFFFFF AND PUSH2 0x189F PUSH2 0x1301 JUMP JUMPDEST PUSH20 0xFFFFFFFFFFFFFFFFFFFFFFFFFFFFFFFFFFFFFFFF AND PUSH32 0x38D16B8CAC22D99FC7C124B9CD0DE2D3FA1FAEF420BFE791D8C362D765E22700 PUSH1 0x40 MLOAD PUSH1 0x40 MLOAD DUP1 SWAP2 SUB SWAP1 LOG3 POP JUMP JUMPDEST PUSH1 0x6 PUSH0 SWAP1 SLOAD SWAP1 PUSH2 0x100 EXP SWAP1 DIV PUSH1 0xFF AND ISZERO PUSH2 0x1933 JUMPI PUSH1 0x40 MLOAD PUSH32 0x8C379A000000000000000000000000000000000000000000000000000000000 DUP2 MSTORE PUSH1 0x4 ADD PUSH2 0x192A SWAP1 PUSH2 0x2754 JUMP JUMPDEST PUSH1 0x40 MLOAD DUP1 SWAP2 SUB SWAP1 REVERT JUMPDEST PUSH1 0x1 PUSH1 0x6 PUSH0 PUSH2 0x100 EXP DUP2 SLOAD DUP2 PUSH1 0xFF MUL NOT AND SWAP1 DUP4 ISZERO ISZERO MUL OR SWAP1 SSTORE POP PUSH1 0x9 PUSH0 DUP4 PUSH20 0xFFFFFFFFFFFFFFFFFFFFFFFFFFFFFFFFFFFFFFFF AND PUSH20 0xFFFFFFFFFFFFFFFFFFFFFFFFFFFFFFFFFFFFFFFF AND DUP2 MSTORE PUSH1 0x20 ADD SWAP1 DUP2 MSTORE PUSH1 0x20 ADD PUSH0 KECCAK256 PUSH0 SWAP1 SLOAD SWAP1 PUSH2 0x100 EXP SWAP1 DIV PUSH1 0xFF AND PUSH2 0x19D6 JUMPI PUSH1 0x40 MLOAD PUSH32 0x8C379A000000000000000000000000000000000000000000000000000000000 DUP2 MSTORE PUSH1 0x4 ADD PUSH2 0x19CD SWAP1 PUSH2 0x2A10 JUMP JUMPDEST PUSH1 0x40 MLOAD DUP1 SWAP2 SUB SWAP1 REVERT JUMPDEST PUSH0 PUSH1 0x7 PUSH0 DUP5 PUSH20 0xFFFFFFFFFFFFFFFFFFFFFFFFFFFFFFFFFFFFFFFF AND PUSH20 0xFFFFFFFFFFFFFFFFFFFFFFFFFFFFFFFFFFFFFFFF AND DUP2 MSTORE PUSH1 0x20 ADD SWAP1 DUP2 MSTORE PUSH1 0x20 ADD PUSH0 KECCAK256 SWAP1 POP PUSH0 PUSH20 0xFFFFFFFFFFFFFFFFFFFFFFFFFFFFFFFFFFFFFFFF AND DUP2 PUSH0 ADD PUSH0 SWAP1 SLOAD SWAP1 PUSH2 0x100 EXP SWAP1 DIV PUSH20 0xFFFFFFFFFFFFFFFFFFFFFFFFFFFFFFFFFFFFFFFF AND PUSH20 0xFFFFFFFFFFFFFFFFFFFFFFFFFFFFFFFFFFFFFFFF AND SUB PUSH2 0x1AA6 JUMPI PUSH1 0x40 MLOAD PUSH32 0x8C379A000000000000000000000000000000000000000000000000000000000 DUP2 MSTORE PUSH1 0x4 ADD PUSH2 0x1A9D SWAP1 PUSH2 0x27BC JUMP JUMPDEST PUSH1 0x40 MLOAD DUP1 SWAP2 SUB SWAP1 REVERT JUMPDEST PUSH0 DUP1 PUSH2 0x1AD4 DUP4 PUSH0 ADD PUSH0 SWAP1 SLOAD SWAP1 PUSH2 0x100 EXP SWAP1 DIV PUSH20 0xFFFFFFFFFFFFFFFFFFFFFFFFFFFFFFFFFFFFFFFF AND DUP6 PUSH2 0x503 JUMP JUMPDEST SWAP2 POP SWAP2 POP PUSH0 DUP3 GT ISZERO PUSH2 0x1C7B JUMPI PUSH0 PUSH2 0x2710 PUSH1 0x2 SLOAD DUP5 PUSH2 0x1AF2 SWAP2 SWAP1 PUSH2 0x2651 JUMP JUMPDEST PUSH2 0x1AFC SWAP2 SWAP1 PUSH2 0x2621 JUMP JUMPDEST SWAP1 POP PUSH2 0x1B06 PUSH2 0x1301 JUMP JUMPDEST PUSH20 0xFFFFFFFFFFFFFFFFFFFFFFFFFFFFFFFFFFFFFFFF AND PUSH2 0x8FC DUP3 SWAP1 DUP2 ISZERO MUL SWAP1 PUSH1 0x40 MLOAD PUSH0 PUSH1 0x40 MLOAD DUP1 DUP4 SUB DUP2 DUP6 DUP9 DUP9 CALL SWAP4 POP POP POP POP ISZERO DUP1 ISZERO PUSH2 0x1B48 JUMPI RETURNDATASIZE PUSH0 DUP1 RETURNDATACOPY RETURNDATASIZE PUSH0 REVERT JUMPDEST POP DUP6 PUSH20 0xFFFFFFFFFFFFFFFFFFFFFFFFFFFFFFFFFFFFFFFF AND PUSH2 0x8FC DUP3 DUP6 PUSH2 0x1B6F SWAP2 SWAP1 PUSH2 0x258E JUMP JUMPDEST SWAP1 DUP2 ISZERO MUL SWAP1 PUSH1 0x40 MLOAD PUSH0 PUSH1 0x40 MLOAD DUP1 DUP4 SUB DUP2 DUP6 DUP9 DUP9 CALL SWAP4 POP POP POP POP ISZERO DUP1 ISZERO PUSH2 0x1B97 JUMPI RETURNDATASIZE PUSH0 DUP1 RETURNDATACOPY RETURNDATASIZE PUSH0 REVERT JUMPDEST POP PUSH32 0x56CA301A9219608C91E7BCEE90E083C19671D2CDCC96752C7AF291CEE5F9C8C8 DUP4 TIMESTAMP PUSH1 0x40 MLOAD PUSH2 0x1BC9 SWAP3 SWAP2 SWAP1 PUSH2 0x238D JUMP JUMPDEST PUSH1 0x40 MLOAD DUP1 SWAP2 SUB SWAP1 LOG1 DUP3 DUP5 PUSH1 0x2 ADD PUSH0 DUP3 DUP3 SLOAD PUSH2 0x1BE4 SWAP2 SWAP1 PUSH2 0x25C1 JUMP JUMPDEST SWAP3 POP POP DUP2 SWAP1 SSTORE POP DUP3 DUP5 PUSH1 0x1 ADD PUSH0 DUP3 DUP3 SLOAD PUSH2 0x1BFE SWAP2 SWAP1 PUSH2 0x258E JUMP JUMPDEST SWAP3 POP POP DUP2 SWAP1 SSTORE POP DUP3 PUSH1 0x8 PUSH0 DUP9 PUSH20 0xFFFFFFFFFFFFFFFFFFFFFFFFFFFFFFFFFFFFFFFF AND PUSH20 0xFFFFFFFFFFFFFFFFFFFFFFFFFFFFFFFFFFFFFFFF AND DUP2 MSTORE PUSH1 0x20 ADD SWAP1 DUP2 MSTORE PUSH1 0x20 ADD PUSH0 KECCAK256 DUP7 DUP2 SLOAD DUP2 LT PUSH2 0x1C55 JUMPI PUSH2 0x1C54 PUSH2 0x2534 JUMP JUMPDEST JUMPDEST SWAP1 PUSH0 MSTORE PUSH1 0x20 PUSH0 KECCAK256 SWAP1 PUSH1 0x4 MUL ADD PUSH1 0x1 ADD PUSH0 DUP3 DUP3 SLOAD PUSH2 0x1C72 SWAP2 SWAP1 PUSH2 0x25C1 JUMP JUMPDEST SWAP3 POP POP DUP2 SWAP1 SSTORE POP POP JUMPDEST PUSH0 PUSH3 0x15180 DUP3 PUSH2 0x1C8B SWAP2 SWAP1 PUSH2 0x2651 JUMP JUMPDEST PUSH1 0x8 PUSH0 DUP9 PUSH20 0xFFFFFFFFFFFFFFFFFFFFFFFFFFFFFFFFFFFFFFFF AND PUSH20 0xFFFFFFFFFFFFFFFFFFFFFFFFFFFFFFFFFFFFFFFF AND DUP2 MSTORE PUSH1 0x20 ADD SWAP1 DUP2 MSTORE PUSH1 0x20 ADD PUSH0 KECCAK256 DUP7 DUP2 SLOAD DUP2 LT PUSH2 0x1CDA JUMPI PUSH2 0x1CD9 PUSH2 0x2534 JUMP JUMPDEST JUMPDEST SWAP1 PUSH0 MSTORE PUSH1 0x20 PUSH0 KECCAK256 SWAP1 PUSH1 0x4 MUL ADD PUSH1 0x2 ADD SLOAD PUSH2 0x1CF4 SWAP2 SWAP1 PUSH2 0x25C1 JUMP JUMPDEST SWAP1 POP PUSH1 0x8 PUSH0 DUP8 PUSH20 0xFFFFFFFFFFFFFFFFFFFFFFFFFFFFFFFFFFFFFFFF AND PUSH20 0xFFFFFFFFFFFFFFFFFFFFFFFFFFFFFFFFFFFFFFFF AND DUP2 MSTORE PUSH1 0x20 ADD SWAP1 DUP2 MSTORE PUSH1 0x20 ADD PUSH0 KECCAK256 DUP6 DUP2 SLOAD DUP2 LT PUSH2 0x1D45 JUMPI PUSH2 0x1D44 PUSH2 0x2534 JUMP JUMPDEST JUMPDEST SWAP1 PUSH0 MSTORE PUSH1 0x20 PUSH0 KECCAK256 SWAP1 PUSH1 0x4 MUL ADD PUSH0 ADD SLOAD PUSH1 0x8 PUSH0 DUP9 PUSH20 0xFFFFFFFFFFFFFFFFFFFFFFFFFFFFFFFFFFFFFFFF AND PUSH20 0xFFFFFFFFFFFFFFFFFFFFFFFFFFFFFFFFFFFFFFFF AND DUP2 MSTORE PUSH1 0x20 ADD SWAP1 DUP2 MSTORE PUSH1 0x20 ADD PUSH0 KECCAK256 DUP7 DUP2 SLOAD DUP2 LT PUSH2 0x1DA3 JUMPI PUSH2 0x1DA2 PUSH2 0x2534 JUMP JUMPDEST JUMPDEST SWAP1 PUSH0 MSTORE PUSH1 0x20 PUSH0 KECCAK256 SWAP1 PUSH1 0x4 MUL ADD PUSH1 0x1 ADD SLOAD SUB PUSH2 0x1E20 JUMPI PUSH0 PUSH1 0x8 PUSH0 DUP9 PUSH20 0xFFFFFFFFFFFFFFFFFFFFFFFFFFFFFFFFFFFFFFFF AND PUSH20 0xFFFFFFFFFFFFFFFFFFFFFFFFFFFFFFFFFFFFFFFF AND DUP2 MSTORE PUSH1 0x20 ADD SWAP1 DUP2 MSTORE PUSH1 0x20 ADD PUSH0 KECCAK256 DUP7 DUP2 SLOAD DUP2 LT PUSH2 0x1E08 JUMPI PUSH2 0x1E07 PUSH2 0x2534 JUMP JUMPDEST JUMPDEST SWAP1 PUSH0 MSTORE PUSH1 0x20 PUSH0 KECCAK256 SWAP1 PUSH1 0x4 MUL ADD PUSH1 0x2 ADD DUP2 SWAP1 SSTORE POP PUSH2 0x1E84 JUMP JUMPDEST DUP1 PUSH1 0x8 PUSH0 DUP9 PUSH20 0xFFFFFFFFFFFFFFFFFFFFFFFFFFFFFFFFFFFFFFFF AND PUSH20 0xFFFFFFFFFFFFFFFFFFFFFFFFFFFFFFFFFFFFFFFF AND DUP2 MSTORE PUSH1 0x20 ADD SWAP1 DUP2 MSTORE PUSH1 0x20 ADD PUSH0 KECCAK256 DUP7 DUP2 SLOAD DUP2 LT PUSH2 0x1E70 JUMPI PUSH2 0x1E6F PUSH2 0x2534 JUMP JUMPDEST JUMPDEST SWAP1 PUSH0 MSTORE PUSH1 0x20 PUSH0 KECCAK256 SWAP1 PUSH1 0x4 MUL ADD PUSH1 0x2 ADD DUP2 SWAP1 SSTORE POP JUMPDEST POP POP POP POP PUSH0 PUSH1 0x6 PUSH0 PUSH2 0x100 EXP DUP2 SLOAD DUP2 PUSH1 0xFF MUL NOT AND SWAP1 DUP4 ISZERO ISZERO MUL OR SWAP1 SSTORE POP POP POP JUMP JUMPDEST PUSH0 CALLER SWAP1 POP SWAP1 JUMP JUMPDEST PUSH1 0x6 PUSH0 SWAP1 SLOAD SWAP1 PUSH2 0x100 EXP SWAP1 DIV PUSH1 0xFF AND ISZERO PUSH2 0x1EFB JUMPI PUSH1 0x40 MLOAD PUSH32 0x8C379A000000000000000000000000000000000000000000000000000000000 DUP2 MSTORE PUSH1 0x4 ADD PUSH2 0x1EF2 SWAP1 PUSH2 0x2754 JUMP JUMPDEST PUSH1 0x40 MLOAD DUP1 SWAP2 SUB SWAP1 REVERT JUMPDEST PUSH1 0x1 PUSH1 0x6 PUSH0 PUSH2 0x100 EXP DUP2 SLOAD DUP2 PUSH1 0xFF MUL NOT AND SWAP1 DUP4 ISZERO ISZERO MUL OR SWAP1 SSTORE POP PUSH0 PUSH1 0x7 PUSH0 DUP5 PUSH20 0xFFFFFFFFFFFFFFFFFFFFFFFFFFFFFFFFFFFFFFFF AND PUSH20 0xFFFFFFFFFFFFFFFFFFFFFFFFFFFFFFFFFFFFFFFF AND DUP2 MSTORE PUSH1 0x20 ADD SWAP1 DUP2 MSTORE PUSH1 0x20 ADD PUSH0 KECCAK256 SWAP1 POP PUSH0 PUSH1 0x8 PUSH0 DUP6 PUSH20 0xFFFFFFFFFFFFFFFFFFFFFFFFFFFFFFFFFFFFFFFF AND PUSH20 0xFFFFFFFFFFFFFFFFFFFFFFFFFFFFFFFFFFFFFFFF AND DUP2 MSTORE PUSH1 0x20 ADD SWAP1 DUP2 MSTORE PUSH1 0x20 ADD PUSH0 KECCAK256 SWAP1 POP PUSH0 PUSH1 0x4 SLOAD TIMESTAMP PUSH2 0x1FA4 SWAP2 SWAP1 PUSH2 0x25C1 JUMP JUMPDEST SWAP1 POP DUP5 DUP4 PUSH0 ADD PUSH0 PUSH2 0x100 EXP DUP2 SLOAD DUP2 PUSH20 0xFFFFFFFFFFFFFFFFFFFFFFFFFFFFFFFFFFFFFFFF MUL NOT AND SWAP1 DUP4 PUSH20 0xFFFFFFFFFFFFFFFFFFFFFFFFFFFFFFFFFFFFFFFF AND MUL OR SWAP1 SSTORE POP PUSH1 0x9 PUSH0 DUP7 PUSH20 0xFFFFFFFFFFFFFFFFFFFFFFFFFFFFFFFFFFFFFFFF AND PUSH20 0xFFFFFFFFFFFFFFFFFFFFFFFFFFFFFFFFFFFFFFFF AND DUP2 MSTORE PUSH1 0x20 ADD SWAP1 DUP2 MSTORE PUSH1 0x20 ADD PUSH0 KECCAK256 PUSH0 SWAP1 SLOAD SWAP1 PUSH2 0x100 EXP SWAP1 DIV PUSH1 0xFF AND ISZERO PUSH2 0x2062 JUMPI DUP4 DUP4 PUSH1 0x1 ADD PUSH0 DUP3 DUP3 SLOAD PUSH2 0x2049 SWAP2 SWAP1 PUSH2 0x25C1 JUMP JUMPDEST SWAP3 POP POP DUP2 SWAP1 SSTORE POP DUP3 PUSH1 0x2 ADD SLOAD DUP4 PUSH1 0x2 ADD DUP2 SWAP1 SSTORE POP PUSH2 0x2075 JUMP JUMPDEST DUP4 DUP4 PUSH1 0x1 ADD DUP2 SWAP1 SSTORE POP PUSH0 DUP4 PUSH1 0x2 ADD DUP2 SWAP1 SSTORE POP JUMPDEST DUP2 PUSH1 0x40 MLOAD DUP1 PUSH1 0x80 ADD PUSH1 0x40 MSTORE DUP1 DUP7 DUP2 MSTORE PUSH1 0x20 ADD PUSH0 DUP2 MSTORE PUSH1 0x20 ADD DUP4 DUP2 MSTORE PUSH1 0x20 ADD PUSH1 0x3 SLOAD DUP5 PUSH2 0x20A1 SWAP2 SWAP1 PUSH2 0x25C1 JUMP JUMPDEST DUP2 MSTORE POP SWAP1 DUP1 PUSH1 0x1 DUP2 SLOAD ADD DUP1 DUP3 SSTORE DUP1 SWAP2 POP POP PUSH1 0x1 SWAP1 SUB SWAP1 PUSH0 MSTORE PUSH1 0x20 PUSH0 KECCAK256 SWAP1 PUSH1 0x4 MUL ADD PUSH0 SWAP1 SWAP2 SWAP1 SWAP2 SWAP1 SWAP2 POP PUSH0 DUP3 ADD MLOAD DUP2 PUSH0 ADD SSTORE PUSH1 0x20 DUP3 ADD MLOAD DUP2 PUSH1 0x1 ADD SSTORE PUSH1 0x40 DUP3 ADD MLOAD DUP2 PUSH1 0x2 ADD SSTORE PUSH1 0x60 DUP3 ADD MLOAD DUP2 PUSH1 0x3 ADD SSTORE POP POP POP POP POP PUSH0 PUSH1 0x6 PUSH0 PUSH2 0x100 EXP DUP2 SLOAD DUP2 PUSH1 0xFF MUL NOT AND SWAP1 DUP4 ISZERO ISZERO MUL OR SWAP1 SSTORE POP POP POP JUMP JUMPDEST PUSH1 0x1 PUSH0 PUSH2 0x100 EXP DUP2 SLOAD SWAP1 PUSH20 0xFFFFFFFFFFFFFFFFFFFFFFFFFFFFFFFFFFFFFFFF MUL NOT AND SWAP1 SSTORE PUSH2 0x213F DUP2 PUSH2 0x2142 JUMP JUMPDEST POP JUMP JUMPDEST PUSH0 DUP1 PUSH0 SWAP1 SLOAD SWAP1 PUSH2 0x100 EXP SWAP1 DIV PUSH20 0xFFFFFFFFFFFFFFFFFFFFFFFFFFFFFFFFFFFFFFFF AND SWAP1 POP DUP2 PUSH0 DUP1 PUSH2 0x100 EXP DUP2 SLOAD DUP2 PUSH20 0xFFFFFFFFFFFFFFFFFFFFFFFFFFFFFFFFFFFFFFFF MUL NOT AND SWAP1 DUP4 PUSH20 0xFFFFFFFFFFFFFFFFFFFFFFFFFFFFFFFFFFFFFFFF AND MUL OR SWAP1 SSTORE POP DUP2 PUSH20 0xFFFFFFFFFFFFFFFFFFFFFFFFFFFFFFFFFFFFFFFF AND DUP2 PUSH20 0xFFFFFFFFFFFFFFFFFFFFFFFFFFFFFFFFFFFFFFFF AND PUSH32 0x8BE0079C531659141344CD1FD0A4F28419497F9722A3DAAFE3B4186F6B6457E0 PUSH1 0x40 MLOAD PUSH1 0x40 MLOAD DUP1 SWAP2 SUB SWAP1 LOG3 POP POP JUMP JUMPDEST PUSH1 0x40 MLOAD DUP1 PUSH1 0x80 ADD PUSH1 0x40 MSTORE DUP1 PUSH0 DUP2 MSTORE PUSH1 0x20 ADD PUSH0 DUP2 MSTORE PUSH1 0x20 ADD PUSH0 DUP2 MSTORE PUSH1 0x20 ADD PUSH0 DUP2 MSTORE POP SWAP1 JUMP JUMPDEST PUSH0 DUP2 SWAP1 POP SWAP2 SWAP1 POP JUMP JUMPDEST PUSH2 0x2239 DUP2 PUSH2 0x2227 JUMP JUMPDEST DUP3 MSTORE POP POP JUMP JUMPDEST PUSH0 PUSH1 0x20 DUP3 ADD SWAP1 POP PUSH2 0x2252 PUSH0 DUP4 ADD DUP5 PUSH2 0x2230 JUMP JUMPDEST SWAP3 SWAP2 POP POP JUMP JUMPDEST PUSH0 DUP1 REVERT JUMPDEST PUSH0 PUSH20 0xFFFFFFFFFFFFFFFFFFFFFFFFFFFFFFFFFFFFFFFF DUP3 AND SWAP1 POP SWAP2 SWAP1 POP JUMP JUMPDEST PUSH0 PUSH2 0x2285 DUP3 PUSH2 0x225C JUMP JUMPDEST SWAP1 POP SWAP2 SWAP1 POP JUMP JUMPDEST PUSH2 0x2295 DUP2 PUSH2 0x227B JUMP JUMPDEST DUP2 EQ PUSH2 0x229F JUMPI PUSH0 DUP1 REVERT JUMPDEST POP JUMP JUMPDEST PUSH0 DUP2 CALLDATALOAD SWAP1 POP PUSH2 0x22B0 DUP2 PUSH2 0x228C JUMP JUMPDEST SWAP3 SWAP2 POP POP JUMP JUMPDEST PUSH0 PUSH1 0x20 DUP3 DUP5 SUB SLT ISZERO PUSH2 0x22CB JUMPI PUSH2 0x22CA PUSH2 0x2258 JUMP JUMPDEST JUMPDEST PUSH0 PUSH2 0x22D8 DUP5 DUP3 DUP6 ADD PUSH2 0x22A2 JUMP JUMPDEST SWAP2 POP POP SWAP3 SWAP2 POP POP JUMP JUMPDEST PUSH2 0x22EA DUP2 PUSH2 0x227B JUMP JUMPDEST DUP3 MSTORE POP POP JUMP JUMPDEST PUSH0 PUSH1 0x60 DUP3 ADD SWAP1 POP PUSH2 0x2303 PUSH0 DUP4 ADD DUP7 PUSH2 0x22E1 JUMP JUMPDEST PUSH2 0x2310 PUSH1 0x20 DUP4 ADD DUP6 PUSH2 0x2230 JUMP JUMPDEST PUSH2 0x231D PUSH1 0x40 DUP4 ADD DUP5 PUSH2 0x2230 JUMP JUMPDEST SWAP5 SWAP4 POP POP POP POP JUMP JUMPDEST PUSH2 0x232E DUP2 PUSH2 0x2227 JUMP JUMPDEST DUP2 EQ PUSH2 0x2338 JUMPI PUSH0 DUP1 REVERT JUMPDEST POP JUMP JUMPDEST PUSH0 DUP2 CALLDATALOAD SWAP1 POP PUSH2 0x2349 DUP2 PUSH2 0x2325 JUMP JUMPDEST SWAP3 SWAP2 POP POP JUMP JUMPDEST PUSH0 DUP1 PUSH1 0x40 DUP4 DUP6 SUB SLT ISZERO PUSH2 0x2365 JUMPI PUSH2 0x2364 PUSH2 0x2258 JUMP JUMPDEST JUMPDEST PUSH0 PUSH2 0x2372 DUP6 DUP3 DUP7 ADD PUSH2 0x22A2 JUMP JUMPDEST SWAP3 POP POP PUSH1 0x20 PUSH2 0x2383 DUP6 DUP3 DUP7 ADD PUSH2 0x233B JUMP JUMPDEST SWAP2 POP POP SWAP3 POP SWAP3 SWAP1 POP JUMP JUMPDEST PUSH0 PUSH1 0x40 DUP3 ADD SWAP1 POP PUSH2 0x23A0 PUSH0 DUP4 ADD DUP6 PUSH2 0x2230 JUMP JUMPDEST PUSH2 0x23AD PUSH1 0x20 DUP4 ADD DUP5 PUSH2 0x2230 JUMP JUMPDEST SWAP4 SWAP3 POP POP POP JUMP JUMPDEST PUSH0 PUSH1 0x20 DUP3 DUP5 SUB SLT ISZERO PUSH2 0x23C9 JUMPI PUSH2 0x23C8 PUSH2 0x2258 JUMP JUMPDEST JUMPDEST PUSH0 PUSH2 0x23D6 DUP5 DUP3 DUP6 ADD PUSH2 0x233B JUMP JUMPDEST SWAP2 POP POP SWAP3 SWAP2 POP POP JUMP JUMPDEST PUSH2 0x23E8 DUP2 PUSH2 0x2227 JUMP JUMPDEST DUP3 MSTORE POP POP JUMP JUMPDEST PUSH1 0x80 DUP3 ADD PUSH0 DUP3 ADD MLOAD PUSH2 0x2402 PUSH0 DUP6 ADD DUP3 PUSH2 0x23DF JUMP JUMPDEST POP PUSH1 0x20 DUP3 ADD MLOAD PUSH2 0x2415 PUSH1 0x20 DUP6 ADD DUP3 PUSH2 0x23DF JUMP JUMPDEST POP PUSH1 0x40 DUP3 ADD MLOAD PUSH2 0x2428 PUSH1 0x40 DUP6 ADD DUP3 PUSH2 0x23DF JUMP JUMPDEST POP PUSH1 0x60 DUP3 ADD MLOAD PUSH2 0x243B PUSH1 0x60 DUP6 ADD DUP3 PUSH2 0x23DF JUMP JUMPDEST POP POP POP POP JUMP JUMPDEST PUSH0 PUSH1 0x80 DUP3 ADD SWAP1 POP PUSH2 0x2454 PUSH0 DUP4 ADD DUP5 PUSH2 0x23EE JUMP JUMPDEST SWAP3 SWAP2 POP POP JUMP JUMPDEST PUSH0 PUSH1 0x20 DUP3 ADD SWAP1 POP PUSH2 0x246D PUSH0 DUP4 ADD DUP5 PUSH2 0x22E1 JUMP JUMPDEST SWAP3 SWAP2 POP POP JUMP JUMPDEST PUSH0 DUP2 ISZERO ISZERO SWAP1 POP SWAP2 SWAP1 POP JUMP JUMPDEST PUSH2 0x2487 DUP2 PUSH2 0x2473 JUMP JUMPDEST DUP3 MSTORE POP POP JUMP JUMPDEST PUSH0 PUSH1 0x20 DUP3 ADD SWAP1 POP PUSH2 0x24A0 PUSH0 DUP4 ADD DUP5 PUSH2 0x247E JUMP JUMPDEST SWAP3 SWAP2 POP POP JUMP JUMPDEST PUSH0 DUP1 PUSH0 PUSH1 0x60 DUP5 DUP7 SUB SLT ISZERO PUSH2 0x24BD JUMPI PUSH2 0x24BC PUSH2 0x2258 JUMP JUMPDEST JUMPDEST PUSH0 PUSH2 0x24CA DUP7 DUP3 DUP8 ADD PUSH2 0x22A2 JUMP JUMPDEST SWAP4 POP POP PUSH1 0x20 PUSH2 0x24DB DUP7 DUP3 DUP8 ADD PUSH2 0x233B JUMP JUMPDEST SWAP3 POP POP PUSH1 0x40 PUSH2 0x24EC DUP7 DUP3 DUP8 ADD PUSH2 0x233B JUMP JUMPDEST SWAP2 POP POP SWAP3 POP SWAP3 POP SWAP3 JUMP JUMPDEST PUSH0 DUP1 PUSH1 0x40 DUP4 DUP6 SUB SLT ISZERO PUSH2 0x250C JUMPI PUSH2 0x250B PUSH2 0x2258 JUMP JUMPDEST JUMPDEST PUSH0 PUSH2 0x2519 DUP6 DUP3 DUP7 ADD PUSH2 0x233B JUMP JUMPDEST SWAP3 POP POP PUSH1 0x20 PUSH2 0x252A DUP6 DUP3 DUP7 ADD PUSH2 0x233B JUMP JUMPDEST SWAP2 POP POP SWAP3 POP SWAP3 SWAP1 POP JUMP JUMPDEST PUSH32 0x4E487B7100000000000000000000000000000000000000000000000000000000 PUSH0 MSTORE PUSH1 0x32 PUSH1 0x4 MSTORE PUSH1 0x24 PUSH0 REVERT JUMPDEST PUSH32 0x4E487B7100000000000000000000000000000000000000000000000000000000 PUSH0 MSTORE PUSH1 0x11 PUSH1 0x4 MSTORE PUSH1 0x24 PUSH0 REVERT JUMPDEST PUSH0 PUSH2 0x2598 DUP3 PUSH2 0x2227 JUMP JUMPDEST SWAP2 POP PUSH2 0x25A3 DUP4 PUSH2 0x2227 JUMP JUMPDEST SWAP3 POP DUP3 DUP3 SUB SWAP1 POP DUP2 DUP2 GT ISZERO PUSH2 0x25BB JUMPI PUSH2 0x25BA PUSH2 0x2561 JUMP JUMPDEST JUMPDEST SWAP3 SWAP2 POP POP JUMP JUMPDEST PUSH0 PUSH2 0x25CB DUP3 PUSH2 0x2227 JUMP JUMPDEST SWAP2 POP PUSH2 0x25D6 DUP4 PUSH2 0x2227 JUMP JUMPDEST SWAP3 POP DUP3 DUP3 ADD SWAP1 POP DUP1 DUP3 GT ISZERO PUSH2 0x25EE JUMPI PUSH2 0x25ED PUSH2 0x2561 JUMP JUMPDEST JUMPDEST SWAP3 SWAP2 POP POP JUMP JUMPDEST PUSH32 0x4E487B7100000000000000000000000000000000000000000000000000000000 PUSH0 MSTORE PUSH1 0x12 PUSH1 0x4 MSTORE PUSH1 0x24 PUSH0 REVERT JUMPDEST PUSH0 PUSH2 0x262B DUP3 PUSH2 0x2227 JUMP JUMPDEST SWAP2 POP PUSH2 0x2636 DUP4 PUSH2 0x2227 JUMP JUMPDEST SWAP3 POP DUP3 PUSH2 0x2646 JUMPI PUSH2 0x2645 PUSH2 0x25F4 JUMP JUMPDEST JUMPDEST DUP3 DUP3 DIV SWAP1 POP SWAP3 SWAP2 POP POP JUMP JUMPDEST PUSH0 PUSH2 0x265B DUP3 PUSH2 0x2227 JUMP JUMPDEST SWAP2 POP PUSH2 0x2666 DUP4 PUSH2 0x2227 JUMP JUMPDEST SWAP3 POP DUP3 DUP3 MUL PUSH2 0x2674 DUP2 PUSH2 0x2227 JUMP JUMPDEST SWAP2 POP DUP3 DUP3 DIV DUP5 EQ DUP4 ISZERO OR PUSH2 0x268B JUMPI PUSH2 0x268A PUSH2 0x2561 JUMP JUMPDEST JUMPDEST POP SWAP3 SWAP2 POP POP JUMP JUMPDEST PUSH0 DUP3 DUP3 MSTORE PUSH1 0x20 DUP3 ADD SWAP1 POP SWAP3 SWAP2 POP POP JUMP JUMPDEST PUSH32 0x4F776E61626C653A2063616C6C6572206973206E6F7420746865206F776E6572 PUSH0 DUP3 ADD MSTORE POP JUMP JUMPDEST PUSH0 PUSH2 0x26D6 PUSH1 0x20 DUP4 PUSH2 0x2692 JUMP JUMPDEST SWAP2 POP PUSH2 0x26E1 DUP3 PUSH2 0x26A2 JUMP JUMPDEST PUSH1 0x20 DUP3 ADD SWAP1 POP SWAP2 SWAP1 POP JUMP JUMPDEST PUSH0 PUSH1 0x20 DUP3 ADD SWAP1 POP DUP2 DUP2 SUB PUSH0 DUP4 ADD MSTORE PUSH2 0x2703 DUP2 PUSH2 0x26CA JUMP JUMPDEST SWAP1 POP SWAP2 SWAP1 POP JUMP JUMPDEST PUSH32 0x4E6F2072652D656E7472616E6379000000000000000000000000000000000000 PUSH0 DUP3 ADD MSTORE POP JUMP JUMPDEST PUSH0 PUSH2 0x273E PUSH1 0xE DUP4 PUSH2 0x2692 JUMP JUMPDEST SWAP2 POP PUSH2 0x2749 DUP3 PUSH2 0x270A JUMP JUMPDEST PUSH1 0x20 DUP3 ADD SWAP1 POP SWAP2 SWAP1 POP JUMP JUMPDEST PUSH0 PUSH1 0x20 DUP3 ADD SWAP1 POP DUP2 DUP2 SUB PUSH0 DUP4 ADD MSTORE PUSH2 0x276B DUP2 PUSH2 0x2732 JUMP JUMPDEST SWAP1 POP SWAP2 SWAP1 POP JUMP JUMPDEST PUSH32 0x496E76616C696420757365720000000000000000000000000000000000000000 PUSH0 DUP3 ADD MSTORE POP JUMP JUMPDEST PUSH0 PUSH2 0x27A6 PUSH1 0xC DUP4 PUSH2 0x2692 JUMP JUMPDEST SWAP2 POP PUSH2 0x27B1 DUP3 PUSH2 0x2772 JUMP JUMPDEST PUSH1 0x20 DUP3 ADD SWAP1 POP SWAP2 SWAP1 POP JUMP JUMPDEST PUSH0 PUSH1 0x20 DUP3 ADD SWAP1 POP DUP2 DUP2 SUB PUSH0 DUP4 ADD MSTORE PUSH2 0x27D3 DUP2 PUSH2 0x279A JUMP JUMPDEST SWAP1 POP SWAP2 SWAP1 POP JUMP JUMPDEST PUSH32 0x76657374696E6720616C726561647920616C6C6F636174656420746F20746869 PUSH0 DUP3 ADD MSTORE PUSH32 0x7320616464726573730000000000000000000000000000000000000000000000 PUSH1 0x20 DUP3 ADD MSTORE POP JUMP JUMPDEST PUSH0 PUSH2 0x2834 PUSH1 0x29 DUP4 PUSH2 0x2692 JUMP JUMPDEST SWAP2 POP PUSH2 0x283F DUP3 PUSH2 0x27DA JUMP JUMPDEST PUSH1 0x40 DUP3 ADD SWAP1 POP SWAP2 SWAP1 POP JUMP JUMPDEST PUSH0 PUSH1 0x20 DUP3 ADD SWAP1 POP DUP2 DUP2 SUB PUSH0 DUP4 ADD MSTORE PUSH2 0x2861 DUP2 PUSH2 0x2828 JUMP JUMPDEST SWAP1 POP SWAP2 SWAP1 POP JUMP JUMPDEST PUSH32 0x4E65772076657374696E672073746172742074696D652073686F756C64206E6F PUSH0 DUP3 ADD MSTORE PUSH32 0x74206265207A65726F0000000000000000000000000000000000000000000000 PUSH1 0x20 DUP3 ADD MSTORE POP JUMP JUMPDEST PUSH0 PUSH2 0x28C2 PUSH1 0x29 DUP4 PUSH2 0x2692 JUMP JUMPDEST SWAP2 POP PUSH2 0x28CD DUP3 PUSH2 0x2868 JUMP JUMPDEST PUSH1 0x40 DUP3 ADD SWAP1 POP SWAP2 SWAP1 POP JUMP JUMPDEST PUSH0 PUSH1 0x20 DUP3 ADD SWAP1 POP DUP2 DUP2 SUB PUSH0 DUP4 ADD MSTORE PUSH2 0x28EF DUP2 PUSH2 0x28B6 JUMP JUMPDEST SWAP1 POP SWAP2 SWAP1 POP JUMP JUMPDEST PUSH32 0x496E76616C696420757365722061646472657373000000000000000000000000 PUSH0 DUP3 ADD MSTORE POP JUMP JUMPDEST PUSH0 PUSH2 0x292A PUSH1 0x14 DUP4 PUSH2 0x2692 JUMP JUMPDEST SWAP2 POP PUSH2 0x2935 DUP3 PUSH2 0x28F6 JUMP JUMPDEST PUSH1 0x20 DUP3 ADD SWAP1 POP SWAP2 SWAP1 POP JUMP JUMPDEST PUSH0 PUSH1 0x20 DUP3 ADD SWAP1 POP DUP2 DUP2 SUB PUSH0 DUP4 ADD MSTORE PUSH2 0x2957 DUP2 PUSH2 0x291E JUMP JUMPDEST SWAP1 POP SWAP2 SWAP1 POP JUMP JUMPDEST PUSH32 0x204461792073686F756C64206E6F74206265205A65726F000000000000000000 PUSH0 DUP3 ADD MSTORE POP JUMP JUMPDEST PUSH0 PUSH2 0x2992 PUSH1 0x17 DUP4 PUSH2 0x2692 JUMP JUMPDEST SWAP2 POP PUSH2 0x299D DUP3 PUSH2 0x295E JUMP JUMPDEST PUSH1 0x20 DUP3 ADD SWAP1 POP SWAP2 SWAP1 POP JUMP JUMPDEST PUSH0 PUSH1 0x20 DUP3 ADD SWAP1 POP DUP2 DUP2 SUB PUSH0 DUP4 ADD MSTORE PUSH2 0x29BF DUP2 PUSH2 0x2986 JUMP JUMPDEST SWAP1 POP SWAP2 SWAP1 POP JUMP JUMPDEST PUSH32 0x46756E6473206E6F7420616C6C6F636174656420746F20746869732075736572 PUSH0 DUP3 ADD MSTORE POP JUMP JUMPDEST PUSH0 PUSH2 0x29FA PUSH1 0x20 DUP4 PUSH2 0x2692 JUMP JUMPDEST SWAP2 POP PUSH2 0x2A05 DUP3 PUSH2 0x29C6 JUMP JUMPDEST PUSH1 0x20 DUP3 ADD SWAP1 POP SWAP2 SWAP1 POP JUMP JUMPDEST PUSH0 PUSH1 0x20 DUP3 ADD SWAP1 POP DUP2 DUP2 SUB PUSH0 DUP4 ADD MSTORE PUSH2 0x2A27 DUP2 PUSH2 0x29EE JUMP JUMPDEST SWAP1 POP SWAP2 SWAP1 POP JUMP INVALID LOG2 PUSH5 0x6970667358 0x22 SLT KECCAK256 0x2D PUSH18 0x2FC7E4934656024370A289E62BE8A7063097 PUSH31 0x321A695E4CCD8A3C8BCE7A64736F6C634300081A0033000000000000000000 "
				},
				"gasEstimates": {
					"creation": {
						"codeDepositCost": "2170400",
						"executionCost": "infinite",
						"totalCost": "infinite"
					},
					"external": {
						"acceptOwnership()": "54716",
						"adminComm()": "2448",
						"allocateForVesting(address)": "33806",
						"allocatedUser(address)": "2900",
						"claimEndDay()": "2536",
						"claimTokens(address,uint256)": "infinite",
						"claimTotalTokens(address,uint256)": "infinite",
						"drainTokens(uint256)": "infinite",
						"endDay()": "2449",
						"getUnlockedTokenAmount(address,uint256)": "infinite",
						"getUserTotalVesting(address)": "2881",
						"getVestingInfo(address,uint256)": "infinite",
						"owner()": "2626",
						"pendingOwner()": "2581",
						"renounceOwnership()": "54681",
						"transferOwnership(address)": "infinite",
						"updateAdminCommission(uint256)": "infinite",
						"updateVestingDays(uint256,uint256)": "infinite",
						"updateVestingStartTimestamp(address,uint256,uint256)": "infinite",
						"userInfo(address)": "infinite",
						"vestingEndDay()": "2513"
					},
					"internal": {
						"_allocateAmount(address,uint256)": "infinite"
					}
				},
				"methodIdentifiers": {
					"acceptOwnership()": "79ba5097",
					"adminComm()": "90611561",
					"allocateForVesting(address)": "5dc0799c",
					"allocatedUser(address)": "937b8e16",
					"claimEndDay()": "a90aa4b4",
					"claimTokens(address,uint256)": "fe417fa5",
					"claimTotalTokens(address,uint256)": "55b1f1a3",
					"drainTokens(uint256)": "5bc269e9",
					"endDay()": "15862669",
					"getUnlockedTokenAmount(address,uint256)": "501b1de0",
					"getUserTotalVesting(address)": "caef6601",
					"getVestingInfo(address,uint256)": "7a5fa298",
					"owner()": "8da5cb5b",
					"pendingOwner()": "e30c3978",
					"renounceOwnership()": "715018a6",
					"transferOwnership(address)": "f2fde38b",
					"updateAdminCommission(uint256)": "90acbc83",
					"updateVestingDays(uint256,uint256)": "aa1ced32",
					"updateVestingStartTimestamp(address,uint256,uint256)": "a39d7494",
					"userInfo(address)": "1959a002",
					"vestingEndDay()": "ed58ef11"
				}
			},
			"storageLayout": {
				"storage": [
					{
						"astId": 92,
						"contract": "contracts/Vesting_final.sol:Vesting",
						"label": "_owner",
						"offset": 0,
						"slot": "0",
						"type": "t_address"
					},
					{
						"astId": 197,
						"contract": "contracts/Vesting_final.sol:Vesting",
						"label": "_pendingOwner",
						"offset": 0,
						"slot": "1",
						"type": "t_address"
					},
					{
						"astId": 294,
						"contract": "contracts/Vesting_final.sol:Vesting",
						"label": "adminComm",
						"offset": 0,
						"slot": "2",
						"type": "t_uint256"
					},
					{
						"astId": 296,
						"contract": "contracts/Vesting_final.sol:Vesting",
						"label": "claimEndDay",
						"offset": 0,
						"slot": "3",
						"type": "t_uint256"
					},
					{
						"astId": 298,
						"contract": "contracts/Vesting_final.sol:Vesting",
						"label": "vestingEndDay",
						"offset": 0,
						"slot": "4",
						"type": "t_uint256"
					},
					{
						"astId": 300,
						"contract": "contracts/Vesting_final.sol:Vesting",
						"label": "endDay",
						"offset": 0,
						"slot": "5",
						"type": "t_uint256"
					},
					{
						"astId": 302,
						"contract": "contracts/Vesting_final.sol:Vesting",
						"label": "locked",
						"offset": 0,
						"slot": "6",
						"type": "t_bool"
					},
					{
						"astId": 307,
						"contract": "contracts/Vesting_final.sol:Vesting",
						"label": "userInfo",
						"offset": 0,
						"slot": "7",
						"type": "t_mapping(t_address,t_struct(UserInfo)292_storage)"
					},
					{
						"astId": 313,
						"contract": "contracts/Vesting_final.sol:Vesting",
						"label": "userVestingInfo",
						"offset": 0,
						"slot": "8",
						"type": "t_mapping(t_address,t_array(t_struct(VestingInfo)285_storage)dyn_storage)"
					},
					{
						"astId": 317,
						"contract": "contracts/Vesting_final.sol:Vesting",
						"label": "allocatedUser",
						"offset": 0,
						"slot": "9",
						"type": "t_mapping(t_address,t_bool)"
					}
				],
				"types": {
					"t_address": {
						"encoding": "inplace",
						"label": "address",
						"numberOfBytes": "20"
					},
					"t_array(t_struct(VestingInfo)285_storage)dyn_storage": {
						"base": "t_struct(VestingInfo)285_storage",
						"encoding": "dynamic_array",
						"label": "struct Vesting.VestingInfo[]",
						"numberOfBytes": "32"
					},
					"t_bool": {
						"encoding": "inplace",
						"label": "bool",
						"numberOfBytes": "1"
					},
					"t_mapping(t_address,t_array(t_struct(VestingInfo)285_storage)dyn_storage)": {
						"encoding": "mapping",
						"key": "t_address",
						"label": "mapping(address => struct Vesting.VestingInfo[])",
						"numberOfBytes": "32",
						"value": "t_array(t_struct(VestingInfo)285_storage)dyn_storage"
					},
					"t_mapping(t_address,t_bool)": {
						"encoding": "mapping",
						"key": "t_address",
						"label": "mapping(address => bool)",
						"numberOfBytes": "32",
						"value": "t_bool"
					},
					"t_mapping(t_address,t_struct(UserInfo)292_storage)": {
						"encoding": "mapping",
						"key": "t_address",
						"label": "mapping(address => struct Vesting.UserInfo)",
						"numberOfBytes": "32",
						"value": "t_struct(UserInfo)292_storage"
					},
					"t_struct(UserInfo)292_storage": {
						"encoding": "inplace",
						"label": "struct Vesting.UserInfo",
						"members": [
							{
								"astId": 287,
								"contract": "contracts/Vesting_final.sol:Vesting",
								"label": "wallet",
								"offset": 0,
								"slot": "0",
								"type": "t_address"
							},
							{
								"astId": 289,
								"contract": "contracts/Vesting_final.sol:Vesting",
								"label": "totalAllocatedAmount",
								"offset": 0,
								"slot": "1",
								"type": "t_uint256"
							},
							{
								"astId": 291,
								"contract": "contracts/Vesting_final.sol:Vesting",
								"label": "totalClaimedAmount",
								"offset": 0,
								"slot": "2",
								"type": "t_uint256"
							}
						],
						"numberOfBytes": "96"
					},
					"t_struct(VestingInfo)285_storage": {
						"encoding": "inplace",
						"label": "struct Vesting.VestingInfo",
						"members": [
							{
								"astId": 278,
								"contract": "contracts/Vesting_final.sol:Vesting",
								"label": "allocatedAmount",
								"offset": 0,
								"slot": "0",
								"type": "t_uint256"
							},
							{
								"astId": 280,
								"contract": "contracts/Vesting_final.sol:Vesting",
								"label": "claimedAmount",
								"offset": 0,
								"slot": "1",
								"type": "t_uint256"
							},
							{
								"astId": 282,
								"contract": "contracts/Vesting_final.sol:Vesting",
								"label": "nextClaimTimestamp",
								"offset": 0,
								"slot": "2",
								"type": "t_uint256"
							},
							{
								"astId": 284,
								"contract": "contracts/Vesting_final.sol:Vesting",
								"label": "claimEndTimestamp",
								"offset": 0,
								"slot": "3",
								"type": "t_uint256"
							}
						],
						"numberOfBytes": "128"
					},
					"t_uint256": {
						"encoding": "inplace",
						"label": "uint256",
						"numberOfBytes": "32"
					}
				}
			},
			"userdoc": {
				"kind": "user",
				"methods": {},
				"version": 1
			}
		}
	}
}