{
  "_format": "hh-sol-artifact-1",
  "contractName": "Vesting",
  "sourceName": "contracts/Vesting.sol",
  "abi": [
    {
      "inputs": [
        {
          "internalType": "uint256",
          "name": "_adminComm",
          "type": "uint256"
        },
        {
          "internalType": "uint256",
          "name": "_vestingEndDay",
          "type": "uint256"
        },
        {
          "internalType": "uint256",
          "name": "_claimEndDay",
          "type": "uint256"
        }
      ],
      "stateMutability": "payable",
      "type": "constructor"
    },
    {
      "inputs": [
        {
          "internalType": "address",
          "name": "account",
          "type": "address"
        }
      ],
      "name": "OwnableUnauthorizedAccount",
      "type": "error"
    },
    {
      "anonymous": false,
      "inputs": [
        {
          "indexed": true,
          "internalType": "uint256",
          "name": "user",
          "type": "uint256"
        }
      ],
      "name": "AdminChanged",
      "type": "event"
    },
    {
      "anonymous": false,
      "inputs": [
        {
          "indexed": true,
          "internalType": "address",
          "name": "newOwner",
          "type": "address"
        }
      ],
      "name": "OwnerChanged",
      "type": "event"
    },
    {
      "anonymous": false,
      "inputs": [
        {
          "indexed": true,
          "internalType": "address",
          "name": "previousOwner",
          "type": "address"
        },
        {
          "indexed": true,
          "internalType": "address",
          "name": "newOwner",
          "type": "address"
        }
      ],
      "name": "OwnershipTransferred",
      "type": "event"
    },
    {
      "anonymous": false,
      "inputs": [
        {
          "indexed": true,
          "internalType": "uint256",
          "name": "vestingEndDay",
          "type": "uint256"
        },
        {
          "indexed": true,
          "internalType": "uint256",
          "name": "endDay",
          "type": "uint256"
        }
      ],
      "name": "VestingDayChanged",
      "type": "event"
    },
    {
      "anonymous": false,
      "inputs": [
        {
          "indexed": true,
          "internalType": "uint256",
          "name": "amount",
          "type": "uint256"
        }
      ],
      "name": "Withdraw",
      "type": "event"
    },
    {
      "inputs": [],
      "name": "acceptOwnership",
      "outputs": [],
      "stateMutability": "nonpayable",
      "type": "function"
    },
    {
      "inputs": [],
      "name": "adminComm",
      "outputs": [
        {
          "internalType": "uint256",
          "name": "",
          "type": "uint256"
        }
      ],
      "stateMutability": "view",
      "type": "function"
    },
    {
      "inputs": [
        {
          "internalType": "address",
          "name": "userAddress",
          "type": "address"
        }
      ],
      "name": "allocateForVesting",
      "outputs": [],
      "stateMutability": "payable",
      "type": "function"
    },
    {
      "inputs": [
        {
          "internalType": "address",
          "name": "",
          "type": "address"
        }
      ],
      "name": "allocatedUser",
      "outputs": [
        {
          "internalType": "bool",
          "name": "",
          "type": "bool"
        }
      ],
      "stateMutability": "view",
      "type": "function"
    },
    {
      "inputs": [],
      "name": "claimEndDay",
      "outputs": [
        {
          "internalType": "uint256",
          "name": "",
          "type": "uint256"
        }
      ],
      "stateMutability": "view",
      "type": "function"
    },
    {
      "inputs": [
        {
          "internalType": "address",
          "name": "user",
          "type": "address"
        },
        {
          "internalType": "uint256",
          "name": "id",
          "type": "uint256"
        }
      ],
      "name": "claimTokens",
      "outputs": [],
      "stateMutability": "nonpayable",
      "type": "function"
    },
    {
      "inputs": [
        {
          "internalType": "address",
          "name": "user",
          "type": "address"
        },
        {
          "internalType": "uint256",
          "name": "id",
          "type": "uint256"
        }
      ],
      "name": "claimTotalTokens",
      "outputs": [],
      "stateMutability": "payable",
      "type": "function"
    },
    {
      "inputs": [
        {
          "internalType": "uint256",
          "name": "_amount",
          "type": "uint256"
        }
      ],
      "name": "drainTokens",
      "outputs": [],
      "stateMutability": "payable",
      "type": "function"
    },
    {
      "inputs": [],
      "name": "endDay",
      "outputs": [
        {
          "internalType": "uint256",
          "name": "",
          "type": "uint256"
        }
      ],
      "stateMutability": "view",
      "type": "function"
    },
    {
      "inputs": [
        {
          "internalType": "address",
          "name": "wallet",
          "type": "address"
        },
        {
          "internalType": "uint256",
          "name": "id",
          "type": "uint256"
        }
      ],
      "name": "getUnlockedTokenAmount",
      "outputs": [
        {
          "internalType": "uint256",
          "name": "",
          "type": "uint256"
        },
        {
          "internalType": "uint256",
          "name": "",
          "type": "uint256"
        }
      ],
      "stateMutability": "view",
      "type": "function"
    },
    {
      "inputs": [
        {
          "internalType": "address",
          "name": "userAddress",
          "type": "address"
        }
      ],
      "name": "getUserTotalVesting",
      "outputs": [
        {
          "internalType": "uint256",
          "name": "",
          "type": "uint256"
        }
      ],
      "stateMutability": "view",
      "type": "function"
    },
    {
      "inputs": [
        {
          "internalType": "address",
          "name": "userAddress",
          "type": "address"
        },
        {
          "internalType": "uint256",
          "name": "id",
          "type": "uint256"
        }
      ],
      "name": "getVestingInfo",
      "outputs": [
        {
          "components": [
            {
              "internalType": "uint256",
              "name": "allocatedAmount",
              "type": "uint256"
            },
            {
              "internalType": "uint256",
              "name": "claimedAmount",
              "type": "uint256"
            },
            {
              "internalType": "uint256",
              "name": "nextClaimTimestamp",
              "type": "uint256"
            },
            {
              "internalType": "uint256",
              "name": "claimEndTimestamp",
              "type": "uint256"
            }
          ],
          "internalType": "struct Vesting.VestingInfo",
          "name": "",
          "type": "tuple"
        }
      ],
      "stateMutability": "view",
      "type": "function"
    },
    {
      "inputs": [],
      "name": "locked",
      "outputs": [
        {
          "internalType": "bool",
          "name": "",
          "type": "bool"
        }
      ],
      "stateMutability": "view",
      "type": "function"
    },
    {
      "inputs": [],
      "name": "owner",
      "outputs": [
        {
          "internalType": "address",
          "name": "",
          "type": "address"
        }
      ],
      "stateMutability": "view",
      "type": "function"
    },
    {
      "inputs": [],
      "name": "pendingOwner",
      "outputs": [
        {
          "internalType": "address",
          "name": "",
          "type": "address"
        }
      ],
      "stateMutability": "view",
      "type": "function"
    },
    {
      "inputs": [
        {
          "internalType": "address",
          "name": "newOwner",
          "type": "address"
        }
      ],
      "name": "transferOwnership",
      "outputs": [],
      "stateMutability": "nonpayable",
      "type": "function"
    },
    {
      "inputs": [
        {
          "internalType": "uint256",
          "name": "commission",
          "type": "uint256"
        }
      ],
      "name": "updateAdminCommission",
      "outputs": [],
      "stateMutability": "payable",
      "type": "function"
    },
    {
      "inputs": [
        {
          "internalType": "uint256",
          "name": "inputVestingEndDay",
          "type": "uint256"
        },
        {
          "internalType": "uint256",
          "name": "inputClaimEndDay",
          "type": "uint256"
        }
      ],
      "name": "updateVestingDays",
      "outputs": [],
      "stateMutability": "payable",
      "type": "function"
    },
    {
      "inputs": [
        {
          "internalType": "address",
          "name": "user",
          "type": "address"
        },
        {
          "internalType": "uint256",
          "name": "id",
          "type": "uint256"
        },
        {
          "internalType": "uint256",
          "name": "_newVestingStartTimestamp",
          "type": "uint256"
        }
      ],
      "name": "updateVestingStartTimestamp",
      "outputs": [],
      "stateMutability": "payable",
      "type": "function"
    },
    {
      "inputs": [
        {
          "internalType": "address",
          "name": "",
          "type": "address"
        }
      ],
      "name": "userInfo",
      "outputs": [
        {
          "internalType": "address",
          "name": "wallet",
          "type": "address"
        },
        {
          "internalType": "uint256",
          "name": "totalAllocatedAmount",
          "type": "uint256"
        },
        {
          "internalType": "uint256",
          "name": "totalClaimedAmount",
          "type": "uint256"
        }
      ],
      "stateMutability": "view",
      "type": "function"
    },
    {
      "inputs": [],
      "name": "vestingEndDay",
      "outputs": [
        {
          "internalType": "uint256",
          "name": "",
          "type": "uint256"
        }
      ],
      "stateMutability": "view",
      "type": "function"
    },
    {
      "inputs": [],
      "name": "withdraw",
      "outputs": [],
      "stateMutability": "nonpayable",
      "type": "function"
    }
  ],
  "bytecode": "0x6080604052604051620032953803806200329583398181016040528101906200002991906200039c565b620000496200003d6200011a60201b60201c565b6200012260201b60201c565b600082036200008f576040517f08c379a0000000000000000000000000000000000000000000000000000000008152600401620000869062000459565b60405180910390fd5b60008103620000d5576040517f08c379a0000000000000000000000000000000000000000000000000000000008152600401620000cc90620004cb565b60405180910390fd5b826002819055506201518082620000ed91906200051c565b60048190555062015180816200010491906200051c565b600381905550806005819055505050506200064b565b600033905090565b600160006101000a81549073ffffffffffffffffffffffffffffffffffffffff02191690558073ffffffffffffffffffffffffffffffffffffffff167fa2ea9883a321a3e97b8266c2b078bfeec6d50c711ed71f874a90d500ae2eaf3660405160405180910390a26200019b816200019e60201b60201c565b50565b6000620001b06200033360201b60201c565b9050600073ffffffffffffffffffffffffffffffffffffffff168273ffffffffffffffffffffffffffffffffffffffff160362000224576040517f08c379a00000000000000000000000000000000000000000000000000000000081526004016200021b90620005b7565b60405180910390fd5b8073ffffffffffffffffffffffffffffffffffffffff168273ffffffffffffffffffffffffffffffffffffffff160362000295576040517f08c379a00000000000000000000000000000000000000000000000000000000081526004016200028c9062000629565b60405180910390fd5b8173ffffffffffffffffffffffffffffffffffffffff168173ffffffffffffffffffffffffffffffffffffffff167f8be0079c531659141344cd1fd0a4f28419497f9722a3daafe3b4186f6b6457e060405160405180910390a3816000806101000a81548173ffffffffffffffffffffffffffffffffffffffff021916908373ffffffffffffffffffffffffffffffffffffffff1602179055505050565b60008060009054906101000a900473ffffffffffffffffffffffffffffffffffffffff16905090565b600080fd5b6000819050919050565b620003768162000361565b81146200038257600080fd5b50565b60008151905062000396816200036b565b92915050565b600080600060608486031215620003b857620003b76200035c565b5b6000620003c88682870162000385565b9350506020620003db8682870162000385565b9250506040620003ee8682870162000385565b9150509250925092565b600082825260208201905092915050565b7f56657374696e6720656e6420646179206973207a65726f000000000000000000600082015250565b600062000441601783620003f8565b91506200044e8262000409565b602082019050919050565b60006020820190508181036000830152620004748162000432565b9050919050565b7f436c61696d20656e6420646179206973207a65726f0000000000000000000000600082015250565b6000620004b3601583620003f8565b9150620004c0826200047b565b602082019050919050565b60006020820190508181036000830152620004e681620004a4565b9050919050565b7f4e487b7100000000000000000000000000000000000000000000000000000000600052601160045260246000fd5b6000620005298262000361565b9150620005368362000361565b9250828202620005468162000361565b9150828204841483151762000560576200055f620004ed565b5b5092915050565b7f4e6577206f776e65722069732073616d65203000000000000000000000000000600082015250565b60006200059f601383620003f8565b9150620005ac8262000567565b602082019050919050565b60006020820190508181036000830152620005d28162000590565b9050919050565b7f4e6577206f776e65722069732073616d65206173206f6c640000000000000000600082015250565b600062000611601883620003f8565b91506200061e82620005d9565b602082019050919050565b60006020820190508181036000830152620006448162000602565b9050919050565b612c3a806200065b6000396000f3fe6080604052600436106101355760003560e01c806390acbc83116100ab578063caef66011161006f578063caef6601146103b3578063cf309012146103f0578063e30c39781461041b578063ed58ef1114610446578063f2fde38b14610471578063fe417fa51461049a57610135565b806390acbc83146102f7578063937b8e1614610313578063a39d749414610350578063a90aa4b41461036c578063aa1ced321461039757610135565b80635bc269e9116100fd5780635bc269e9146102155780635dc0799c1461023157806379ba50971461024d5780637a5fa298146102645780638da5cb5b146102a157806390611561146102cc57610135565b8063158626691461013a5780631959a002146101655780633ccfd60b146101a4578063501b1de0146101bb57806355b1f1a3146101f9575b600080fd5b34801561014657600080fd5b5061014f6104c3565b60405161015c91906122a2565b60405180910390f35b34801561017157600080fd5b5061018c60048036038101906101879190612320565b6104c9565b60405161019b9392919061235c565b60405180910390f35b3480156101b057600080fd5b506101b9610513565b005b3480156101c757600080fd5b506101e260048036038101906101dd91906123bf565b610665565b6040516101f09291906123ff565b60405180910390f35b610213600480360381019061020e91906123bf565b61095a565b005b61022f600480360381019061022a9190612428565b610d38565b005b61024b60048036038101906102469190612320565b610e8b565b005b34801561025957600080fd5b50610262611234565b005b34801561027057600080fd5b5061028b600480360381019061028691906123bf565b6112c3565b60405161029891906124b9565b60405180910390f35b3480156102ad57600080fd5b506102b6611365565b6040516102c391906124d4565b60405180910390f35b3480156102d857600080fd5b506102e161138e565b6040516102ee91906122a2565b60405180910390f35b610311600480360381019061030c9190612428565b611394565b005b34801561031f57600080fd5b5061033a60048036038101906103359190612320565b611511565b604051610347919061250a565b60405180910390f35b61036a60048036038101906103659190612525565b611531565b005b34801561037857600080fd5b50610381611709565b60405161038e91906122a2565b60405180910390f35b6103b160048036038101906103ac9190612578565b61170f565b005b3480156103bf57600080fd5b506103da60048036038101906103d59190612320565b611986565b6040516103e791906122a2565b60405180910390f35b3480156103fc57600080fd5b506104056119d2565b604051610412919061250a565b60405180910390f35b34801561042757600080fd5b506104306119e5565b60405161043d91906124d4565b60405180910390f35b34801561045257600080fd5b5061045b611a0f565b60405161046891906122a2565b60405180910390f35b34801561047d57600080fd5b5061049860048036038101906104939190612320565b611a15565b005b3480156104a657600080fd5b506104c160048036038101906104bc91906123bf565b611c75565b005b60055481565b60076020528060005260406000206000915090508060000160009054906101000a900473ffffffffffffffffffffffffffffffffffffffff16908060010154908060020154905083565b61051b61205e565b73ffffffffffffffffffffffffffffffffffffffff16610539611365565b73ffffffffffffffffffffffffffffffffffffffff161461058f576040517f08c379a000000000000000000000000000000000000000000000000000000000815260040161058690612615565b60405180910390fd5b600660009054906101000a900460ff16156105df576040517f08c379a00000000000000000000000000000000000000000000000000000000081526004016105d690612681565b60405180910390fd5b6001600660006101000a81548160ff021916908315150217905550610602611365565b73ffffffffffffffffffffffffffffffffffffffff166108fc479081150290604051600060405180830381858888f19350505050158015610647573d6000803e3d6000fd5b506000600660006101000a81548160ff021916908315150217905550565b6000806000600860008673ffffffffffffffffffffffffffffffffffffffff1673ffffffffffffffffffffffffffffffffffffffff168152602001908152602001600020805480602002602001604051908101604052809291908181526020016000905b828210156107235783829060005260206000209060040201604051806080016040529081600082015481526020016001820154815260200160028201548152602001600382015481525050815260200190600101906106c9565b505050509050600080600960008873ffffffffffffffffffffffffffffffffffffffff1673ffffffffffffffffffffffffffffffffffffffff16815260200190815260200160002060009054906101000a900460ff1661078c5760008094509450505050610953565b6000600860008973ffffffffffffffffffffffffffffffffffffffff1673ffffffffffffffffffffffffffffffffffffffff16815260200190815260200160002087815481106107df576107de6126a1565b5b90600052602060002090600402016000015490506000600860008a73ffffffffffffffffffffffffffffffffffffffff1673ffffffffffffffffffffffffffffffffffffffff1681526020019081526020016000208881548110610846576108456126a1565b5b9060005260206000209060040201600101549050600085898151811061086f5761086e6126a1565b5b60200260200101516040015190506000868a81518110610892576108916126a1565b5b6020026020010151606001519050600042905082811061092357600083146109225760008282116108c357816108d3565b62015180836108d291906126ff565b5b905060006201518085836108e791906126ff565b6108f19190612733565b905062015180816109029190612796565b9750600554888861091391906127c7565b61091d9190612796565b985050505b5b838561092f91906126ff565b871061094457838561094191906126ff565b96505b86869950995050505050505050505b9250929050565b61096261205e565b73ffffffffffffffffffffffffffffffffffffffff16610980611365565b73ffffffffffffffffffffffffffffffffffffffff16146109d6576040517f08c379a00000000000000000000000000000000000000000000000000000000081526004016109cd90612615565b60405180910390fd5b600660009054906101000a900460ff1615610a26576040517f08c379a0000000000000000000000000000000000000000000000000000000008152600401610a1d90612681565b60405180910390fd5b6001600660006101000a81548160ff0219169083151502179055506000600760008473ffffffffffffffffffffffffffffffffffffffff1673ffffffffffffffffffffffffffffffffffffffff1681526020019081526020016000209050600073ffffffffffffffffffffffffffffffffffffffff168160000160009054906101000a900473ffffffffffffffffffffffffffffffffffffffff1673ffffffffffffffffffffffffffffffffffffffff1603610b17576040517f08c379a0000000000000000000000000000000000000000000000000000000008152600401610b0e90612855565b60405180910390fd5b6000600860008573ffffffffffffffffffffffffffffffffffffffff1673ffffffffffffffffffffffffffffffffffffffff1681526020019081526020016000208381548110610b6a57610b696126a1565b5b90600052602060002090600402019050600081600101548260000154610b9091906126ff565b9050600060018210610d155761271060025483610bad91906127c7565b610bb79190612796565b90506000836002018190555081846002016000828254610bd79190612733565b9250508190555081846001016000828254610bf291906126ff565b9250508190555081836001016000828254610c0d9190612733565b9250508190555081836000016000828254610c2891906126ff565b9250508190555060008114610c8657610c3f611365565b73ffffffffffffffffffffffffffffffffffffffff166108fc829081150290604051600060405180830381858888f19350505050158015610c84573d6000803e3d6000fd5b505b60008183610c9491906126ff565b9050807f5b6b431d4476a211bb7d41c20d1aab9ae2321deee0d20be3d9fc9b1093fa6e3d60405160405180910390a260008114610d13578673ffffffffffffffffffffffffffffffffffffffff166108fc829081150290604051600060405180830381858888f19350505050158015610d11573d6000803e3d6000fd5b505b505b505050506000600660006101000a81548160ff0219169083151502179055505050565b610d4061205e565b73ffffffffffffffffffffffffffffffffffffffff16610d5e611365565b73ffffffffffffffffffffffffffffffffffffffff1614610db4576040517f08c379a0000000000000000000000000000000000000000000000000000000008152600401610dab90612615565b60405180910390fd5b600660009054906101000a900460ff1615610e04576040517f08c379a0000000000000000000000000000000000000000000000000000000008152600401610dfb90612681565b60405180910390fd5b6001600660006101000a81548160ff021916908315150217905550610e27611365565b73ffffffffffffffffffffffffffffffffffffffff166108fc829081150290604051600060405180830381858888f19350505050158015610e6c573d6000803e3d6000fd5b506000600660006101000a81548160ff02191690831515021790555050565b610e9361205e565b73ffffffffffffffffffffffffffffffffffffffff16610eb1611365565b73ffffffffffffffffffffffffffffffffffffffff1614610f07576040517f08c379a0000000000000000000000000000000000000000000000000000000008152600401610efe90612615565b60405180910390fd5b600660009054906101000a900460ff1615610f57576040517f08c379a0000000000000000000000000000000000000000000000000000000008152600401610f4e90612681565b60405180910390fd5b6001600660006101000a81548160ff0219169083151502179055506001600960008373ffffffffffffffffffffffffffffffffffffffff1673ffffffffffffffffffffffffffffffffffffffff16815260200190815260200160002060006101000a81548160ff0219169083151502179055506000600760008373ffffffffffffffffffffffffffffffffffffffff1673ffffffffffffffffffffffffffffffffffffffff16815260200190815260200160002090506000600860008473ffffffffffffffffffffffffffffffffffffffff1673ffffffffffffffffffffffffffffffffffffffff16815260200190815260200160002090506000600454426110609190612733565b9050838360000160006101000a81548173ffffffffffffffffffffffffffffffffffffffff021916908373ffffffffffffffffffffffffffffffffffffffff160217905550600960008573ffffffffffffffffffffffffffffffffffffffff1673ffffffffffffffffffffffffffffffffffffffff16815260200190815260200160002060009054906101000a900460ff1615611124573483600101600082825461110b9190612733565b9250508190555082600201548360020181905550611138565b348360010181905550600083600201819055505b81604051806080016040528034815260200160008152602001838152602001600354846111659190612733565b81525090806001815401808255809150506001900390600052602060002090600402016000909190919091506000820151816000015560208201518160010155604082015181600201556060820151816003015550506001600960008673ffffffffffffffffffffffffffffffffffffffff1673ffffffffffffffffffffffffffffffffffffffff16815260200190815260200160002060006101000a81548160ff0219169083151502179055505050506000600660006101000a81548160ff02191690831515021790555050565b600061123e61205e565b90508073ffffffffffffffffffffffffffffffffffffffff1661125f6119e5565b73ffffffffffffffffffffffffffffffffffffffff16146112b757806040517f118cdaa70000000000000000000000000000000000000000000000000000000081526004016112ae91906124d4565b60405180910390fd5b6112c081612066565b50565b6112cb612261565b600860008473ffffffffffffffffffffffffffffffffffffffff1673ffffffffffffffffffffffffffffffffffffffff168152602001908152602001600020828154811061131c5761131b6126a1565b5b9060005260206000209060040201604051806080016040529081600082015481526020016001820154815260200160028201548152602001600382015481525050905092915050565b60008060009054906101000a900473ffffffffffffffffffffffffffffffffffffffff16905090565b60025481565b61139c61205e565b73ffffffffffffffffffffffffffffffffffffffff166113ba611365565b73ffffffffffffffffffffffffffffffffffffffff1614611410576040517f08c379a000000000000000000000000000000000000000000000000000000000815260040161140790612615565b60405180910390fd5b600660009054906101000a900460ff1615611460576040517f08c379a000000000000000000000000000000000000000000000000000000000815260040161145790612681565b60405180910390fd5b6001600660006101000a81548160ff02191690831515021790555080600254036114bf576040517f08c379a00000000000000000000000000000000000000000000000000000000081526004016114b6906128c1565b60405180910390fd5b807f4efe83add28265e9d321d1fed828b67205560fca9df811911361a29f2f5458fb60405160405180910390a2806002819055506000600660006101000a81548160ff02191690831515021790555050565b60096020528060005260406000206000915054906101000a900460ff1681565b61153961205e565b73ffffffffffffffffffffffffffffffffffffffff16611557611365565b73ffffffffffffffffffffffffffffffffffffffff16146115ad576040517f08c379a00000000000000000000000000000000000000000000000000000000081526004016115a490612615565b60405180910390fd5b600660009054906101000a900460ff16156115fd576040517f08c379a00000000000000000000000000000000000000000000000000000000081526004016115f490612681565b60405180910390fd5b6001600660006101000a81548160ff02191690831515021790555060008103611629576116286128e1565b5b600073ffffffffffffffffffffffffffffffffffffffff168373ffffffffffffffffffffffffffffffffffffffff1603611666576116656128e1565b5b6000600860008573ffffffffffffffffffffffffffffffffffffffff1673ffffffffffffffffffffffffffffffffffffffff16815260200190815260200160002083815481106116b9576116b86126a1565b5b90600052602060002090600402019050818160020181905550600354826116e09190612733565b8160030181905550506000600660006101000a81548160ff021916908315150217905550505050565b60035481565b61171761205e565b73ffffffffffffffffffffffffffffffffffffffff16611735611365565b73ffffffffffffffffffffffffffffffffffffffff161461178b576040517f08c379a000000000000000000000000000000000000000000000000000000000815260040161178290612615565b60405180910390fd5b600660009054906101000a900460ff16156117db576040517f08c379a00000000000000000000000000000000000000000000000000000000081526004016117d290612681565b60405180910390fd5b6001600660006101000a81548160ff02191690831515021790555060008203611839576040517f08c379a00000000000000000000000000000000000000000000000000000000081526004016118309061295c565b60405180910390fd5b600454820361187d576040517f08c379a0000000000000000000000000000000000000000000000000000000008152600401611874906129c8565b60405180910390fd5b600081036118c0576040517f08c379a00000000000000000000000000000000000000000000000000000000081526004016118b790612a34565b60405180910390fd5b6003548103611904576040517f08c379a00000000000000000000000000000000000000000000000000000000081526004016118fb90612aa0565b60405180910390fd5b6005546004547f7e70af40fa5b07e32a12e230761e17276f9de52c79c1e1ace9b58c62041f0a6260405160405180910390a3620151808261194591906127c7565b600481905550620151808161195a91906127c7565b600381905550806005819055506000600660006101000a81548160ff0219169083151502179055505050565b6000600860008373ffffffffffffffffffffffffffffffffffffffff1673ffffffffffffffffffffffffffffffffffffffff168152602001908152602001600020805490509050919050565b600660009054906101000a900460ff1681565b6000600160009054906101000a900473ffffffffffffffffffffffffffffffffffffffff16905090565b60045481565b611a1d61205e565b73ffffffffffffffffffffffffffffffffffffffff16611a3b611365565b73ffffffffffffffffffffffffffffffffffffffff1614611a91576040517f08c379a0000000000000000000000000000000000000000000000000000000008152600401611a8890612615565b60405180910390fd5b6000611a9b611365565b9050600073ffffffffffffffffffffffffffffffffffffffff168273ffffffffffffffffffffffffffffffffffffffff1603611b0c576040517f08c379a0000000000000000000000000000000000000000000000000000000008152600401611b0390612b0c565b60405180910390fd5b8073ffffffffffffffffffffffffffffffffffffffff168273ffffffffffffffffffffffffffffffffffffffff1603611b7a576040517f08c379a0000000000000000000000000000000000000000000000000000000008152600401611b7190612b78565b60405180910390fd5b6000600160009054906101000a900473ffffffffffffffffffffffffffffffffffffffff1690508073ffffffffffffffffffffffffffffffffffffffff168373ffffffffffffffffffffffffffffffffffffffff1614611c70578273ffffffffffffffffffffffffffffffffffffffff168273ffffffffffffffffffffffffffffffffffffffff167f8be0079c531659141344cd1fd0a4f28419497f9722a3daafe3b4186f6b6457e060405160405180910390a382600160006101000a81548173ffffffffffffffffffffffffffffffffffffffff021916908373ffffffffffffffffffffffffffffffffffffffff1602179055505b505050565b600660009054906101000a900460ff1615611cc5576040517f08c379a0000000000000000000000000000000000000000000000000000000008152600401611cbc90612681565b60405180910390fd5b6001600660006101000a81548160ff021916908315150217905550600960008373ffffffffffffffffffffffffffffffffffffffff1673ffffffffffffffffffffffffffffffffffffffff16815260200190815260200160002060009054906101000a900460ff16611d6c576040517f08c379a0000000000000000000000000000000000000000000000000000000008152600401611d6390612be4565b60405180910390fd5b6000600760008473ffffffffffffffffffffffffffffffffffffffff1673ffffffffffffffffffffffffffffffffffffffff16815260200190815260200160002090506000600860008573ffffffffffffffffffffffffffffffffffffffff1673ffffffffffffffffffffffffffffffffffffffff1681526020019081526020016000208381548110611e0257611e016126a1565b5b90600052602060002090600402019050600073ffffffffffffffffffffffffffffffffffffffff168260000160009054906101000a900473ffffffffffffffffffffffffffffffffffffffff1673ffffffffffffffffffffffffffffffffffffffff1603611e7357611e726128e1565b5b600080611ea48460000160009054906101000a900473ffffffffffffffffffffffffffffffffffffffff1686610665565b915091506000821115611ff057600061271060025484611ec491906127c7565b611ece9190612796565b9050611ed8611365565b73ffffffffffffffffffffffffffffffffffffffff166108fc829081150290604051600060405180830381858888f19350505050158015611f1d573d6000803e3d6000fd5b508673ffffffffffffffffffffffffffffffffffffffff166108fc8285611f4491906126ff565b9081150290604051600060405180830381858888f19350505050158015611f6f573d6000803e3d6000fd5b50827f5b6b431d4476a211bb7d41c20d1aab9ae2321deee0d20be3d9fc9b1093fa6e3d60405160405180910390a282856002016000828254611fb19190612733565b9250508190555082856001016000828254611fcc91906126ff565b9250508190555082846001016000828254611fe79190612733565b92505081905550505b6000620151808261200191906127c7565b84600201546120109190612733565b90508360000154846001015403612030576000846002018190555061203a565b8084600201819055505b50505050506000600660006101000a81548160ff0219169083151502179055505050565b600033905090565b600160006101000a81549073ffffffffffffffffffffffffffffffffffffffff02191690558073ffffffffffffffffffffffffffffffffffffffff167fa2ea9883a321a3e97b8266c2b078bfeec6d50c711ed71f874a90d500ae2eaf3660405160405180910390a26120d7816120da565b50565b60006120e4611365565b9050600073ffffffffffffffffffffffffffffffffffffffff168273ffffffffffffffffffffffffffffffffffffffff1603612155576040517f08c379a000000000000000000000000000000000000000000000000000000000815260040161214c90612b0c565b60405180910390fd5b8073ffffffffffffffffffffffffffffffffffffffff168273ffffffffffffffffffffffffffffffffffffffff16036121c3576040517f08c379a00000000000000000000000000000000000000000000000000000000081526004016121ba90612b78565b60405180910390fd5b8173ffffffffffffffffffffffffffffffffffffffff168173ffffffffffffffffffffffffffffffffffffffff167f8be0079c531659141344cd1fd0a4f28419497f9722a3daafe3b4186f6b6457e060405160405180910390a3816000806101000a81548173ffffffffffffffffffffffffffffffffffffffff021916908373ffffffffffffffffffffffffffffffffffffffff1602179055505050565b6040518060800160405280600081526020016000815260200160008152602001600081525090565b6000819050919050565b61229c81612289565b82525050565b60006020820190506122b76000830184612293565b92915050565b600080fd5b600073ffffffffffffffffffffffffffffffffffffffff82169050919050565b60006122ed826122c2565b9050919050565b6122fd816122e2565b811461230857600080fd5b50565b60008135905061231a816122f4565b92915050565b600060208284031215612336576123356122bd565b5b60006123448482850161230b565b91505092915050565b612356816122e2565b82525050565b6000606082019050612371600083018661234d565b61237e6020830185612293565b61238b6040830184612293565b949350505050565b61239c81612289565b81146123a757600080fd5b50565b6000813590506123b981612393565b92915050565b600080604083850312156123d6576123d56122bd565b5b60006123e48582860161230b565b92505060206123f5858286016123aa565b9150509250929050565b60006040820190506124146000830185612293565b6124216020830184612293565b9392505050565b60006020828403121561243e5761243d6122bd565b5b600061244c848285016123aa565b91505092915050565b61245e81612289565b82525050565b60808201600082015161247a6000850182612455565b50602082015161248d6020850182612455565b5060408201516124a06040850182612455565b5060608201516124b36060850182612455565b50505050565b60006080820190506124ce6000830184612464565b92915050565b60006020820190506124e9600083018461234d565b92915050565b60008115159050919050565b612504816124ef565b82525050565b600060208201905061251f60008301846124fb565b92915050565b60008060006060848603121561253e5761253d6122bd565b5b600061254c8682870161230b565b935050602061255d868287016123aa565b925050604061256e868287016123aa565b9150509250925092565b6000806040838503121561258f5761258e6122bd565b5b600061259d858286016123aa565b92505060206125ae858286016123aa565b9150509250929050565b600082825260208201905092915050565b7f43616c6c6572206973206e6f7420746865206f776e6572000000000000000000600082015250565b60006125ff6017836125b8565b915061260a826125c9565b602082019050919050565b6000602082019050818103600083015261262e816125f2565b9050919050565b7f4e6f2072652d656e7472616e6379000000000000000000000000000000000000600082015250565b600061266b600e836125b8565b915061267682612635565b602082019050919050565b6000602082019050818103600083015261269a8161265e565b9050919050565b7f4e487b7100000000000000000000000000000000000000000000000000000000600052603260045260246000fd5b7f4e487b7100000000000000000000000000000000000000000000000000000000600052601160045260246000fd5b600061270a82612289565b915061271583612289565b925082820390508181111561272d5761272c6126d0565b5b92915050565b600061273e82612289565b915061274983612289565b9250828201905080821115612761576127606126d0565b5b92915050565b7f4e487b7100000000000000000000000000000000000000000000000000000000600052601260045260246000fd5b60006127a182612289565b91506127ac83612289565b9250826127bc576127bb612767565b5b828204905092915050565b60006127d282612289565b91506127dd83612289565b92508282026127eb81612289565b91508282048414831517612802576128016126d0565b5b5092915050565b7f496e76616c696420757365720000000000000000000000000000000000000000600082015250565b600061283f600c836125b8565b915061284a82612809565b602082019050919050565b6000602082019050818103600083015261286e81612832565b9050919050565b7f4e65772076616c75652073616d65206173206f6c640000000000000000000000600082015250565b60006128ab6015836125b8565b91506128b682612875565b602082019050919050565b600060208201905081810360008301526128da8161289e565b9050919050565b7f4e487b7100000000000000000000000000000000000000000000000000000000600052600160045260246000fd5b7f56657374696e6720656e6420646179206973207a65726f000000000000000000600082015250565b60006129466017836125b8565b915061295182612910565b602082019050919050565b6000602082019050818103600083015261297581612939565b9050919050565b7f56657374696e6720656e642076616c75652069732073616d65206173206f6c64600082015250565b60006129b26020836125b8565b91506129bd8261297c565b602082019050919050565b600060208201905081810360008301526129e1816129a5565b9050919050565b7f436c61696d20656e6420646179206973207a65726f0000000000000000000000600082015250565b6000612a1e6015836125b8565b9150612a29826129e8565b602082019050919050565b60006020820190508181036000830152612a4d81612a11565b9050919050565b7f436c61696d20656e642076616c75652069732073616d65206173206f6c640000600082015250565b6000612a8a601e836125b8565b9150612a9582612a54565b602082019050919050565b60006020820190508181036000830152612ab981612a7d565b9050919050565b7f4e6577206f776e65722069732073616d65203000000000000000000000000000600082015250565b6000612af66013836125b8565b9150612b0182612ac0565b602082019050919050565b60006020820190508181036000830152612b2581612ae9565b9050919050565b7f4e6577206f776e65722069732073616d65206173206f6c640000000000000000600082015250565b6000612b626018836125b8565b9150612b6d82612b2c565b602082019050919050565b60006020820190508181036000830152612b9181612b55565b9050919050565b7f46756e6473206e6f7420616c6c6f636174656420746f20746869732075736572600082015250565b6000612bce6020836125b8565b9150612bd982612b98565b602082019050919050565b60006020820190508181036000830152612bfd81612bc1565b905091905056fea26469706673582212209a6abc002e166d31e3111b03c5bd133b69f1aee5c2d24198fd3f28e84c8af85d64736f6c63430008180033",
  "linkReferences": {},
  "deployedLinkReferences": {}
}